:020000040800F2
:10000000604A0020250300083B250008A5220008BF
:10001000392500087F050008952900080000000028
:100020000000000000000000000000006502000861
:100030006106000800000000C1020008A5250008B4
:100040003F0300083F0300083F0300083F03000888
:100050003F0300083F0300083F0300083F03000878
:100060003F0300083F0300083F0300083F03000868
:10007000CD0500083F0300083F0300083F030008C8
:100080003F0300083F0300083F0300083F03000848
:10009000810500083F0300083F0300083F030008F4
:1000A0003F0300083F0300083F0300083F03000828
:1000B0003F0300083F0300083F0300083F03000818
:1000C0003F0300083F0300083F0300083F03000808
:1000D0003F0300083F0300083F030008D52800083D
:1000E0003F0300083F0300083F0300083F030008E8
:1000F0003F0300083F0300083F0300083F030008D8
:100100003F0300083F0300083F0300083F030008C7
:100110003F030008612600083F0300083F03000872
:100120003F0300083F0300083F0300083F030008A7
:100130003F03000800000000000000003F0300082B
:100140003F0300083F0300083F0300083F03000887
:100150003F0300083F030008D9050008892900086B
:100160003F0300083F0300083F0300083F03000867
:100170003F0300083F0300083F03000800000000A1
:10018000000000003F030008000000000000000025
:100190003F03000800000000000000003F030008CB
:1001A0000000000000000000000000003F03000805
:1001B0003F0300083F0300083F0300083F03000817
:1001C0003F03000800F002F800F03CF80AA090E8B5
:1001D000000C82448344AAF10107DA4501D100F002
:1001E00031F8AFF2090EBAE80F0013F0010F18BF93
:1001F000FB1A43F001031847F035000010360000E9
:10020000103A24BF78C878C1FAD8520724BF30C842
:1002100030C144BF04680C60704700000023002414
:1002200000250026103A28BF78C1FBD8520728BF06
:1002300030C148BF0B6070471FB503F097FA1FBD70
:1002400010B510BD00F061F91146FFF7F5FF02F09F
:10025000FFFB00F07FF903B4FFF7F2FF03BC00F0EF
:1002600087F900002C4B19680868B0E8F04F80F35C
:100270000988BFF36F8F4FF0000080F3118870473B
:100280000000000008480068006880F308884FF00C
:10029000000080F3148862B661B6BFF34F8FBFF3DE
:1002A0006F8F00DF00BF00BF08ED00E0DFF80C003B
:1002B000016841F470010160704700BF88ED00E003
:1002C000EFF30980BFF36F8F134B1A681EF0100F06
:1002D00008BF20ED108A20E9F04F106009B44FF0FC
:1002E000500080F31188BFF34F8FBFF36F8F03F07F
:1002F00051F84FF0000080F3118809BC19680868B4
:10030000B0E8F04F1EF0100F08BFB0EC108A80F379
:100310000988BFF36F8F70471C000020EFF3058042
:10032000704700000948804709480047FEE7FEE79C
:10033000FEE7FEE7FEE7FEE7FEE7FEE7FEE7FEE795
:1003400004480549054A064B70470000512600083D
:10035000C501000860440020604A0020604600207B
:100360006046002053EA020C00F069802DE9F04B52
:100370004FF00006002B1FBFB3FA83F503FA05F414
:1003800024FA05F65E4012BF1643B2FA82F502FA6D
:1003900005F4C5F120051EBF22FA05FC44EA0C0451
:1003A000203556EA044C4FEA144418BF641C4FF041
:1003B00000084FF00009904271EB030C39D300297B
:1003C00019BFB1FA81F701FA07F6B0FA80F700FA1F
:1003D00007F6C7F120071EBF20FA07FC46EA0C0605
:1003E0002037B6FBF4FCA7EB0507103F07F01F0B07
:1003F000CBF120060CFA0BFB2CFA06F644BFB346F1
:100400000026202FA4BF5E464FF0000B5BEA060CCF
:1004100008BF4FF0010B19EB0B09ABFB027C48EB5B
:100420000608C01B06FB02CC0BFB03CC71EB0C01D6
:10043000C1E70B46024641464846BDE8F08B13B57E
:100440004FF000004FF00001AFF30080BDE81C400A
:10045000704710B5203AC0F00B80B1E81850203A30
:10046000A0E81850B1E81850A0E81850BFF4F5AF54
:100470005FEA027C24BFB1E81850A0E8185044BFDE
:1004800018C918C0BDE810405FEA827C24BF51F84B
:10049000043B40F8043B08BF7047D20728BF31F83F
:1004A000023B48BF11F8012B28BF20F8023B48BF90
:1004B00000F8012B70474FF0000200B51346944638
:1004C0009646203922BFA0E80C50A0E80C50B1F1AC
:1004D0002001BFF4F7AF090728BFA0E80C5048BFC0
:1004E0000CC05DF804EB890028BF40F8042B08BF5E
:1004F000704748BF20F8022B11F0804F18BF00F85A
:10050000012B7047704770477047754600F02CF814
:10051000AE4605006946534620F00700854618B0F0
:1005200020B5FFF70DFFBDE820404FF000064FF06B
:1005300000074FF000084FF0000B21F00701AC4618
:10054000ACE8C009ACE8C009ACE8C009ACE8C00937
:100550008D46704710B50446AFF300802046BDE8D5
:100560001040FFF778BE00000048704700440020AC
:1005700001491820ABBEFEE7260002007047FEE7E7
:10058000014800F0E2B90000EC02002070B50E4C0A
:1005900015460646216000216160A160C4E903138D
:1005A0000123214600F071F860B102232A4621465A
:1005B000304600F06AF828B104232A462146304626
:1005C00000F063F8002070BDB8420020014800F040
:1005D00045BD0000AC040020014800F03FBD000014
:1005E0004C04002001681823CAB2103AB2FBF3F29F
:1005F000054B6FF30901032A9B5CC36500D9091DF4
:100600008165084670470000B037000810B5014604
:1006100000208B698A6A4FF0C07453B1B3F5005F54
:1006200015D072B1012A0CD0022A0AD0032A09D1AE
:1006300004E01AB1012A06D0022A03D1C96AC9010D
:1006400000D5012010BDC96AA142FAD010BD002A10
:10065000F7D0012AF2D0022AF3D0032AF3D010BD3A
:10066000704772B6FEE790F82020012A07D0022AD0
:1006700005D0416A41F48021416201207047006841
:1006800042690A43426100207047F0B590F820505B
:100690000468A468012D05D0022D03D0416A41F4FD
:1006A000802153E014F0406F01D1E5004BD5C4F335
:1006B0000164022C03D9416A41F4000146E001259E
:1006C000A5401D608D684FF4C0739DB1CE68354361
:1006D0004E6845EAC605066803EB0417F5514FF46A
:1006E000C275076805EB04150E697E51097D012965
:1006F00005D009E00E88CD6845EA4655EBE701686C
:100700004E5946F480764E511179D2F805504FF487
:10071000C67641EA0525016806EB04168D5111786D
:10072000D2F801204FF4C47541EA0221026805EBBA
:1007300004155151006803EB0411425842F00102C4
:1007400042500020F0BD416A41F400114162012095
:10075000F0BD000010B590F82020012A07D0022A31
:1007600005D0416A41F480214162012010BD3B481F
:10077000D0F8002242F00102C0F80022D0F8002296
:1007800022F47C52C0F80022D0F800224B6A42EAE0
:100790000322C0F800220A7D02F01F0301229A40C2
:1007A000D0F81C329343C0F81C32CB69B3B9D0F8EF
:1007B0000C329343C0F80C328C894B6864F31F43AE
:1007C0004C6900EBC404C4F840320C890B6864F334
:1007D0001F434C6900EBC404C4F84432CB69012BBD
:1007E00016D1D0F80C321343C0F80C320C884B6889
:1007F00064F31F434C6900EBC404C4F840320C8915
:10080000CB6864F31F434C6900EBC404C4F8443262
:100810008B69002BD0F804320ED01343C0F8043299
:100820000B69002BD0F8143208D01343C0F81432EF
:10083000096A012904D008E09343EFE79343F5E701
:10084000D0F81C121143C0F81C12D0F8001221F08D
:100850000101C0F80012002010BD0000006400403B
:10086000704730B590F82040012C05D0022C03D001
:10087000416A41F480215DE00468002955D0246973
:10088000A40754D04FF4D874056804EB01142D5913
:1008900015F00405956005682D594ED0ED0855609A
:1008A00005682C5904F00204D4604FF4DA7405682A
:1008B00004EB01142D5905F00F05156105682D593C
:1008C000C5F30725956105682C59240C54614FF434
:1008D000DC72046802EB0112A4581C700468A4586E
:1008E000240A5C700468A458240C9C700468A25804
:1008F000120EDA704FF4DE72046802EB0112A45893
:100900001C710468A458240A5C710468A458240C5F
:100910009C710468A258120EDA71006881B10169F5
:1009200041F020010161002030BDE468A8E7416A80
:1009300041F400114162012030BD6D0D1560AFE73B
:10094000C16841F02001C160EDE72DE9F05F054687
:10095000006800244669D0F804908768D0F80CB08D
:10096000D0F810A0D0F81880F10748D0F90714D0BB
:1009700001218160B80703D5284600F00EFB0CE08A
:10098000780702D54FF4006407E0380702D54FF42A
:10099000805402E0284600F0FFFAF80516D52968D1
:1009A0004FF480708860B80503D5284600F0F7FA48
:1009B0000CE0780502D544F4005407E0380502D570
:1009C00044F4804402E0284600F0E8FAF80316D523
:1009D00029684FF480308860B80303D5284600F0BA
:1009E000E0FA0CE0780302D544F4004407E0380351
:1009F00002D544F4803402E0284600F0D1FA3007F2
:100A000007D55FEACB6004D52968102044F4007450
:100A1000C86070074FF0080707D55FEA0B7004D570
:100A20002868C760284600F097F9B00706D52868FF
:100A3000C068800702D0284600F090F9700607D5FC
:100A40005FEACA6004D52968102044F48064086114
:100A5000B00607D55FEA0A7004D528680761284602
:100A600000F06AFAF00606D528680069800702D00F
:100A7000284600F062FAB00308D55FEAC96005D5E0
:100A8000296810204860284600F058FAF00307D57E
:100A90005FEA097004D528684760284600F082FAAA
:100AA000300446D55FEA497040D5F00504D55FEAC9
:100AB000C87001D044F00104B00504D55FEA887025
:100AC00001D544F00204700504D55FEA487001D5F1
:100AD00044F00404300529D518F0700F26D008F032
:100AE0007000402815D006DC102809D020280AD034
:100AF000302816D10AE050280ED0602811D10EE01F
:100B000044F008040DE044F010040AE044F020042E
:100B100007E044F0400404E044F0800401E044F4C1
:100B200080742868816921F070018161296804203E
:100B30004860002C05D0686A204368622846FFF7A9
:100B40008FFEBDE8F09F70B5040003D094F820003C
:100B500010B104E0012070BD204600F081F820684B
:100B6000016841F00101016000F0B8FC054605266E
:100B700004E000F0B3FC401B0A2811D8206840684C
:100B8000C007F6D02068016821F00201016000F082
:100B9000A5FC05460BE000F0A1FC401B0A2806D985
:100BA000606A40F40030606284F82060D2E7206818
:100BB00040688007EFD4207E0128206801683DD07E
:100BC00021F080010160607E01282068016838D032
:100BD00021F040010160A07E01282068016833D027
:100BE00021F020010160E07E0128206801682ED0FC
:100BF00041F010010160207F01282068016829D0A0
:100C000021F008010160607F01282068016824D07C
:100C100021F004010160D4E902010843D4E904127F
:100C2000114308436168491E08432168C8610020D8
:100C30006062012084F82000002070BD41F0800136
:100C4000C0E741F04001C5E741F02001CAE721F0CB
:100C50001001CFE741F00801D4E741F00401D9E7E2
:100C60002DE9F04387B0044614216846FFF723FCC2
:100C7000354B3648DFF8CC801968D4F800C0334AC9
:100C8000022503260927DFF8C89010300024491CEC
:100C9000C44528D11960012907D1016841F00071CC
:100CA0000160006800F000700590106840F00200DC
:100CB0001060106802AB00F0020005904FF4407025
:100CC000CDE9000583E8D0006946484600F012FBF4
:100CD00000220521142000F073FC142000F062FCB7
:100CE00007B0BDE8F083DFF86C80C445F8D1D0F8D8
:100CF00000C04CF0806CC0F800C0D0F800C00129E2
:100D00000CF0806CCDF814C0196007D1016841F077
:100D100000710160006800F000700590106840F0FC
:100D200002001060106802AB00F0020005904FF462
:100D30004050CDE9000583E8D0006946484600F000
:100D4000D9FACDE7006400400800002030380240A6
:100D500000040240006800407047000070B5006861
:100D60006F4988427ED16F4B002103F108026E4823
:100D7000FFF777FD002875D16A4A6C4B503A9FED1A
:100D80006C2ADFED6C2A906DE8BBB2F85100F2EEF0
:100D9000090A40BA106092F85310BAEE090A0C0121
:100DA00092F8541044EA1114D46092F8554001F0BE
:100DB0000F0144EA01219161102102F0ABF982EDAB
:100DC000090A0C21F0EE420AB0EE620AD06802F085
:100DD000A1F982ED0C0A0C21F3EE020ABBEE020A25
:100DE000906902F097F982ED0F0AD2ED091A92ED9F
:100DF0000C1A92F85010002000EB800433F83450A5
:100E0000A9420BD100E00DE023F8341003EBC40439
:100E1000C4ED011A84ED031A84ED020A401C80B26D
:100E20000428E9D3906D032840D1B2F85100F2EEC6
:100E3000090A40BA506092F85310BAEE090A0C0140
:100E400092F8541044EA1114146192F8554001F0DC
:100E50000F0144EA0121D161102102F05BF982ED1A
:100E60000A0A00E05BE00C21F0EE420AB0EE620AF2
:100E7000106902F04FF982ED0D0A0C21F3EE020A1F
:100E8000BBEE020AD06902F045F982ED100A92F831
:100E90005000188592ED090A83ED0B0A92ED0C0AB9
:100EA00083ED0D0A92ED0F0A83ED0C0A906D042874
:100EB0002FD1B2F85100F2EE090A40BA906092F8D0
:100EC0005310BAEE090A0B0192F8541043EA1113B9
:100ED000536192F8553001F00F0143EA012111628C
:100EE000102102F017F982ED0B0A0C21F0EE420AF4
:100EF000B0EE620A506902F00DF982ED0E0A0C2183
:100F0000F3EE020ABBEE020A106A02F003F982ED68
:100F1000110ABDE8704002210348FFF7A4BB70BD71
:100F20000064004094420020EC020020D0420020E7
:100F300000003442000034C2704770477047000020
:100F400070B5044690F82000012804D0606A40F48F
:100F50000020606218E0022084F820002068016808
:100F600021F00101016000F0B9FA05460EE000BF72
:100F700000F0B4FA401B0A2808D9606A40F4003037
:100F80006062052084F82000012070BD2068406860
:100F9000C007EDD1606270BD704770477047704701
:100FA0007047704770472DE9F0410446876D00F0A7
:100FB00095FA064694F835000025022806D08020D0
:100FC000606584F834500120BDE8F0812068016834
:100FD00021F0160101602068416921F08001416122
:100FE000206C08B9A06C20B12068016821F00801CC
:100FF00001602068016821F0010101600CE000F04F
:101000006DFA801B052807D920206065032084F82D
:10101000350084F83450D7E720680068C007EED167
:1010200094F85C103F208840B860012084F83500B7
:1010300084F834500020C7E790F83510022903D017
:101040008021416501207047052180F83510006836
:10105000016821F001010160002070472DE9F8438B
:1010600004464FF00009CDF8009063484FF4165144
:10107000A56D0068B0FBF1F72E6894F85C100820AD
:1010800000FA01F131420FD021680A6852070BD5EE
:101090000A6822F004020A6094F85C108840A86094
:1010A000606D40F00100606594F85C104FF001083D
:1010B00008FA01F0304208D021684969090604D5D0
:1010C000A860606D40F00200606594F85C10042038
:1010D0008840304208D021680968890704D5A86093
:1010E000606D40F00400606594F85C10102088404A
:1010F000304218D021680968090714D5A860206813
:101100000168490304D50068000308D5A16C07E015
:101110000168C90503D4016821F008010160216C50
:1011200009B12046884794F85C102020884030425E
:1011300031D021680968C9062DD5A86094F835001A
:1011400005282068016806D0490347D500680003D8
:101150001DD4616C1CE021F016010160206841691A
:1011600021F080014161206C08B9A06C20B1206899
:10117000016821F00801016094F85C103F2088406C
:10118000A86084F8358084F83490216D1FE0E16B0D
:1011900009B120468847606D00282BD0606DC007DC
:1011A00014D0052084F835002068016821F0010181
:1011B00001600098401C0090B84203D82068006885
:1011C000C007F6D184F8358084F83490E16C0029AA
:1011D00010D001B02046BDE8F04308470168C905BA
:1011E000D5D4016821F01001016084F8358084F8BD
:1011F0003490CCE7BDE8F883180000202DE9F041D9
:10120000044600F06BF906465CB1022084F8350014
:10121000002584F834502068016821F00101016044
:101220000DE00120BDE8F08100F058F9801B052891
:1012300005D920206065032084F83500F2E7206896
:101240000068C007F0D12268116820480140D4E945
:1012500001031843D4E90336334318436369184341
:10126000A3691843E3691843236A18430843616A72
:10127000042903D1D4E90B131943084310602068F3
:101280004069666A20F0070130460E4301270428B2
:101290000CD1A06A0643E06A40B12046FFF7B6F9D8
:1012A00020B14020606584F83570BAE72068466157
:1012B0002046FFF797F994F85C203F219140816028
:1012C000656584F835700020ACE700003F8010F0C1
:1012D00070B5044600F002F90546601C02D00448CF
:1012E0000078044400F0FAF8401BA042FAD370BD25
:1012F0000C0000202DE9F84FDFF8ACA100220124FA
:1013000003254FF00F090AF1040BAAF1040E00BFE8
:101310000B6804FA02F63340B3426ED10F7907F03E
:101320000307012F01D0022F16D187684FEA420828
:1013300005FA08FC27EA0C07D1F80CC00CFA08FCE7
:101340004CEA070CC0F808C04768B7430E79C6F3EB
:10135000001696403E4346600E79F643B6070AD023
:10136000C6684FEA420C05FA0CF7BE438F6807FACD
:101370000CF73743C7600E7906F00306022E10D132
:10138000D60800EB8608D8F8206057074FEAD76CDC
:1013900009FA0CF7BE430F6907FA0CF73743C8F890
:1013A000207006684FEA420C05FA0CF7BE430F792D
:1013B00007F0030707FA0CF7374307604E6816F487
:1013C000403F6BD0394E376847F480473760366806
:1013D00022F0030706F480460096354E07EB060C14
:1013E000DCF8086897074FEA177809FA08F7BE4350
:1013F000304FB84202D100271FE04FE02E4FB842D5
:1014000001D1012719E02D4FB84201D1022714E084
:101410002B4FB84201D103270FE02A4FB84201D128
:1014200004270AE0284FB84201D1052705E0274FDD
:10143000B84201D1062700E0072707FA08F737432B
:10144000CCF80878DAF800605746D1F804C09E431B
:101450005FEACC2C00D51E433E60DBF800605F469F
:10146000D1F804C09E435FEA8C2C00D51E433E6039
:10147000DEF800607746D1F804C09E435FEA8C3CFA
:1014800000D51E433E60084F083F3E68D1F804C0B7
:101490009E435FEACC3C00D51E433E60521C102A9E
:1014A000FFF436AFBDE8F88F083C014044380240F5
:1014B00000300140000002400004024000080240E9
:1014C000000C0240001002400014024000180240CC
:1014D0000AB1816170470904FBE700000148806898
:1014E000704700000C000020024881680278114417
:1014F000816070470C0000200B4810B5016841F472
:1015000000710160016841F480610160016841F48B
:1015100080710160032000F073F80F2000F006F8DE
:1015200000F024F8002010BD003C024070B50D4DC5
:1015300004464FF47A712878B1FBF0F00A49096843
:10154000B1FBF0F000F040FB48B9102C07D20022AC
:101550002146501E00F034F800206C6070BD012060
:1015600070BD00000C000020180000200C4882B064
:10157000016841F480410160006800F480400090FF
:101580000748001F016841F0805101600068002297
:1015900000F0805000900F21901E02B000F010B8B3
:1015A00044380240002809DB00F01F02012191406D
:1015B0004009800000F1E020C0F8001170470000F1
:1015C000F0B40E4B1B680C46C3F30223C3F10705AE
:1015D000042D00D90425191D072901D2002300E09C
:1015E000DB1E012606FA05F1491E214099409E4066
:1015F000761E16403143F0BC01F0CDB90CED00E091
:10160000064900F0070208684FF6FF03184040EA59
:101610000220034A10430860704700000CED00E010
:101620000000FA052DE9F0470E46050065D0DFF809
:101630001481D8F80000F7B200F00F00B04207D2D2
:1016400088F80070D8F8000000F00F00B04254D1C4
:1016500028683D4C810712D5400703D5206840F427
:10166000E05020602878000703D5206840F46040EF
:1016700020602068A96820F0F000084320602878E6
:10168000C0072DD0304968680839012812D00228D7
:1016900013D0032811D00968890700292DDA2168A1
:1016A00021F0030101432160FFF718FF814641F259
:1016B000883A0EE009688903EFE709688901ECE7D9
:1016C000FFF70CFFA0EB0901514502D90320BDE84B
:1016D000F0872068696800F00C00B0EB810FEFD153
:1016E000D8F80010404601F00F01B14207D9077049
:1016F000006800F00F00B04201D00120E7E7287831
:10170000400705D52068E96820F4E05008432060D0
:101710002878000706D52068296920F4604040EA4F
:10172000C100206000F038F82168084AC1F30311B5
:10173000515CC8400649086006480068FFF7F6FE9D
:101740000020C4E7003C024008380240B8370008D7
:1017500018000020100000200448054900680968AE
:10176000044AC1F38221515CC84070471800002030
:1017700008380240C837000804480549006809686D
:10178000044AC1F34231515CC84070471800002040
:1017900008380240C8370008224810B5006810F029
:1017A0000C02214815D02149042A11D01D4C241FB8
:1017B000082A0FD00C2A0CD12268236802F03F02BD
:1017C0005B0221D52068C0F38810A0FB010120E056
:1017D000084610BD2268236802F03F025B0205D56F
:1017E0002068C0F38810A0FB010104E02168C1F368
:1017F0008811A1FB00010023FEF7B4FD2168C1F3AD
:101800000141491C49000AE02168C1F38811A1FB8C
:1018100000010023FEF7A6FD2168C1F30271B0FBB1
:10182000F1F010BD083802400024F400001BB7009E
:101830002DE9F84F04007DD0DFF878B32078ABF1C4
:101840000407C007A7F1040550D0DBF80010584684
:10185000C1F3810101290FD00168C1F3810102297F
:1018600002D13968490207D40068C0F38100032817
:1018700009D13868400206D52868800336D56068EB
:101880000028D8D032E06068B0F5803F10D0B0F5C5
:10189000A02F286810D020F480302860286820F419
:1018A000802028606068A0B1FFF718FE06460CE0B3
:1018B000286840F48030F4E740F480202860F7E79F
:1018C000FFF70CFE801B642876D828688003F7D5C4
:1018D0000CE0FFF703FE064605E000BFFFF7FEFD44
:1018E000801B6428F0D828688003F7D42078DFF8BC
:1018F000C89280074FF0000A44D5DBF80010584624
:1019000011F00C0F0FD00168C1F38101022902D13F
:101910003968490207D50068C0F3810003280AD15D
:101920003868400207D42868800715D5E068012888
:1019300000D111E03AE1E068B0B10120C9F800003F
:10194000FFF7CCFD064604E0FFF7C8FD801B022828
:10195000BAD828688007F7D52868216920F0F800F0
:1019600040EAC10028600DE0C9F800A0FFF7B6FD0D
:10197000064604E0FFF7B2FD801B02281CD8286849
:101980008007F7D42078000727D5DFF828828B4816
:10199000616908F16C0881B101210160FFF79EFDCA
:1019A000064604E0FFF79AFD801B022804D8D8F809
:1019B00000008007F6D510E089E0C0F800A0FFF72E
:1019C0008DFD064605E000BFFFF788FD801B02285D
:1019D0007DD8D8F800008007F6D42078400769D574
:1019E00074484FF0000838300068C0000BD47148CC
:1019F0003830016841F08051016000684FF0010803
:101A000000F0805000906E4E3068C00511D43068F0
:101A100040F480703060FFF761FD009006E000BF89
:101A2000FFF75CFD0099401A022850D83068C005C5
:101A3000F6D5604EA068683601280FD005283068BA
:101A400010D020F001003060306820F004003060D9
:101A5000A068B8B1FFF742FD00900FE0306840F099
:101A60000100F4E740F004003060F7E7FFF736FDCF
:101A70000099411A41F28830814264D83068800769
:101A8000F4D50EE0FFF72AFD009007E0FFF726FDF2
:101A90000099411A41F28830814254D83068800759
:101AA000F4D4B8F1000F05D042483830016821F075
:101AB00080510160A069A8B3DBF80010C1F3810177
:101AC000022947D00228C9F860A005D000E03AE01A
:101AD000FFF704FD044639E0FFF700FD064604E089
:101AE000FFF7FCFC801B02282DD828688001F7D462
:101AF000F4E907010843E168324A490802EB014171
:101B0000A26841EA82110843217C40EA0160217DFC
:101B100040EA017038600120C9F86000FFF7DEFC80
:101B2000044606E044E000BFFFF7D8FC001B022893
:101B300009D828688001F7D53AE000BFFFF7CEFC4E
:101B4000001B022802D90320BDE8F88F2868800115
:101B5000F4D42DE00128F7D03868E26900F4800160
:101B6000914223D1226A00F03F0191421ED147F6F3
:101B7000C071626A0140B1EB821F17D1A26A4FF0B7
:101B8000FF3300F4403103EB5202B1EB024F0DD1B1
:101B900094F82C2000F07061B1EB026F06D194F83C
:101BA000301000F0E040B0EB017F01D00120CBE726
:101BB0000020C9E70838024000004742800E474233
:101BC000007000400000FFFF10B5401EB0F1807FA4
:101BD00001D3012010BD4FF0E02460610F21601798
:101BE00000F0D9FE0020A06107202061002010BD78
:101BF00070477047F8B5016804460868CA684B69C1
:101C000010F00F0F4FF0000559D003F0010602F459
:101C10009077374365D0C10705D0D10503D5216C36
:101C200041F001012164410705D5D90703D0216C9A
:101C300041F002012164810705D5D90703D0216C49
:101C400041F004012164010707D502F0200131436E
:101C500003D0216C41F008012164216C00293AD0A5
:101C6000800604D5900602D5204600F02EFD20689F
:101C70004069216CC0F38010090700D460B320468E
:101C800000F0FCFC20684069400621D52068143033
:101C900050E8001F21F0400140E80012002AF5D171
:101CA000A06BA8B16C490165A06BFFF7C5F90028CE
:101CB00011D0A06B016D01B0BDE8F040084783066C
:101CC0000FD593060DD52046BDE8F84000F0FDBCC9
:101CD0002046FFF78EFFF8BD2046FFF78AFF2564F8
:101CE000F8BD266B2023012E79D1C60677D5D606FE
:101CF00075D50868486800904869400640D5A16BD2
:101D0000086840680004000CEAD0A28D8242E7D93E
:101D1000E085C869B0F5807F2DD020680C3050E890
:101D2000001F21F4807140E80012002AF5D12068DC
:101D3000143050E8001F21F0010140E80012002A91
:101D4000F5D12068143050E8001F21F0400140E830
:101D50000012002AF5D184F83E30256320680C304B
:101D600050E8001F21F0100140E80012002AF5D1D0
:101D7000A06BFFF718F9A08DE18D401A81B229E020
:101D8000A08DE18D401A81B2E08D0028A8D00029F5
:101D9000A6D020680C3050E8002F22F4907240E862
:101DA0000026002EF5D12068143050E8002F22F0D4
:101DB000010240E80026002EF5D184F83E3025636C
:101DC00020680C3050E8002F22F0100240E8002379
:101DD000002BF5D12046FFF70BFFF8BDFFE7050606
:101DE0002BD5150629D594F83D002128F5D1A068FA
:101DF000B0F5805F01D12069B0B1206A411C216239
:101E0000216800784860E08C401E0004000CE084EB
:101E1000E3D12068C16821F08001C1602068C168F9
:101E200041F04001C160D8E7206A0088C0F3080093
:101E30004860206A801C2062E5E74006CDD5500648
:101E4000CBD5CA68204622F04002CA6084F83D30F3
:101E500000F027FAC1E700006D26000870B5040005
:101E600004D094F83D00002510B106E0012070BDBB
:101E700084F83C50204600F023F8242084F83D00EC
:101E80002068C16821F40051C160204600F07EFC4A
:101E90002068016921F4904101612068416921F0C5
:101EA0002A0141612068C16841F40051C160256484
:101EB000202084F83D0084F83E00002070BD000022
:101EC0002DE9F04F87B0064614216846FEF7F3FA75
:101ED0007E497D4BD6F800C000247C4A103902258B
:101EE00003277B484FF008099C4533D1136843F41E
:101EF00080131360126802F4801205920A6842F09F
:101F000004020A600A6802F0040205920A6842F0BC
:101F100008020A600968CDE9024701F0080105914D
:101F20008114CDE900154E46CDF810906946FFF7B3
:101F3000E1F90420CDE90005CDE9024769460496A0
:101F40006448FFF7D7F9002205213520FFF738FB59
:101F5000352093E05D4BDFF880811B1D4FF0070AB1
:101F60004FF4806BC44537D1186840F010001860FA
:101F7000186800F010000590086840F00100086043
:101F8000086802AA00F0010005904FF4C060CDE996
:101F9000000582E8900469465048FFF7ABF9514DBF
:101FA0004F4805F1080228604FF00060686040204B
:101FB00082E811086C614FF44030AC61C5E907401C
:101FC00028466C62FFF71AF908B1FEF74AFB756301
:101FD000AE6307B0BDE8F08FDFF80C81C44550D187
:101FE000136843F480231360126802F48022059280
:101FF0000A6842F004020A600A6802F004020592CC
:102000000A6842F002020A600968B94601F002015A
:1020100005912021CDE90015CDE902495746CDF8BB
:1020200010A06946FFF766F9CDF800B0CDE901547C
:10203000CDE90397D84669462C48FFF75BF9294D4F
:102040002B48603528604FF00060C5E90104C5E900
:1020500003486C614FF44030AC61C5E90740284645
:102060006C62FFF7CBF808B1FEF7FBFAB56300220C
:1020700005212720AE63FFF7A3FA2720FFF792FA86
:10208000A7E71C4A9445A4D11A6842F020021A60BE
:102090001A6802F0200205920A6842F004020A60FF
:1020A000096802AA01F004010591C021CDE90015DB
:1020B00082E890026946FFF71DF9002205214720BA
:1020C000FFF77EFA4720D9E7005000404038024031
:1020D00000080240000C02400010014000000240D5
:1020E000B86402404C040020004800400004024054
:1020F000286002400014014090F83E30202B0ED1A1
:1021000059B152B190F83C30012B08D0012380F82E
:102110003C300023036300F0BFBB01207047022066
:10212000704700002DE9F047074600684749484CD2
:10213000484D4FF001084FF0020A4FF00009884265
:102140003BD12078EE1CFF280FD16079FE280CD1FE
:102150006078F070A078B070E0787070207930709E
:102160000422E91C3C4800F07DF8687820B1012881
:1021700008D0022811D01BE020780A2818D185F851
:10218000018015E060783070A0787070E078B070F1
:102190002079F07085F801A00AE06079FE2801D16D
:1021A00085F801902B490422C91C2B4800F05AF8ED
:1021B0002A7827492848FFF79FFF28483968814235
:1021C00042D1234E143606F10F073078A52810D1DE
:1021D000B07B5A280DD10020211849783954401C71
:1021E00080B20C28F8D31A490C2223311C4800F085
:1021F00039F8A87820B1012808D0022811D01BE0B6
:102200003078A52818D185F8028015E00020311813
:1022100049783954401C80B20C28F8D385F802A0C4
:102220000AE070795A2801D185F8029008490C22F9
:1022300023310B4800F016F8BDE8F04704490F229F
:1022400014310748FFF758BFBDE8F0870050004041
:10225000704300208C0000203C030020001401404B
:102260000804002090F83D30202B18D1A9B1A2B16C
:1022700090F83C30012B12D001628284C28400218C
:102280000164212280F83D2080F83C100068C1687C
:1022900041F08001C160002070470120704702209A
:1022A00070477047FEE700000F4810B50D49016008
:1022B0000321416000214FF410228160C0E9031224
:1022C0004FF400124261017641768176C176017742
:1022D0004177FEF738FC002803D0BDE81040FEF738
:1022E000C0B910BD00640040EC0200200F4810B5DA
:1022F0000D4901600321416000214FF410228160EB
:10230000C0E903124FF400124261017641768176F2
:10231000C17601774177FEF716FC002803D0BDE8AF
:102320001040FEF79EB910BD006800401403002065
:10233000114808B5016841F480010160016801F4A9
:1023400080010091016841F40011016000680022E1
:1023500000F40010009005210C20FFF731F90C204B
:10236000FFF720F9002205214620FFF729F9BDE8F3
:1023700008404620FFF716B93038024010B58EB03D
:102380001C220B496846FEF764F80021684600F0FD
:102390000BFC084C06491C2220601C3107A8FEF7E4
:1023A00058F8002107A800F0FFFB60600EB010BDD8
:1023B000783700080000002030B587B01421684647
:1023C000FEF779F821480024016841F0040101601A
:1023D000016801F004010591016841F0800101608C
:1023E000016801F080010591016841F0020101607E
:1023F000016801F002010591016841F001010160ED
:10240000016801F001010591016841F008010160D6
:1024100000680F4D00F008000590012242F2100103
:102420002846FFF755F8002244F201012846FFF73D
:102430004FF846F2110000900120CDE901046946F1
:1024400028460394FEF756FF07B030BD30380240EF
:10245000000802400C4810B50A4901604FF4E13110
:102460004160002181600C22C160C0E904128161D9
:10247000C161FFF7F3FC002803D0BDE81040FEF770
:10248000F0B810BD005000403C0300200C4810B5CF
:102490000A4901604FF4E1314160002181600C2262
:1024A000C160C0E904128161C161FFF7D7FC002857
:1024B00003D0BDE81040FEF7D4B810BD00100140B5
:1024C000800300200C4810B50A4901600B494160A7
:1024D000002181600C22C160C0E904128161C161E8
:1024E000FFF7BCFC002803D0BDE81040FEF7B9B8E8
:1024F00010BD000000480040C4030020A086010079
:102500000C4810B50A4901604FF416514160002192
:1025100081600C22C160C0E904128161C161FFF7D2
:102520009DFC002803D0BDE81040FEF79AB810BD0E
:102530000014014008040020FEE7FEE730B5144B0C
:102540001C68656945F0400565611B68DC6844F0FE
:102550001004DC600F4B1C68256825F00105256020
:102560001C682568ED07F7D11D680B4CAC601C6832
:10257000E06018680161186842601868016841F4F9
:10258000802101601868016841F00101016030BDDF
:10259000C4030020AC04002004480040012000F0E7
:1025A000F7FAFBE710B5FEF79FFF01F009F80128E5
:1025B00003D0BDE8104000F095BF10BD30B593B01A
:1025C00034216846FDF777FF14210DA8FDF773FF4E
:1025D0001D480025016841F080510160006800F04D
:1025E000805012901948016841F440410160006830
:1025F000022400F440401290012000900004019059
:102600008001CDE9064006200890A820CDE9090404
:102610000B9468460C94FFF70BF908B172B6FEE70D
:102620000DA90F2081E831004FF4A05010904FF415
:102630008050119005210DA8FEF7F4FF002801D06D
:1026400072B6FEE713B030BD403802400070004063
:102650000248016841F470010160704788ED00E0B4
:102660000148FFF7C7BA00003C03002010B5806B9B
:102670000021C185C184FFF7BCFA10BD01680C318F
:1026800051E8002F22F4907241E80023002BF5D18D
:102690000168143151E8002F22F0010241E80023C3
:1026A000002BF5D1016B012909D101680C3151E8EA
:1026B000002F22F0100241E80023002BF5D1202149
:1026C00080F83E1000210163704708B590F83E1075
:1026D000222901D0022008BD82684FF480539A421B
:1026E00001D1016921B1816A9A421BD04AB10AE045
:1026F0000268816A5268C2F308020A80816A891CF2
:1027000008E0026972B10268526802F07F020A7042
:10271000816A491C8162C18D491E0904090CC18569
:1027200003D019E002685268F1E70168CA6822F034
:102730002002CA600168CA6822F48072CA60016817
:102740004A6922F001024A61202180F83E10016BA3
:10275000012903D0FFF7E6FC002008BD002101633A
:1027600001680C3151E8002F22F0100241E80023EB
:10277000002BF5D101680A68D20602D50A684968BB
:102780000091818DFFF734FAE6E7000070B504464A
:1027900000680169E26821F4405111430161216937
:1027A000A068E26908436169114308432168CA6867
:1027B00049F20C639A430243CA6020684169A269E6
:1027C00021F440711143416131492068884202D0AF
:1027D0003049884202D1FEF7CFFF01E0FEF7BCFF8F
:1027E000E2690023192164253226B2F5004F6268A0
:1027F00028D0A0FB0101930F9200FDF7B3FD014625
:10280000B0FBF5F06FF01802504301EB800006EBCF
:102810000010B0FBF5F000F0F002B1FBF5F002EBB8
:102820000012B1FBF5F06FF01803584301EB800084
:1028300006EB0010B0FBF5F000F00F00216810442B
:10284000886070BDA0FB010192185B41FDF78AFD15
:102850000146B0FBF5F00201B1FBF5F06FF0180393
:10286000584301EB800006EBC000B0FBF5F000F030
:10287000F80002EB4002B1FBF5F0584301EB800099
:1028800006EBC000B0FBF5F000F00700D6E7000053
:10289000001001400014014081628285C285002140
:1028A0000164222280F83E2080F83C10016921B1A9
:1028B0000168CA6842F48072CA6001684A6942F0DD
:1028C00001024A610068C16841F02001C160002036
:1028D00070470000264818B400680168890604D5CE
:1028E00001684068009018BC704722490968C90611
:1028F000F9D501684068204A0090106801684FF0DF
:1029000024030C031D49046824F00104046016D458
:1029100010684468C4F12404A4B20C8043601068B9
:10292000016841F4002101601068016841F0010173
:102930000160122CD7D1124901F1160015E014687C
:102940006068C0F1240080B2088063600D498B6A22
:1029500023F400238B6211680A6842F001020A60C6
:102960001228C0D1064901F13A0018BC00F078BB2A
:10297000C403002000480040AC0400209400002064
:102980009F430020006002400148FFF733B9000078
:1029900008040020FEE70907090E002804DB00F107
:1029A000E02080F80014704700F00F0000F1E020F4
:1029B00080F8141D704700F08BF800F02DF8FEE74A
:1029C00000B58BB000200121CDE9060108910090EF
:1029D0000190029003900590049069460C48FDF721
:1029E000B9FE0B48FEF7ACFA02210948FDF73BFEA1
:1029F0000E200990059069460648FDF7ABFE054894
:102A0000FEF79EFA02210348FDF72DFE0BB000BD34
:102A1000EC02002014030020094810B5027809498F
:102A20000948FFF769FB07490F2214310748FFF7F0
:102A300063FBBDE810404FF47A70FEF749BC00001C
:102A40008C000020704300203C030020080400207C
:102A5000FEF752FDFFF7B2FDFFF7AEFCFFF768FC93
:102A6000FFF722FCFFF742FCFFF710FDFFF72AFDFE
:102A7000FFF7F0FCFFF744FDFFF7A2FF00F0E8FAD4
:102A8000FFF77CFC00F08BF8FEE70146002084296C
:102A900000D0C81C7047000010B5030C089A81B222
:102AA00006D0012B0DD0022B0ED101F5007189B299
:102AB00008230648FDF76AFDBDE810400A20FEF72E
:102AC00007BC01F58071F2E710BD0000EC020020A8
:102AD00030B52C4C012287B091032046FEF7F8FC5C
:102AE000002201212046FEF7F3FC0122510320467B
:102AF000FEF7EEFC002210212046FEF7E9FC4FF421
:102B00007A70FEF7E5FB204C002001216080608593
:102B10000220A4F85200218020850420A4F850004F
:102B20001A4D182204F1100168460695FDF791FC34
:102B300094E80F00FFF7B0FF182204F1380168464F
:102B40000695FDF786FC04F128000FC8FFF7A4FFE7
:102B5000182204F1600168460695FDF77AFC04F13D
:102B600050000FC8FFF798FF182204F1880168464B
:102B70000695FDF76EFC783494E80F00FFF78CFFA4
:102B800007B030BD00080240D04200208400002081
:102B900010B500B9012000F099FB002010BD10B560
:102BA00000F0BAFB002010BD7FB50D460446416918
:102BB000B0F9080081B1A16971B1FFF766FFD4E9EE
:102BC00005128DE80700D4E900102B46226900F0B9
:102BD000CCFC039004B070BDFFF757FF03A9CDE90B
:102BE0000001208A2B4682B2D4E9001000F090FC4C
:102BF000012801D00020EDE70398EBE72DE9F04133
:102C0000184C0F460546E6682068001D00F096FA4D
:102C100038B9206890F82C10012088402169814340
:102C20002161681C07D137B12168BDE8F0410E4829
:102C3000091D00F0C7BA20683544B54245602168D7
:102C400005D2A06BBDE8F041091D00F0A3BA606B8E
:102C5000091D00F09FFAA06A854200D2A562BDE876
:102C6000F08100001C000020E80500202DE9F04163
:102C7000054600F0B3FA2E4CA068401CA060206806
:102C80002C4F10B1606940B32DE02560A068012889
:102C900029D1002606EB860007EB800000F06CFAD5
:102CA000761C072EF6D323488C3000F065FA2148B5
:102CB000A03000F061FA1F48B43000F05DFA1D4802
:102CC000C83000F059FA1B48DC3000F055FA1948BA
:102CD0008C3060631430A06305E02068E96AC06A44
:102CE000884200D82560606A401C6062E96A012061
:102CF000226988401043206101EB810007EB8000CE
:102D0000291D00F05FFA00F089FA606900280CD0F4
:102D10002068E96AC06A884207D207494FF08050AC
:102D20000860BFF34F8FBFF36F8FBDE8F0810000E5
:102D30001C0000200C05002004ED00E010B5044646
:102D400090F8510058B101280CD002280FD0502023
:102D500080F31188BFF34F8FBFF36F8FFEE7206BB7
:102D600000F070FA2046BDE8104000F06BBA10BDCC
:102D700010484FF47051420706D0C01D0D4920F095
:102D80000700411AC1F570510B4A00230144C2E902
:102D900000030839183A21F0070111604B600B60FD
:102DA0000B1AC0E9001393604FF00040536050616C
:102DB00070470000FC05002070000020144E154CE8
:102DC000A6F1C8074FF08058DFF84C9012E000BF22
:102DD00000F004FAF068C568281D00F0AFF9A0689B
:102DE000401EA0606068401E606000F017FA284630
:102DF000FFF7A4FF60680028EAD138680128F9D9F4
:102E0000C9F80080BFF34F8FBFF36F8FF2E7000068
:102E1000D40500201C00002004ED00E02DE9F0475F
:102E20009A46DDE9098481466FF00303206B03EBCA
:102E300082021044089E20F00707780707D0502030
:102E400080F31188BFF34F8FBFF36F8FFEE700252C
:102E500061B1002023180A5C83F834200A5C12B1A7
:102E6000401C1028F6D384F8435001E084F8345015
:102E7000072E00D30626E662C4E91165201D00F086
:102E800086F904F1180000F082F92461C6F1070008
:102E90006462A061E56484F8505052464946384661
:102EA00000F0C0F82060B8F1000F01D0C8F8004071
:102EB000BDE8F08730B5114900E011460A6882424A
:102EC000FBD34B685C18844203D1406818444860C7
:102ED000084643681C18944209D1084C183C2468E1
:102EE000A24209D052681A4442600A68126802601D
:102EF000814200D0086030BD0460F9E77000002016
:102F00000648416B096829B1416BC968C9684968BD
:102F1000816270474FF0FF31FAE700001C0000208B
:102F200008484068401C4FF0500080F3118804D0DE
:102F3000BFF34F8FBFF36F8FFEE7BFF34F8FBFF32A
:102F40006F8FFEE7780000202DE9F041054600274D
:102F500000F018FA324E306808B9FFF709FF7069BF
:102F600005424ED1C5B3083568070ED005F00700FD
:102F7000C0F108000544680707D0502080F311888D
:102F8000BFF34F8FBFF36F8FFEE72DB3706885429D
:102F900037D82348183001460C6801E020460C461B
:102FA0006168A94202D221680029F7D131688C42B8
:102FB00027D007682168016060680837411B102925
:102FC0000FD96019420708D0502080F31188BFF351
:102FD0004F8FBFF36F8FFEE713E041606560FFF72F
:102FE00069FF61687068401A7060B268904200D2F0
:102FF000B060706901430020C4E90001F068401C22
:10300000F06000F051FB780707D0502080F3118862
:10301000BFF34F8FBFF36F8FFEE73846BDE8F081F7
:103020005800002010B5031F4FF080741C601B1F58
:1030300021F001011960191F044B0B6014390A605B
:10304000091F6FF0020244380A6010BD212F0008EA
:1030500002492422A1F12400FFF770BAD9430020CD
:10306000F0B5002855D0002953D00278437842EAC1
:103070000322C2F30A020A8043788478DB0843EA19
:103080004413C3F30A034B808478C578A40944EA47
:103090008504057944EA8524C4F30A048C80057903
:1030A00046796D0845EAC615C5F30A05CD8046790F
:1030B000C6F301168E724679B609CE728679C77943
:1030C00046EA07268E81067A477A46EA0726CE81A7
:1030D000867AC77A46EA07260E82067B8E74467B7E
:1030E000CE74867BC77B46EA07268E82067C407CB0
:1030F000A2F580620A80A3F580634B80A4F580640A
:1031000046EA00208C80A5F58065CD80A0F5806022
:103110000881F0BD01EE100A70EEC00A0120B8EE81
:10312000C11A8840401E21EE201A00EE900AF8EEE7
:10313000E01AC1EE210A30EE800A7047D0E9013270
:1031400001699A60D0E901235A604A68824201D13C
:1031500082684A60002202610868401E08600868B0
:1031600070470000034B036003F1540008608020A7
:10317000106070479800002000F108014FF0FF3206
:10318000C0E90112C16001610021016070470021A6
:103190000161704730B50B685A1C02D000F108027B
:1031A00002E0026904E02246546825689D42FAD98B
:1031B00053684B6099608A60516008610168491CDE
:1031C000016030BD42684A6093688B6093685960C3
:1031D000916008610168491C01607047502080F3CC
:1031E0001188BFF34F8FBFF36F8F0A494868401CA7
:1031F000486001280CD10848006810F0FF0F07D084
:10320000502080F31188BFF34F8FBFF36F8FFEE71D
:10321000704700007800002004ED00E0084948688D
:1032200028B1401E486001D180F3118870475020BA
:1032300080F31188BFF34F8FBFF36F8FFEE700005D
:103240007800002070B500282AD0164DA0F108049F
:1032500060686969084207D1502080F31188BFF384
:103260004F8FBFF36F8FFEE722683AB1502080F393
:103270001188BFF34F8FBFF36F8FFEE78843606005
:1032800000F080F860686968084468602046FFF7CD
:1032900011FE2869401C2861BDE8704000F004BAA6
:1032A00070BD0000580000204FF0E02000210161B7
:1032B000816105494FF47A720968B1FBF2F1491E48
:1032C00041610721016170471800002010B502001C
:1032D00014D00F48006B38B1502080F31188BFF331
:1032E0004F8FBFF36F8FFEE700F04CF800211046C0
:1032F000FFF784FC00F0D8F9002807D105494FF00A
:1033000080500860BFF34F8FBFF36F8F10BD000078
:103310001C00002004ED00E010B586B000240394EA
:1033200005AA04A903A80494FFF71CFFDDE9030123
:103330000094CDE9011000230EA11048059A00F079
:1033400014F90F490028C86211D0502080F3118869
:10335000BFF34F8FBFF36F8F4FF0FF3088620120B4
:103360004861CC6006B0BDE8104000F041B806B03E
:1033700010BD000049444C4500000000BD2D000870
:103380001C0000200248016B491C016370470000CB
:103390001C0000201448016B11B10121C16170476C
:1033A0000021C1610169B1FA81F1C1F11F0101EB95
:1033B00081020E4951F822306BB101EB820101F11B
:1033C00008034A6852684A609A4201D152684A60CA
:1033D000D16801607047502080F31188BFF34F8F90
:1033E000BFF36F8FFEE700001C0000200C050020DB
:1033F0001CB537480168374A914207D1502080F305
:103400001188BFF34F8FBFF36F8FFEE7006831491C
:10341000491E884207D1502080F31188BFF34F8F97
:10342000BFF36F8FFEE72C4908780190FF200870EA
:1034300008788DF800009DF800009DF8002000F04D
:10344000F000904207D0502080F31188BFF34F8FD7
:10345000BFF36F8FFEE79DF80000204C00F0500096
:1034600020700720A06005E09DF8002052008DF834
:103470000020401E9DF800201206F5D4A06003280D
:1034800007D0502080F31188BFF34F8FBFF36F8FA9
:10349000FEE74FF44070A060019808700C4820309F
:1034A000016841F470010160016841F07041016000
:1034B000FFF7FAFE00206060FCF7F8FE084801689C
:1034C00041F040410160FCF7DDFE00201CBD000022
:1034D00000ED00E071C20F4100E400E07800002040
:1034E00034EF00E010B5502080F31188BFF34F8F08
:1034F000BFF36F8F00F072F818B104494FF080509D
:103500000860002080F3118810BD000004ED00E089
:103510002DE9FF5F8346DDE90E87994616468A4608
:103520009000FFF711FD05001CD05420FFF70CFDA3
:10353000040014D00020256384F85100CDE9024036
:10354000CDE900874B46324651465846FFF766FCA8
:103550002046FFF78BFB012004B0BDE8F09F284612
:10356000FFF770FE4FF0FF30F6E7F0B585B0DDE90C
:103570000B640A9DA6B1DCB154270097266302268E
:1035800084F85160002604AFCDE90246CDE900572A
:10359000FFF744FC2046FFF769FB049805B0F0BD37
:1035A000502080F31188BFF34F8FBFF36F8FFEE77A
:1035B000502080F31188BFF34F8FBFF36F8FFEE76A
:1035C0000548416919B1006B18B10020704701200E
:1035D00070470220704700001C0000202DE9F041D8
:1035E0002F4C0026206B28B1A069401CA0613046FA
:1035F000BDE8F081E5686D1CE56013D1606B006883
:1036000038B1502080F31188BFF34F8FBFF36F8F15
:10361000FEE7606BA16B6163A063206A401C2062BF
:10362000FFF76EFCA06ADFF87C80854209D3606BEF
:103630000068A0B1606BC068C7687868854211D225
:10364000A0622068C06A00EB800158F821000128C0
:1036500000D90126E0690028C9D00126C7E74FF04C
:10366000FF30EDE7381DFFF769FDB86A18B107F1C3
:103670001800FFF763FDF96A0120226988401043B2
:10368000206101EB810108EB8100391DFFF79AFDF4
:10369000F86A2168C96A8842C9D30126C7E70000D1
:1036A0001C0000200C0500202DE9F0472C4D0024C3
:1036B0002746286B38B1FFF791FD286B401E286321
:1036C000286B40B146E0502080F31188BFF34F8F44
:1036D000BFF36F8FFEE7A968224E0120D1B3A6F198
:1036E000B40980463068E8B1F068C46804F1180095
:1036F000FFF724FD201DFFF721FDE06A2A6908FA83
:1037000000F11143296100EB800109EB8100211DCB
:10371000FFF758FDE06A2968C96A8842E2D3C5F814
:103720001C80DFE70CB1FFF7EBFBAC6944B1464608
:10373000FFF754FF00B1EE61641EF9D10020A861CB
:10374000E86938B10849012738070860BFF34F8F8F
:10375000BFF36F8FFFF762FD3846BDE8F0870000CA
:103760001C000020C005002004ED00E04FF0407078
:10377000E1EE100A70470000DC3700089D250008C4
:1037800000000000000000008000000000000000B9
:1037900000000000D0370008B72900080200000030
:1037A0000000000080000000000000000000000099
:1037B00000061016000610160000000000000000B1
:1037C00001020304060708090000000001020304C7
:1037D00041524D5F5441534B0000000064656661E7
:1037E000756C745461736B00083800080000002089
:1037F0009800000000020008A0380008980000208F
:10380000C84900001C020008000000000000000081
:103810000000000001000000100000000000000097
:103820000024F40000000000000000000000000080
:103830000000000000000000000000000000000088
:103840000000000000000000000000000000000078
:103850000000000000000000000000000000000068
:103860000000000000000000000000000000000058
:103870000000000000000000000000000000000048
:1038800000000000AAAAAAAA00000000FFFFFFFF94
:10389000FFFFFFFC06000000000000000000000029
:04000005080001C529
:00000001FF
