:020000040800F2
:100000000864002025030008FF2F00086D25000864
:10001000FD2F00089B050008753700080000000050
:100020000000000000000000000000006502000861
:10003000BD06000800000000C1020008853000086D
:100040003F0300083F0300083F0300083F03000888
:100050003F0300083F0300083F0300083F03000878
:100060003F0300083F0300083F0300083F03000868
:100070003F0300083F0300083F0300083F03000858
:100080003F0300083F0300083F030008A9050008DC
:100090009D0500083F0300083F0300083F030008D8
:1000A0003F0300083F0300083F0300083F03000828
:1000B0003F0300083F0300083F0300083F03000818
:1000C0003F0300083F0300083F0300083F03000808
:1000D0003F0300083F0300083F0300083F030008F8
:1000E0003F0300083F0300083F0300083F030008E8
:1000F0003F0300083F0300083F0300083F030008D8
:100100003F0300083F0300083F0300083F030008C7
:100110003F0300083F0300083F0300083F030008B7
:100120003F0300080D0600083F0300083F030008D6
:100130003F0300080000000000000000C1050008A7
:10014000B50500083F0300083F0300083F0300080F
:100150003F0300083F0300083F0300086937000819
:100160003F0300083F0300083F0300083F03000867
:100170003F0300083F0300083F03000800000000A1
:10018000000000003F030008000000000000000025
:100190003F03000800000000000000003F030008CB
:1001A0000000000000000000000000003F03000805
:1001B0003F0300083F0300083F0300083F03000817
:1001C0003F03000800F002F800F03CF80AA090E8B5
:1001D000000C82448344AAF10107DA4501D100F002
:1001E00031F8AFF2090EBAE80F0013F0010F18BF93
:1001F000FB1A43F001031847006A0000206A000060
:10020000103A24BF78C878C1FAD8520724BF30C842
:1002100030C144BF04680C60704700000023002414
:1002200000250026103A28BF78C1FBD8520728BF06
:1002300030C148BF0B6070471FB506F0D0FB1FBD33
:1002400010B510BD00F074F91146FFF7F5FF04F08A
:100250000BFC00F092F903B4FFF7F2FF03BC00F0CF
:1002600095F900002C4B19680868B0E8F04F80F34E
:100270000988BFF36F8F4FF0000080F3118870473B
:100280000000000008480068006880F308884FF00C
:10029000000080F3148862B661B6BFF34F8FBFF3DE
:1002A0006F8F00DF00BF00BF08ED00E0DFF80C003B
:1002B000016841F470010160704700BF88ED00E003
:1002C000EFF30980BFF36F8F134B1A681EF0100F06
:1002D00008BF20ED108A20E9F04F106009B44FF0FC
:1002E000500080F31188BFF34F8FBFF36F8F05F07D
:1002F000C1FB4FF0000080F3118809BC1968086841
:10030000B0E8F04F1EF0100F08BFB0EC108A80F379
:100310000988BFF36F8F704720000020EFF305803E
:10032000704700000948804709480047FEE7FEE79C
:10033000FEE7FEE7FEE7FEE7FEE7FEE7FEE7FEE795
:1003400004480549054A064B704700003131000852
:10035000C5010008085E0020086400200860002035
:100360000860002053EA020C00F069802DE9F04B90
:100370004FF00006002B1FBFB3FA83F503FA05F414
:1003800024FA05F65E4012BF1643B2FA82F502FA6D
:1003900005F4C5F120051EBF22FA05FC44EA0C0451
:1003A000203556EA044C4FEA144418BF641C4FF041
:1003B00000084FF00009904271EB030C39D300297B
:1003C00019BFB1FA81F701FA07F6B0FA80F700FA1F
:1003D00007F6C7F120071EBF20FA07FC46EA0C0605
:1003E0002037B6FBF4FCA7EB0507103F07F01F0B07
:1003F000CBF120060CFA0BFB2CFA06F644BFB346F1
:100400000026202FA4BF5E464FF0000B5BEA060CCF
:1004100008BF4FF0010B19EB0B09ABFB027C48EB5B
:100420000608C01B06FB02CC0BFB03CC71EB0C01D6
:10043000C1E70B46024641464846BDE8F08B13B57E
:100440004FF000004FF00001AFF30080BDE81C400A
:10045000704710B5203AC0F00B80B1E81850203A30
:10046000A0E81850B1E81850A0E81850BFF4F5AF54
:100470005FEA027C24BFB1E81850A0E8185044BFDE
:1004800018C918C0BDE810405FEA827C24BF51F84B
:10049000043B40F8043B08BF7047D20728BF31F83F
:1004A000023B48BF11F8012B28BF20F8023B48BF90
:1004B00000F8012B70474FF0000200B51346944638
:1004C0009646203922BFA0E80C50A0E80C50B1F1AC
:1004D0002001BFF4F7AF090728BFA0E80C5048BFC0
:1004E0000CC05DF804EB890028BF40F8042B08BF5E
:1004F000704748BF20F8022B11F0804F18BF00F85A
:10050000012B704770477047704710B500F008F82E
:10051000006810BD10B5044600F002F8046010BD7C
:1005200000487047A45D002000487047A45D00208B
:100530007546FFF7F9FFAE4605006946534620F0C1
:100540000700854618B020B5FFF7FAFEBDE8204049
:100550004FF000064FF000074FF000084FF0000B7F
:1005600021F00701AC46ACE8C009ACE8C009ACE832
:10057000C009ACE8C0098D46704710B50446AFF31A
:1005800000802046BDE81040FFF765BE01491820F5
:10059000ABBEFEE7260002007047FEE7014800F010
:1005A00002BA000058030020014800F0FCB9000026
:1005B00058030020014800F0F6B900008003002035
:1005C000014800F0F0B900008003002070B50E4C27
:1005D00015460646216000216160A160C4E903134D
:1005E0000123214600F07FF860B102232A4621460C
:1005F000304600F078F828B104232A4621463046D8
:1006000000F071F8002070BD84410020014800F026
:1006100005BE00003404002001681823CAB2103A55
:10062000B2FBF3F2054B6FF30901032A9B5CC36530
:1006300000D9091D8165084670470000486A000816
:1006400010B5014600208B698A6A4FF0C07453B11F
:10065000B3F5005F15D072B1012A0CD0022A0AD07E
:10066000032A09D104E01AB1012A06D0022A03D1D3
:10067000C96AC90100D5012010BDC96AA142FAD0DA
:1006800010BD002AF7D0012AF2D0022AF3D0032AA3
:10069000F3D010BD30B50468256825F480252560A9
:1006A000046863608368402B036803D09960006826
:1006B000C26030BD9A600068C16030BD704772B6DC
:1006C000FEE790F82020012A07D0022A05D0416ACF
:1006D00041F48021416201207047006842690A4369
:1006E000426100207047F0B590F820500468A4687B
:1006F000012D05D0022D03D0416A41F4802153E041
:1007000014F0406F01D1E5004BD5C4F30164022C15
:1007100003D9416A41F4000146E00125A5401D606E
:100720008D684FF4C0739DB1CE6835434E6845EA7D
:10073000C605066803EB0417F5514FF4C275076848
:1007400005EB04150E697E51097D012905D009E0EC
:100750000E88CD6845EA4655EBE701684E5946F4E8
:1007600080764E511179D2F805504FF4C67641EAA1
:100770000525016806EB04168D511178D2F8012089
:100780004FF4C47541EA0221026805EB041551518A
:10079000006803EB0411425842F00102425000206D
:1007A000F0BD416A41F4001141620120F0BD00003A
:1007B00010B590F82020012A07D0022A05D0416AFE
:1007C00041F480214162012010BD3B48D0F8002255
:1007D00042F00102C0F80022D0F8002222F47C523C
:1007E000C0F80022D0F800224B6A42EA0322C0F887
:1007F00000220A7D02F01F0301229A40D0F81C3229
:100800009343C0F81C32CB69B3B9D0F80C32934390
:10081000C0F80C328C894B6864F31F434C6900EBC1
:10082000C404C4F840320C890B6864F31F434C695C
:1008300000EBC404C4F84432CB69012B16D1D0F8C4
:100840000C321343C0F80C320C884B6864F31F431E
:100850004C6900EBC404C4F840320C89CB6864F3E3
:100860001F434C6900EBC404C4F844328B69002B6D
:10087000D0F804320ED01343C0F804320B69002BB9
:10088000D0F8143208D01343C0F81432096A012991
:1008900004D008E09343EFE79343F5E7D0F81C1248
:1008A0001143C0F81C12D0F8001221F00101C0F869
:1008B0000012002010BD000000640040704730B5F9
:1008C00090F82040012C05D0022C03D0416A41F45D
:1008D00080215DE00468002955D02469A40754D024
:1008E0004FF4D874056804EB01142D5915F0040574
:1008F000956005682D594ED0ED08556005682C5956
:1009000004F00204D4604FF4DA74056804EB0114B7
:100910002D5905F00F05156105682D59C5F30725FB
:10092000956105682C59240C54614FF4DC720468FD
:1009300002EB0112A4581C700468A458240A5C70CD
:100940000468A458240C9C700468A258120EDA7033
:100950004FF4DE72046802EB0112A4581C710468A3
:10096000A458240A5C710468A458240C9C7104687F
:10097000A258120EDA71006881B1016941F02001BC
:100980000161002030BDE468A8E7416A41F400112C
:100990004162012030BD6D0D1560AFE7C16841F0C7
:1009A0002001C160EDE72DE9F05F054600680024F5
:1009B0004669D0F804908768D0F80CB0D0F810A041
:1009C000D0F81880F10748D0F90714D001218160D0
:1009D000B80703D5284600F0C0FB0CE0780702D525
:1009E0004FF4006407E0380702D54FF4805402E06A
:1009F000284600F0B1FBF80516D529684FF4807041
:100A00008860B80503D5284600F0A9FB0CE07805FE
:100A100002D544F4005407E0380502D544F480447C
:100A200002E0284600F09AFBF80316D529684FF437
:100A300080308860B80303D5284600F092FB0CE0B4
:100A4000780302D544F4004407E0380302D544F4A7
:100A5000803402E0284600F083FB300707D55FEAC8
:100A6000CB6004D52968102044F40074C860700776
:100A70004FF0080707D55FEA0B7004D52868C760F8
:100A8000284600F0ADF9B00706D52868C068800791
:100A900002D0284600F0A6F9700607D55FEACA60C2
:100AA00004D52968102044F480640861B00607D595
:100AB0005FEA0A7004D528680761284600F01CFB2D
:100AC000F00606D528680069800702D0284600F0A5
:100AD00014FBB00308D55FEAC96005D5296810206A
:100AE0004860284600F00AFBF00307D55FEA09706A
:100AF00004D528684760284600F034FB300446D50A
:100B00005FEA497040D5F00504D55FEAC87001D0AE
:100B100044F00104B00504D55FEA887001D544F0C3
:100B20000204700504D55FEA487001D544F004045E
:100B3000300529D518F0700F26D008F07000402835
:100B400015D006DC102809D020280AD0302816D16C
:100B50000AE050280ED0602811D10EE044F00804BD
:100B60000DE044F010040AE044F0200407E044F0F3
:100B7000400404E044F0800401E044F480742868F8
:100B8000816921F070018161296804204860002C8E
:100B900005D0686A204368622846FFF78FFEBDE8EB
:100BA000F09F70B5040003D094F8200010B104E069
:100BB000012070BD204600F081F82068016841F0F6
:100BC0000101016000F0A2FD0546052604E000F0E9
:100BD0009DFD401B0A2811D820684068C007F6D048
:100BE0002068016821F00201016000F08FFD0546D8
:100BF0000BE000F08BFD401B0A2806D9606A40F428
:100C00000030606284F82060D2E720684068800786
:100C1000EFD4207E0128206801683DD021F08001BA
:100C20000160607E01282068016838D021F0400111
:100C30000160A07E01282068016833D021F02001E6
:100C40000160E07E0128206801682ED041F010018B
:100C50000160207F01282068016829D021F0080167
:100C60000160607F01282068016824D021F0040120
:100C70000160D4E902010843D4E904121143084396
:100C80006168491E08432168C86100206062012034
:100C900084F82000002070BD41F08001C0E741F0E1
:100CA0004001C5E741F02001CAE721F01001CFE77C
:100CB00041F00801D4E741F00401D9E72DE9F04300
:100CC00087B0044614216846FFF7F5FB404B4148C6
:100CD000DFF8F8801968D4F800C03E4A02250326E0
:100CE0000927DFF8F49010300024491CC4452CD1AA
:100CF0001960012907D1016841F0007101600068A5
:100D000000F000700590106840F00200106010685C
:100D100002AB00F0020005904FF44070CDE90005F1
:100D200083E8D0006946484600F0FCFB002205211C
:100D3000132000F05DFD132000F04CFD0022052182
:100D4000142000F055FD14203BE0DFF89080C445EE
:100D500039D1D0F800C04CF0806CC0F800C0D0F899
:100D600000C001290CF0806CCDF814C0196007D1C7
:100D7000016841F000710160006800F000700590AA
:100D8000106840F002001060106802AB00F0020032
:100D900005904FF44050CDE9000583E8D000694646
:100DA000484600F0BFFB002205213F2000F020FD57
:100DB0003F2000F00FFD00220521402000F018FD2B
:100DC000402000F007FD07B0BDE8F083006400405C
:100DD0000C0000203038024000040240006800404F
:100DE000704700002DE9F04107462DED048B0068A7
:100DF000B949DFEDBA8A9FEDBA9ABA4DBA4EB7EE4D
:100E0000008A88427DD106F15804B84994F86800F8
:100E100004F1680300F00300487003F108020021A8
:100E20003846FFF74CFD0028ECD194F86800022802
:100E300048D1B4F86900F2EE090A40BA606094F84B
:100E40006B10BAEE090A0A0194F86C1042EA11120A
:100E5000626194F86D2001F00F0142EA01216162A4
:100E6000102104F0C7FC84ED0D0A0C21F0EE680A95
:100E7000B0EE490A606904F0BDFC84ED110A0C2152
:100E8000F3EE020ABBEE020A606A04F0B3FC84EDE2
:100E9000150A94F86800A5F8780094ED0D1A85ED10
:100EA0001F1AD4ED110AC5ED210A85ED200A96ED31
:100EB000010AB5EEC00AF1EE10FA03D185ED231A4E
:100EC00086ED018A94F8680013284BD1B4F86900C4
:100ED000F2EE090A40BAA06094F86B10BAEE090A63
:100EE0000A0194F86C1042EA1112A26194F86D2084
:100EF00001F00F0142EA0121A162102104F07AFC05
:100F000000E081E084ED0E0A0C21F0EE680AB0EEFC
:100F1000490AA06904F06EFC84ED120A0C21F3EE7C
:100F2000020ABBEE020AA06A04F064FC84ED160A11
:100F300094F868001038A5F8C80094ED0E1A85EDF5
:100F4000331AD4ED120AC5ED350A85ED340A96ED53
:100F5000020AB5EEC00AF1EE10FA03D185ED371A98
:100F600086ED028A94F86800142849D1B4F8690023
:100F7000F2EE090A40BAE06094F86B10BAEE090A82
:100F80000A0194F86C1042EA1112E26194F86D20A3
:100F900001F00F0142EA0121E162102104F02AFC74
:100FA00084ED0F0A0C21F0EE680AB0EE490AE06900
:100FB00004F020FC84ED130A0C21F3EE020ABBEED0
:100FC000020AE06A04F016FC84ED170A94F868003F
:100FD0001038A5F8180194ED0F1A85ED471AD4EDD5
:100FE000130AC5ED490A85ED480A96ED030AB5EEE8
:100FF000C00AF1EE10FA03D185ED4B1A86ED038A93
:1010000002213846FFF75DFB3949386888425ED1D6
:10101000384B002103F108023846FFF750FC002846
:1010200055D1344A683A92F86800012847D1B2F89D
:101030006900F2EE090A40BA106092F86B10BAEE3D
:10104000090A0B0192F86C1043EA1113136192F82C
:101050006D3001F00F0143EA01211162102104F00B
:10106000C9FB82ED0C0A0C21F0EE680AB0EE490AC9
:10107000106904F0BFFB82ED100A0C21F3EE020AA6
:10108000BBEE020A106A04F0B5FB82ED140A92F876
:1010900068002885D2ED0C0AC5ED0B0A92ED101AF6
:1010A00085ED0D1A85ED0C0A96ED000AB5EEC00A25
:1010B000F1EE10FA03D1C5ED0F0A86ED008A38462D
:1010C000BDEC048B0221BDE8F041FFF7FABABDEC9C
:1010D000048BBDE8F0810000006400400000344251
:1010E000000034C29C4100201043002092000020E8
:1010F000006800405C440020704770477047000063
:1011000070B5044690F82000012804D0606A40F4CD
:101110000020606218E0022084F820002068016846
:1011200021F00101016000F0F1FA05460EE000BF78
:1011300000F0ECFA401B0A2808D9606A40F400303D
:101140006062052084F82000012070BD206840689E
:10115000C007EDD1606270BD70477047704770473F
:101160007047704770472DE9F0410446876D00F0E5
:10117000CDFA064694F835000025022806D08020D6
:10118000606584F834500120BDE8F0812068016872
:1011900021F0160101602068416921F08001416160
:1011A000206C08B9A06C20B12068016821F008010A
:1011B00001602068016821F0010101600CE000F08D
:1011C000A5FA801B052807D920206065032084F834
:1011D000350084F83450D7E720680068C007EED1A6
:1011E00094F85C103F208840B860012084F83500F6
:1011F00084F834500020C7E790F83510022903D056
:101200008021416501207047052180F83510006874
:10121000016821F001010160002070472DE9F843C9
:1012200004464FF00009CDF8009063484FF4165182
:10123000A56D0068B0FBF1F72E6894F85C100820EB
:1012400000FA01F131420FD021680A6852070BD52C
:101250000A6822F004020A6094F85C108840A860D2
:10126000606D40F00100606594F85C104FF001087B
:1012700008FA01F0304208D021684969090604D50E
:10128000A860606D40F00200606594F85C10042076
:101290008840304208D021680968890704D5A860D1
:1012A000606D40F00400606594F85C101020884088
:1012B000304218D021680968090714D5A860206851
:1012C0000168490304D50068000308D5A16C07E054
:1012D0000168C90503D4016821F008010160216C8F
:1012E00009B12046884794F85C102020884030429D
:1012F00031D021680968C9062DD5A86094F8350059
:1013000005282068016806D0490347D50068000316
:101310001DD4616C1CE021F0160101602068416958
:1013200021F080014161206C08B9A06C20B12068D7
:10133000016821F00801016094F85C103F208840AA
:10134000A86084F8358084F83490216D1FE0E16B4B
:1013500009B120468847606D00282BD0606DC0071A
:1013600014D0052084F835002068016821F00101BF
:1013700001600098401C0090B84203D820680068C3
:10138000C007F6D184F8358084F83490E16C0029E8
:1013900010D001B02046BDE8F04308470168C905F8
:1013A000D5D4016821F01001016084F8358084F8FB
:1013B0003490CCE7BDE8F8831C0000202DE9F04113
:1013C000044600F0A3F906465CB1022084F835001B
:1013D000002584F834502068016821F00101016083
:1013E0000DE00120BDE8F08100F090F9801B052898
:1013F00005D920206065032084F83500F2E72068D5
:101400000068C007F0D12268116820480140D4E983
:1014100001031843D4E9033633431843636918437F
:10142000A3691843E3691843236A18430843616AB0
:10143000042903D1D4E90B13194308431060206831
:101440004069666A20F0070130460E4301270428F0
:101450000CD1A06A0643E06A40B12046FFF7F0F8DD
:1014600020B14020606584F83570BAE72068466195
:101470002046FFF7D1F894F85C203F21914081602D
:10148000656584F835700020ACE700003F8010F0FF
:101490002DE9F0410446866D90F8340000250128BE
:1014A0000DD0012084F8340094F835700020012F0D
:1014B00007D084F8340002252846BDE8F0810220D8
:1014C000FBE7022784F8357060652046FFF7E2F8F5
:1014D00094F85C103F208840B0602068016841F0BB
:1014E00016010160206C20B12068016841F00801FC
:1014F00001602068016841F001010160DCE7000043
:1015000070B5044600F002F90546601C02D004489C
:101510000078044400F0FAF8401BA042FAD370BDF2
:10152000100000202DE9F84FDFF8ACA100220124C3
:1015300003254FF00F090AF1040BAAF1040E00BFB6
:101540000B6804FA02F63340B3426ED10F7907F00C
:101550000307012F01D0022F16D187684FEA4208F6
:1015600005FA08FC27EA0C07D1F80CC00CFA08FCB5
:101570004CEA070CC0F808C04768B7430E79C6F3B9
:10158000001696403E4346600E79F643B6070AD0F1
:10159000C6684FEA420C05FA0CF7BE438F6807FA9B
:1015A0000CF73743C7600E7906F00306022E10D100
:1015B000D60800EB8608D8F8206057074FEAD76CAA
:1015C00009FA0CF7BE430F6907FA0CF73743C8F85E
:1015D000207006684FEA420C05FA0CF7BE430F79FB
:1015E00007F0030707FA0CF7374307604E6816F455
:1015F000403F6BD0394E376847F4804737603668D4
:1016000022F0030706F480460096354E07EB060CE1
:10161000DCF8086897074FEA177809FA08F7BE431D
:10162000304FB84202D100271FE04FE02E4FB842A2
:1016300001D1012719E02D4FB84201D1022714E052
:101640002B4FB84201D103270FE02A4FB84201D1F6
:1016500004270AE0284FB84201D1052705E0274FAB
:10166000B84201D1062700E0072707FA08F73743F9
:10167000CCF80878DAF800605746D1F804C09E43E9
:101680005FEACC2C00D51E433E60DBF800605F466D
:10169000D1F804C09E435FEA8C2C00D51E433E6007
:1016A000DEF800607746D1F804C09E435FEA8C3CC8
:1016B00000D51E433E60084F083F3E68D1F804C085
:1016C0009E435FEACC3C00D51E433E60521C102A6C
:1016D000FFF436AFBDE8F88F083C014044380240C3
:1016E00000300140000002400004024000080240B7
:1016F000000C02400010024000140240001802409A
:101700000AB1816170470904FBE700000148806865
:1017100070470000100000200248816802781144E0
:1017200081607047100000200B4810B5016841F43B
:1017300000710160016841F480610160016841F459
:1017400080710160032000F073F80F2000F006F8AC
:1017500000F024F8002010BD003C024070B50D4D93
:1017600004464FF47A712878B1FBF0F00A49096811
:10177000B1FBF0F000F040FB48B9102C07D200227A
:101780002146501E00F034F800206C6070BD01202E
:1017900070BD0000100000201C0000200C4882B02A
:1017A000016841F480410160006800F480400090CD
:1017B0000748001F016841F0805101600068002265
:1017C00000F0805000900F21901E02B000F010B881
:1017D00044380240002809DB00F01F02012191403B
:1017E0004009800000F1E020C0F8001170470000BF
:1017F000F0B40E4B1B680C46C3F30223C3F107057C
:10180000042D00D90425191D072901D2002300E069
:10181000DB1E012606FA05F1491E214099409E4033
:10182000761E16403143F0BC01F0D0BF0CED00E055
:10183000064900F0070208684FF6FF03184040EA27
:101840000220034A10430860704700000CED00E0DE
:101850000000FA052DE9F0470E46050065D0DFF8D7
:101860001481D8F80000F7B200F00F00B04207D2A0
:1018700088F80070D8F8000000F00F00B04254D192
:1018800028683D4C810712D5400703D5206840F4F5
:10189000E05020602878000703D5206840F46040BD
:1018A00020602068A96820F0F000084320602878B4
:1018B000C0072DD0304968680839012812D00228A5
:1018C00013D0032811D00968890700292DDA21686F
:1018D00021F0030101432160FFF718FF814641F227
:1018E000883A0EE009688903EFE709688901ECE7A7
:1018F000FFF70CFFA0EB0901514502D90320BDE819
:10190000F0872068696800F00C00B0EB810FEFD120
:10191000D8F80010404601F00F01B14207D9077016
:10192000006800F00F00B04201D00120E7E72878FE
:10193000400705D52068E96820F4E050084320609E
:101940002878000706D52068296920F4604040EA1D
:10195000C100206000F038F82168084AC1F3031183
:10196000515CC8400649086006480068FFF7F6FE6B
:101970000020C4E7003C024008380240506A0008DA
:101980001C00002014000020044805490068096874
:10199000044AC1F38221515CC84070471C000020FA
:1019A00008380240606A0008044805490068096870
:1019B000044AC1F34231515CC84070471C0000200A
:1019C00008380240606A0008224810B5006810F02C
:1019D0000C02214815D02149042A11D01D4C241F86
:1019E000082A0FD00C2A0CD12268236802F03F028B
:1019F0005B0221D52068C0F38810A0FB010120E024
:101A0000084610BD2268236802F03F025B0205D53C
:101A10002068C0F38810A0FB010104E02168C1F335
:101A20008811A1FB00010023FEF79CFC2168C1F393
:101A30000141491C49000AE02168C1F38811A1FB5A
:101A400000010023FEF78EFC2168C1F30271B0FB98
:101A5000F1F010BD083802400024F400001BB7006C
:101A60002DE9F84F04007DD0DFF878B32078ABF192
:101A70000407C007A7F1040550D0DBF80010584652
:101A8000C1F3810101290FD00168C1F3810102294D
:101A900002D13968490207D40068C0F381000328E5
:101AA00009D13868400206D52868800336D56068B9
:101AB0000028D8D032E06068B0F5803F10D0B0F593
:101AC000A02F286810D020F480302860286820F4E7
:101AD000802028606068A0B1FFF718FE06460CE081
:101AE000286840F48030F4E740F480202860F7E76D
:101AF000FFF70CFE801B642876D828688003F7D592
:101B00000CE0FFF703FE064605E000BFFFF7FEFD11
:101B1000801B6428F0D828688003F7D42078DFF889
:101B2000C89280074FF0000A44D5DBF800105846F1
:101B300011F00C0F0FD00168C1F38101022902D10D
:101B40003968490207D50068C0F3810003280AD12B
:101B50003868400207D42868800715D5E068012856
:101B600000D111E03AE1E068B0B10120C9F800000D
:101B7000FFF7CCFD064604E0FFF7C8FD801B0228F6
:101B8000BAD828688007F7D52868216920F0F800BE
:101B900040EAC10028600DE0C9F800A0FFF7B6FDDB
:101BA000064604E0FFF7B2FD801B02281CD8286817
:101BB0008007F7D42078000727D5DFF828828B48E4
:101BC000616908F16C0881B101210160FFF79EFD98
:101BD000064604E0FFF79AFD801B022804D8D8F8D7
:101BE00000008007F6D510E089E0C0F800A0FFF7FC
:101BF0008DFD064605E000BFFFF788FD801B02282B
:101C00007DD8D8F800008007F6D42078400769D541
:101C100074484FF0000838300068C0000BD4714899
:101C20003830016841F08051016000684FF00108D0
:101C300000F0805000906E4E3068C00511D43068BE
:101C400040F480703060FFF761FD009006E000BF57
:101C5000FFF75CFD0099401A022850D83068C00593
:101C6000F6D5604EA068683601280FD00528306888
:101C700010D020F001003060306820F004003060A7
:101C8000A068B8B1FFF742FD00900FE0306840F067
:101C90000100F4E740F004003060F7E7FFF736FD9D
:101CA0000099411A41F28830814264D83068800737
:101CB000F4D50EE0FFF72AFD009007E0FFF726FDC0
:101CC0000099411A41F28830814254D83068800727
:101CD000F4D4B8F1000F05D042483830016821F043
:101CE00080510160A069A8B3DBF80010C1F3810145
:101CF000022947D00228C9F860A005D000E03AE0E8
:101D0000FFF704FD044639E0FFF700FD064604E056
:101D1000FFF7FCFC801B02282DD828688001F7D42F
:101D2000F4E907010843E168324A490802EB01413E
:101D3000A26841EA82110843217C40EA0160217DCA
:101D400040EA017038600120C9F86000FFF7DEFC4E
:101D5000044606E044E000BFFFF7D8FC001B022861
:101D600009D828688001F7D53AE000BFFFF7CEFC1C
:101D7000001B022802D90320BDE8F88F28688001E3
:101D8000F4D42DE00128F7D03868E26900F480012E
:101D9000914223D1226A00F03F0191421ED147F6C1
:101DA000C071626A0140B1EB821F17D1A26A4FF085
:101DB000FF3300F4403103EB5202B1EB024F0DD17F
:101DC00094F82C2000F07061B1EB026F06D194F80A
:101DD000301000F0E040B0EB017F01D00120CBE7F4
:101DE0000020C9E70838024000004742800E474201
:101DF000007000400000FFFF10B5401EB0F1807F72
:101E000001D3012010BD4FF0E02460610F21601765
:101E100001F0DCFC0020A06107202061002010BD43
:101E200070B590F83C20012A32D0012480F83C4063
:101E3000022280F83D2003685A689D6822F07006EF
:101E40000A6832435A60134B02689A4214D0B2F1C6
:101E5000804F11D0104B9A420ED0104B9A420BD0AB
:101E60000F4B9A4208D00F4B9A4205D00E4B9A4224
:101E700002D00E4B9A4204D1496825F080031943E1
:101E8000916080F83D40002180F83C10084670BD0C
:101E9000022070BD00000140000400400008004026
:101EA000000C0040000401400040014000180040C8
:101EB00010B586B0044614216846FEF7FCFA0E49B8
:101EC0002068884215D10D480021026842F00402C2
:101ED0000260006800F0040005904FF4407000902C
:101EE0000220CDE90101CDE9031069460448FFF75E
:101EF00019FB06B010BD000000040040303802405D
:101F00000008024070B5044690F83C0000260D46DB
:101F100001280FD0012084F83C006AB1042A1DD0AA
:101F2000082A2FD00C2A3FD00126002084F83C003C
:101F3000304670BD022070BD206801F073F9206842
:101F4000816941F0080181612068816921F0040103
:101F50008161206881692A69114311E0206801F0DC
:101F600091F92068816941F400618161206881698B
:101F700021F480618161206881692A6941EA022136
:101F80008161D2E7206801F0B3F92068C16941F0AE
:101F90000801C1612068C16921F00401C1612068A4
:101FA000C1692A69114311E0206801F0D5F9206860
:101FB000C16941F40061C1612068C16921F4806197
:101FC000C1612068C1692A6941EA0221C161ACE7A7
:101FD00010B5040003D094F83D0010B107E00120D3
:101FE00010BD002084F83C00204600F01FF80220BD
:101FF00084F83D00211D206801F0A2F8012084F83A
:10200000460084F83E0084F83F0084F8400084F8DD
:10201000410084F8420084F8430084F8440084F8C6
:10202000450084F83D00002010BD000008B50068A0
:102030000649884208D10648016841F00201016062
:10204000006800F00200009008BD0000000400409D
:102050004038024010B50446022249B104290ED08E
:10206000082913D094F84100012816D0012010BD92
:1020700094F83E000128F9D184F83E200FE094F84E
:102080003F000128F2D184F83F2008E094F8400096
:102090000128EBD184F8402001E084F8412001229E
:1020A000206801F0B1F816492068164A884201D02C
:1020B000904203D1436C43F4004343642068884258
:1020C00013D0B0F1804F10D00F4988420DD00F4986
:1020D00088420AD00E49884207D0904205D00D4967
:1020E000884202D00C49884204D1816801F007017E
:1020F000062903D0016841F001010160002010BDF4
:1021000000000140000401400004004000080040BD
:10211000000C00400040014000180040704770472C
:10212000F8B5016804460868CA684B6910F00F0FDB
:102130004FF0000559D003F0010602F490773743C1
:1021400065D0C10705D0D10503D5216C41F001014F
:102150002164410705D5D90703D0216C41F0020164
:102160002164810705D5D90703D0216C41F0040112
:102170002164010707D502F02001314303D0216C0F
:1021800041F008012164216C00293AD0800604D571
:10219000900602D5204601F0B7F920684069216C0D
:1021A000C0F38010090700D460B3204601F077F92E
:1021B00020684069400621D52068143050E8001F8F
:1021C00021F0400140E80012002AF5D1A06BA8B12F
:1021D0006C490165A06BFFF70FF8002811D0A06BC8
:1021E000016D01B0BDE8F040084783060FD59306A6
:1021F0000DD52046BDE8F84001F086B92046FFF72E
:102200008EFFF8BD2046FFF78AFF2564F8BD266BD8
:102210002023012E79D1C60677D5D60675D5086854
:10222000486800904869400640D5A16B086840683E
:102230000004000CEAD0A28D8242E7D9E085C8698B
:10224000B0F5807F2DD020680C3050E8001F21F4BD
:10225000807140E80012002AF5D12068143050E85F
:10226000001F21F0010140E80012002AF5D120688A
:10227000143050E8001F21F0400140E80012002A0D
:10228000F5D184F83E30256320680C3050E8001FFB
:1022900021F0100140E80012002AF5D1A06BFEF7F2
:1022A00062FFA08DE18D401A81B229E0A08DE18D01
:1022B000401A81B2E08D0028A8D00029A6D020685D
:1022C0000C3050E8002F22F4907240E80026002ED7
:1022D000F5D12068143050E8002F22F0010240E8C8
:1022E0000026002EF5D184F83E30256320680C309E
:1022F00050E8002F22F0100240E80023002BF5D117
:102300002046FFF70BFFF8BDFFE705062BD51506A6
:1023100029D594F83D002128F5D1A068B0F5805F5B
:1023200001D12069B0B1206A411C21622168007886
:102330004860E08C401E0004000CE084E3D120687B
:10234000C16821F08001C1602068C16841F040018E
:10235000C160D8E7206A0088C0F308004860206A9E
:10236000801C2062E5E74006CDD55006CBD5CA6873
:10237000204622F04002CA6084F83D3000F0F5F8B3
:10238000C1E70000A933000870B5040004D094F838
:102390003D00002510B106E0012070BD84F83C50DE
:1023A000204600F023F8242084F83D002068C1680E
:1023B00021F40051C160204601F006F9206801694E
:1023C00021F4904101612068416921F02A014161B5
:1023D0002068C16841F40051C1602564202084F860
:1023E0003D0084F83E00002070BD000070B586B04E
:1023F000064614216846FEF75EF823493068884295
:1024000040D122480025016841F0200101600068A8
:1024100000F0200005901D481438016841F00401C7
:1024200001600068694600F004000590C02000903B
:102430000220CDE9010503200390082004901448F0
:10244000FFF770F8144C134820608005C4E90105BB
:102450004FF48060C4E9035065618001A561C4E95F
:10246000075020466562FEF7A9FF08B1FEF727F97D
:10247000B463002205214720A663FFF7B9F947207E
:10248000FFF7A8F906B070BD0014014044380240BF
:1024900000080240286402403404002090F83E30D6
:1024A000202B0ED159B152B190F83C30012B08D0FD
:1024B000012380F83C300023036301F00BB90120B5
:1024C000704702207047000030B4244B0068224956
:1024D0001A7888423BD15978214821B1012907D087
:1024E00002292DD033E00178A52930D1012159707E
:1024F0001B49B0F8014019310C80B0F803404C8002
:10250000B0F805408C80B0F80740CC80B0F80940A6
:102510000C81B0F80B404C81B0F80D408C81B0F8C4
:102520000F40CC81B0F811404C82B0F813408C823F
:10253000B0F815400C82B0F81740CC8202215970D7
:10254000104410F8010C5A2801D10020587030BCFA
:1025500003490448FFF7A2BF001401409000002087
:10256000DC420020F003002070477047FEE70000C7
:102570002DE9F34FFF492DED108BB5B00A891FFAF5
:1025800082FB8A891FFA82F88A8A92B20D92898C1C
:1025900090ED000A1FFA81F98DED110A90ED010A04
:1025A0008DED0B0AD0ED038A90ED078AD0ED02AADB
:1025B000D0ED04FA90ED05FA90ED06AAD0ED08EA08
:1025C00090ED09EAD0ED0A9A90ED0B9A0020019067
:1025D000029019901A901B90039004900590069019
:1025E000079018900890289029902A90279014908E
:1025F00015901690F0EE680AB0EE480A179002F0B7
:10260000B7F88DED010AB0EE40BAF1EE680AB1EE0E
:10261000480A02F0ADF88DED020AF0EE400A8DEDA9
:1026200003BACDED040A0020B7EE000A14A901EBAD
:102630008002401C80B282ED000A0228F6D39DED94
:10264000140A00278DED160A9DED150A48468DEDFA
:10265000170A03F07FFE4FEA4B06229106FB08F6AD
:102660000BFB0BF508FB08F4139001A800EB870A9D
:10267000DAF8000004F042F941EC100B01F0F4FB31
:10268000B0EE40BAF0EE60BA18EE100A04F036F977
:1026900053EC1B2B03F072FE41EC1D0BDAF800002B
:1026A00004F02CF941EC100B01F0DEFBB0EE40BA67
:1026B000F0EE60BA1AEE100A04F020F953EC1B2B6E
:1026C00003F05CFE41EC1C0BDAF8000004F016F994
:1026D00041EC100B01F064FBB0EE40BAF0EE60BAD2
:1026E0001AEE900A04F00AF953EC1B2B03F046FE95
:1026F00053EC1C2B03F0E8FB41EC100B229953EC3C
:10270000102B139803F03AFE41EC1C0BDAF8000092
:1027100004F0F4F841EC100B01F042FBB0EE40BACB
:10272000F0EE60BA18EE900A04F0E8F853EC1B2BB8
:1027300003F024FE53EC1C2B03F0F6FF53EC1D2B8F
:1027400003F0C2FB03F08EFB00EE100A0D9801EEC1
:10275000109A00EE900A20EE00BAB8EE411AF8EE98
:10276000600A00EE104A79EE600AB8EEC00A41EE47
:10277000690A00EEA0BA7BEE400A00EE105AB8EEED
:10278000C00A70EEC00A00EE106AB8EEC01A80EE01
:10279000810A10EE100AB0F17E5F16DC00EE104ADE
:1027A000B8EEC00A7BEE400A00EE105AB8EEC00A3E
:1027B00070EEC00A00EE106AB8EEC01A80EE810A10
:1027C00010EE100A10F1814F09D99FED6B0A05A890
:1027D00000EB870080ED000A80ED020A4CE000EE7D
:1027E000104AB8EEC00A7BEE400A00EE105AB8EE6E
:1027F000C00A70EE600A00EE106AB8EEC01A80EEF1
:10280000810A10EE100A04F079F841EC100B00F088
:10281000EFFF51EC100B03F025FB00EE104A05A969
:1028200001EB870AB8EEC00ACAF800007BEE400A46
:1028300000EE105AB8EEC00A70EE600A00EE106AA0
:10284000B8EEC01A80EE810A10EE100A04F056F8B5
:1028500041EC100B00F0CCFF4848B0EE40BAF0EE6F
:1028600060BA006804F04AF853EC1B2B03F05CFFDD
:1028700003F0F8FACAF808007F1CBFB2022FFFF479
:10288000F4AE3E480021B0EE00CAD0ED000A05AA21
:1028900002EB81003A4F90ED000A10EE103ABB4275
:1028A00002DB00EECC0A07E010EE103ADFF8D4C0ED
:1028B000634503D900EE8C0A80ED000A491C89B2F9
:1028C0000429E5D3002792460AEB870010900068A0
:1028D0002D4988427DDA04F011F841EC100B01F02B
:1028E000C3FA51EC100B03F0BDFA0BEE100A10986E
:1028F000006804F003F841EC100B01F051FA51ECC0
:10290000100B03F0AFFA0BEE900A01A800EB870062
:102910001090006803F0F2FF41EC100B01F0A4FAF4
:1029200051EC100B03F09EFA0CEE900A1098006820
:1029300003F0E4FF41EC100B01F032FA51EC100B04
:1029400003F090FA00EE100A0D9800EE900AF8EEEF
:10295000600A30EEC91A00EE909AF8EE600A00EEB6
:10296000A91A00EE90BAF8EE601A00EE908AF8EE1E
:10297000600A0BE08044002000007F43D400002068
:10298000C3F54840C3F548C00000C84150EE8B1A5B
:1029900000EE904AF8EEE00A21EE212A60EEAB0A42
:1029A00020EEAB1A00EE904AF8EEE00A60EE8B0AD9
:1029B00000EE8B1A00EE905AF8EEE00A31EE201A83
:1029C00000EE906AF8EEE00A00EECB1AC2EE011AB1
:1029D00000E0D5E02AEE801A00EE909A28EE800AF8
:1029E0000D980AEE2C1AB8EE602AF0EE400A42EE7C
:1029F000410A02EE108AB8EE422A48EE2C0A22EE74
:102A00002B2A60EE822A00EE904AF8EEE00A60EE91
:102A1000AB0A20EEAB2A00EE904AF8EEE00A60EE38
:102A20008B0A00EE8B2A00EE905AF8EEE00A32EEA6
:102A3000202A00EE906AF8EEE00A00EECB2AC2EE01
:102A4000820A71EEE01A00EE900AF8EE600A30EEAB
:102A5000C92A00EE909AF8EE600A00EEA92A00EE6C
:102A6000908AF8EE600A60EEAB0A22EE203A00EEA1
:102A7000904A02EE104AF8EEE00AB8EEC22A60EE82
:102A8000AB0A22EE0B2A60EEAB0A42EE0B0A02EE14
:102A9000105AB8EEC22A70EE822A00EE906AF8EE62
:102AA000E00A40EECB2A00EE909AF8EE600A83EE40
:102AB000222A00EEC10A00EE90BAB8EE601A00EECB
:102AC000908A08EE2C0AF8EE600A00EECB1A20EE8F
:102AD000011A00EE104AB8EEC00A20EE2B0A60EE92
:102AE0002B0A00EE104AB8EEC00A20EE0B0A40EEA8
:102AF0000B0A00EE105AB8EEC00A70EE800A00EE23
:102B0000106A4FF07E51B8EEC00A40EE4B0A81EEDB
:102B1000200A32EE400A10EE100A884230DC10EE35
:102B2000100A9C4A90422BD811EE900A884227DC6A
:102B300011EE900A904223D8F0EE610A01F018FEDF
:102B400018A800EB87007F1CBFB280ED000A042F9D
:102B5000FFF4BAAEDFF840B2904ADFF84492DBED02
:102B6000000A00200DF1600101EB8003904693ED17
:102B7000000A10EE104A944205DB00EECC0A08E091
:102B80001FED830ADCE710EE104A4C4503D900EE36
:102B90008C0A83ED000A401C80B20428E4D300278D
:102BA00001AC14AD05EB8706306803F0A7FE41ECDD
:102BB000100B01F059F951EC100B03F053F908EE2A
:102BC000900A306803F09AFE41EC100B01F0E8F82F
:102BD00051EC100B03F046F904EB870608EE100ADF
:102BE000306803F08BFE41EC100B01F03DF951EC25
:102BF000100B03F037F909EE100A306803F07EFE7F
:102C000041EC100B01F0CCF851EC100B03F02AF959
:102C100001EE100A9DED110ADDED0B1A6EEE880A29
:102C200020EE010A21EE811A4EEE680A20EE080A13
:102C300001EE680A2FEE881A01EE090A2FEE091A32
:102C400011EE280A01F094FD18AB03EB870027A9C9
:102C5000D0ED000A0AEB8700564630EE600AD0ED50
:102C6000000A01EB87007F1C30EE600ABFB2042F20
:102C700080ED000A96D3DBED000A00204FEA090C34
:102C800001EB800797ED000A10EE102A424502DBA7
:102C900000EECC0A05E010EE102A624503D900EEE2
:102CA0008C0A87ED000A401C80B20428E8D33D4A14
:102CB000002000BF04EB800703EB800C97ED000AB7
:102CC00000EB800702EB870787ED000A9CED000A06
:102CD00006EB800C87ED010A9CED000A01EB800CED
:102CE00087ED020A9CED000A05EB800C87ED030AD4
:102CF0009CED000A401C87ED040A0428DADB002062
:102D00004FF0404800EB800702EB870CDCF80070C6
:102D1000474537D2B7F1804F34DADCF8047017F149
:102D2000814F2FD2B7F17E5F2CDADCF80870DFF824
:102D300078C0674526D2DFF874C0674522DC04EB13
:102D4000800797ED000A469F87ED000A03EB800796
:102D500097ED000A469F87ED010A06EB800797ED85
:102D6000000A469F87ED020A01EB800797ED000AF3
:102D7000469F87ED030A05EB800797ED000A469F03
:102D800087ED040A401C0428BCDB35B0BDEC108B79
:102D9000BDE8FC8F000080BFD4000020C3F5484090
:102DA000C3F548C0BC4400208FC2D5BF6666663FED
:102DB0000F4810B50D4901600321416000214FF417
:102DC00010228160C0E903124FF4001242610176C3
:102DD00041768176C17601774177FDF7E2FE0028E2
:102DE00003D0BDE81040FDF76ABC10BD0064004090
:102DF000580300200F4810B50D49016003214160C0
:102E000000214FF410228160C0E903124FF4001238
:102E10004261017641768176C17601774177FDF78F
:102E2000C0FE002803D0BDE81040FDF748BC10BD2F
:102E30000068004080030020094808B5016841F49B
:102E4000800101600068002200F4800000900521EC
:102E50003920FEF7CDFCBDE808403920FEF7BABCAA
:102E60003038024010B596B01C2211496846FDF773
:102E7000F0FA0021684602F019F90E4C0C491C22A8
:102E800020601C3107A8FDF7E4FA002107A802F032
:102E90000DF9074960601C2238310EA8FDF7D9FAF8
:102EA00000210EA802F002F9A06016B010BD0000CB
:102EB000F46900080000002030B587B0142168468E
:102EC000FDF7F9FA1D480024016841F00401016092
:102ED000016801F004010591016841F08001016081
:102EE000016801F080010591016841F00201016073
:102EF000016801F002010591016841F001010160E2
:102F000000680F4D00F001000590012242F210010F
:102F10002846FEF7F5FB002244F201012846FEF7A1
:102F2000EFFB46F2110000900120CDE90104694653
:102F300028460394FEF7F6FA07B030BD3038024059
:102F40000008024010B58AB0002407941C2168468E
:102F50000894FDF7B0FA1A48184901605321C0E9F6
:102F6000011444F61F61C0E903148461FFF730F8CF
:102F700008B1FDF7A4FB079407A911480894FEF7D0
:102F80004FFF08B1FDF79BFB6020CDE900040294E0
:102F9000082269460A480494FEF7B4FF08B1FDF719
:102FA0008EFB0C2269460648FEF7ACFF08B1FDF720
:102FB00086FB0348FEF77CFF0AB010BD000400400A
:102FC000A80300200C4810B50A4901604FF41651BF
:102FD0004160002181600C22C160C0E9041281615E
:102FE000C161FFF7D1F9002803D0BDE81040FDF71B
:102FF00066BB10BD00140140F0030020FEE7FEE7B1
:1030000070B504461C4801F5807110EE103A01605D
:1030100000218160C1600821016100F13001180ABE
:1030200001F8603F10EE902A4870180C8870180E56
:10303000C8700A71100A4871100C8871100E0E4A7F
:10304000C8719032012315460B492046FDF74BFB12
:1030500000280FD002232A4607492046FDF743FBEC
:10306000002807D02A462046BDE8704004230249C4
:10307000FDF739BB70BD000038430020012002F08D
:1030800009F8FBE710B5FEF747FB02F009FE01283F
:1030900003D0BDE8104002F095BD10BD30B593B02F
:1030A00034216846FDF707FA14210DA8FDF703FA4D
:1030B0001D480025016841F080510160006800F062
:1030C000805012901948016841F440410160006845
:1030D000022400F44040129001200090000401906E
:1030E0008001CDE9064006200890A820CDE909041A
:1030F0000B9468460C94FEF7B3FC08B172B6FEE779
:103100000DA90F2081E831004FF4A05010904FF42A
:103110008050119005210DA8FEF79CFB002801D0DE
:1031200072B6FEE713B030BD403802400070004078
:103130000248016841F470010160704788ED00E0C9
:10314000F0B50268254C264D264E274F274B4FF0F1
:10315000804CA04209D0604507D0A84205D0B042BB
:1031600003D0B84201D0984204D122F0700E4A68D0
:1031700042EA0E02A0421BD0604519D0A84217D0E7
:10318000B04215D0B84213D0984211D0184DA84281
:103190000ED0184DA8420BD0174DA84208D0174D9D
:1031A000A84205D0164DA84202D0164DA84203D120
:1031B00022F44075CA682A434D6922F080022A43EE
:1031C00002608A68C2620A688262A04201D09842A4
:1031D00001D10969016301214161F0BD0000014095
:1031E0000004004000080040000C004000040140C2
:1031F00000400140004401400048014000180040E8
:10320000001C00400020004010B501F01F03012108
:10321000046A99408C430462016A9A401143016236
:1032200010BD0000F0B5026A22F001020262036ADA
:1032300042688469124E24F073050C682C4323F015
:1032400002058B682B430D4DA84201D0B04205D139
:1032500023F00807CB683B4323F00403A84201D0C6
:10326000B04205D14D6922F4407215438A692A4360
:1032700042608461496841630362F0BD000001401F
:1032800000040140F0B5026A22F010020262026AF4
:10329000436884690D6824F4E64444EA05248D6893
:1032A00022F0200242EA05120F4D104EA84201D032
:1032B000B04206D1CF6822F0800242EA071222F023
:1032C0004002A84201D0B04207D14D6923F44063C7
:1032D00043EA85038D6943EA850343608461496855
:1032E00081630262F0BD0000000001400004014063
:1032F000F0B5026A22F480720262026A4368C4690D
:1033000022F4007224F073050C68124E2C438D6871
:1033100042EA05220E4DA84201D0B04206D1CF6844
:1033200022F4006242EA072222F48062A84201D01D
:10333000B04207D14D6923F4405343EA05138D6928
:1033400043EA05134360C4614968C1630262F0BD8A
:10335000000001400004014030B5026A22F48052AE
:103360000262046A4268C3690D6823F4E64343EAD3
:1033700005238D6824F4005444EA0534084DA8421E
:1033800002D0084DA84204D14D6922F4804242EA9D
:1033900085124260C36149680164046230BD000067
:1033A000000001400004014010B5806B0021C18580
:1033B000C184FEF7B4FE10BD70B5846B206840690F
:1033C00094F83D10C0F3C0100025212904D118B194
:1033D000E584204600F08AF82068406994F83E10A1
:1033E000C0F38010222904D118B1E585204600F0F1
:1033F00056F8206C40F0100020642046FEF78FFE47
:1034000070BD10B50146806B09680968C9052FD4E5
:103410000021C18501680C3151E8002F22F480722F
:1034200041E80023002BF5D10168143151E8002F49
:1034300022F0010241E80023002BF5D1016814318C
:1034400051E8002F22F0400241E80023002BF5D183
:10345000202180F83E10016B012909D101680C314F
:1034600051E8002F22F0100241E80023002BF5D193
:10347000016B012902D0FFF727F810BD818DFEF7FF
:103480004DFE10BD10B5806B016B012902D0FFF716
:103490006BF810BD818D4908FEF740FE10BD016834
:1034A0000C3151E8002F22F4907241E80023002BE8
:1034B000F5D10168143151E8002F22F0010241E8F2
:1034C0000023002BF5D1016B012909D101680C31D2
:1034D00051E8002F22F0100241E80023002BF5D123
:1034E000202180F83E1000210163704701680C31F3
:1034F00051E8002F22F0C00241E80023002BF5D153
:10350000202180F83D10704708B590F83E10222920
:1035100001D0022008BD82684FF480539A4201D145
:10352000016921B1816A9A421BD04AB10AE002685E
:10353000816A5268C2F308020A80816A891C08E025
:10354000026972B10268526802F07F020A70816AF1
:10355000491C8162C18D491E0904090CC18503D033
:1035600019E002685268F1E70168CA6822F0200297
:10357000CA600168CA6822F48072CA6001684A6938
:1035800022F001024A61202180F83E10016B0129DE
:1035900003D0FEF799FF002008BD002101630168F8
:1035A0000C3151E8002F22F0100241E80023002BDB
:1035B000F5D101680A68D20602D50A684968009107
:1035C000818DFEF7ABFDE6E770B504460068016942
:1035D000E26821F44051114301612169A068E26968
:1035E00008436169114308432168CA6849F20C63C2
:1035F0009A430243CA6020684169A26921F440717C
:103600001143416131492068884202D030498842E3
:1036100002D1FEF7C9F901E0FEF7B6F9E26900232D
:10362000192164253226B2F5004F626828D0A0FB2C
:103630000101930F9200FCF795FE0146B0FBF5F0F7
:103640006FF01802504301EB800006EB0010B0FB56
:10365000F5F000F0F002B1FBF5F002EB0012B1FB67
:10366000F5F06FF01803584301EB800006EB0010F3
:10367000B0FBF5F000F00F0021681044886070BDC9
:10368000A0FB010192185B41FCF76CFE0146B0FB08
:10369000F5F00201B1FBF5F06FF01803584301EBB0
:1036A000800006EBC000B0FBF5F000F0F80002EB84
:1036B0004002B1FBF5F0584301EB800006EBC0007F
:1036C000B0FBF5F000F00700D6E700000010014065
:1036D0000014014038B581628285002513460446F6
:1036E0000564222084F83E00A26B1C48D063A26BC4
:1036F0001B481064A26B1B48D064A06B0A4605658A
:103700002168A06B091DFDF7C3FE206801684068B1
:10371000009084F83C50206948B120680C3050E893
:10372000001F41F4807140E80012002AF5D12068A2
:10373000143050E8001F41F0010140E80012002A57
:10374000F5D12068143050E8001F41F0400140E8F6
:103750000012002AF5D1002038BD00000334000813
:1037600085340008B93300080148FEF7D9BC0000D1
:10377000F0030020FEE703B401984100009850EAEE
:10378000C12018BF04204A0D18BF40F0010040F2CC
:10379000FF72B2EB515F08BF40F00200012808BF82
:1037A000052002B070474100080218BF04200A0E2D
:1037B00018BF40F001004FF07F4232EA010108BF1C
:1037C00040F00200012808BF052070470907090ED4
:1037D000002804DB00F1E02080F80014704700F0BE
:1037E0000F0000F1E02080F8141D70470000000079
:1037F00070B5C1482DED020B2DED0E8B82B0119DE1
:1038000025F000449FEDBEDB9FEDBFEB84423EDB25
:10381000A4F140511098A1F17F6108430FD0BC483A
:10382000844202DC28D1109830B39DED100B02B019
:10383000BDEC0E8B02B0BDE8704000F061BF9DEDA5
:10384000100B53EC1D2B51EC100B02F097FD9DED6E
:10385000100B41EC180B53EC1E2B51EC100B02F02B
:103860008DFD53EC182B02F02FFB41EC100B02B036
:10387000BDEC0E8B02B070BD0120FCF74BFE02B018
:10388000BDEC0E8B02B0BDE8704000F045BFA14812
:103890009FEDA18B844256DA9DED100BB4F1795F58
:1038A0000ADA51EC100BFFF766FF042808BF00F09E
:1038B00043FF9DED100BDAE753EC102B51EC100B8E
:1038C00002F05CFD41EC190B95480621B0EE490A67
:1038D000F0EE690A784400F0FFFD53EC192B51EC2F
:1038E000100B02F04BFD41EC1A0B8E48B0EE490A6A
:1038F000F0EE690A0421784400F0EEFD53EC192B38
:1039000051EC100B02F03AFD53EC182B02F0DCFAEC
:1039100041EC100B51EC1A0B53EC102B02F07CFB1A
:10392000CDE900019DED000B53EC102B9DED100B2C
:1039300051EC100B02F022FD9DED101B53EC112BEE
:1039400002F0C2FAD2E09DED100B51EC100B01F029
:103950001BF853EC182B02F00FFE9FED730BCDE913
:10396000000153EC102B9DED000B51EC100B02F0FD
:1039700005FD41EC190B6E480621B0EE490AF0EE48
:10398000690A784400F0A8FD53EC192B51EC100B98
:1039900002F0F4FC41EC1B0B6648B0EE490AF0EE75
:1039A000690A0421784400F097FD53EC192B51EC7F
:1039B000100B02F0E3FC53EC182B02F085FA41ECFB
:1039C0001C0B51EC190B01F0AFFE41EC180B5A48DF
:1039D0009FED5BABA04222DC53EC1C2B51EC1B0B8C
:1039E00002F01AFBCDE900019DED000B51EC180B24
:1039F00053EC102B02F0C2FC53EC182B02F064FACB
:103A000053EC1A2B02F0BAFC53EC1D2B02F08CFE87
:103A100053EC1E2B02F0B0FD41EC100B5FE08DED7E
:103A2000008B002000909DED000B51EC180B53EC27
:103A3000102B02F049FA9DED000B41EC1E0B53ECEC
:103A4000102B51EC100B02F099FC53EC192B02F0E7
:103A500093FD53EC1E2B02F0DFFA41EC190B53ECF3
:103A60001C2B51EC1B0B02F0D7FA41EC1B0B53EC57
:103A70001A2B51EC190B02F081FC53EC1D2B02F0B8
:103A80007BFD41EC190B53EC1A2B51EC180B02F097
:103A900075FC53EC1B2B02F071FC53EC192B02F05C
:103AA00043FE9DED000B41EC180B53EC1A2B51EC2F
:103AB000100B02F063FC9FED249B53EC192B02F0DA
:103AC0005BFD41EC100B51EC180B53EC102B02F08A
:103AD0002BFE53EC192B02F04FFD41EC100B002D87
:103AE0003FF7C5AE51EC100B02F0B0F941EC100BF2
:103AF000BDE60000000000000000F03F00000000F4
:103B0000075C143326A6913C182D4454FB21F93F41
:103B10000000F07F0000E03F000000000000F03FE8
:103B2000903100009E310000000000000000E03FE6
:103B3000E2300000F03000003333EF3F00000000BF
:103B40000000000000000040182D4454FB21E93F14
:103B500010EE100A10B510EE901A4FF0684202EB0A
:103B600040032DED028BB3F1654F3CBF02EB4102E8
:103B7000B2F1654F7CD200BFC0F3C753C1F3C75247
:103B80009A1A1B2A09DD10F0004F14BF9FED6E0A30
:103B90009FED6E0ABDEC028B10BD12F11A0F1BDAFD
:103BA00011F0004F09D010F0004F0CBF9FED680AD4
:103BB0009FED680ABDEC028B10BD80EE208A18EEE6
:103BC000100AFFF7F0FD042808BF00F0C9FDB0EEB1
:103BD000480ABDEC028B10BD4200B2EB410F37D951
:103BE00010F0004F19BFDFED5C1A9FED5C1ADFED9E
:103BF0005C1A9FED5C1AB0EE602A0A46F1EE400AAC
:103C000080F00041B0EE420A10460A1A5200B2F1AA
:103C1000807F34D2484010F0004FDFED532A9FEDF3
:103C2000533A1DBFBEEE002A71EEE21A31EE431A7E
:103C3000B6EE002A04BF71EEA21A31EE031AF0EEBE
:103C4000402A42EE602A40EE020A82EEA02A18E0E4
:103C500011F0004F04BF9FED461AF0EE411AD4D088
:103C600010F0004F1CBFDFED431A9FED431A00E038
:103C700026E004BFDFED411A9FED411AC5E780EE53
:103C8000202A22EE020ADFED3F0ADFED3F2ABDECDB
:103C9000028B40EE202ADFED3D0A40EE220ADFEDE6
:103CA0003C2A40EE202ADFED3B0A40EE220A22EEBB
:103CB000000A00EE201A31EE020A30EE210A10BD91
:103CC0004FF07F42B2EB400F28BFB2EB410F05D25D
:103CD000BDEC028BBDE8104000F03EBD40EA0103A0
:103CE0005B0008BF41F0FF410BD0B2EB400F08BFB3
:103CF000B2EB410F08D120F0804000EE100A21F015
:103D0000804100EE901A37E7B2EB400F12BF5FEA36
:103D1000410240F0FF4001F000413FF42DAF4A0066
:103D200092EA40033FF528AF002AACBF9FED1A1A74
:103D30009FED1A1A20EE010A60EE810A10EE100AB9
:103D400010EE901A18E70000DB0FC9BFDB0FC93F68
:103D5000DB0F4940DB0F49C00000C9BF22AAFDB9F3
:103D60000000C93F22AAFD390060ED3EC30ACE37EC
:103D700000000000000049C022AA7DBA00004940AE
:103D800022AA7D3A2DAD65BD8FB8D53D0FB511BEC8
:103D900061C84C3EA8AAAABE0000804F0000802F38
:103DA00010B52F499FED2C1B2DED020B84B005980B
:103DB00020F000408842D8BF9DED040B2DDD29493D
:103DC000884209D1049840B94FF00100FCF7A2FBEA
:103DD00000F0A2FC06B010BD05DB9DED040B00F069
:103DE0008FFC06B010BD68469DED040B00F0A0F8F6
:103DF00010F0030004BF9DED021B9DED000B0CD0E5
:103E000001280ED09DED021B9DED000B022817D05E
:103E1000012000F0DDFB06B010BD00F0A5FA06B0F1
:103E200010BD9DED021B9DED000B012000F0D0FBAD
:103E300051EC100B02F00AF806B041EC100B10BD6B
:103E400000F092FA51EC100B02F000F806B041ECD1
:103E5000100B10BD0000000000000000000000007A
:103E6000FB21E93F0000F07F10B52F499FED2C1B8F
:103E70002DED020B84B0059820F000408842DCBF95
:103E800000209DED040B32DD2849884209D10498B9
:103E900040B94FF00100FCF73DFB00F03DFC06B0DF
:103EA00010BD05DB9DED040B00F02AFC06B010BD33
:103EB00068469DED040B00F03BF810F0030011D0B4
:103EC000012818D09DED021B9DED000B02281AD091
:103ED00000F04AFA51EC100B01F0B8FF06B041ECCB
:103EE000100B10BD9DED021B9DED000B012000F09D
:103EF0006FFB06B010BD9DED021B9DED000B00F0A9
:103F000033FA06B010BD012000F062FB51EC100B3B
:103F100001F09CFF06B041EC100B10BD000000004A
:103F20000000000000000000FB21E93F0000F07FDE
:103F30002DE9F14F04462DED020B2DED088B8AB0D3
:103F40009FEDE70B80ED020B139EE74826F000453E
:103F500085420ADC9DED120B002084ED000B0AB0B7
:103F6000BDEC088B03B0BDE8F08FE0489FEDE0ABFF
:103F70009FEDE1BBA84247DDE14F9FEDE39B9FED45
:103F8000E48B9DED120B53EC1A2B51EC100B002E11
:103F90001CDD02F0C9FB41EC100BBD4208D053EC14
:103FA0001B2B51EC100B02F0BFFBC4E900010BE02E
:103FB00053EC192B51EC100B02F0B6FB53EC182B01
:103FC00002F0B2FBC4E900010120C8E701F07CFF68
:103FD00041EC100BBD4208D053EC1B2B51EC100BE5
:103FE00001F072FFC4E900010BE053EC192B51EC16
:103FF000100B01F069FF53EC182B01F065FFC4E9C9
:1040000000014FF0FF30AAE7C348A84279DB9DEDDD
:10401000120B51EC100B00F0B7FC41EC180B9FEDAC
:10402000C00B53EC102B02F0A9F99FEDBF1B53EC12
:10403000112B01F049FF02F047F9074602F073F92E
:1040400041EC190B53EC1A2B02F098F953EC182B96
:1040500002F092FA41EC180B53EC1B2B51EC190BAC
:1040600002F08CF9DFF8C8A241EC100B4FEA1558AA
:104070000125FA4453EC102B51EC180B02F054FBC1
:10408000032DC4E900013DD0C1F30A5005EB4511F1
:10409000A8EB00001139814234DA0AEB051BB0EEBF
:1040A00048AA9BED000BF0EE68AA53EC102B51ECE4
:1040B000190B02F063F941EC1B0B51EC1A0B53EC9A
:1040C0001B2B02F031FB41EC180B51EC1A0B53EC9B
:1040D000182B02F029FB53EC1B2B02F025FB9BED68
:1040E000020B41EC1A0B53EC102B51EC190B02F0A4
:1040F00045F953EC1A2B02F017FB41EC100B6D1C29
:10410000B8E70EE0002EA8BF3846BFF628AF94ED02
:10411000000B51EC100B01F099FEC4E9000178424C
:104120001DE7C6F3130040F4801EC6F30A50A0F248
:10413000F530471100F01F05C5F12000DDF848B04B
:1041400008900020069007900520EC467949002D44
:1041500007EB0002794408BF51F8221009D051F84A
:10416000223001EB8201AB404A68089922FA01F142
:104170001943A1FB0E26A1FB0B131A449A4234BF2C
:104180000123002303EB06080CEB8003D3E901A60F
:104190000E448E4234BF0121002192448A4411B161
:1041A000924502D903E0924501D2012100E00021AD
:1041B000C3E901A641444CF82010011EA0F1010002
:1041C000C4DC029800F10050850F0298DDE9036716
:1041D0008000DDF8148002F0A6F841EC1A0B30469E
:1041E00002F0B8F89FED541B53EC112B02F0C6F807
:1041F00041EC1B0B384602F0ADF89FED511B53EC20
:10420000112B02F0BBF841EC180B404602F0A2F86B
:104210009FED4D1B53EC112B02F0B0F841EC190B44
:1042200051EC180B53EC192B01F04EFE53EC1B2BE9
:1042300001F04AFE53EC1A2B01F046FECDE90801CD
:10424000002008909DED080B53EC1A2B51EC100B3D
:1042500002F06AFA53EC1B2B02F066FA53EC182BAF
:1042600002F062FA53EC192B02F086F99FED381B2D
:1042700053EC112B02F082F89FED370B41EC180B39
:1042800053EC102B9DED080B51EC100B02F076F85F
:1042900053EC182B01F018FE9FED310B41EC180B7D
:1042A00053EC102B9DED080B51EC100B02F066F84F
:1042B00053EC182B01F008FE41EC100B139810F092
:1042C000004F06D06D4251EC100B01F0BFFD41ECE8
:1042D000100B284684ED000B41E6000000000000B2
:1042E0000000000000000000FB21E93F7CD90240F3
:1042F00000004054FB21F93F3163621A61B4D03DA4
:10430000FB21F93F000000000000601A61B4D03DBD
:104310007370032E8A19A33BFB2139410000000072
:1043200083C8C96D305FE43F000000000000E03F3B
:10433000722A0000C0290000000000000000103EAA
:10434000000000000000103C000000000000103AD7
:10435000182D4454FB21F93D3326A611460B113C80
:1043600000000054FB21F93D10B52DED040B2DED9F
:10437000088B82B0B0EE419AF0EE619A0B9820F073
:1043800000449FED4BABB4F1795F11DA9DED0A0B60
:1043900051EC100B01F098FF002801BFB0EE4A0A63
:1043A000F0EE6A0A02B0BDEC088B04BF04B010BD89
:1043B0009DED0A0B53EC102B51EC100B01F0DEFFBE
:1043C00041EC180B3C480621B0EE480AF0EE680AB2
:1043D000784400F081F853EC182B51EC100B01F0ED
:1043E000CDFF9DED0A0B41EC1B0B53EC192B51EC4F
:1043F000100B01F0C3FF41EC190B53EC1B2B51ECDC
:10440000180B01F0BBFF53EC192B02F08DF99FED57
:104410002C0B41EC190B53EC102B51EC180B01F049
:10442000ADFF41EC100B2848844210DA53EC192BF5
:1044300051EC100B02F078F953EC1A2B02F09CF8B7
:1044400041EC100B02B0BDEC088B04B010BD1F484E
:10445000A042BCBF9FED1E1B8DED001B06DBA4F52B
:1044600000100190002000909DED001B51EC100BFE
:1044700053EC112B02F058F99DED000B41EC180B99
:1044800053EC102B51EC1A0B02F04EF941EC1A0BC5
:1044900053EC192B51EC180B02F046F953EC1A2B84
:1044A00002F06AF841EC100BCCE7000000000000BD
:1044B000000000000000F03FE426000000000000C3
:1044C000000000000000E03F3333D33F0000E93F2D
:1044D000000000000000D23F70B504462DED028BB5
:1044E0004D1E00EBC500B0EE408AF0EE608A90ED04
:1044F000000B35F0060017D053EC182B51EC100BC5
:1045000001F03CFF41EC100B6D1E04EBC50090ED7B
:10451000001B51EC100B53EC112B01F0D5FC41ECBE
:10452000100B35F00600E7D1022D36D0042D1CD03B
:10453000062D1CBFBDEC028B70BD53EC182B51EC4B
:10454000100B01F01BFF94ED0A1B53EC112B01F033
:10455000BBFC53EC182B01F011FF94ED081B53EC3E
:10456000112B01F0B1FC41EC100B53EC182B51EC6A
:10457000100B01F003FF94ED061B53EC112B01F01F
:10458000A3FC53EC182B01F0F9FE94ED040B53EC53
:10459000102B01F099FC41EC100B53EC182B51EC53
:1045A000100B01F0EBFE94ED021B53EC112B01F00C
:1045B0008BFC53EC182B01F0E1FE94ED001B53EC47
:1045C000112B01F081FCBDEC028B41EC100B70BD96
:1045D00031B504462DED040B2DED0A8BB0EE41BA3A
:1045E000F0EE61BA0B989DED0A0B20F00040B0F19F
:1045F000795F0DDA51EC100BFFF7BDF8042808BF06
:1046000000F09AF89DED0A0BBDEC0A8B05B030BDA9
:1046100053EC102B51EC100B01F0B0FE41EC180BD9
:104620009DED0A0B53EC182B51EC100B01F0A6FE7C
:1046300041EC190B2C48B0EE480AF0EE680A05214F
:104640007844FFF749FF9FED2ACBB0EE40AAF0EE89
:1046500060AA9CB353EC1C2B51EC190B01F08EFE9D
:1046600041EC1C0B53EC1A2B51EC190B01F086FE9C
:104670009FED210B41EC190B53EC102B51EC1B0B54
:1046800001F07CFE53EC192B02F04EF853EC182B82
:1046900001F074FE53EC1B2B02F046F853EC1C2B7C
:1046A00002F042F89DED0A1B53EC112B01F064FF60
:1046B000BDEC0A8B05B041EC100B30BDFFE753ECAD
:1046C0001A2B51EC180B01F059FE53EC1C2B01F086
:1046D000FBFB53EC192B01F051FE9DED0A1B53EC33
:1046E000112B01F0F1FBE3E76C2500000000000056
:1046F000495555555555C5BF000000000000E03F25
:1047000010B553EC102B51EC100B01F0DDFB41EC1C
:10471000100B10BD000000009FED050B10B553EC11
:10472000102B51EC100B01F077FC41EC100B10BD7D
:1047300000000000000000009FED050B10B553ECD9
:10474000102B51EC100B01F019FE41EC100B10BDB9
:10475000000000000000001030EE200A704700004A
:104760009FED020A20EE000A7047000000000010D2
:10477000F0EE401A9FED1A1AF0EEE12A9FED190AA9
:10478000F4EEC12AB0EEE02AF1EE10FA04D2B4EE53
:10479000C12AF1EE10FA19D3B4EEC12AF1EE10FAE3
:1047A00015D21148F5EEC01AD0ED000AF1EE10FA5C
:1047B00003DDB6EE000A20EE800AF5EEC01AF1EE37
:1047C00010FA03D2BEEE000A20EE800A7047F4EE23
:1047D000C12AF1EE10FAF9D3B0EE610AFFF7B8B9C9
:1047E00017B7D13800000000D400002000F004FA10
:1047F00000F080FF00F08CF9012000F04BFCF9E79D
:10480000194930B40020086018489FED160A486026
:10481000174A002001EB800452F8203004F5805440
:10482000401C80B2C4F8B4370528F3D311481249AC
:1048300080ED050A1148CA6A026091ED1F0AB1EEC7
:10484000400A10EE102A4260D1F8CC20826091ED2F
:10485000470AB1EE400A10EE101AC16030BC02489F
:1048600000F094BC00000000604500200000A04063
:10487000F0000020505D00209C410020D85C00200A
:10488000184930B40020086017484860174A0020D3
:1048900001EB800452F8203004F58054401C80B2B3
:1048A000C4F8B4370528F3D3114892ED040A11492E
:1048B00080ED050A1048CA6A026091ED1F0AB1EE48
:1048C000400A10EE102A4260D1F8CC20826091EDAF
:1048D000470AB1EE400A10EE101AC16030BC014820
:1048E00000F054BC6045002000004040DC00002087
:1048F000505D00209C410020D85C002000B58BB0AA
:1049000000200121CDE9060108910090019002905C
:1049100003900590049069460C48FBF749FF0B484B
:10492000FCF7EEFB02210948FBF7CBFE0E200990B5
:10493000059069460648FBF73BFF0548FCF7E0FB9E
:1049400002210348FBF7BDFE0BB000BD5803002059
:1049500080030020094810B50068C16841F01001CB
:10496000C1600748074902780448FDF797FDBDE894
:1049700010404FF47A70FCF7C3BD0000F003002034
:1049800090000020DC42002082B0CDE9000121F03F
:10499000004001909DED000B02B051EC100B7047F0
:1049A0002DED048B0021FA2229489FED2A9ADFED94
:1049B0002A9A016041608260C26001613F224261C7
:1049C0008161C16101627421244D254CDFED258A8E
:1049D0004162B7EE008A288A012805D0C4ED008A1A
:1049E000012000F057FBF6E7B5F91400012810D0BC
:1049F000022818D00028F3D194ED000AB5EEC00AC1
:104A0000F1EE10FAECD1FFF73BFF00BF84ED008A16
:104A1000E6E794ED000AB5EEC00AF1EE10FADFD138
:104A2000FFF7EEFEF2E794ED000AB5EEC00AF1EEF4
:104A300010FAD5D1B0EE082AF0EE681AB2EE041AD8
:104A4000F0EE490AB0EE690A00F05AFBDEE700001A
:104A50008044002000004843000048C3F542002085
:104A6000D800002000000000FCF75EFEFEF716FBF9
:104A7000FEF722FAFEF7E0F9FEF7A4FAFEF798F93E
:104A8000FEF7B8F9FEF75EFAFFF738FFFFF762FFAF
:104A9000FEF7E8F900F005FBFEE701460020842957
:104AA00000D0C81C70470FB410B5BDF83200169C7A
:104AB00048B9BDF830100823224602A8FBF786FD4E
:104AC0000A20FCF71DFDBDF8320001280CD1BDF80D
:104AD0003000082300F5807081B2224602A8FBF75F
:104AE00075FD0A20FCF70CFDBDF8320002280CD140
:104AF000BDF83000082300F5007081B2224602A8FC
:104B0000FBF764FD0A20FCF7FBFC10BC5DF814FB0E
:104B100070B5354C3549D4F82C01884203DB94ED4F
:104B2000470A84ED4B0A0020B7EE000A00EB800133
:104B300004EB0111401C80B281ED0E0A0428F5D36C
:104B40002B482C4DB0F9120000EB4001C1EBC01016
:104B50004FF4FA7101EBC00000EE100A2248B8EEE3
:104B6000C00A85ED0C0AD4ED0E0A94ED0F0A218DD2
:104B7000FEF746FA0120FCF7C3FC1B48D4ED220ADD
:104B800094ED230AB4F878105030FEF739FA01207A
:104B9000FCF7B6FC1448D4ED360A94ED370AB4F8A5
:104BA000C810A030FEF72CFA0120FCF7A9FC0E4833
:104BB000D4ED4A0A94ED4B0AB4F81811F030FEF720
:104BC0001FFA0120FCF79CFC288895ED050A00F0EF
:104BD0005FFD0120FCF794FCA88B95ED0C0ABDE865
:104BE000704000F055BD00009C410020CDCCCC3D74
:104BF000F5420020505D00202DE9F043704C012269
:104C0000A5B091032046FCF77BFD00220121204640
:104C1000FCF776FD012251032046FCF771FD0122CD
:104C200010212046FCF76CFD4FF47A70FCF768FC0D
:104C3000202264496448FBF70CFC624890F820107D
:104C4000614C04F8201F406A60605F4820225030A9
:104C50005E498046FBF7FDFB5C4D15F8200F84F89C
:104C600050006868606558482022A03057490646C1
:104C7000FBF7EFFB287884F8A0006868C4F8A4006C
:104C800051482022F03051498146FBF7E2FB287859
:104C900084F8F0006868C4F8F40001226281A4F886
:104CA0005A20A4F8AA20A4F8FA2022810220A4F80D
:104CB00058000320A4F8A8000420A4F8F80020223B
:104CC000414911A8FBF7C5FB20788DF864006068A6
:104CD0001A903D49282228311BA8FBF7BAFB3C4D0E
:104CE000402215A968461095FBF7B3FB11AF97E872
:104CF0000F00FFF7D8FE4FF4FA673846FCF700FCC8
:104D00002022414611A8FBF7A4FB94F850008DF82F
:104D10006400606D1A902C49282278311BA8FBF79B
:104D200098FB402215A968461095FBF792FB0DF100
:104D3000440898E80F00FFF7B6FE3846FCF7E0FBA2
:104D40002022314611A8FBF784FB94F8A0008DF8CF
:104D50006400D4F8A4001A901B492822C8311BA86B
:104D6000FBF777FB402215A968461095FBF771FB0E
:104D700098E80F00FFF797FE3846FCF7C1FB2022AA
:104D8000494611A8FBF765FB94F8F0008DF8640024
:104D9000D4F8F4001A9028220E491BA8FBF759FBFF
:104DA000402215A968461095FBF753FB98E80F00C1
:104DB000FFF779FE25B03846BDE8F043FCF7A0BB0D
:104DC00000080240800300209C410020580300207E
:104DD00088000020B4420020F0B5AC4B06462DED13
:104DE000068B0024F6EE006AB2EE007A0068986046
:104DF0007068F2EE0C7AB3EE008AF3EE0E8AB2EE31
:104E0000083AB3EE046AF0EE083AF0EE001AB1EE9A
:104E1000084AD86006EB8400A0F6880000F5005030
:104E20000025016805EE101A83ED0B5AC16B05EEE3
:104E3000901AC3ED0C5A416935EEC59A02EE101A6C
:104E400083ED0D2A016D29EE06AA04EE901AC3ED3A
:104E50000E4A816A64EE879A00EE901AC3ED0F0A3B
:104E6000406E20EEA60A02EE900A42EE039AC3EDCF
:104E7000052A83ED065A83ED072A83ED080A93ED90
:104E8000030A93ED021A35EE655A30EE410A09EE37
:104E9000C0AAF0EE629A50EEA39A69EE809A09EEEB
:104EA000C0AA60EE219A69EE809A69EE809ACAEEF5
:104EB00029AA24EEA7AA64EE844A02EE08AA42EECA
:104EC000044A29EE032A2AEE00AA04EEC02A05EEBF
:104ED00028AA20EEA35A70EEE20AC3ED09AA02EE58
:104EE000E15A60EE800A00EEC02A25EE005A05EE77
:104EF00000AA29EE805A25EE000ACAEE055AC2EE33
:104F0000000AC3ED0A5AC3ED040AAFE093ED020AAA
:104F1000022031EE400A00F07BF9D3ED020A93ED56
:104F2000062AD3ED072A71EE600A032002EEA02ABA
:104F3000D3ED082A02EE802AB0EE600A00F068F98C
:104F4000D3ED090A042000EE802A93ED020A31EE27
:104F5000400A00F05DF9D3ED0A0A052000EE802A30
:104F600093ED020A31EE400A00F052F9D3ED040A43
:104F7000C4EB041101EB810100EE802A06EB011164
:104F800001EB850712EE100AB86093ED020A0220C9
:104F900031EE400A00F03CF9D3ED080A93ED072A00
:104FA000032060EEA12AD3ED020A71EE600A02EE40
:104FB000A02AD3ED092A62EEA32A02EE802AB0EEDF
:104FC000600A00F025F9D3ED0A0AF1EE002A042068
:104FD00060EEA20A00EE802A93ED020A31EE400A4A
:104FE00000F016F9D3ED040AF1EE042A60EEA20AED
:104FF00000EE802A12EE100AC7F8980193ED020A1B
:10500000022031EE400A00F003F9D3ED090AD3ED96
:10501000082A032020EE842AD3ED020A71EE600AEA
:1050200022EE202A02EEA12AD3ED0A2A62EE832A7A
:1050300002EE802AB0EE600A00F0EAF8D3ED040A2E
:105040006D1CADB260EE860A00EE802A12EE100AE8
:105050009FED0F2AC7F8280393ED030AD3ED020A48
:1050600070EE600A80EE820A30EE011A93ED030AB8
:10507000B4EEC01AF1EE10FAFFF448AF641CA4B20B
:10508000042CFFF4C7AEBDEC068BF0BD94000020ED
:105090000000C84210B500B9012000F087FC0020D4
:1050A00010BD10B500F0A8FC002010BD7FB50D4666
:1050B00004464169B0F9080081B1A16971B1FFF7F7
:1050C000ECFCD4E905128DE80700D4E900102B466A
:1050D000226900F0BAFD039004B070BDFFF7DDFC5B
:1050E00003A9CDE90001208A2B4682B2D4E9001041
:1050F00000F07EFD012801D00020EDE70398EBE7EA
:1051000010B51E4CA4F15400C4EC021A00F044FB8C
:10511000A4F11401A1F14000FDF72AFA0020A4F146
:10512000140100BF04EB800351F8202003F58053E5
:10513000401C80B2C3F8B4270428F3D3104891ED83
:10514000040A104980ED050A0F48CA6A026091ED11
:105150001F0AB1EE400A10EE102A4260D1F8CC20AE
:10516000826091ED470AB1EE400A10EE101AC1605C
:10517000BDE81040014800F009B80000604500207B
:10518000505D00209C410020D85C00202DE9F041BA
:1051900006462DED028BFFF71FFE1B4D1B4F002413
:1051A000B2EE048A06EB84008168E963D0F8B81493
:1051B00000EE101AB1EE400A85ED230AD0F8681906
:1051C000C5F8DC10D0F8180E00EE100AB1EE400A57
:1051D00085ED4B0A706800EE100A306800EE900A08
:1051E00030EE600A20EE080A87ED000ABCEEC00A25
:1051F00010EE100AFFF74EFF641C642CD2DBBDECEE
:10520000028BBDE8F08100009C410020940000204A
:10521000094AF0EE400AB7EE000A82ED010A0021C9
:1052200004E000BF20EE200A491C89B28142F9D374
:1052300082ED010A70470000940000202DE9F04142
:10524000184C0F460546E6682068001D00F0E6FA97
:1052500038B9206890F82C100120884021698143DA
:105260002161681C07D137B12168BDE8F0410E48C3
:10527000091D00F017BB20683544B5424560216820
:1052800005D2A06BBDE8F041091D00F0F3BA606BD8
:10529000091D00F0EFFAA06A854200D2A562BDE8C0
:1052A000F081000020000020700500202DE9F04171
:1052B000054600F003FB2E4CA068401CA06020684F
:1052C0002C4F10B1606940B32DE02560A068012823
:1052D00029D1002606EB860007EB800000F0BCFA1F
:1052E000761C072EF6D323488C3000F0B5FA2148FF
:1052F000A03000F0B1FA1F48B43000F0ADFA1D48FC
:10530000C83000F0A9FA1B48DC3000F0A5FA1948B3
:105310008C3060631430A06305E02068E96AC06ADD
:10532000884200D82560606A401C6062E96A0120FA
:10533000226988401043206101EB810007EB800067
:10534000291D00F0AFFA00F0D9FA606900280CD0EE
:105350002068E96AC06A884207D207494FF0805046
:105360000860BFF34F8FBFF36F8FBDE8F08100007F
:10537000200000209404002004ED00E010B5044655
:1053800090F8510058B101280CD002280FD05020BD
:1053900080F31188BFF34F8FBFF36F8FFEE7206B51
:1053A00000F0C0FA2046BDE8104000F0BBBA10BDC6
:1053B00010484FF47051420706D0C01D0D4920F02F
:1053C0000700411AC1F570510B4A00230144C2E99C
:1053D00000030839183A21F0070111604B600B6097
:1053E0000B1AC0E9001393604FF000405360506106
:1053F000704700008405002074000020144E154CF6
:10540000A6F1C8074FF08058DFF84C9012E000BFBB
:1054100000F054FAF068C568281D00F0FFF9A06894
:10542000401EA0606068401E606000F067FA284679
:10543000FFF7A4FF60680028EAD138680128F9D98D
:10544000C9F80080BFF34F8FBFF36F8FF2E7000002
:105450005C0500202000002004ED00E02DE9F0476D
:105460009A46DDE9098481466FF00303206B03EB64
:1054700082021044089E20F00707780707D05020CA
:1054800080F31188BFF34F8FBFF36F8FFEE70025C6
:1054900061B1002023180A5C83F834200A5C12B141
:1054A000401C1028F6D384F8435001E084F83450AF
:1054B000072E00D30626E662C4E91165201D00F020
:1054C000D6F904F1180000F0D2F92461C6F1070002
:1054D0006462A061E56484F85050524649463846FB
:1054E00000F0C0F82060B8F1000F01D0C8F800400B
:1054F000BDE8F08730B5114900E011460A688242E4
:10550000FBD34B685C18844203D140681844486060
:10551000084643681C18944209D1084C183C24687A
:10552000A24209D052681A4442600A6812680260B6
:10553000814200D0086030BD0460F9E774000020AB
:105540000648416B096829B1416BC968C968496857
:10555000816270474FF0FF31FAE700002000002021
:1055600008484068401C4FF0500080F3118804D078
:10557000BFF34F8FBFF36F8FFEE7BFF34F8FBFF3C4
:105580006F8FFEE77C0000202DE9F04105460027E3
:1055900000F068FA324E306808B9FFF709FF706909
:1055A00005424ED1C5B3083568070ED005F0070097
:1055B000C0F108000544680707D0502080F3118827
:1055C000BFF34F8FBFF36F8FFEE72DB37068854237
:1055D00037D82348183001460C6801E020460C46B5
:1055E0006168A94202D221680029F7D131688C4252
:1055F00027D007682168016060680837411B1029BF
:105600000FD96019420708D0502080F31188BFF3EA
:105610004F8FBFF36F8FFEE713E041606560FFF7C8
:1056200069FF61687068401A7060B268904200D289
:10563000B060706901430020C4E90001F068401CBB
:10564000F06000F0A1FB780707D0502080F31188AC
:10565000BFF34F8FBFF36F8FFEE73846BDE8F08191
:105660005C00002010B5031F4FF080741C601B1FEE
:1056700021F001011960191F044B0B6014390A60F5
:10568000091F6FF0020244380A6010BD615500081E
:10569000134910B50C68032807D0042804D1BCEEC8
:1056A000C00A10EE100A206410BD10EE100A01F0BE
:1056B00025F99FED0C1B53EC112B00F05FFE9FEDC5
:1056C0000B1B53EC112B00F0FFFB00F0CBFB00EEAB
:1056D000100ABCEEC00A10EE100AE06310BD000014
:1056E000A80300209A99999999E178400000000058
:1056F000008C9440094810B5032101800421818366
:105700009FED070A082180ED010A0648FCF7A2FC7C
:10571000BDE810400C210348FCF79CBC505D002004
:1057200000000000A803002000B52DED048B83B01D
:1057300041EC190B00F02CFF41EC180B18EE100A8D
:1057400018EE901A8DED008B002818BF0120084339
:1057500020F00040C0F17F6000F1E040C00F14D0A5
:1057600019EE101A19EE900A8DED009B002918BF52
:105770000121084320F00040C0F17F6000F1E040CB
:10578000C00F04BF0120FAF7C5FE51EC180B03B09F
:10579000BDEC048B00BD0000DFED141AB7EE002A4B
:1057A000C0EC021AC0ED021A80ED030A80ED042A53
:1057B000C0ED051AC0ED061AC0ED070AC0ED081AC3
:1057C000C0ED091ABFEE000A80ED0A0A9FED080A33
:1057D00031EE000A80ED0B0AC0ED0C1AC0ED0D1A77
:1057E000C0ED0E1A80ED0F2A704700000000000087
:1057F00000007C4201EE100A70EEC00A0120B8EEF3
:10580000C11A8840401E21EE201A00EE900AF8EEE0
:10581000E01AC1EE210A30EE800A7047D0E9013269
:1058200001699A60D0E901235A604A68824201D135
:1058300082684A60002202610868401E08600868A9
:1058400070470000034B036003F1540008608020A0
:10585000106070470401002000F108014FF0FF3292
:10586000C0E90112C160016100210160704700219F
:105870000161704730B50B685A1C02D000F1080274
:1058800002E0026904E02246546825689D42FAD984
:1058900053684B6099608A60516008610168491CD7
:1058A000016030BD42684A6093688B6093685960BC
:1058B000916008610168491C01607047502080F3C5
:1058C0001188BFF34F8FBFF36F8F0A494868401CA0
:1058D000486001280CD10848006810F0FF0F07D07D
:1058E000502080F31188BFF34F8FBFF36F8FFEE717
:1058F000704700007C00002004ED00E00849486883
:1059000028B1401E486001D180F3118870475020B3
:1059100080F31188BFF34F8FBFF36F8FFEE7000056
:105920007C00002070B500282AD0164DA0F1080494
:1059300060686969084207D1502080F31188BFF37D
:105940004F8FBFF36F8FFEE722683AB1502080F38C
:105950001188BFF34F8FBFF36F8FFEE788436060FE
:1059600000F080F860686968084468602046FFF7C6
:10597000C1FD2869401C2861BDE8704000F004BAF0
:1059800070BD00005C0000204FF0E02000210161AC
:10599000816105494FF47A720968B1FBF2F1491E41
:1059A00041610721016170471C00002010B5020011
:1059B00014D00F48006B38B1502080F31188BFF32A
:1059C0004F8FBFF36F8FFEE700F04CF800211046B9
:1059D000FFF734FC00F0D8F9002807D105494FF053
:1059E00080500860BFF34F8FBFF36F8F10BD000072
:1059F0002000002004ED00E010B586B000240394E0
:105A000005AA04A903A80494FFF71CFFDDE903011C
:105A10000094CDE9011000230EA11048059A00F072
:105A200014F90F490028C86211D0502080F3118862
:105A3000BFF34F8FBFF36F8F4FF0FF3088620120AD
:105A40004861CC6006B0BDE8104000F041B806B037
:105A500010BD000049444C4500000000FD53000803
:105A6000200000200248016B491C016370470000C0
:105A7000200000201448016B11B10121C161704761
:105A80000021C1610169B1FA81F1C1F11F0101EB8E
:105A900081020E4951F822306BB101EB820101F114
:105AA00008034A6852684A609A4201D152684A60C3
:105AB000D16801607047502080F31188BFF34F8F89
:105AC000BFF36F8FFEE70000200000209404002049
:105AD0001CB537480168374A914207D1502080F3FE
