:020000040800F2
:10000000A863002025030008932F0008012500089D
:10001000912F00089B050008093700080000000028
:100020000000000000000000000000006502000861
:10003000BD06000800000000C102000819300008D9
:100040003F0300083F0300083F0300083F03000888
:100050003F0300083F0300083F0300083F03000878
:100060003F0300083F0300083F0300083F03000868
:100070003F0300083F0300083F0300083F03000858
:100080003F0300083F0300083F030008A9050008DC
:100090009D0500083F0300083F0300083F030008D8
:1000A0003F0300083F0300083F0300083F03000828
:1000B0003F0300083F0300083F0300083F03000818
:1000C0003F0300083F0300083F0300083F03000808
:1000D0003F0300083F0300083F0300083F030008F8
:1000E0003F0300083F0300083F0300083F030008E8
:1000F0003F0300083F0300083F0300083F030008D8
:100100003F0300083F0300083F0300083F030008C7
:100110003F0300083F0300083F0300083F030008B7
:100120003F0300080D0600083F0300083F030008D6
:100130003F0300080000000000000000C1050008A7
:10014000B50500083F0300083F0300083F0300080F
:100150003F0300083F0300083F030008FD36000886
:100160003F0300083F0300083F0300083F03000867
:100170003F0300083F0300083F03000800000000A1
:10018000000000003F030008000000000000000025
:100190003F03000800000000000000003F030008CB
:1001A0000000000000000000000000003F03000805
:1001B0003F0300083F0300083F0300083F03000817
:1001C0003F03000800F002F800F03CF80AA090E8B5
:1001D000000C82448344AAF10107DA4501D100F002
:1001E00031F8AFF2090EBAE80F0013F0010F18BF93
:1001F000FB1A43F00103184788690000A869000052
:10020000103A24BF78C878C1FAD8520724BF30C842
:1002100030C144BF04680C60704700000023002414
:1002200000250026103A28BF78C1FBD8520728BF06
:1002300030C148BF0B6070471FB506F092FB1FBD71
:1002400010B510BD00F074F91146FFF7F5FF04F08A
:10025000D3FB00F092F903B4FFF7F2FF03BC00F008
:1002600095F900002C4B19680868B0E8F04F80F34E
:100270000988BFF36F8F4FF0000080F3118870473B
:100280000000000008480068006880F308884FF00C
:10029000000080F3148862B661B6BFF34F8FBFF3DE
:1002A0006F8F00DF00BF00BF08ED00E0DFF80C003B
:1002B000016841F470010160704700BF88ED00E003
:1002C000EFF30980BFF36F8F134B1A681EF0100F06
:1002D00008BF20ED108A20E9F04F106009B44FF0FC
:1002E000500080F31188BFF34F8FBFF36F8F05F07D
:1002F00083FB4FF0000080F3118809BC196808687F
:10030000B0E8F04F1EF0100F08BFB0EC108A80F379
:100310000988BFF36F8F704720000020EFF305803E
:10032000704700000948804709480047FEE7FEE79C
:10033000FEE7FEE7FEE7FEE7FEE7FEE7FEE7FEE795
:1003400004480549054A064B70470000C5300008BF
:10035000C5010008A85D0020A8630020A85F002058
:10036000A85F002053EA020C00F069802DE9F04BF1
:100370004FF00006002B1FBFB3FA83F503FA05F414
:1003800024FA05F65E4012BF1643B2FA82F502FA6D
:1003900005F4C5F120051EBF22FA05FC44EA0C0451
:1003A000203556EA044C4FEA144418BF641C4FF041
:1003B00000084FF00009904271EB030C39D300297B
:1003C00019BFB1FA81F701FA07F6B0FA80F700FA1F
:1003D00007F6C7F120071EBF20FA07FC46EA0C0605
:1003E0002037B6FBF4FCA7EB0507103F07F01F0B07
:1003F000CBF120060CFA0BFB2CFA06F644BFB346F1
:100400000026202FA4BF5E464FF0000B5BEA060CCF
:1004100008BF4FF0010B19EB0B09ABFB027C48EB5B
:100420000608C01B06FB02CC0BFB03CC71EB0C01D6
:10043000C1E70B46024641464846BDE8F08B13B57E
:100440004FF000004FF00001AFF30080BDE81C400A
:10045000704710B5203AC0F00B80B1E81850203A30
:10046000A0E81850B1E81850A0E81850BFF4F5AF54
:100470005FEA027C24BFB1E81850A0E8185044BFDE
:1004800018C918C0BDE810405FEA827C24BF51F84B
:10049000043B40F8043B08BF7047D20728BF31F83F
:1004A000023B48BF11F8012B28BF20F8023B48BF90
:1004B00000F8012B70474FF0000200B51346944638
:1004C0009646203922BFA0E80C50A0E80C50B1F1AC
:1004D0002001BFF4F7AF090728BFA0E80C5048BFC0
:1004E0000CC05DF804EB890028BF40F8042B08BF5E
:1004F000704748BF20F8022B11F0804F18BF00F85A
:10050000012B704770477047704710B500F008F82E
:10051000006810BD10B5044600F002F8046010BD7C
:1005200000487047445D002000487047445D00204B
:100530007546FFF7F9FFAE4605006946534620F0C1
:100540000700854618B020B5FFF7FAFEBDE8204049
:100550004FF000064FF000074FF000084FF0000B7F
:1005600021F00701AC46ACE8C009ACE8C009ACE832
:10057000C009ACE8C0098D46704710B50446AFF31A
:1005800000802046BDE81040FFF765BE01491820F5
:10059000ABBEFEE7260002007047FEE7014800F010
:1005A00002BA000008030020014800F0FCB9000076
:1005B00008030020014800F0F6B9000030030020D5
:1005C000014800F0F0B900003003002070B50E4C77
:1005D00015460646216000216160A160C4E903134D
:1005E0000123214600F07FF860B102232A4621460C
:1005F000304600F078F828B104232A4621463046D8
:1006000000F071F8002070BD34410020014800F076
:10061000CFBD0000E403002001681823CAB2103ADD
:10062000B2FBF3F2054B6FF30901032A9B5CC36530
:1006300000D9091D8165084670470000CC69000893
:1006400010B5014600208B698A6A4FF0C07453B11F
:10065000B3F5005F15D072B1012A0CD0022A0AD07E
:10066000032A09D104E01AB1012A06D0022A03D1D3
:10067000C96AC90100D5012010BDC96AA142FAD0DA
:1006800010BD002AF7D0012AF2D0022AF3D0032AA3
:10069000F3D010BD30B50468256825F480252560A9
:1006A000046863608368402B036803D09960006826
:1006B000C26030BD9A600068C16030BD704772B6DC
:1006C000FEE790F82020012A07D0022A05D0416ACF
:1006D00041F48021416201207047006842690A4369
:1006E000426100207047F0B590F820500468A4687B
:1006F000012D05D0022D03D0416A41F4802153E041
:1007000014F0406F01D1E5004BD5C4F30164022C15
:1007100003D9416A41F4000146E00125A5401D606E
:100720008D684FF4C0739DB1CE6835434E6845EA7D
:10073000C605066803EB0417F5514FF4C275076848
:1007400005EB04150E697E51097D012905D009E0EC
:100750000E88CD6845EA4655EBE701684E5946F4E8
:1007600080764E511179D2F805504FF4C67641EAA1
:100770000525016806EB04168D511178D2F8012089
:100780004FF4C47541EA0221026805EB041551518A
:10079000006803EB0411425842F00102425000206D
:1007A000F0BD416A41F4001141620120F0BD00003A
:1007B00010B590F82020012A07D0022A05D0416AFE
:1007C00041F480214162012010BD3B48D0F8002255
:1007D00042F00102C0F80022D0F8002222F47C523C
:1007E000C0F80022D0F800224B6A42EA0322C0F887
:1007F00000220A7D02F01F0301229A40D0F81C3229
:100800009343C0F81C32CB69B3B9D0F80C32934390
:10081000C0F80C328C894B6864F31F434C6900EBC1
:10082000C404C4F840320C890B6864F31F434C695C
:1008300000EBC404C4F84432CB69012B16D1D0F8C4
:100840000C321343C0F80C320C884B6864F31F431E
:100850004C6900EBC404C4F840320C89CB6864F3E3
:100860001F434C6900EBC404C4F844328B69002B6D
:10087000D0F804320ED01343C0F804320B69002BB9
:10088000D0F8143208D01343C0F81432096A012991
:1008900004D008E09343EFE79343F5E7D0F81C1248
:1008A0001143C0F81C12D0F8001221F00101C0F869
:1008B0000012002010BD000000640040704730B5F9
:1008C00090F82040012C05D0022C03D0416A41F45D
:1008D00080215DE00468002955D02469A40754D024
:1008E0004FF4D874056804EB01142D5915F0040574
:1008F000956005682D594ED0ED08556005682C5956
:1009000004F00204D4604FF4DA74056804EB0114B7
:100910002D5905F00F05156105682D59C5F30725FB
:10092000956105682C59240C54614FF4DC720468FD
:1009300002EB0112A4581C700468A458240A5C70CD
:100940000468A458240C9C700468A258120EDA7033
:100950004FF4DE72046802EB0112A4581C710468A3
:10096000A458240A5C710468A458240C9C7104687F
:10097000A258120EDA71006881B1016941F02001BC
:100980000161002030BDE468A8E7416A41F400112C
:100990004162012030BD6D0D1560AFE7C16841F0C7
:1009A0002001C160EDE72DE9F05F054600680024F5
:1009B0004669D0F804908768D0F80CB0D0F810A041
:1009C000D0F81880F10748D0F90714D001218160D0
:1009D000B80703D5284600F08AFB0CE0780702D55B
:1009E0004FF4006407E0380702D54FF4805402E06A
:1009F000284600F07BFBF80516D529684FF4807077
:100A00008860B80503D5284600F073FB0CE0780534
:100A100002D544F4005407E0380502D544F480447C
:100A200002E0284600F064FBF80316D529684FF46D
:100A300080308860B80303D5284600F05CFB0CE0EA
:100A4000780302D544F4004407E0380302D544F4A7
:100A5000803402E0284600F04DFB300707D55FEAFE
:100A6000CB6004D52968102044F40074C860700776
:100A70004FF0080707D55FEA0B7004D52868C760F8
:100A8000284600F0ADF9B00706D52868C068800791
:100A900002D0284600F0A6F9700607D55FEACA60C2
:100AA00004D52968102044F480640861B00607D595
:100AB0005FEA0A7004D528680761284600F0E6FA64
:100AC000F00606D528680069800702D0284600F0A5
:100AD000DEFAB00308D55FEAC96005D529681020A1
:100AE0004860284600F0D4FAF00307D55FEA0970A1
:100AF00004D528684760284600F0FEFA300446D541
:100B00005FEA497040D5F00504D55FEAC87001D0AE
:100B100044F00104B00504D55FEA887001D544F0C3
:100B20000204700504D55FEA487001D544F004045E
:100B3000300529D518F0700F26D008F07000402835
:100B400015D006DC102809D020280AD0302816D16C
:100B50000AE050280ED0602811D10EE044F00804BD
:100B60000DE044F010040AE044F0200407E044F0F3
:100B7000400404E044F0800401E044F480742868F8
:100B8000816921F070018161296804204860002C8E
:100B900005D0686A204368622846FFF78FFEBDE8EB
:100BA000F09F70B5040003D094F8200010B104E069
:100BB000012070BD204600F081F82068016841F0F6
:100BC0000101016000F06CFD0546052604E000F01F
:100BD00067FD401B0A2811D820684068C007F6D07E
:100BE0002068016821F00201016000F059FD05460E
:100BF0000BE000F055FD401B0A2806D9606A40F45E
:100C00000030606284F82060D2E720684068800786
:100C1000EFD4207E0128206801683DD021F08001BA
:100C20000160607E01282068016838D021F0400111
:100C30000160A07E01282068016833D021F02001E6
:100C40000160E07E0128206801682ED041F010018B
:100C50000160207F01282068016829D021F0080167
:100C60000160607F01282068016824D021F0040120
:100C70000160D4E902010843D4E904121143084396
:100C80006168491E08432168C86100206062012034
:100C900084F82000002070BD41F08001C0E741F0E1
:100CA0004001C5E741F02001CAE721F01001CFE77C
:100CB00041F00801D4E741F00401D9E72DE9F04300
:100CC00087B0044614216846FFF7F5FB404B4148C6
:100CD000DFF8F8801968D4F800C03E4A02250326E0
:100CE0000927DFF8F49010300024491CC4452CD1AA
:100CF0001960012907D1016841F0007101600068A5
:100D000000F000700590106840F00200106010685C
:100D100002AB00F0020005904FF44070CDE90005F1
:100D200083E8D0006946484600F0C6FB0022052152
:100D3000132000F027FD132000F016FD00220521EE
:100D4000142000F01FFD14203BE0DFF89080C44524
:100D500039D1D0F800C04CF0806CC0F800C0D0F899
:100D600000C001290CF0806CCDF814C0196007D1C7
:100D7000016841F000710160006800F000700590AA
:100D8000106840F002001060106802AB00F0020032
:100D900005904FF44050CDE9000583E8D000694646
:100DA000484600F089FB002205213F2000F0EAFCC4
:100DB0003F2000F0D9FC00220521402000F0E2FC99
:100DC000402000F0D1FC07B0BDE8F0830064004093
:100DD0000C0000203038024000040240006800404F
:100DE0007047000070B506462DED028B0068A049E3
:100DF0009FEDA08ADFEDA08AA04D88427ED1A04C55
:100E0000A04904F1680394F8680003F1080200F0B7
:100E10000300487000213046FFF751FD00286DD1D6
:100E200094F8680002283DD1B4F86900F2EE090A8E
:100E300040BA606094F86B10BAEE090A0A0194F89F
:100E40006C1042EA1112626194F86D2001F00F01FA
:100E500042EA01216162102104F08EFC84ED0D0A4A
:100E60000C21F0EE480AB0EE680A606904F084FCD8
:100E700084ED110A0C21F3EE020ABBEE020A606A4D
:100E800004F07AFC84ED150A94F86800A5F878005F
:100E9000D4ED0D0AC5ED1F0AD4ED110AC5ED210AE6
:100EA00085ED200A94F8680013283FD1B4F8690052
:100EB000F2EE090A40BAA06094F86B10BAEE090A83
:100EC0000A0194F86C1042EA1112A26194F86D20A4
:100ED00001F00F0142EA0121A162102104F04CFC53
:100EE00084ED0E0A0C21F0EE480AB0EE680AA06903
:100EF00004F042FC84ED120A0C2100E05CE0F3EE09
:100F0000020ABBEE020AA06A04F036FC84ED160A5F
:100F100094F86800A5F8C800D4ED0E0AC5ED330AB0
:100F2000D4ED120AC5ED350A85ED340A94F868004F
:100F300014283DD1B4F86900F2EE090A40BAE06025
:100F400094F86B10BAEE090A0A0194F86C1042EAA0
:100F50001112E26194F86D2001F00F0142EA0121C3
:100F6000E162102104F008FC84ED0F0A0C21F0EE80
:100F7000480AB0EE680AE06904F0FEFB84ED130A4B
:100F80000C21F3EE020ABBEE020AE06A04F0F4FB65
:100F900084ED170A94F86800A5F81801D4ED0F0A3B
:100FA000C5ED470AD4ED130AC5ED490A85ED480A97
:100FB00002213046FFF785FB33493068884254D11F
:100FC0002F4B0021F43303F108023046FFF777FC82
:100FD00000284AD12A4A8C3292F8680001283CD174
:100FE000B2F86900F2EE090A40BA106092F86B108C
:100FF000BAEE090A0B0192F86C1043EA111313615F
:1010000092F86D3001F00F0143EA012111621021C5
:1010100004F0B2FB82ED0C0A0C21F0EE480AB0EEAF
:10102000680A106904F0A8FB82ED100A0C21F3EEA7
:10103000020ABBEE020A106A04F09EFB82ED140A5B
:1010400092F868002885D2ED0C0AC5ED0B0AD2EDA6
:10105000100AC5ED0D0A85ED0C0A3046BDEC028B79
:101060000221BDE87040FFF72CBBBDEC028B70BDC8
:101070000064004000003442000034C24C410020B3
:10108000084300209200002000680040704770472D
:101090007047000070B5044690F82000012804D085
:1010A000606A40F40020606218E0022084F82000AA
:1010B0002068016821F00101016000F0F1FA0546A5
:1010C0000EE000BF00F0ECFA401B0A2808D9606A65
:1010D00040F400306062052084F82000012070BDDB
:1010E00020684068C007EDD1606270BD70477047EE
:1010F000704770477047704770472DE9F0410446CC
:10110000876D00F0CDFA064694F8350000250228D8
:1011100006D08020606584F834500120BDE8F0815D
:101120002068016821F0160101602068416921F002
:1011300080014161206C08B9A06C20B12068016871
:1011400021F0080101602068016821F001010160BF
:101150000CE000F0A5FA801B052807D92020606567
:10116000032084F8350084F83450D7E720680068FD
:10117000C007EED194F85C103F208840B860012091
:1011800084F8350084F834500020C7E790F8351013
:10119000022903D08021416501207047052180F894
:1011A00035100068016821F00101016000207047DE
:1011B0002DE9F84304464FF00009CDF8009063484C
:1011C0004FF41651A56D0068B0FBF1F72E6894F846
:1011D0005C10082000FA01F131420FD021680A6842
:1011E00052070BD50A6822F004020A6094F85C10DA
:1011F0008840A860606D40F00100606594F85C1064
:101200004FF0010808FA01F0304208D0216849691E
:10121000090604D5A860606D40F00200606594F88E
:101220005C1004208840304208D021680968890792
:1012300004D5A860606D40F00400606594F85C100F
:1012400010208840304218D021680968090714D559
:10125000A86020680168490304D50068000308D528
:10126000A16C07E00168C90503D4016821F00801F9
:101270000160216C09B12046884794F85C10202059
:101280008840304231D021680968C9062DD5A86050
:1012900094F8350005282068016806D0490347D531
:1012A000006800031DD4616C1CE021F01601016090
:1012B0002068416921F080014161206C08B9A06C6F
:1012C00020B12068016821F00801016094F85C10E9
:1012D0003F208840A86084F8358084F83490216DE0
:1012E0001FE0E16B09B120468847606D00282BD0D4
:1012F000606DC00714D0052084F8350020680168AF
:1013000021F0010101600098401C0090B84203D810
:1013100020680068C007F6D184F8358084F83490DE
:10132000E16C002910D001B02046BDE8F043084729
:101330000168C905D5D4016821F01001016084F865
:10134000358084F83490CCE7BDE8F8831C00002099
:101350002DE9F041044600F0A3F906465CB10220F5
:1013600084F83500002584F834502068016821F0A5
:10137000010101600DE00120BDE8F08100F090F96D
:10138000801B052805D920206065032084F83500DE
:10139000F2E720680068C007F0D122681168204891
:1013A0000140D4E901031843D4E903363343184319
:1013B00063691843A3691843E3691843236A184310
:1013C0000843616A042903D1D4E90B131943084384
:1013D000106020684069666A20F0070130460E43BD
:1013E000012704280CD1A06A0643E06A40B12046D8
:1013F000FFF726F920B14020606584F83570BAE720
:10140000206846612046FFF707F994F85C203F21E9
:1014100091408160656584F835700020ACE700007C
:101420003F8010F02DE9F0410446866D90F83400BD
:10143000002501280DD0012084F8340094F835707F
:101440000020012F07D084F8340002252846BDE88B
:10145000F0810220FBE7022784F8357060652046A2
:10146000FFF718F994F85C103F208840B0602068BE
:10147000016841F016010160206C20B1206801680C
:1014800041F0080101602068016841F0010101603C
:10149000DCE7000070B5044600F002F90546601C68
:1014A00002D004480078044400F0FAF8401BA0423F
:1014B000FAD370BD100000202DE9F84FDFF8ACA181
:1014C0000022012403254FF00F090AF1040BAAF1B1
:1014D000040E00BF0B6804FA02F63340B3426ED12B
:1014E0000F7907F00307012F01D0022F16D187686B
:1014F0004FEA420805FA08FC27EA0C07D1F80CC0AD
:101500000CFA08FC4CEA070CC0F808C04768B7435F
:101510000E79C6F3001696403E4346600E79F643B8
:10152000B6070AD0C6684FEA420C05FA0CF7BE436C
:101530008F6807FA0CF73743C7600E7906F0030689
:10154000022E10D1D60800EB8608D8F82060570785
:101550004FEAD76C09FA0CF7BE430F6907FA0CF78C
:101560003743C8F8207006684FEA420C05FA0CF7BA
:10157000BE430F7907F0030707FA0CF737430760FC
:101580004E6816F4403F6BD0394E376847F48047B9
:101590003760366822F0030706F480460096354E21
:1015A00007EB060CDCF8086897074FEA177809FA8A
:1015B00008F7BE43304FB84202D100271FE04FE08A
:1015C0002E4FB84201D1012719E02D4FB84201D169
:1015D000022714E02B4FB84201D103270FE02A4F16
:1015E000B84201D104270AE0284FB84201D10527AB
:1015F00005E0274FB84201D1062700E0072707FA88
:1016000008F73743CCF80878DAF800605746D1F885
:1016100004C09E435FEACC2C00D51E433E60DBF83D
:1016200000605F46D1F804C09E435FEA8C2C00D571
:101630001E433E60DEF800607746D1F804C09E434A
:101640005FEA8C3C00D51E433E60084F083F3E6871
:10165000D1F804C09E435FEACC3C00D51E433E60F7
:10166000521C102AFFF436AFBDE8F88F083C014049
:1016700044380240003001400000024000040240B3
:1016800000080240000C024000100240001402401A
:10169000001802400AB1816170470904FBE70000AD
:1016A00001488068704700001000002002488168EF
:1016B0000278114481607047100000200B4810B57B
:1016C000016841F400710160016841F480610160CA
:1016D000016841F480710160032000F073F80F206D
:1016E00000F006F800F024F8002010BD003C024095
:1016F00070B50D4D04464FF47A712878B1FBF0F0C7
:101700000A490968B1FBF0F000F040FB48B9102C21
:1017100007D200222146501E00F034F800206C60F1
:1017200070BD012070BD0000100000201C000020D2
:101730000C4882B0016841F480410160006800F407
:10174000804000900748001F016841F0805101600F
:101750000068002200F0805000900F21901E02B01F
:1017600000F010B844380240002809DB00F01F02E6
:10177000012191404009800000F1E020C0F80011F3
:1017800070470000F0B40E4B1B680C46C3F30223F5
:10179000C3F10705042D00D90425191D072901D21D
:1017A000002300E0DB1E012606FA05F1491E214058
:1017B00099409E40761E16403143F0BC01F0D0BFE8
:1017C0000CED00E0064900F0070208684FF6FF0341
:1017D000184040EA0220034A1043086070470000A6
:1017E0000CED00E00000FA052DE9F0470E4605007B
:1017F00065D0DFF81481D8F80000F7B200F00F00D0
:10180000B04207D288F80070D8F8000000F00F004E
:10181000B04254D128683D4C810712D5400703D50A
:10182000206840F4E05020602878000703D5206845
:1018300040F4604020602068A96820F0F000084370
:1018400020602878C0072DD0304968680839012801
:1018500012D0022813D0032811D009688907002963
:101860002DDA216821F0030101432160FFF718FF01
:10187000814641F2883A0EE009688903EFE709687A
:101880008901ECE7FFF70CFFA0EB0901514502D9F4
:101890000320BDE8F0872068696800F00C00B0EB19
:1018A000810FEFD1D8F80010404601F00F01B1428E
:1018B00007D90770006800F00F00B04201D0012086
:1018C000E7E72878400705D52068E96820F4E0506C
:1018D000084320602878000706D52068296920F48D
:1018E000604040EAC100206000F038F82168084AF2
:1018F000C1F30311515CC8400649086006480068FE
:10190000FFF7F6FE0020C4E7003C02400838024022
:10191000D46900081C000020140000200448054978
:1019200000680968044AC1F38221515CC8407047CD
:101930001C00002008380240E469000804480549FA
:1019400000680968044AC1F34231515CC8407047DD
:101950001C00002008380240E4690008224810B545
:10196000006810F00C02214815D02149042A11D03A
:101970001D4C241F082A0FD00C2A0CD12268236882
:1019800002F03F025B0221D52068C0F38810A0FB63
:10199000010120E0084610BD2268236802F03F02E2
:1019A0005B0205D52068C0F38810A0FB010104E0AC
:1019B0002168C1F38811A1FB00010023FEF7D2FCCE
:1019C0002168C1F30141491C49000AE02168C1F3C3
:1019D0008811A1FB00010023FEF7C4FC2168C1F3BC
:1019E0000271B0FBF1F010BD083802400024F40091
:1019F000001BB7002DE9F84F04007DD0DFF878B365
:101A00002078ABF10407C007A7F1040550D0DBF83C
:101A100000105846C1F3810101290FD00168C1F3BC
:101A20008101022902D13968490207D40068C0F354
:101A30008100032809D13868400206D52868800350
:101A400036D560680028D8D032E06068B0F5803FB5
:101A500010D0B0F5A02F286810D020F48030286076
:101A6000286820F4802028606068A0B1FFF718FE85
:101A700006460CE0286840F48030F4E740F480200B
:101A80002860F7E7FFF70CFE801B642876D82868EB
:101A90008003F7D50CE0FFF703FE064605E000BF24
:101AA000FFF7FEFD801B6428F0D828688003F7D478
:101AB0002078DFF8C89280074FF0000A44D5DBF8A1
:101AC0000010584611F00C0F0FD00168C1F38101CE
:101AD000022902D13968490207D50068C0F38100A4
:101AE00003280AD13868400207D42868800715D532
:101AF000E068012800D111E03AE1E068B0B10120CE
:101B0000C9F80000FFF7CCFD064604E0FFF7C8FD6A
:101B1000801B0228BAD828688007F7D52868216971
:101B200020F0F80040EAC10028600DE0C9F800A0EC
:101B3000FFF7B6FD064604E0FFF7B2FD801B022862
:101B40001CD828688007F7D42078000727D5DFF84D
:101B500028828B48616908F16C0881B1012101601C
:101B6000FFF79EFD064604E0FFF79AFD801B022862
:101B700004D8D8F800008007F6D510E089E0C0F856
:101B800000A0FFF78DFD064605E000BFFFF788FDCA
:101B9000801B02287DD8D8F800008007F6D4207872
:101BA000400769D574484FF0000838300068C0001D
:101BB0000BD471483830016841F0805101600068F1
:101BC0004FF0010800F0805000906E4E3068C00564
:101BD00011D4306840F480703060FFF761FD0090F0
:101BE00006E000BFFFF75CFD0099401A022850D8BC
:101BF0003068C005F6D5604EA068683601280FD061
:101C00000528306810D020F001003060306820F0E6
:101C100004003060A068B8B1FFF742FD00900FE00B
:101C2000306840F00100F4E740F004003060F7E76E
:101C3000FFF736FD0099411A41F28830814264D89D
:101C400030688007F4D50EE0FFF72AFD009007E02A
:101C5000FFF726FD0099411A41F28830814254D89D
:101C600030688007F4D4B8F1000F05D0424838300E
:101C7000016821F080510160A069A8B3DBF8001071
:101C8000C1F38101022947D00228C9F860A005D01C
:101C900000E03AE0FFF704FD044639E0FFF700FDFD
:101CA000064604E0FFF7FCFC801B02282DD82868BC
:101CB0008001F7D4F4E907010843E168324A490892
:101CC00002EB0141A26841EA82110843217C40EA0B
:101CD0000160217D40EA017038600120C9F8600090
:101CE000FFF7DEFC044606E044E000BFFFF7D8FC47
:101CF000001B022809D828688001F7D53AE000BF08
:101D0000FFF7CEFC001B022802D90320BDE8F88FA4
:101D100028688001F4D42DE00128F7D03868E26902
:101D200000F48001914223D1226A00F03F019142E8
:101D30001ED147F6C071626A0140B1EB821F17D114
:101D4000A26A4FF0FF3300F4403103EB5202B1EBD3
:101D5000024F0DD194F82C2000F07061B1EB026FAE
:101D600006D194F8301000F0E040B0EB017F01D0D4
:101D70000120CBE70020C9E70838024000004742B5
:101D8000800E4742007000400000FFFF10B5401E6B
:101D9000B0F1807F01D3012010BD4FF0E0246061DD
:101DA0000F21601701F0DCFC0020A06107202061FA
:101DB000002010BD70B590F83C20012A32D00124DB
:101DC00080F83C40022280F83D2003685A689D68F4
:101DD00022F070060A6832435A60134B02689A4236
:101DE00014D0B2F1804F11D0104B9A420ED0104B4C
:101DF0009A420BD00F4B9A4208D00F4B9A4205D013
:101E00000E4B9A4202D00E4B9A4204D1496825F0FB
:101E100080031943916080F83D40002180F83C1018
:101E2000084670BD022070BD000001400004004063
:101E300000080040000C0040000401400040014048
:101E40000018004010B586B0044614216846FEF71D
:101E500032FB0E492068884215D10D4800210268E6
:101E600042F004020260006800F0040005904FF4A4
:101E7000407000900220CDE90101CDE903106946D0
:101E80000448FFF719FB06B010BD00000004004035
:101E9000303802400008024070B5044690F83C001B
:101EA00000260D4601280FD0012084F83C006AB1BD
:101EB000042A1DD0082A2FD00C2A3FD0012600204A
:101EC00084F83C00304670BD022070BD206801F0EF
:101ED00073F92068816941F0080181612068816996
:101EE00021F004018161206881692A69114311E0B0
:101EF000206801F091F92068816941F400618161F5
:101F00002068816921F480618161206881692A6982
:101F100041EA02218161D2E7206801F0B3F920682B
:101F2000C16941F00801C1612068C16921F0040163
:101F3000C1612068C1692A69114311E0206801F07C
:101F4000D5F92068C16941F40061C1612068C169A7
:101F500021F48061C1612068C1692A6941EA0221D6
:101F6000C161ACE710B5040003D094F83D0010B196
:101F700007E0012010BD002084F83C00204600F05E
:101F80001FF8022084F83D00211D206801F0A2F80E
:101F9000012084F8460084F83E0084F83F0084F86D
:101FA000400084F8410084F8420084F8430084F83B
:101FB000440084F8450084F83D00002010BD000076
:101FC00008B500680649884208D10648016841F012
:101FD00002010160006800F00200009008BD0000EE
:101FE000000400404038024010B50446022249B1C6
:101FF00004290ED0082913D094F84100012816D0E6
:10200000012010BD94F83E000128F9D184F83E204B
:102010000FE094F83F000128F2D184F83F2008E057
:1020200094F840000128EBD184F8402001E084F8C6
:1020300041200122206801F0B1F816492068164AB3
:10204000884201D0904203D1436C43F4004343647F
:102050002068884213D0B0F1804F10D00F498842D9
:102060000DD00F4988420AD00E49884207D09042CD
:1020700005D00D49884202D00C49884204D18168BC
:1020800001F00701062903D0016841F00101016058
:10209000002010BD00000140000401400004004089
:1020A00000080040000C00400040014000180040C3
:1020B00070477047F8B5016804460868CA684B69FC
:1020C00010F00F0F4FF0000559D003F0010602F495
:1020D0009077374365D0C10705D0D10503D5216C72
:1020E00041F001012164410705D5D90703D0216CD6
:1020F00041F002012164810705D5D90703D0216C85
:1021000041F004012164010707D502F020013143A9
:1021100003D0216C41F008012164216C00293AD0E0
:10212000800604D5900602D5204601F0B7F9206854
:102130004069216CC0F38010090700D460B32046C9
:1021400001F077F920684069400621D520681430F5
:1021500050E8001F21F0400140E80012002AF5D1AC
:10216000A06BA8B16C490165A06BFFF70FF80028C0
:1021700011D0A06B016D01B0BDE8F04008478306A7
:102180000FD593060DD52046BDE8F84001F086B97D
:102190002046FFF78EFFF8BD2046FFF78AFF256433
:1021A000F8BD266B2023012E79D1C60677D5D60639
:1021B00075D50868486800904869400640D5A16B0D
:1021C000086840680004000CEAD0A28D8242E7D97A
:1021D000E085C869B0F5807F2DD020680C3050E8CC
:1021E000001F21F4807140E80012002AF5D1206818
:1021F000143050E8001F21F0010140E80012002ACD
:10220000F5D12068143050E8001F21F0400140E86B
:102210000012002AF5D184F83E30256320680C3086
:1022200050E8001F21F0100140E80012002AF5D10B
:10223000A06BFEF762FFA08DE18D401A81B229E00C
:10224000A08DE18D401A81B2E08D0028A8D0002930
:10225000A6D020680C3050E8002F22F4907240E89D
:102260000026002EF5D12068143050E8002F22F00F
:10227000010240E80026002EF5D184F83E302563A7
:1022800020680C3050E8002F22F0100240E80023B4
:10229000002BF5D12046FFF70BFFF8BDFFE7050641
:1022A0002BD5150629D594F83D002128F5D1A06835
:1022B000B0F5805F01D12069B0B1206A411C216274
:1022C000216800784860E08C401E0004000CE08427
:1022D000E3D12068C16821F08001C1602068C16835
:1022E00041F04001C160D8E7206A0088C0F30800CF
:1022F0004860206A801C2062E5E74006CDD5500684
:10230000CBD5CA68204622F04002CA6084F83D302E
:1023100000F0F5F8C1E700003D33000870B5040097
:1023200004D094F83D00002510B106E0012070BDF6
:1023300084F83C50204600F023F8242084F83D0027
:102340002068C16821F40051C160204601F006F9FF
:102350002068016921F4904101612068416921F000
:102360002A0141612068C16841F40051C1602564BF
:10237000202084F83D0084F83E00002070BD00005D
:1023800070B586B0064614216846FEF794F82349D6
:10239000306888423FD122480025016841F0200181
:1023A0000160006800F0200005901D4814380168A5
:1023B00041F0040101600068694600F004000590E6
:1023C000C02000900220CDE90105032003900820E1
:1023D00004901448FFF770F8144C134820608005EF
:1023E000C4E901054FF48060C4E903506561A5614B
:1023F000E561256220466562FEF7AAFF08B1FEF797
:102400005EF9B463002205214720A663FFF7BAF9FD
:102410004720FFF7A9F906B070BD00000014014085
:10242000443802400008024028640240E4030020CF
:1024300090F83E30202B0ED159B152B190F83C307B
:10244000012B08D0012380F83C300023036301F006
:102450000BB9012070470220704700000068234933
:10246000884242D1224B2348597851B101290DD0DD
:1024700002293AD11A78104410F8010C5A282ED0AB
:102480002FE00178A52930D1012159701949B0F800
:10249000012019310A80B0F803204A80B0F80520E5
:1024A0008A80B0F80720CA80B0F809200A81B0F805
:1024B0000B204A81B0F80D208A81B0F80F20CA8124
:1024C000B0F811204A82B0F813208A82B0F81520A3
:1024D0000A82B0F81720CA8202215970CAE7002088
:1024E000587004490448FFF7A3BF70470014014027
:1024F000900000208C420020A0030020704770470D
:10250000FEE700002DE9F34FFF492DED108BB5B02C
:102510000A891FFA82FB8A891FFA82F88A8A92B294
:102520000D92898C90ED000A1FFA81F98DED110A48
:1025300090ED010A8DED0B0AD0ED038A90ED078A2C
:10254000D0ED02AAD0ED04FA90ED05FA90ED06AABE
:10255000D0ED08EA90ED09EAD0ED0A9A90ED0B9AD9
:1025600000200190029019901A901B900390049003
:1025700005900690079018900890289029902A902E
:102580002790149015901690F0EE680AB0EE480A65
:10259000179002F0B5F88DED010AB0EE40BAF1EEF9
:1025A000680AB1EE480A02F0ABF88DED020AF0EECF
:1025B000400A8DED03BACDED040A0020B7EE000A03
:1025C00014A901EB8002401C80B282ED000A0228AF
:1025D000F6D39DED140A00278DED160A9DED150A20
:1025E00048468DED170A03F077FE4FEA4B0622911D
:1025F00006FB08F60BFB0BF508FB08F4139001A88B
:1026000000EB870ADAF8000004F03AF941EC100B0D
:1026100001F0F2FBB0EE40BAF0EE60BA18EE100A2C
:1026200004F02EF953EC1B2B03F06AFE41EC1D0B5A
:10263000DAF8000004F024F941EC100B01F0DCFBA7
:10264000B0EE40BAF0EE60BA1AEE100A04F018F9D3
:1026500053EC1B2B03F054FE41EC1C0BDAF800008A
:1026600004F00EF941EC100B01F062FBB0EE40BA41
:10267000F0EE60BA1AEE900A04F002F953EC1B2B4C
:1026800003F03EFE53EC1C2B03F0E0FB41EC100B7F
:10269000229953EC102B139803F032FE41EC1C0BE3
:1026A000DAF8000004F0ECF841EC100B01F040FB0C
:1026B000B0EE40BAF0EE60BA18EE900A04F0E0F81E
:1026C00053EC1B2B03F01CFE53EC1C2B03F0EEFF12
:1026D00053EC1D2B03F0BAFB03F086FB00EE100A4F
:1026E0000D9801EE109A00EE900A20EE00BAB8EEB6
:1026F000411AF8EE600A00EE104A79EE600AB8EE70
:10270000C00A41EE690A00EEA0BA7BEE400A00EE74
:10271000105AB8EEC00A70EEC00A00EE106AB8EEA9
:10272000C01A80EE810A10EE100AB0F17E5F16DC4E
:1027300000EE104AB8EEC00A7BEE400A00EE105AD6
:10274000B8EEC00A70EEC00A00EE106AB8EEC01A09
:1027500080EE810A10EE100A10F1814F09D99FED29
:102760006B0A05A800EB870080ED000A80ED020AE5
:102770004CE000EE104AB8EEC00A7BEE400A00EED4
:10278000105AB8EEC00A70EE600A00EE106AB8EE99
:10279000C01A80EE810A10EE100A04F071F841ECC4
:1027A000100B00F0EDFF51EC100B03F01DFB00EEE1
:1027B000104A05A901EB870AB8EEC00ACAF8000062
:1027C0007BEE400A00EE105AB8EEC00A70EE600AC6
:1027D00000EE106AB8EEC01A80EE810A10EE100A00
:1027E00004F04EF841EC100B00F0CAFF4848B0EE80
:1027F00040BAF0EE60BA006804F042F853EC1B2BCC
:1028000003F054FF03F0F0FACAF808007F1CBFB2CF
:10281000022FFFF4F4AE3E480021B0EE00CAD0ED26
:10282000000A05AA02EB81003A4F90ED000A10EE73
:10283000103ABB4202DB00EECC0A07E010EE103A81
:10284000DFF8D4C0634503D900EE8C0A80ED000A9E
:10285000491C89B20429E5D3002792460AEB870078
:10286000109000682D4988427DDA04F009F841ECA7
:10287000100B01F0C1FA51EC100B03F0B5FA0BEE9E
:10288000100A1098006803F0FBFF41EC100B01F0F8
:102890004FFA51EC100B03F0A7FA0BEE900A01A8C7
:1028A00000EB87001090006803F0EAFF41EC100B8A
:1028B00001F0A2FA51EC100B03F096FA0CEE900A1C
:1028C0001098006803F0DCFF41EC100B01F030FAC7
:1028D00051EC100B03F088FA00EE100A0D9800EE90
:1028E000900AF8EE600A30EEC91A00EE909AF8EEFF
:1028F000600A00EEA91A00EE90BAF8EE601A00EE37
:10290000908AF8EE600A0BE02044002000007F432C
:1029100098000020C3F54840C3F548C00000C841F6
:1029200050EE8B1A00EE904AF8EEE00A21EE212AD2
:1029300060EEAB0A20EEAB1A00EE904AF8EEE00A29
:1029400060EE8B0A00EE8B1A00EE905AF8EEE00A69
:1029500031EE201A00EE906AF8EEE00A00EECB1A93
:10296000C2EE011A00E0D5E02AEE801A00EE909A3D
:1029700028EE800A0D980AEE2C1AB8EE602AF0EEC6
:10298000400A42EE410A02EE108AB8EE422A48EEB0
:102990002C0A22EE2B2A60EE822A00EE904AF8EEF4
:1029A000E00A60EEAB0A20EEAB2A00EE904AF8EEA9
:1029B000E00A60EE8B0A00EE8B2A00EE905AF8EEE9
:1029C000E00A32EE202A00EE906AF8EEE00A00EE0D
:1029D000CB2AC2EE820A71EEE01A00EE900AF8EEFF
:1029E000600A30EEC92A00EE909AF8EE600A00EE16
:1029F000A92A00EE908AF8EE600A60EEAB0A22EE99
:102A0000203A00EE904A02EE104AF8EEE00AB8EEE4
:102A1000C22A60EEAB0A22EE0B2A60EEAB0A42EE4F
:102A20000B0A02EE105AB8EEC22A70EE822A00EEAD
:102A3000906AF8EEE00A40EECB2A00EE909AF8EEAB
:102A4000600A83EE222A00EEC10A00EE90BAB8EEC8
:102A5000601A00EE908A08EE2C0AF8EE600A00EE8A
:102A6000CB1A20EE011A00EE104AB8EEC00A20EE92
:102A70002B0A60EE2B0A00EE104AB8EEC00A20EED8
:102A80000B0A40EE0B0A00EE105AB8EEC00A70EEC8
:102A9000800A00EE106A4FF07E51B8EEC00A40EE98
:102AA0004B0A81EE200A32EE400A10EE100A8842EC
:102AB00030DC10EE100A9C4A90422BD811EE900A9E
:102AC000884227DC11EE900A904223D8F0EE610A8A
:102AD00001F016FE18A800EB87007F1CBFB280ED46
:102AE000000A042FFFF4BAAEDFF840B2904ADFF8D4
:102AF0004492DBED000A00200DF1600101EB800340
:102B0000904693ED000A10EE104A944205DB00EE69
:102B1000CC0A08E01FED830ADCE710EE104A4C45B2
:102B200003D900EE8C0A83ED000A401C80B2042811
:102B3000E4D3002701AC14AD05EB8706306803F041
:102B40009FFE41EC100B01F057F951EC100B03F014
:102B50004BF908EE900A306803F092FE41EC100B3E
:102B600001F0E6F851EC100B03F03EF904EB870698
:102B700008EE100A306803F083FE41EC100B01F000
:102B80003BF951EC100B03F02FF909EE100A3068F5
:102B900003F076FE41EC100B01F0CAF851EC100B7B
:102BA00003F022F901EE100A9DED110ADDED0B1A7A
:102BB0006EEE880A20EE010A21EE811A4EEE680AB6
:102BC00020EE080A01EE680A2FEE881A01EE090AC3
:102BD0002FEE091A11EE280A01F092FD18AB03EB53
:102BE000870027A9D0ED000A0AEB8700564630EE91
:102BF000600AD0ED000A01EB87007F1C30EE600A0E
:102C0000BFB2042F80ED000A96D3DBED000A00204E
:102C10004FEA090C01EB800797ED000A10EE102A2D
:102C2000424502DB00EECC0A05E010EE102A6245B8
:102C300003D900EE8C0A87ED000A401C80B20428FC
:102C4000E8D33D4A002000BF04EB800703EB800C73
:102C500097ED000A00EB800702EB870787ED000A7B
:102C60009CED000A06EB800C87ED010A9CED000A42
:102C700001EB800C87ED020A9CED000A05EB800C4D
:102C800087ED030A9CED000A401C87ED040A042826
:102C9000DADB00204FF0404800EB800702EB870CA6
:102CA000DCF80070474537D2B7F1804F34DADCF8F2
:102CB000047017F1814F2FD2B7F17E5F2CDADCF868
:102CC0000870DFF878C0674526D2DFF874C0674522
:102CD00022DC04EB800797ED000A469F87ED000A8F
:102CE00003EB800797ED000A469F87ED010A06EB8C
:102CF000800797ED000A469F87ED020A01EB8007E7
:102D000097ED000A469F87ED030A05EB800797EDD4
:102D1000000A469F87ED040A401C0428BCDB35B03E
:102D2000BDEC108BBDE8FC8F000080BF9800002038
:102D3000C3F54840C3F548C05C4400208FC2D5BFEE
:102D40006666663F0F4810B50D490160032141607A
:102D500000214FF410228160C0E903124FF40012E9
:102D60004261017641768176C17601774177FDF740
:102D700018FF002803D0BDE81040FDF7A0BC10BD2F
:102D800000640040080300200F4810B50D490160A1
:102D90000321416000214FF410228160C0E9031239
:102DA0004FF400124261017641768176C176017757
:102DB0004177FDF7F6FE002803D0BDE81040FDF78F
:102DC0007EBC10BD0068004030030020094808B5F3
:102DD000016841F4800101600068002200F4800075
:102DE000009005213920FEF7CDFCBDE808403920D0
:102DF000FEF7BABC3038024010B596B01C2211491B
:102E00006846FDF726FB0021684602F009F90E4CE2
:102E10000C491C2220601C3107A8FDF71AFB002179
:102E200007A802F0FDF8074960601C2238310EA89F
:102E3000FDF70FFB00210EA802F0F2F8A06016B01B
:102E400010BD0000786900080000002030B587B090
:102E500014216846FDF72FFB1D480024016841F04E
:102E600004010160016801F004010591016841F06D
:102E700080010160016801F080010591016841F065
:102E800002010160016801F002010591016841F051
:102E90000101016000680F4D00F001000590012262
:102EA00042F210012846FEF7F5FB002244F2010130
:102EB0002846FEF7EFFB46F2110000900120CDE915
:102EC0000104694628460394FEF7F6FA07B030BDC0
:102ED000303802400008024010B58AB00024079440
:102EE0001C2168460894FDF7E6FA1A481849016063
:102EF0005321C0E9011444F61F61C0E90314846141
:102F0000FFF730F808B1FDF7DAFB079407A911487D
:102F10000894FEF74FFF08B1FDF7D1FB6020CDE923
:102F200000040294082269460A480494FEF7B4FF9C
:102F300008B1FDF7C4FB0C2269460648FEF7ACFF5A
:102F400008B1FDF7BCFB0348FEF77CFF0AB010BDDB
:102F500000040040580300200C4810B50A490160E5
:102F60004FF416514160002181600C22C160C0E91C
:102F700004128161C161FFF7D1F9002803D0BDE8D7
:102F80001040FDF79CBB10BD00140140A0030020C1
:102F9000FEE7FEE770B504461C4801F5807110EEAF
:102FA000103A016000218160C1600821016100F1D7
:102FB0003001180A01F8603F10EE902A4870180C92
:102FC0008870180EC8700A71100A4871100C887148
:102FD000100E0E4AC8719032012315460B49204647
:102FE000FDF781FB00280FD002232A46074920461F
:102FF000FDF779FB002807D02A462046BDE870403F
:1030000004230249FDF76FBB70BD0000D8420020C9
:10301000012001F0F9FFFBE710B5FEF747FB02F0D6
:1030200001FE012803D0BDE8104002F08DBD10BDA7
:1030300030B593B034216846FDF73DFA14210DA850
:10304000FDF739FA1D480025016841F08051016003
:10305000006800F0805012901948016841F4404126
:1030600001600068022400F44040129001200090AA
:10307000000401908001CDE9064006200890A820B8
:10308000CDE909040B9468460C94FEF7B3FC08B133
:1030900072B6FEE70DA90F2081E831004FF4A05071
:1030A00010904FF48050119005210DA8FEF79CFB65
:1030B000002801D072B6FEE713B030BD40380240A0
:1030C000007000400248016841F4700101607047DF
:1030D00088ED00E0F0B50268254C264D264E274FBE
:1030E000274B4FF0804CA04209D0604507D0A84242
:1030F00005D0B04203D0B84201D0984204D122F0AA
:10310000700E4A6842EA0E02A0421BD0604519D0F8
:10311000A84217D0B04215D0B84213D0984211D06F
:10312000184DA8420ED0184DA8420BD0174DA842FA
:1031300008D0174DA84205D0164DA84202D0164D12
:10314000A84203D122F44075CA682A434D6922F08F
:1031500080022A4302608A68C2620A688262A042D0
:1031600001D0984201D10969016301214161F0BD9B
:10317000000001400004004000080040000C004036
:10318000000401400040014000440140004801406B
:1031900000180040001C00400020004010B501F065
:1031A0001F030121046A99408C430462016A9A401A
:1031B0001143016210BD0000F0B5026A22F0010265
:1031C0000262036A42688469124E24F073050C6837
:1031D0002C4323F002058B682B430D4DA84201D0F0
:1031E000B04205D123F00807CB683B4323F004032A
:1031F000A84201D0B04205D14D6922F44072154376
:103200008A692A4342608461496841630362F0BD70
:103210000000014000040140F0B5026A22F01002F3
:103220000262026A436884690D6824F4E64444EA51
:1032300005248D6822F0200242EA05120F4D104E3F
:10324000A84201D0B04206D1CF6822F0800242EA03
:10325000071222F04002A84201D0B04207D14D69C6
:1032600023F4406343EA85038D6943EA85034360A1
:103270008461496881630262F0BD00000000014082
:1032800000040140F0B5026A22F480720262026A10
:103290004368C46922F4007224F073050C68124E6E
:1032A0002C438D6842EA05220E4DA84201D0B0425F
:1032B00006D1CF6822F4006242EA072222F480623B
:1032C000A84201D0B04207D14D6923F4405343EAEC
:1032D00005138D6943EA05134360C4614968C163FE
:1032E0000262F0BD000001400004014030B5026AF6
:1032F00022F480520262046A4268C3690D6823F4B2
:10330000E64343EA05238D6824F4005444EA053477
:10331000084DA84202D0084DA84204D14D6922F4BC
:10332000804242EA85124260C361496801640462D6
:1033300030BD0000000001400004014010B5806B6A
:103340000021C185C184FEF7B4FE10BD70B5846B49
:103350002068406994F83D10C0F3C0100025212971
:1033600004D118B1E584204600F08AF8206840694D
:1033700094F83E10C0F38010222904D118B1E585DD
:10338000204600F056F8206C40F0100020642046E3
:10339000FEF78FFE70BD10B50146806B09680968A5
:1033A000C9052FD40021C18501680C3151E8002FD7
:1033B00022F4807241E80023002BF5D1016814311A
:1033C00051E8002F22F0010241E80023002BF5D143
:1033D0000168143151E8002F22F0400241E8002337
:1033E000002BF5D1202180F83E10016B012909D175
:1033F00001680C3151E8002F22F0100241E800234F
:10340000002BF5D1016B012902D0FFF727F810BD81
:10341000818DFEF74DFE10BD10B5806B016B01294B
:1034200002D0FFF76BF810BD818D4908FEF740FE12
:1034300010BD01680C3151E8002F22F4907241E870
:103440000023002BF5D10168143151E8002F22F040
:10345000010241E80023002BF5D1016B012909D1BC
:1034600001680C3151E8002F22F0100241E80023DE
:10347000002BF5D1202180F83E1000210163704718
:1034800001680C3151E8002F22F0C00241E800230E
:10349000002BF5D1202180F83D10704708B590F839
:1034A0003E10222901D0022008BD82684FF48053CB
:1034B0009A4201D1016921B1816A9A421BD04AB175
:1034C0000AE00268816A5268C2F308020A80816ACF
:1034D000891C08E0026972B10268526802F07F023A
:1034E0000A70816A491C8162C18D491E0904090C58
:1034F000C18503D019E002685268F1E70168CA6823
:1035000022F02002CA600168CA6822F48072CA6090
:1035100001684A6922F001024A61202180F83E10C8
:10352000016B012903D0FEF799FF002008BD00219F
:10353000016301680C3151E8002F22F0100241E8CC
:103540000023002BF5D101680A68D20602D50A686B
:1035500049680091818DFEF7ABFDE6E770B5044642
:1035600000680169E26821F4405111430161216959
:10357000A068E26908436169114308432168CA6889
:1035800049F20C639A430243CA6020684169A26908
:1035900021F440711143416131492068884202D0D1
:1035A0003049884202D1FEF7C9F901E0FEF7B6F9C9
:1035B000E2690023192164253226B2F5004F6268C2
:1035C00028D0A0FB0101930F9200FCF7CBFE01462F
:1035D000B0FBF5F06FF01802504301EB800006EBF2
:1035E0000010B0FBF5F000F0F002B1FBF5F002EBDB
:1035F0000012B1FBF5F06FF01803584301EB8000A7
:1036000006EB0010B0FBF5F000F00F00216810444D
:10361000886070BDA0FB010192185B41FCF7A2FE1F
:103620000146B0FBF5F00201B1FBF5F06FF01803B5
:10363000584301EB800006EBC000B0FBF5F000F052
:10364000F80002EB4002B1FBF5F0584301EB8000BB
:1036500006EBC000B0FBF5F000F00700D6E7000075
:10366000001001400014014038B5816282850025B8
:10367000134604460564222084F83E00A26B1C48D1
:10368000D063A26B1B481064A26B1B48D064A06B74
:103690000A4605652168A06B091DFDF7C3FE206879
:1036A00001684068009084F83C50206948B1206867
:1036B0000C3050E8001F41F4807140E80012002AED
:1036C000F5D12068143050E8001F41F0010140E8B6
:1036D0000012002AF5D12068143050E8001F41F094
:1036E000400140E80012002AF5D1002038BD00005A
:1036F00097330008193400084D3300080148FEF7DD
:10370000D9BC0000A0030020FEE703B401984100EB
:10371000009850EAC12018BF04204A0D18BF40F09D
:10372000010040F2FF72B2EB515F08BF40F00200AF
:10373000012808BF052002B070474100080218BFE9
:1037400004200A0E18BF40F001004FF07F4232EA19
:10375000010108BF40F00200012808BF05207047A2
:103760000907090E002804DB00F1E02080F80014AE
:10377000704700F00F0000F1E02080F8141D704742
:1037800070B5C1482DED020B2DED0E8B82B0119D51
:1037900025F000449FEDBEDB9FEDBFEB84423EDB96
:1037A000A4F140511098A1F17F6108430FD0BC48AB
:1037B000844202DC28D1109830B39DED100B02B08A
:1037C000BDEC0E8B02B0BDE8704000F061BF9DED16
:1037D000100B53EC1D2B51EC100B02F091FD9DEDE5
:1037E000100B41EC180B53EC1E2B51EC100B02F09C
:1037F00087FD53EC182B02F029FB41EC100B02B0B3
:10380000BDEC0E8B02B070BD0120FCF783FE02B050
:10381000BDEC0E8B02B0BDE8704000F045BFA14882
:103820009FEDA18B844256DA9DED100BB4F1795FC8
:103830000ADA51EC100BFFF768FF042808BF00F00C
:1038400043FF9DED100BDAE753EC102B51EC100BFE
:1038500002F056FD41EC190B95480621B0EE490ADD
:10386000F0EE690A784400F0FFFD53EC192B51EC9F
:10387000100B02F045FD41EC1A0B8E48B0EE490AE0
:10388000F0EE690A0421784400F0EEFD53EC192BA8
:1038900051EC100B02F034FD53EC182B02F0D6FA69
:1038A00041EC100B51EC1A0B53EC102B02F076FB91
:1038B000CDE900019DED000B53EC102B9DED100B9D
:1038C00051EC100B02F01CFD9DED101B53EC112B65
:1038D00002F0BCFAD2E09DED100B51EC100B01F0A0
:1038E0004FF853EC182B02F009FE9FED730BCDE956
:1038F000000153EC102B9DED000B51EC100B02F06E
:10390000FFFC41EC190B6E480621B0EE490AF0EEBF
:10391000690A784400F0A8FD53EC192B51EC100B08
:1039200002F0EEFC41EC1B0B6648B0EE490AF0EEEB
:10393000690A0421784400F097FD53EC192B51ECEF
:10394000100B02F0DDFC53EC182B02F07FFA41EC77
:103950001C0B51EC190B01F0A9FE41EC180B5A4855
:103960009FED5BABA04222DC53EC1C2B51EC1B0BFC
:1039700002F014FBCDE900019DED000B51EC180B9A
:1039800053EC102B02F0BCFC53EC182B02F05EFA47
:1039900053EC1A2B02F0B4FC53EC1D2B02F086FE04
:1039A00053EC1E2B02F0AAFD41EC100B5FE08DEDF5
:1039B000008B002000909DED000B51EC180B53EC98
:1039C000102B02F043FA9DED000B41EC1E0B53EC63
:1039D000102B51EC100B02F093FC53EC192B02F05E
:1039E0008DFD53EC1E2B02F0D9FA41EC190B53EC70
:1039F0001C2B51EC1B0B02F0D1FA41EC1B0B53ECCE
:103A00001A2B51EC190B02F07BFC53EC1D2B02F02E
:103A100075FD41EC190B53EC1A2B51EC180B02F00D
:103A20006FFC53EC1B2B02F06BFC53EC192B02F0D8
:103A30003DFE9DED000B41EC180B53EC1A2B51ECA5
:103A4000100B02F05DFC9FED249B53EC192B02F050
:103A500055FD41EC100B51EC180B53EC102B02F000
:103A600025FE53EC192B02F049FD41EC100B002D03
:103A70003FF7C5AE51EC100B02F0AAF941EC100B68
:103A8000BDE60000000000000000F03F0000000064
:103A9000075C143326A6913C182D4454FB21F93FB2
:103AA0000000F07F0000E03F000000000000F03F59
:103AB0008831000096310000000000000000E03F67
:103AC000DA300000E83000003333EF3F0000000040
:103AD0000000000000000040182D4454FB21E93F85
:103AE00010EE100A10B510EE901A4FF0684202EB7B
:103AF00040032DED028BB3F1654F3CBF02EB410259
:103B0000B2F1654F7CD200BFC0F3C753C1F3C752B7
:103B10009A1A1B2A09DD10F0004F14BF9FED6E0AA0
:103B20009FED6E0ABDEC028B10BD12F11A0F1BDA6D
:103B300011F0004F09D010F0004F0CBF9FED680A44
:103B40009FED680ABDEC028B10BD80EE208A18EE56
:103B5000100AFFF7F2FD042808BF00F0C9FDB0EE1F
:103B6000480ABDEC028B10BD4200B2EB410F37D9C1
:103B700010F0004F19BFDFED5C1A9FED5C1ADFED0E
:103B80005C1A9FED5C1AB0EE602A0A46F1EE400A1C
:103B900080F00041B0EE420A10460A1A5200B2F11B
:103BA000807F34D2484010F0004FDFED532A9FED64
:103BB000533A1DBFBEEE002A71EEE21A31EE431AEF
:103BC000B6EE002A04BF71EEA21A31EE031AF0EE2F
:103BD000402A42EE602A40EE020A82EEA02A18E055
:103BE00011F0004F04BF9FED461AF0EE411AD4D0F9
:103BF00010F0004F1CBFDFED431A9FED431A00E0A9
:103C000026E004BFDFED411A9FED411AC5E780EEC3
:103C1000202A22EE020ADFED3F0ADFED3F2ABDEC4B
:103C2000028B40EE202ADFED3D0A40EE220ADFED56
:103C30003C2A40EE202ADFED3B0A40EE220A22EE2B
:103C4000000A00EE201A31EE020A30EE210A10BD01
:103C50004FF07F42B2EB400F28BFB2EB410F05D2CD
:103C6000BDEC028BBDE8104000F03EBD40EA010310
:103C70005B0008BF41F0FF410BD0B2EB400F08BF23
:103C8000B2EB410F08D120F0804000EE100A21F085
:103C9000804100EE901A37E7B2EB400F12BF5FEAA7
:103CA000410240F0FF4001F000413FF42DAF4A00D7
:103CB00092EA40033FF528AF002AACBF9FED1A1AE5
:103CC0009FED1A1A20EE010A60EE810A10EE100A2A
:103CD00010EE901A18E70000DB0FC9BFDB0FC93FD9
:103CE000DB0F4940DB0F49C00000C9BF22AAFDB964
:103CF0000000C93F22AAFD390060ED3EC30ACE375D
:103D000000000000000049C022AA7DBA000049401E
:103D100022AA7D3A2DAD65BD8FB8D53D0FB511BE38
:103D200061C84C3EA8AAAABE0000804F0000802FA8
:103D300010B52F499FED2C1B2DED020B84B005987B
:103D400020F000408842D8BF9DED040B2DDD2949AD
:103D5000884209D1049840B94FF00100FCF7DAFB22
:103D600000F0A2FC06B010BD05DB9DED040B00F0D9
:103D70008FFC06B010BD68469DED040B00F0A0F866
:103D800010F0030004BF9DED021B9DED000B0CD055
:103D900001280ED09DED021B9DED000B022817D0CF
:103DA000012000F0DDFB06B010BD00F0A5FA06B062
:103DB00010BD9DED021B9DED000B012000F0D0FB1E
:103DC00051EC100B02F004F806B041EC100B10BDE2
:103DD00000F092FA51EC100B01F0FAFF06B041EC42
:103DE000100B10BD000000000000000000000000EB
:103DF000FB21E93F0000F07F10B52F499FED2C1B00
:103E00002DED020B84B0059820F000408842DCBF05
:103E100000209DED040B32DD2849884209D1049829
:103E200040B94FF00100FCF775FB00F03DFC06B017
:103E300010BD05DB9DED040B00F02AFC06B010BDA3
:103E400068469DED040B00F03BF810F0030011D024
:103E5000012818D09DED021B9DED000B02281AD001
:103E600000F04AFA51EC100B01F0B2FF06B041EC41
:103E7000100B10BD9DED021B9DED000B012000F00D
:103E80006FFB06B010BD9DED021B9DED000B00F019
:103E900033FA06B010BD012000F062FB51EC100BAC
:103EA00001F096FF06B041EC100B10BD00000000C1
:103EB0000000000000000000FB21E93F0000F07F4F
:103EC0002DE9F14F04462DED020B2DED088B8AB044
:103ED0009FEDE70B80ED020B139EE74826F00045AF
:103EE00085420ADC9DED120B002084ED000B0AB028
:103EF000BDEC088B03B0BDE8F08FE0489FEDE0AB70
:103F00009FEDE1BBA84247DDE14F9FEDE39B9FEDB5
:103F1000E48B9DED120B53EC1A2B51EC100B002E81
:103F20001CDD02F0C3FB41EC100BBD4208D053EC8A
:103F30001B2B51EC100B02F0B9FBC4E900010BE0A4
:103F400053EC192B51EC100B02F0B0FB53EC182B77
:103F500002F0ACFBC4E900010120C8E701F076FFE4
:103F600041EC100BBD4208D053EC1B2B51EC100B55
:103F700001F06CFFC4E900010BE053EC192B51EC8C
:103F8000100B01F063FF53EC182B01F05FFFC4E945
:103F900000014FF0FF30AAE7C348A84279DB9DED4E
:103FA000120B51EC100B00F0EBFC41EC180B9FEDE9
:103FB000C00B53EC102B02F0A3F99FEDBF1B53EC89
:103FC000112B01F043FF02F041F9074602F06DF9B1
:103FD00041EC190B53EC1A2B02F092F953EC182B0D
:103FE00002F08CFA41EC180B53EC1B2B51EC190B23
:103FF00002F086F9DFF8C8A241EC100B4FEA155821
:104000000125FA4453EC102B51EC180B02F04EFB37
:10401000032DC4E900013DD0C1F30A5005EB451161
:10402000A8EB00001139814234DA0AEB051BB0EE2F
:1040300048AA9BED000BF0EE68AA53EC102B51EC54
:10404000190B02F05DF941EC1B0B51EC1A0B53EC10
:104050001B2B02F02BFB41EC180B51EC1A0B53EC11
:10406000182B02F023FB53EC1B2B02F01FFB9BEDE4
:10407000020B41EC1A0B53EC102B51EC190B02F014
:104080003FF953EC1A2B02F011FB41EC100B6D1CA5
:10409000B8E70EE0002EA8BF3846BFF628AF94ED73
:1040A000000B51EC100B01F093FEC4E900017842C3
:1040B0001DE7C6F3130040F4801EC6F30A50A0F2B9
:1040C000F530471100F01F05C5F12000DDF848B0BC
:1040D00008900020069007900520EC467949002DB5
:1040E00007EB0002794408BF51F8221009D051F8BB
:1040F000223001EB8201AB404A68089922FA01F1B3
:104100001943A1FB0E26A1FB0B131A449A4234BF9C
:104110000123002303EB06080CEB8003D3E901A67F
:104120000E448E4234BF0121002192448A4411B1D1
:10413000924502D903E0924501D2012100E000211D
:10414000C3E901A641444CF82010011EA0F1010072
:10415000C4DC029800F10050850F0298DDE9036786
:104160008000DDF8148002F0A0F841EC1A0B304614
:1041700002F0B2F89FED541B53EC112B02F0C0F883
:1041800041EC1B0B384602F0A7F89FED511B53EC96
:10419000112B02F0B5F841EC180B404602F09CF8E8
:1041A0009FED4D1B53EC112B02F0AAF841EC190BBB
:1041B00051EC180B53EC192B01F048FE53EC1B2B60
:1041C00001F044FE53EC1A2B01F040FECDE908014A
:1041D000002008909DED080B53EC1A2B51EC100BAE
:1041E00002F064FA53EC1B2B02F060FA53EC182B2C
:1041F00002F05CFA53EC192B02F080F99FED381BAA
:1042000053EC112B02F07CF89FED370B41EC180BAF
:1042100053EC102B9DED080B51EC100B02F070F8D5
:1042200053EC182B01F012FE9FED310B41EC180BF3
:1042300053EC102B9DED080B51EC100B02F060F8C5
:1042400053EC182B01F002FE41EC100B139810F008
:10425000004F06D06D4251EC100B01F0B9FD41EC5E
:10426000100B284684ED000B41E600000000000022
:104270000000000000000000FB21E93F7CD9024063
:1042800000004054FB21F93F3163621A61B4D03D14
:10429000FB21F93F000000000000601A61B4D03D2E
:1042A0007370032E8A19A33BFB21394100000000E3
:1042B00083C8C96D305FE43F000000000000E03FAC
:1042C0006A2A0000B8290000000000000000103E2B
:1042D000000000000000103C000000000000103A48
:1042E000182D4454FB21F93D3326A611460B113CF1
:1042F00000000054FB21F93D10B52DED040B2DED10
:10430000088B82B0B0EE419AF0EE619A0B9820F0E3
:1043100000449FED4BABB4F1795F11DA9DED0A0BD0
:1043200051EC100B01F092FF002801BFB0EE4A0AD9
:10433000F0EE6A0A02B0BDEC088B04BF04B010BDF9
:104340009DED0A0B53EC102B51EC100B01F0D8FF34
:1043500041EC180B3C480621B0EE480AF0EE680A22
:10436000784400F081F853EC182B51EC100B01F05D
:10437000C7FF9DED0A0B41EC1B0B53EC192B51ECC5
:10438000100B01F0BDFF41EC190B53EC1B2B51EC52
:10439000180B01F0B5FF53EC192B02F087F99FEDD4
:1043A0002C0B41EC190B53EC102B51EC180B01F0BA
:1043B000A7FF41EC100B2848844210DA53EC192B6C
:1043C00051EC100B02F072F953EC1A2B02F096F834
:1043D00041EC100B02B0BDEC088B04B010BD1F48BF
:1043E000A042BCBF9FED1E1B8DED001B06DBA4F59C
:1043F00000100190002000909DED001B51EC100B6F
:1044000053EC112B02F052F99DED000B41EC180B0F
:1044100053EC102B51EC1A0B02F048F941EC1A0B3B
:1044200053EC192B51EC180B02F040F953EC1A2BFA
:1044300002F064F841EC100BCCE700000000000033
:10444000000000000000F03FDC260000000000003B
:10445000000000000000E03F3333D33F0000E93F9D
:10446000000000000000D23F70B504462DED028B25
:104470004D1E00EBC500B0EE408AF0EE608A90ED74
:10448000000B35F0060017D053EC182B51EC100B35
:1044900001F036FF41EC100B6D1E04EBC50090EDF2
:1044A000001B51EC100B53EC112B01F0CFFC41EC35
:1044B000100B35F00600E7D1022D36D0042D1CD0AC
:1044C000062D1CBFBDEC028B70BD53EC182B51ECBC
:1044D000100B01F015FF94ED0A1B53EC112B01F0AA
:1044E000B5FC53EC182B01F00BFF94ED081B53ECBB
:1044F000112B01F0ABFC41EC100B53EC182B51ECE1
:10450000100B01F0FDFE94ED061B53EC112B01F096
:104510009DFC53EC182B01F0F3FE94ED040B53ECCF
:10452000102B01F093FC41EC100B53EC182B51ECC9
:10453000100B01F0E5FE94ED021B53EC112B01F082
:1045400085FC53EC182B01F0DBFE94ED001B53ECC3
:10455000112B01F07BFCBDEC028B41EC100B70BD0C
:1045600031B504462DED040B2DED0A8BB0EE41BAAA
:10457000F0EE61BA0B989DED0A0B20F00040B0F10F
:10458000795F0DDA51EC100BFFF7BFF8042808BF74
:1045900000F09AF89DED0A0BBDEC0A8B05B030BD1A
:1045A00053EC102B51EC100B01F0AAFE41EC180B50
:1045B0009DED0A0B53EC182B51EC100B01F0A0FEF3
:1045C00041EC190B2C48B0EE480AF0EE680A0521C0
:1045D0007844FFF749FF9FED2ACBB0EE40AAF0EEFA
:1045E00060AA9CB353EC1C2B51EC190B01F088FE14
:1045F00041EC1C0B53EC1A2B51EC190B01F080FE13
:104600009FED210B41EC190B53EC102B51EC1B0BC4
:1046100001F076FE53EC192B02F048F853EC182BFE
:1046200001F06EFE53EC1B2B02F040F853EC1C2BF8
:1046300002F03CF89DED0A1B53EC112B01F05EFFDC
:10464000BDEC0A8B05B041EC100B30BDFFE753EC1D
:104650001A2B51EC180B01F053FE53EC1C2B01F0FC
:10466000F5FB53EC192B01F04BFE9DED0A1B53ECAF
:10467000112B01F0EBFBE3E76425000000000000D4
:10468000495555555555C5BF000000000000E03F95
:1046900010B553EC102B51EC100B01F0D7FB41EC93
:1046A000100B10BD000000009FED050B10B553EC82
:1046B000102B51EC100B01F071FC41EC100B10BDF4
:1046C00000000000000000009FED050B10B553EC4A
:1046D000102B51EC100B01F013FE41EC100B10BD30
:1046E000000000000000001030EE200A70470000BB
:1046F0009FED020A20EE000A704700000000001043
:10470000F0EE401A9FED1A1AF0EEE12A9FED190A19
:10471000F4EEC12AB0EEE02AF1EE10FA04D2B4EEC3
:10472000C12AF1EE10FA19D3B4EEC12AF1EE10FA53
:1047300015D21148F5EEC01AD0ED000AF1EE10FACC
:1047400003DDB6EE000A20EE800AF5EEC01AF1EEA7
:1047500010FA03D2BEEE000A20EE800A7047F4EE93
:10476000C12AF1EE10FAF9D3B0EE610AFFF7B8B939
:1047700017B7D138000000009800002000F0C4F9FD
:1047800000F05AFF0D4C208A012807D1B4F914001B
:10479000012809D002280AD003280BD000F0F8FA2B
:1047A000012000F031FCEEE700F09EFAF8E700F09F
:1047B00077F9F5E700F04EFFF2E70000A542002090
:1047C000164930B40020086015484860154A00209A
:1047D00001EB800452F8203004F58054401C80B274
:1047E000C4F8B4370528F3D30F48D1F89421C0F8A2
:1047F0007827D1F84426C0F87C27D1F8F42AC0F8ED
:104800008027D1F8A41FC0F88417D0F85414C0F83A
:10481000881730BC014800F069BC0000004500204A
:1048200000002041A00000200055002000B58BB002
:1048300000200121CDE9060108910090019002902D
:1048400003900590049069460C48FBF7B1FF0B48B4
:10485000FCF720FC02210948FBF733FF0E200990EA
:10486000059069460648FBF7A3FF0548FCF712FCD4
:1048700002210348FBF725FF0BB000BD0803002011
:104880003003002070B52E482DED028B018A0129DE
:1048900053D12C4CB7EE000A9FED2B8A84ED000A11
:1048A000B0F90410B2EE042A00EE101AB0F90210AA
:1048B000B0F90000B8EEC01A00EE101AF0EE481A77
:1048C000F8EEC00A00EE100AB8EEC00A00F0D2FB03
:1048D0001E4D95ED0C0AA98BBCEEC00A10EE100A15
:1048E00080B200F085FEB0EE000A84ED000AFFF70A
:1048F00067FFB0EE080A84ED000AB2EE042AF0EE7B
:10490000481AB2EE041ADFED120A9FED120A00F007
:10491000B1FBB1EE000A84ED000A95ED0C0AA98BFB
:10492000BCEEC00A10EE100A80B200F061FEBDECD1
:10493000028BBDE87040FFF743BFBDEC028B70BD3A
:10494000A54200209C00002000000000F05C002038
:1049500000004843000096C3064810B50278064997
:104960000648FDF765FDBDE810404FF47A70FCF78E
:1049700091BD0000900000208C420020A003002088
:1049800082B0CDE9000121F0004001909DED000BC7
:1049900002B051EC100B7047134800212DED028B33
:1049A000FA22016041608260C26001613F2242617F
:1049B0008161C161016274219FED0C8A0C4D0D4C27
:1049C000416200BF85ED008A208A012807D1A08AB4
:1049D000022804D1E08A012801D1FFF753FF01200A
:1049E00000F012FBEEE70000204400200000000071
:1049F0009C000020A5420020FCF760FEFEF718FB9B
:104A0000FEF724FAFEF7E2F9FEF7A6FAFEF79AF9A6
:104A1000FEF7BAF9FEF760FAFFF708FFFFF79CFF11
:104A2000FEF7EAF900F0F7FAFEE7014600208429D4
:104A300000D0C81C70470FB410B5BDF83200169CEA
:104A400048B9BDF830100823224602A8FBF7BEFD86
:104A50000A20FCF71FFDBDF8320001280CD1BDF87B
:104A60003000082300F5807081B2224602A8FBF7CF
:104A7000ADFD0A20FCF70EFDBDF8320002280CD176
:104A8000BDF83000082300F5007081B2224602A86C
:104A9000FBF79CFD0A20FCF7FDFC10BC5DF814FB45
:104AA00070B5164D002400BF04EB840005EB001028
:104AB000D0ED0E0A90ED0F0A018D1148FEF76AFA4B
:104AC0000120FCF7E7FC641CA4B2042CECD30D4CD1
:104AD00094ED050AA18BBCEEC00A10EE100A80B25C
:104AE00000F086FD94ED0C0AA18BBDE87040BCEE91
:104AF000C00A10EE100A80B200F07ABD4C410020CE
:104B000008030020F05C00202DE9F043704C0122E6
:104B1000A5B091032046FCF7BDFD002201212046EF
:104B2000FCF7B8FD012251032046FCF7B3FD01223A
:104B300010212046FCF7AEFD4FF47A70FCF7AAFC7A
:104B4000202264496448FBF784FC624890F82010F6
:104B5000614C04F8201F406A60605F48202250309A
:104B60005E498046FBF775FC5C4D15F8200F84F814
:104B700050006868606558482022A03057490646B2
:104B8000FBF767FC287884F8A0006868C4F8A400E4
:104B900051482022F03051498146FBF75AFC2878D1
:104BA00084F8F0006868C4F8F40002226281A4F876
:104BB0005A20A4F8AA20A4F8FA2001202081A4F801
:104BC00058200320A4F8A8000420A4F8F80020220C
:104BD000414911A8FBF73DFC20788DF8640060681E
:104BE0001A903D49282228311BA8FBF732FC3C4D86
:104BF000402215A968461095FBF72BFC11AF97E8EA
:104C00000F00FFF718FF4FF4FA673846FCF742FC35
:104C10002022414611A8FBF71CFC94F850008DF8A7
:104C20006400606D1A902C49282278311BA8FBF78C
:104C300010FC402215A968461095FBF70AFC0DF1FF
:104C4000440898E80F00FFF7F6FE3846FCF722FC10
:104C50002022314611A8FBF7FCFB94F8A0008DF848
:104C60006400D4F8A4001A901B492822C8311BA85C
:104C7000FBF7EFFB402215A968461095FBF7E9FB0F
:104C800098E80F00FFF7D7FE3846FCF703FC202218
:104C9000494611A8FBF7DDFB94F8F0008DF864009D
:104CA000D4F8F4001A9028220E491BA8FBF7D1FB78
:104CB000402215A968461095FBF7CBFB98E80F003A
:104CC000FFF7B9FE25B03846BDE8F043FCF7E2BB7C
:104CD00000080240300300204C410020080300205F
:104CE000880000206442002070B5244ADFED240AC9
:104CF000244D002002EB4001B1F9061000EE101A1D
:104D000000EB800105EB0111B8EEC00A401CC0B2F7
:104D1000042880EE201A91ED0F0A31EE000A81ED91
:104D20000F0AE7D35FF0000404EB840005EB0010EA
:104D3000D0ED0E0A90ED0F0A018D1348FEF72AF907
:104D40000120FCF7A7FB641CA4B2042CECD30F4C8D
:104D500094ED050AA18BBCEEC00A10EE100A80B2D9
:104D600000F046FC94ED0C0AA18BBDE87040BCEE4F
:104D7000C00A10EE100A80B200F03ABCA542002032
:104D8000007046464C41002008030020F05C0020E3
:104D900070B59FED140A144D002000BF00EB800198
:104DA00005EB0111401CD1ED0B0A80B2C1ED0F0AD9
:104DB00081ED0E0A0428F1D35FF0000404EB8400B7
:104DC00005EB0010D0ED0E0A90ED0F0A018D07489B
:104DD000FEF7E0F80120FCF75DFB641CA4B2042C94
:104DE000ECD370BD000000004C41002008030020FF
:104DF00030B504462DED0C8BB0EE003A0022B6EE35
:104E000000AAB2EE00DAF2EE0CAAB3EE00BA006825
:104E1000B3EE0ECA02EE900A6068F2EE083A07EEB0
:104E2000900AB3EE045AF0EE085A37EEE21AF1EEA9
:104E3000086A21EE030A20EE010A20EE019A69EECB
:104E4000018A28EE818A00BF04EB8201A1F6880165
:104E500001F50051C86B0B6804EE900A086D02EE74
:104E6000103A06EE100A886A4B6900EE100A486E86
:104E700026EE0D7A01EE903A00EE900A74EEC29A98
:104E800001EEA37AF0EE60CA72EE644A69EE85BA6A
:104E900050EE25CA69EEA39A20EE0A4A47EE41BABF
:104EA00000232CEE817A47EE41BA8BEE897A66EECA
:104EB0002ABA26EE266A41EE8BBA01EEA66A6BEE9E
:104EC00081BA46EE419A44EE8CBA60EE254A30EE45
:104ED000600A40EEC34A20EE010A40EE419A64EEB9
:104EE000814A44EE81BACBEEA84AC9EE88BAF0EE08
:104EF000629A79E039EEE26A0220B0EE460A00F0EA
:104F00003FF9F0EE42CA032041EE86CA44EE00CAE1
:104F1000B0EE460A00F034F947EE00CAB0EE460A99
:104F2000042000F02DF944EE80CAB0EE460A0520B8
:104F300000F026F94BEE80CAC2EB021101EB8101B1
:104F400004EB011101EB83051CEE900AB0EE460A5A
:104F5000A860022000F014F964EE030AF0EE61CAC2
:104F6000032040EE86CA67EE250A40EE80CAB0EE06
:104F7000460A00F005F9F1EE000A042064EEA00AEA
:104F800040EE80CAB0EE460A00F0FAF8F1EE040AEC
:104F90006BEEA00A40EE80CAB0EE460A1CEE900A04
:104FA000C5F89801022000F0EBF867EE260A03200E
:104FB00060EE86CA64EEA30A44EE03CA40EE80CADD
:104FC000B0EE460A00F0DCF86BEE850A5B1C9BB283
:104FD00040EE80CADFED0B0A81EE200A1CEE900A3B
:104FE000C5F8280370EE299AF4EEE79AF1EE10FA6C
:104FF00080D3521C92B2052AFFF426AFBDEC0C8B75
:1050000030BD00000000C84210B500B9012000F01A
:105010008FFC002010BD10B500F0B0FC002010BDCA
:105020007FB50D4604464169B0F9080081B1A16918
:1050300071B1FFF7FAFCD4E905128DE80700D4E955
:1050400000102B46226900F0C2FD039004B070BD31
:10505000FFF7EBFC03A9CDE90001208A2B4682B2C1
:10506000D4E9001000F086FD012801D00020EDE712
:105070000398EBE710B51B4CA4F15400C4EC021AE2
:1050800000F04CFBA4F11401A1F14000FDF73AFA45
:105090000020A4F1140100BF04EB800351F820208C
:1050A00003F58053401C80B2C3F8B4270528F3D31E
:1050B0000D48D4F89411C0F87817D4F84416C0F805
:1050C0007C17D4F8F41AC0F88017D4F8A41FC0F8DD
:1050D0008417D0F85414C0F88817BDE81040014870
:1050E00000F004B800450020005500202DE9F041F3
:1050F00006462DED028BFFF77BFE1F4D1F4F002450
:10510000B6EE008AF2EE048A06EB84008168E96359
:10511000D0F8B81400EE101AB1EE400A85ED230A5B
:10512000D0F86819C5F8DC10D0F8181ED7ED000AC1
:1051300000EE101A00F5805010EE880A85ED4B0A3B
:10514000D0F8C802C5F87C01706800EE100A30681B
:1051500000EE900A30EE600A20EE280ABCEEC00A8B
:1051600010EE100AFFF750FF641C642CCCDBBDEC82
:10517000028BBDE8F08100004C410020940000202B
:10518000F0EE400AB7EE000A002103E020EE200A0C
:10519000491C89B28142F9D3704700002DE9F041E2
:1051A000184C0F460546E6682068001D00F0F8FA26
:1051B00038B9206890F82C1001208840216981437B
:1051C0002161681C07D137B12168BDE8F0410E4864
:1051D000091D00F029BB20683544B54245602168AF
:1051E00005D2A06BBDE8F041091D00F005BB606B66
:1051F000091D00F001FBA06A854200D2A562BDE84E
:10520000F081000020000020200500202DE9F04161
:10521000054600F015FB2E4CA068401CA0602068DD
:105220002C4F10B1606940B32DE02560A0680128C3
:1052300029D1002606EB860007EB800000F0CEFAAD
:10524000761C072EF6D323488C3000F0C7FA21488D
:10525000A03000F0C3FA1F48B43000F0BFFA1D4878
:10526000C83000F0BBFA1B48DC3000F0B7FA194830
:105270008C3060631430A06305E02068E96AC06A7E
:10528000884200D82560606A401C6062E96A01209B
:10529000226988401043206101EB810007EB800008
:1052A000291D00F0C1FA00F0EBFA606900280CD06B
:1052B0002068E96AC06A884207D207494FF08050E7
:1052C0000860BFF34F8FBFF36F8FBDE8F081000020
:1052D000200000204404002004ED00E010B5044646
:1052E00090F8510058B101280CD002280FD050205E
:1052F00080F31188BFF34F8FBFF36F8FFEE7206BF2
:1053000000F0D2FA2046BDE8104000F0CDBA10BD42
:1053100010484FF47051420706D0C01D0D4920F0CF
:105320000700411AC1F570510B4A00230144C2E93C
:1053300000030839183A21F0070111604B600B6037
:105340000B1AC0E9001393604FF0004053605061A6
:10535000704700003405002074000020144E154CE6
:10536000A6F1C8074FF08058DFF84C9012E000BF5C
:1053700000F066FAF068C568281D00F011FAA06810
:10538000401EA0606068401E606000F079FA284608
:10539000FFF7A4FF60680028EAD138680128F9D92E
:1053A000C9F80080BFF34F8FBFF36F8FF2E70000A3
:1053B0000C0500202000002004ED00E02DE9F0475E
:1053C0009A46DDE9098481466FF00303206B03EB05
:1053D00082021044089E20F00707780707D050206B
:1053E00080F31188BFF34F8FBFF36F8FFEE7002567
:1053F00061B1002023180A5C83F834200A5C12B1E2
:10540000401C1028F6D384F8435001E084F834504F
:10541000072E00D30626E662C4E91165201D00F0C0
:10542000E8F904F1180000F0E4F92461C6F107007E
:105430006462A061E56484F850505246494638469B
:1054400000F0C0F82060B8F1000F01D0C8F80040AB
:10545000BDE8F08730B5114900E011460A68824284
:10546000FBD34B685C18844203D140681844486001
:10547000084643681C18944209D1084C183C24681B
:10548000A24209D052681A4442600A681268026057
:10549000814200D0086030BD0460F9E7740000204C
:1054A0000648416B096829B1416BC968C9684968F8
:1054B000816270474FF0FF31FAE7000020000020C2
:1054C00008484068401C4FF0500080F3118804D019
:1054D000BFF34F8FBFF36F8FFEE7BFF34F8FBFF365
:1054E0006F8FFEE77C0000202DE9F0410546002784
:1054F00000F07AFA324E306808B9FFF709FF706998
:1055000005424ED1C5B3083568070ED005F0070037
:10551000C0F108000544680707D0502080F31188C7
:10552000BFF34F8FBFF36F8FFEE72DB370688542D7
:1055300037D82348183001460C6801E020460C4655
:105540006168A94202D221680029F7D131688C42F2
:1055500027D007682168016060680837411B10295F
:105560000FD96019420708D0502080F31188BFF38B
:105570004F8FBFF36F8FFEE713E041606560FFF769
:1055800069FF61687068401A7060B268904200D22A
:10559000B060706901430020C4E90001F068401C5C
:1055A000F06000F0B3FB780707D0502080F311883B
:1055B000BFF34F8FBFF36F8FFEE73846BDE8F08132
:1055C0005C00002010B5031F4FF080741C601B1F8F
:1055D00021F001011960191F044B0B6014390A6096
:1055E000091F6FF0020244380A6010BDC154000860
:1055F00000EB400202EB001000EE100AB8EE400A89
:10560000B5EEC00AF1EE10FA01D2B1EE400A094837
:105610000329006807D0042904D1BCEEC00A10EEAB
:10562000101A01647047BCEEC00A10EE101AC16374
:10563000704700005803002010B508210448FCF70B
:10564000D3FCBDE810400C210148FCF7CDBC0000A4
:105650005803002000B59FED130A134B002000BF34
:10566000C0EBC00103EB8101401C81ED010A80B257
:1056700081ED050A0228F3D393ED050A998BBCEE60
:10568000C00A10EE100A80B2FFF7B2FF93ED0C0AC9
:10569000998B5DF804EBBCEEC00A10EE100A80B2E4
:1056A000FFF7A6BF00000000F05C002000B52DED64
:1056B000048B83B041EC190B00F02CFF41EC180B6C
:1056C00018EE100A18EE901A8DED008B002818BF06
:1056D0000120084320F00040C0F17F6000F1E0406D
:1056E000C00F14D019EE101A19EE900A8DED009B20
:1056F000002918BF0121084320F00040C0F17F605D
:1057000000F1E040C00F04BF0120FAF703FF51ECA5
:10571000180B03B0BDEC048B00BD0000DFED141AC4
:10572000B7EE002AC0EC021AC0ED021A80ED030A9F
:1057300080ED042AC0ED051AC0ED061AC0ED070A77
:10574000C0ED081AC0ED091ABFEE000A80ED0A0A82
:105750009FED080A31EE000A80ED0B0AC0ED0C1A2D
:10576000C0ED0D1AC0ED0E1A80ED0F2A7047000033
:105770000000000000007C4201EE100A70EEC00A3A
:105780000120B8EEC11A8840401E21EE201A00EE1A
:10579000900AF8EEE01AC1EE210A30EE800A704756
:1057A000D0E9013201699A60D0E901235A604A6860
:1057B000824201D182684A60002202610868401E6C
:1057C0000860086870470000034B036003F1540051
:1057D0000860802010607047B400002000F10801CC
:1057E0004FF0FF32C0E90112C16001610021016088
:1057F000704700210161704730B50B685A1C02D018
:1058000000F1080202E0026904E0224654682568BB
:105810009D42FAD953684B6099608A605160086173
:105820000168491C016030BD42684A6093688B6022
:1058300093685960916008610168491C0160704774
:10584000502080F31188BFF34F8FBFF36F8F0A4949
:105850004868401C486001280CD10848006810F0D6
:10586000FF0F07D0502080F31188BFF34F8FBFF395
:105870006F8FFEE7704700007C00002004ED00E021
:105880000849486828B1401E486001D180F311885A
:105890007047502080F31188BFF34F8FBFF36F8F95
:1058A000FEE700007C00002070B500282AD0164DCD
:1058B000A0F1080460686969084207D1502080F3AC
:1058C0001188BFF34F8FBFF36F8FFEE722683AB1A5
:1058D000502080F31188BFF34F8FBFF36F8FFEE727
:1058E0008843606000F080F8606869680844686018
:1058F0002046FFF7AFFD2869401C2861BDE87040D5
:1059000000F004BA70BD00005C0000204FF0E02001
:1059100000210161816105494FF47A720968B1FB88
:10592000F2F1491E41610721016170471C0000200E
:1059300010B5020014D00F48006B38B1502080F32E
:105940001188BFF34F8FBFF36F8FFEE700F04CF865
:1059500000211046FFF722FC00F0D8F9002807D1FB
:1059600005494FF080500860BFF34F8FBFF36F8F32
:1059700010BD00002000002004ED00E010B586B04E
:105980000024039405AA04A903A80494FFF71CFFAC
:10599000DDE903010094CDE9011000230EA11048B8
:1059A000059A00F014F90F490028C86211D0502060
:1059B00080F31188BFF34F8FBFF36F8F4FF0FF302D
:1059C000886201204861CC6006B0BDE8104000F05C
:1059D00041B806B010BD000049444C45000000002D
:1059E0005D530008200000200248016B491C016340
:1059F00070470000200000201448016B11B1012104
:105A0000C16170470021C1610169B1FA81F1C1F141
:105A10001F0101EB81020E4951F822306BB101EBFD
:105A2000820101F108034A6852684A609A4201D132
:105A300052684A60D16801607047502080F3118835
:105A4000BFF34F8FBFF36F8FFEE7000020000020F1
:105A5000440400201CB537480168374A914207D1F9
:105A6000502080F31188BFF34F8FBFF36F8FFEE795
:105A700000683149491E884207D1502080F31188BF
:105A8000BFF34F8FBFF36F8FFEE72C49087801906B
:105A9000FF20087008788DF800009DF800009DF840
:105AA000002000F0F000904207D0502080F31188D1
:105AB000BFF34F8FBFF36F8FFEE79DF80000204CC0
:105AC00000F0500020700720A06005E09DF8002045
:105AD00052008DF80020401E9DF800201206F5D4DB
