:020000040800F2
:10000000F87A0020250300088B2E0008B923000889
:10001000892E000827060008D535000800000000DA
:100020000000000000000000000000006502000861
:100030000907000800000000C1020008952E000812
:100040003F0300083F0300083F0300083F03000888
:100050003F0300083F0300083F0300083F03000878
:100060003F0300083F0300083F0300083F03000868
:100070003F0300083F0300083F0300083F03000858
:100080003F0300083F0300083F030008350600084F
:10009000290600083F0300083F0300083F0300084B
:1000A0003F0300083F0300083F0300083F03000828
:1000B0003F0300083F0300083F0300083F03000818
:1000C0003F0300083F0300083F0300083F03000808
:1000D0003F0300083F0300083F0300083F030008F8
:1000E0003F0300083F0300083F0300083F030008E8
:1000F0003F0300083F0300083F0300083F030008D8
:100100003F0300083F0300083F0300083F030008C7
:100110003F0300083F0300083F0300083F030008B7
:100120003F030008590600083F0300083F0300088A
:100130003F03000800000000000000004D0600081A
:10014000410600083F0300083F0300083F03000882
:100150003F0300083F0300083F030008C9350008BB
:100160003F0300083F0300083F0300083F03000867
:100170003F0300083F0300083F03000800000000A1
:10018000000000003F030008000000000000000025
:100190003F03000800000000000000003F030008CB
:1001A0000000000000000000000000003F03000805
:1001B0003F0300083F0300083F0300083F03000817
:1001C0003F03000800F002F800F03CF80AA090E8B5
:1001D000000C82448344AAF10107DA4501D100F002
:1001E00031F8AFF2090EBAE80F0013F0010F18BF93
:1001F000FB1A43F0010318476062000080620000B0
:10020000103A24BF78C878C1FAD8520724BF30C842
:1002100030C144BF04680C60704700000023002414
:1002200000250026103A28BF78C1FBD8520728BF06
:1002300030C148BF0B6070471FB505F0AEFF1FBD52
:1002400010B510BD00F0BAF91146FFF7F5FF04F044
:10025000C5FB00F0D8F903B4FFF7F2FF03BC00F0D0
:10026000DBF900002C4B19680868B0E8F04F80F308
:100270000988BFF36F8F4FF0000080F3118870473B
:100280000000000008480068006880F308884FF00C
:10029000000080F3148862B661B6BFF34F8FBFF3DE
:1002A0006F8F00DF00BF00BF08ED00E0DFF80C003B
:1002B000016841F470010160704700BF88ED00E003
:1002C000EFF30980BFF36F8F134B1A681EF0100F06
:1002D00008BF20ED108A20E9F04F106009B44FF0FC
:1002E000500080F31188BFF34F8FBFF36F8F04F07E
:1002F0009FFF4FF0000080F3118809BC196808685F
:10030000B0E8F04F1EF0100F08BFB0EC108A80F379
:100310000988BFF36F8F704720000020EFF305803E
:10032000704700000948804709480047FEE7FEE79C
:10033000FEE7FEE7FEE7FEE7FEE7FEE7FEE7FEE795
:1003400004480549054A064B70470000412F000844
:10035000C5010008F8740020F87A0020F876002023
:10036000F876002053EA020C00F069802DE9F04B8A
:100370004FF00006002B1FBFB3FA83F503FA05F414
:1003800024FA05F65E4012BF1643B2FA82F502FA6D
:1003900005F4C5F120051EBF22FA05FC44EA0C0451
:1003A000203556EA044C4FEA144418BF641C4FF041
:1003B00000084FF00009904271EB030C39D300297B
:1003C00019BFB1FA81F701FA07F6B0FA80F700FA1F
:1003D00007F6C7F120071EBF20FA07FC46EA0C0605
:1003E0002037B6FBF4FCA7EB0507103F07F01F0B07
:1003F000CBF120060CFA0BFB2CFA06F644BFB346F1
:100400000026202FA4BF5E464FF0000B5BEA060CCF
:1004100008BF4FF0010B19EB0B09ABFB027C48EB5B
:100420000608C01B06FB02CC0BFB03CC71EB0C01D6
:10043000C1E70B46024641464846BDE8F08B13B57E
:100440004FF000004FF00001AFF30080BDE81C400A
:100450007047032A40F2308010F0030C00F0158042
:1004600011F8013BBCF1020F624498BF11F801CBB7
:1004700000F8013B38BF11F8013BA2F1040298BF1C
:1004800000F801CB38BF00F8013B11F0030300F086
:100490002580083AC0F0088051F8043B083A51F82A
:1004A00004CBA0E80810F5E7121D5CBF51F8043B2F
:1004B00040F8043BAFF30080D20724BF11F8013BA2
:1004C00011F801CB48BF11F8012B24BF00F8013B04
:1004D00000F801CB48BF00F8012B704710B5203A57
:1004E000C0F00B80B1E81850203AA0E81850B1E8ED
:1004F0001850A0E81850BFF4F5AF5FEA027C24BFA3
:10050000B1E81850A0E8185044BF18C918C0BDE899
:1005100010405FEA827C24BF51F8043B40F8043B62
:1005200008BF7047D20728BF31F8023B48BF11F817
:10053000012B28BF20F8023B48BF00F8012B704771
:100540004FF0000200B5134694469646203922BF6C
:10055000A0E80C50A0E80C50B1F12001BFF4F7AFB7
:10056000090728BFA0E80C5048BF0CC05DF804EB99
:10057000890028BF40F8042B08BF704748BF20F807
:10058000022B11F0804F18BF00F8012B7047704705
:100590007047704710B500F009F8006810BD10B53D
:1005A000044600F003F8046010BD000000487047E6
:1005B0009874002000487047987400207546FFF733
:1005C000F9FFAE4605006946534620F00700854610
:1005D00018B020B5FFF7B4FEBDE820404FF000068C
:1005E0004FF000074FF000084FF0000B21F007011B
:1005F000AC46ACE8C009ACE8C009ACE8C009ACE85E
:10060000C0098D46704710B50446AFF30080204600
:10061000BDE81040FFF71FBE01491820ABBEFEE742
:10062000260002007047FEE7014800F07EB9000096
:10063000E4020020014800F078B90000E402002044
:10064000014800F072B900000C030020014800F0DE
:100650006CB900000C030020014800F06BBD0000E5
:10066000C003002001681823CAB2103AB2FBF3F2AB
:10067000054B6FF30901032A9B5CC36500D9091D73
:1006800081650846704700000462000810B5014605
:1006900000208B698A6A4FF0C07453B1B3F5005FD4
:1006A00015D072B1012A0CD0022A0AD0032A09D12E
:1006B00004E01AB1012A06D0022A03D1C96AC9018D
:1006C00000D5012010BDC96AA142FAD010BD002A90
:1006D000F7D0012AF2D0022AF3D0032AF3D010BDBA
:1006E00030B50468256825F48025256004686360BA
:1006F0008368402B036803D099600068C26030BDF6
:100700009A600068C16030BD704772B6FEE790F82D
:100710002020012A07D0022A05D0416A41F4802115
:10072000416201207047006842690A43426100202B
:100730007047000010B590F82020012A07D0022A47
:1007400005D0416A41F480214162012010BD3B483F
:10075000D0F8002242F00102C0F80022D0F80022B6
:1007600022F47C52C0F80022D0F800224B6A42EA00
:100770000322C0F800220A7D02F01F0301229A40E2
:10078000D0F81C329343C0F81C32CB69B3B9D0F80F
:100790000C329343C0F80C328C894B6864F31F43CE
:1007A0004C6900EBC404C4F840320C890B6864F354
:1007B0001F434C6900EBC404C4F84432CB69012BDD
:1007C00016D1D0F80C321343C0F80C320C884B68A9
:1007D00064F31F434C6900EBC404C4F840320C8935
:1007E000CB6864F31F434C6900EBC404C4F8443283
:1007F0008B69002BD0F804320ED01343C0F80432BA
:100800000B69002BD0F8143208D01343C0F814320F
:10081000096A012904D008E09343EFE79343F5E721
:10082000D0F81C121143C0F81C12D0F8001221F0AD
:100830000101C0F80012002010BD0000006400405B
:10084000704730B590F82040012C05D0022C03D021
:10085000416A41F480215DE00468002955D0246993
:10086000A40754D04FF4D874056804EB01142D5933
:1008700015F00405956005682D594ED0ED085560BA
:1008800005682C5904F00204D4604FF4DA7405684A
:1008900004EB01142D5905F00F05156105682D595C
:1008A000C5F30725956105682C59240C54614FF454
:1008B000DC72046802EB0112A4581C700468A4588E
:1008C000240A5C700468A458240C9C700468A25824
:1008D000120EDA704FF4DE72046802EB0112A458B3
:1008E0001C710468A458240A5C710468A458240C80
:1008F0009C710468A258120EDA71006881B1016916
:1009000041F020010161002030BDE468A8E7416AA0
:1009100041F400114162012030BD6D0D1560AFE75B
:10092000C16841F02001C160EDE72DE9F05F0546A7
:10093000006800244669D0F804908768D0F80CB0AD
:10094000D0F810A0D0F81880F10748D0F90714D0DB
:1009500001218160B80703D5284600F08AFB0CE02E
:10096000780702D54FF4006407E0380702D54FF44A
:10097000805402E0284600F07BFBF80516D5296874
:100980004FF480708860B80503D5284600F073FBEB
:100990000CE0780502D544F4005407E0380502D590
:1009A00044F4804402E0284600F064FBF80316D5C6
:1009B00029684FF480308860B80303D5284600F0DA
:1009C0005CFB0CE0780302D544F4004407E03803F4
:1009D00002D544F4803402E0284600F04DFB300795
:1009E00007D55FEACB6004D52968102044F4007471
:1009F000C86070074FF0080707D55FEA0B7004D591
:100A00002868C760284600F0ADF9B00706D5286809
:100A1000C068800702D0284600F0A6F9700607D506
:100A20005FEACA6004D52968102044F48064086134
:100A3000B00607D55FEA0A7004D528680761284622
:100A400000F0E6FAF00606D528680069800702D0B3
:100A5000284600F0DEFAB00308D55FEAC96005D584
:100A6000296810204860284600F0D4FAF00307D522
:100A70005FEA097004D528684760284600F0FEFA4E
:100A8000300446D55FEA497040D5F00504D55FEAE9
:100A9000C87001D044F00104B00504D55FEA887045
:100AA00001D544F00204700504D55FEA487001D511
:100AB00044F00404300529D518F0700F26D008F052
:100AC0007000402815D006DC102809D020280AD054
:100AD000302816D10AE050280ED0602811D10EE03F
:100AE00044F008040DE044F010040AE044F020044F
:100AF00007E044F0400404E044F0800401E044F4E2
:100B000080742868816921F070018161296804205E
:100B10004860002C05D0686A204368622846FFF7C9
:100B20008FFEBDE8F09F70B5040003D094F820005C
:100B300010B104E0012070BD204600F081F820686B
:100B4000016841F00101016000F06CFD05460526D9
:100B500004E000F067FD401B0A2811D820684068B7
:100B6000C007F6D02068016821F00201016000F0A2
:100B700059FD05460BE000F055FD401B0A2806D93B
:100B8000606A40F40030606284F82060D2E7206838
:100B900040688007EFD4207E0128206801683DD09E
:100BA00021F080010160607E01282068016838D052
:100BB00021F040010160A07E01282068016833D047
:100BC00021F020010160E07E0128206801682ED01C
:100BD00041F010010160207F01282068016829D0C0
:100BE00021F008010160607F01282068016824D09D
:100BF00021F004010160D4E902010843D4E90412A0
:100C0000114308436168491E08432168C8610020F8
:100C10006062012084F82000002070BD41F0800156
:100C2000C0E741F04001C5E741F02001CAE721F0EB
:100C30001001CFE741F00801D4E741F00401D9E702
:100C40002DE9F04387B0044614216846FFF778FC8D
:100C5000404B4148DFF8F8801968D4F800C03E4A9C
:100C6000022503260927DFF8F49010300024491CE0
:100C7000C4452CD11960012907D1016841F00071E8
:100C80000160006800F000700590106840F00200FC
:100C90001060106802AB00F0020005904FF4407045
:100CA000CDE9000583E8D0006946484600F0C6FB60
:100CB00000220521132000F027FD132000F016FD6F
:100CC00000220521142000F01FFD14203BE0DFF876
:100CD0009080C44539D1D0F800C04CF0806CC0F889
:100CE00000C0D0F800C001290CF0806CCDF814C011
:100CF000196007D1016841F000710160006800F0DF
:100D000000700590106840F002001060106802AB9F
:100D100000F0020005904FF44050CDE9000583E853
:100D2000D0006946484600F089FB002205213F209B
:100D300000F0EAFC3F2000F0D9FC00220521402011
:100D400000F0E2FC402000F0D1FC07B0BDE8F083E9
:100D5000006400400C0000203038024000040240D3
:100D6000006800407047000070B506462DED028B0C
:100D70000068A0499FEDA08ADFEDA08AA04D8842BF
:100D80007ED1A04CA04904F1680394F8680003F1F7
:100D9000080200F00300487000213046FFF751FDC3
:100DA00000286DD194F8680002283DD1B4F869009C
:100DB000F2EE090A40BA606094F86B10BAEE090AC4
:100DC0000A0194F86C1042EA1112626194F86D20E5
:100DD00001F00F0142EA01216162102104F0E9F8FB
:100DE00084ED0D0A0C21F0EE480AB0EE680A606945
:100DF00004F0DFF884ED110A0C21F3EE020ABBEED9
:100E0000020A606A04F0D5F884ED150A94F86800C7
:100E1000A5F87800D4ED0D0AC5ED1F0AD4ED110A2E
:100E2000C5ED210A85ED200A94F8680013283FD10A
:100E3000B4F86900F2EE090A40BAA06094F86B10A9
:100E4000BAEE090A0A0194F86C1042EA1112A26182
:100E500094F86D2001F00F0142EA0121A1621021F6
:100E600004F0A7F884ED0E0A0C21F0EE480AB0EE6B
:100E7000680AA06904F09DF884ED120A0C2100E0D4
:100E80005CE0F3EE020ABBEE020AA06A04F091F8FD
:100E900084ED160A94F86800A5F8C800D4ED0E0A8F
:100EA000C5ED330AD4ED120AC5ED350A85ED340AD5
:100EB00094F8680014283DD1B4F86900F2EE090AEC
:100EC00040BAE06094F86B10BAEE090A0A0194F88F
:100ED0006C1042EA1112E26194F86D2001F00F01EA
:100EE00042EA0121E162102104F063F884ED0F0A67
:100EF0000C21F0EE480AB0EE680AE06904F059F8F7
:100F000084ED130A0C21F3EE020ABBEE020AE06A3A
:100F100004F04FF884ED170A94F86800A5F818015A
:100F2000D4ED0F0AC5ED470AD4ED130AC5ED490A01
:100F300085ED480A02213046FFF7E9FB3349306866
:100F4000884254D12F4B0021F43303F1080230467C
:100F5000FFF777FC00284AD12A4A8C3292F86800C1
:100F600001283CD1B2F86900F2EE090A40BA1060DB
:100F700092F86B10BAEE090A0B0192F86C1043EA72
:100F80001113136192F86D3001F00F0143EA012152
:100F90001162102104F00DF882ED0C0A0C21F0EE24
:100FA000480AB0EE680A106904F003F882ED100AEE
:100FB0000C21F3EE020ABBEE020A106A03F0F9FFFD
:100FC00082ED140A92F868002885D2ED0C0AC5ED6E
:100FD0000B0AD2ED100AC5ED0D0A85ED0C0A30465C
:100FE000BDEC028B0221BDE87040FFF790BBBDEC69
:100FF000028B70BD0064004000003442000034C227
:1010000010410020D44200208A00002000680040E7
:10101000704770477047000070B5044690F8200094
:10102000012804D0606A40F40020606218E00220C9
:1010300084F820002068016821F00101016000F0BF
:10104000F1FA05460EE000BF00F0ECFA401B0A285A
:1010500008D9606A40F400306062052084F82000FE
:10106000012070BD20684068C007EDD1606270BD8E
:1010700070477047704770477047704770472DE959
:10108000F0410446876D00F0CDFA064694F835002D
:101090000025022806D08020606584F834500120A5
:1010A000BDE8F0812068016821F016010160206828
:1010B000416921F080014161206C08B9A06C20B128
:1010C0002068016821F0080101602068016821F0B2
:1010D000010101600CE000F0A5FA801B052807D98A
:1010E00020206065032084F8350084F83450D7E769
:1010F00020680068C007EED194F85C103F2088405B
:10110000B860012084F8350084F834500020C7E727
:1011100090F83510022903D08021416501207047E5
:10112000052180F835100068016821F00101016097
:10113000002070472DE9F84304464FF00009CDF830
:10114000009063484FF41651A56D0068B0FBF1F7AD
:101150002E6894F85C10082000FA01F131420FD09B
:1011600021680A6852070BD50A6822F004020A6057
:1011700094F85C108840A860606D40F001006065E4
:1011800094F85C104FF0010808FA01F0304208D0E2
:1011900021684969090604D5A860606D40F0020025
:1011A000606594F85C1004208840304208D02168C3
:1011B0000968890704D5A860606D40F00400606587
:1011C00094F85C1010208840304218D021680968DB
:1011D000090714D5A86020680168490304D5006890
:1011E000000308D5A16C07E00168C90503D40168B4
:1011F00021F008010160216C09B12046884794F86C
:101200005C1020208840304231D021680968C9062E
:101210002DD5A86094F8350005282068016806D00F
:10122000490347D5006800031DD4616C1CE021F020
:10123000160101602068416921F080014161206C44
:1012400008B9A06C20B12068016821F00801016094
:1012500094F85C103F208840A86084F8358084F8BA
:101260003490216D1FE0E16B09B120468847606D25
:1012700000282BD0606DC00714D0052084F83500FD
:101280002068016821F0010101600098401C009075
:10129000B84203D820680068C007F6D184F83580CA
:1012A00084F83490E16C002910D001B02046BDE8EC
:1012B000F04308470168C905D5D4016821F0100141
:1012C000016084F8358084F83490CCE7BDE8F88379
:1012D0001C0000202DE9F041044600F0A3F9064669
:1012E0005CB1022084F83500002584F83450206871
:1012F000016821F0010101600DE00120BDE8F081ED
:1013000000F090F9801B052805D920206065032096
:1013100084F83500F2E720680068C007F0D1226841
:10132000116820480140D4E901031843D4E9033689
:101330003343184363691843A3691843E3691843A7
:10134000236A18430843616A042903D1D4E90B13C3
:1013500019430843106020684069666A20F007015D
:1013600030460E43012704280CD1A06A0643E06AE8
:1013700040B12046FFF78AF920B14020606584F82B
:101380003570BAE7206846612046FFF76BF994F89C
:101390005C203F2191408160656584F835700020B4
:1013A000ACE700003F8010F02DE9F0410446866D67
:1013B00090F83400002501280DD0012084F8340075
:1013C00094F835700020012F07D084F834000225EE
:1013D0002846BDE8F0810220FBE7022784F835703B
:1013E00060652046FFF77CF994F85C103F20884048
:1013F000B0602068016841F016010160206C20B1E6
:101400002068016841F0080101602068016841F02E
:1014100001010160DCE7000070B5044600F002F94C
:101420000546601C02D004480078044400F0FAF835
:10143000401BA042FAD370BD100000202DE9F84FE8
:10144000DFF8ACA10022012403254FF00F090AF1B7
:10145000040BAAF1040E00BF0B6804FA02F6334035
:10146000B3426ED10F7907F00307012F01D0022F8D
:1014700016D187684FEA420805FA08FC27EA0C07EC
:10148000D1F80CC00CFA08FC4CEA070CC0F808C0F4
:101490004768B7430E79C6F3001696403E43466050
:1014A0000E79F643B6070AD0C6684FEA420C05FA31
:1014B0000CF7BE438F6807FA0CF73743C7600E7905
:1014C00006F00306022E10D1D60800EB8608D8F8E5
:1014D000206057074FEAD76C09FA0CF7BE430F6933
:1014E00007FA0CF73743C8F8207006684FEA420C39
:1014F00005FA0CF7BE430F7907F0030707FA0CF75C
:10150000374307604E6816F4403F6BD0394E37685A
:1015100047F480473760366822F0030706F48046B8
:101520000096354E07EB060CDCF8086897074FEA83
:10153000177809FA08F7BE43304FB84202D10027A6
:101540001FE04FE02E4FB84201D1012719E02D4F87
:10155000B84201D1022714E02B4FB84201D1032732
:101560000FE02A4FB84201D104270AE0284FB842C1
:1015700001D1052705E0274FB84201D1062700E039
:10158000072707FA08F73743CCF80878DAF800603D
:101590005746D1F804C09E435FEACC2C00D51E43C9
:1015A0003E60DBF800605F46D1F804C09E435FEA0E
:1015B0008C2C00D51E433E60DEF800607746D1F8E3
:1015C00004C09E435FEA8C3C00D51E433E60084F3A
:1015D000083F3E68D1F804C09E435FEACC3C00D58A
:1015E0001E433E60521C102AFFF436AFBDE8F88F50
:1015F000083C0140443802400030014000000240F5
:101600000004024000080240000C024000100240AA
:1016100000140240001802400AB1816170470904B9
:10162000FBE70000014880687047000010000020C0
:1016300002488168027811448160704710000020E0
:101640000B4810B5016841F400710160016841F474
:1016500080610160016841F480710160032000F045
:1016600073F80F2000F006F800F024F8002010BDF9
:10167000003C024070B50D4D04464FF47A71287855
:10168000B1FBF0F00A490968B1FBF0F000F040FB53
:1016900048B9102C07D200222146501E00F034F821
:1016A00000206C6070BD012070BD000010000020A3
:1016B0001C0000200C4882B0016841F480410160A8
:1016C000006800F4804000900748001F016841F066
:1016D000805101600068002200F0805000900F21CE
:1016E000901E02B000F010B844380240002809DB18
:1016F00000F01F02012191404009800000F1E0202C
:10170000C0F8001170470000F0B40E4B1B680C4687
:10171000C3F30223C3F10705042D00D90425191DC5
:10172000072901D2002300E0DB1E012606FA05F19D
:10173000491E214099409E40761E16403143F0BC20
:1017400001F061BF0CED00E0064900F007020868F7
:101750004FF6FF03184040EA0220034A1043086096
:10176000704700000CED00E00000FA052DE9F0479D
:101770000E46050065D0DFF81481D8F80000F7B2F6
:1017800000F00F00B04207D288F80070D8F80000CF
:1017900000F00F00B04254D128683D4C810712D5AB
:1017A000400703D5206840F4E05020602878000707
:1017B00003D5206840F4604020602068A96820F0CC
:1017C000F000084320602878C0072DD030496868B1
:1017D0000839012812D0022813D0032811D0096833
:1017E000890700292DDA216821F0030101432160D6
:1017F000FFF718FF814641F2883A0EE00968890335
:10180000EFE709688901ECE7FFF70CFFA0EB09019E
:10181000514502D90320BDE8F0872068696800F0CF
:101820000C00B0EB810FEFD1D8F80010404601F06A
:101830000F01B14207D90770006800F00F00B042F5
:1018400001D00120E7E72878400705D52068E9683E
:1018500020F4E050084320602878000706D520686F
:10186000296920F4604040EAC100206000F038F8A7
:101870002168084AC1F30311515CC8400649086059
:1018800006480068FFF7F6FE0020C4E7003C02406F
:10189000083802400C6200081C00002014000020E0
:1018A0000448054900680968044AC1F38221515C73
:1018B000C84070471C000020083802401C62000825
:1018C0000448054900680968044AC1F34231515C83
:1018D000C84070471C000020083802401C62000805
:1018E000224810B5006810F00C02214815D021499B
:1018F000042A11D01D4C241F082A0FD00C2A0CD109
:101900002268236802F03F025B0221D52068C0F301
:101910008810A0FB010120E0084610BD2268236862
:1019200002F03F025B0205D52068C0F38810A0FBDF
:10193000010104E02168C1F38811A1FB000100232B
:10194000FEF710FD2168C1F30141491C49000AE07E
:101950002168C1F38811A1FB00010023FEF702FDFD
:101960002168C1F30271B0FBF1F010BD08380240EC
:101970000024F400001BB7002DE9F84F04007DD0CF
:10198000DFF878B32078ABF10407C007A7F10405AE
:1019900050D0DBF800105846C1F3810101290FD067
:1019A0000168C1F38101022902D13968490207D4D3
:1019B0000068C0F38100032809D13868400206D5C9
:1019C0002868800336D560680028D8D032E0606887
:1019D000B0F5803F10D0B0F5A02F286810D020F4CB
:1019E00080302860286820F4802028606068A0B1DA
:1019F000FFF718FE06460CE0286840F48030F4E754
:101A000040F480202860F7E7FFF70CFE801B642875
:101A100076D828688003F7D50CE0FFF703FE06466A
:101A200005E000BFFFF7FEFD801B6428F0D82868A2
:101A30008003F7D42078DFF8C89280074FF0000ABF
:101A400044D5DBF80010584611F00C0F0FD0016898
:101A5000C1F38101022902D13968490207D5006822
:101A6000C0F3810003280AD13868400207D42868EF
:101A7000800715D5E068012800D111E03AE1E0685F
:101A8000B0B10120C9F80000FFF7CCFD064604E024
:101A9000FFF7C8FD801B0228BAD828688007F7D551
:101AA0002868216920F0F80040EAC10028600DE0B4
:101AB000C9F800A0FFF7B6FD064604E0FFF7B2FD47
:101AC000801B02281CD828688007F7D420780007DC
:101AD00027D5DFF828828B48616908F16C0881B14D
:101AE00001210160FFF79EFD064604E0FFF79AFD25
:101AF000801B022804D8D8F800008007F6D510E033
:101B000089E0C0F800A0FFF78DFD064605E000BFA4
:101B1000FFF788FD801B02287DD8D8F800008007D9
:101B2000F6D42078400769D574484FF00008383063
:101B30000068C0000BD471483830016841F0805112
:101B4000016000684FF0010800F0805000906E4E78
:101B50003068C00511D4306840F480703060FFF701
:101B600061FD009006E000BFFFF75CFD0099401AA0
:101B7000022850D83068C005F6D5604EA068683697
:101B800001280FD00528306810D020F00100306007
:101B9000306820F004003060A068B8B1FFF742FD63
:101BA00000900FE0306840F00100F4E740F00400DE
:101BB0003060F7E7FFF736FD0099411A41F28830AF
:101BC000814264D830688007F4D50EE0FFF72AFD23
:101BD000009007E0FFF726FD0099411A41F2883096
:101BE000814254D830688007F4D4B8F1000F05D092
:101BF00042483830016821F080510160A069A8B3E3
:101C0000DBF80010C1F38101022947D00228C9F88E
:101C100060A005D000E03AE0FFF704FD044639E09B
:101C2000FFF700FD064604E0FFF7FCFC801B0228DE
:101C30002DD828688001F7D4F4E907010843E1684A
:101C4000324A490802EB0141A26841EA8211084385
:101C5000217C40EA0160217D40EA0170386001206A
:101C6000C9F86000FFF7DEFC044606E044E000BF70
:101C7000FFF7D8FC001B022809D828688001F7D597
:101C80003AE000BFFFF7CEFC001B022802D9032078
:101C9000BDE8F88F28688001F4D42DE00128F7D042
:101CA0003868E26900F48001914223D1226A00F091
:101CB0003F0191421ED147F6C071626A0140B1EB0B
:101CC000821F17D1A26A4FF0FF3300F4403103EBBB
:101CD0005202B1EB024F0DD194F82C2000F070614C
:101CE000B1EB026F06D194F8301000F0E040B0EB99
:101CF000017F01D00120CBE70020C9E7083802406E
:101D000000004742800E4742007000400000FFFF85
:101D100010B5401EB0F1807F01D3012010BD4FF0FF
:101D2000E02460610F21601701F06DFC0020A061CC
:101D300007202061002010BD70B590F83C20012ADA
:101D400032D0012480F83C40022280F83D20036814
:101D50005A689D6822F070060A6832435A60134B35
:101D600002689A4214D0B2F1804F11D0104B9A42BF
:101D70000ED0104B9A420BD00F4B9A4208D00F4B0B
:101D80009A4205D00E4B9A4202D00E4B9A4204D191
:101D9000496825F080031943916080F83D40002197
:101DA00080F83C10084670BD022070BD0000014064
:101DB0000004004000080040000C00400004014006
:101DC000004001400018004010B586B004461421C0
:101DD0006846FEF7B5FB0E492068884215D10D48CC
:101DE0000021026842F004020260006800F0040072
:101DF00005904FF4407000900220CDE90101CDE93B
:101E0000031069460448FFF719FB06B010BD000037
:101E100000040040303802400008024070B504461B
:101E200090F83C0000260D4601280FD0012084F8D0
:101E30003C006AB1042A1DD0082A2FD00C2A3FD0BA
:101E40000126002084F83C00304670BD022070BDA1
:101E5000206801F0E1F82068816941F008018161A2
:101E60002068816921F004018161206881692A6903
:101E7000114311E0206801F0FFF82068816941F406
:101E8000006181612068816921F48061816120683D
:101E900081692A6941EA02218161D2E7206801F063
:101EA00021F92068C16941F00801C1612068C16958
:101EB00021F00401C1612068C1692A69114311E060
:101EC000206801F043F92068C16941F40061C161F3
:101ED0002068C16921F48061C1612068C1692A69F3
:101EE00041EA0221C161ACE710B5040003D094F8C7
:101EF0003D0010B107E0012010BD002084F83C0037
:101F0000204600F01FF8022084F83D00211D2068C3
:101F100001F01EF8012084F8460084F83E0084F8A1
:101F20003F0084F8400084F8410084F8420084F8BF
:101F3000430084F8440084F8450084F83D00002004
:101F400010BD000008B500680649884208D106485F
:101F5000016841F002010160006800F00200009099
:101F600008BD000000040040403802407047704740
:101F7000F8B5016804460868CA684B6910F00F0F8D
:101F80004FF0000559D003F0010602F49077374373
:101F900065D0C10705D0D10503D5216C41F0010101
:101FA0002164410705D5D90703D0216C41F0020116
:101FB0002164810705D5D90703D0216C41F00401C4
:101FC0002164010707D502F02001314303D0216CC1
:101FD00041F008012164216C00293AD0800604D523
:101FE000900602D5204601F0BFF920684069216CB7
:101FF000C0F38010090700D460B3204601F07FF9D8
:1020000020684069400621D52068143050E8001F40
:1020100021F0400140E80012002AF5D1A06BA8B1E0
:102020006C490165A06BFFF773F8002811D0A06B15
:10203000016D01B0BDE8F040084783060FD5930657
:102040000DD52046BDE8F84001F08EB92046FFF7D7
:102050008EFFF8BD2046FFF78AFF2564F8BD266B8A
:102060002023012E79D1C60677D5D60675D5086806
:10207000486800904869400640D5A16B08684068F0
:102080000004000CEAD0A28D8242E7D9E085C8693D
:10209000B0F5807F2DD020680C3050E8001F21F46F
:1020A000807140E80012002AF5D12068143050E811
:1020B000001F21F0010140E80012002AF5D120683C
:1020C000143050E8001F21F0400140E80012002ABF
:1020D000F5D184F83E30256320680C3050E8001FAD
:1020E00021F0100140E80012002AF5D1A06BFEF7A4
:1020F000C6FFA08DE18D401A81B229E0A08DE18D4F
:10210000401A81B2E08D0028A8D00029A6D020680E
:102110000C3050E8002F22F4907240E80026002E88
:10212000F5D12068143050E8002F22F0010240E879
:102130000026002EF5D184F83E30256320680C304F
:1021400050E8002F22F0100240E80023002BF5D1C8
:102150002046FFF70BFFF8BDFFE705062BD5150658
:1021600029D594F83D002128F5D1A068B0F5805F0D
:1021700001D12069B0B1206A411C21622168007838
:102180004860E08C401E0004000CE084E3D120682D
:10219000C16821F08001C1602068C16841F0400140
:1021A000C160D8E7206A0088C0F308004860206A50
:1021B000801C2062E5E74006CDD55006CBD5CA6825
:1021C000204622F04002CA6084F83D3000F0F3F867
:1021D000C1E700000932000870B5040004D094F88B
:1021E0003D00002510B106E0012070BD84F83C5090
:1021F000204600F023F8242084F83D002068C168C0
:1022000021F40051C160204601F00EF920680169F7
:1022100021F4904101612068416921F02A01416166
:102220002068C16841F40051C1602564202084F811
:102230003D0084F83E00002070BD000070B586B0FF
:10224000064614216846FEF77BF923493068884228
:102250003FD122480025016841F02001016000685B
:1022600000F0200005901D481438016841F0040179
:1022700001600068694600F004000590C0200090ED
:102280000220CDE9010503200390082004901448A2
:10229000FFF7D4F8144C134820608005C4E9010509
:1022A0004FF48060C4E903506561A561E561256272
:1022B00020466562FFF70EF808B1FEF726FAB46310
:1022C000002205214720A663FFF71EFA4720FFF7EB
:1022D0000DFA06B070BD0000001401404438024001
:1022E0000008024028640240C003002090F83E30FD
:1022F000202B0ED159B152B190F83C30012B08D0AF
:10230000012380F83C300023036301F013B901205E
:1023100070470220704700000068224988423FD180
:10232000214B2248597851B101290DD0022937D1CA
:102330001A78104410F8010C5A282BD02CE00178A0
:10234000A5292DD1012159701849B0F80120193162
:102350000A80B0F803204A80B0F805208A80B0F8DF
:102360000720CA81B0F809200A82B0F80B204A82FF
:10237000B0F80D208A82B0F80F20CA80B0F8112082
:102380000A81B0F813204A81B0F815208A81022111
:102390005970CDE70020587004490548FFF7A6BFE3
:1023A00070470000001401408800002050420020C7
:1023B0007C03002070477047FEE700002DE9F04FD6
:1023C00015462DED108BB5B0028992B22C92828900
:1023D0001FFA82F9828A92B22592808C1FFA80FAC3
:1023E00008680EEE900A48680EEE100A88680FEE34
:1023F000900AC86808EE900A08690AEE900A4869CF
:10240000F0EE680A0AEE100A88690FEE100AC86931
:1024100008EE100A086A00EE100A8DED230A486AD9
:1024200000EE100A8DED220A886AB0EE480A09EE25
:10243000900AC86A09EE100A00200B900C900090D8
:10244000019002900D900E901490159016900390AC
:10245000189019901A901B90179004900590069070
:10246000079002F0D9F98DED0B0AB0EE40BAF1EE0B
:10247000680AB1EE480A02F0CFF9F0EE400ACDED5D
:102480000C0A8DED0DBACDED0E0A00240DF12C06CF
:1024900006EB8407386803F00FFE41EC100B01F0E7
:1024A0003BFDB0EE40BAF0EE60BA1EEE100A03F04B
:1024B00003FE53EC1B2B03F03FFB41EC1C0B386875
:1024C00003F0FAFD41EC100B01F0C2FCB0EE40BA93
:1024D000F0EE60BA1AEE100A03F0EEFD53EC1B2B7F
:1024E00003F02AFB53EC1C2B03F0FCFC03F098F8E0
:1024F0000DEE100A386803F0DFFD41EC100B01F01F
:102500000BFDB0EE40BAF0EE60BA1EEE900A03F09A
:10251000D3FD53EC1B2B03F00FFB41EC1C0B386875
:1025200003F0CAFD41EC100B01F092FCB0EE40BA92
:10253000F0EE60BA1AEE900A03F0BEFD53EC1B2BCE
:1025400003F0FAFA53EC1C2B03F0CCFC03F068F810
:1025500000EE100AF0EE4D0A02F05EF904A800EB5E
:102560008400641CA4B280ED000A022C90D39DED7F
:10257000040A00278DED060A9DED050A50468DEDF3
:10258000070A03F0C5FA1C902C982C9E40001E915F
:1025900000FB09F8764309FB09F40BA800EB870B55
:1025A000DBF8000003F088FD41EC100B01F0B4FCF7
:1025B000B0EE40BAF0EE60BA18EE100A03F07CFDFF
:1025C00053EC1B2B03F0B8FA41EC1D0BDBF80000B9
:1025D00003F072FD41EC100B01F09EFCB0EE40BA2E
:1025E000F0EE60BA1FEE100A03F066FD53EC1B2BF1
:1025F00003F0A2FA41EC1C0BDBF8000003F05CFDD9
:1026000041EC100B01F024FCB0EE40BAF0EE60BAE1
:102610001FEE900A03F050FD53EC1B2B03F08CFAD5
:1026200053EC1C2B03F02EF841EC110B1E9953ECCC
:10263000112B1C9803F080FA41EC1C0BDBF8000016
:1026400003F03AFD41EC100B01F002FCB0EE40BA91
:10265000F0EE60BA18EE900A03F02EFD53EC1B2B3F
:1026600003F06AFA53EC1C2B03F03CFC53EC1D2BDB
:1026700003F008F802F0D4FF00EE900A259801EE6E
:1026800010AA00EE100A20EEA0BAB8EE411AB8EE79
:10269000400A39EE400A01EE690A00EE00BA00EE87
:1026A000104AB8EEC00A7BEE400A00EE106AB8EE9F
:1026B000C00A70EEC00A00EE108AB8EEC01A80EEB2
:1026C000810A10EE100AB0F17E5F16DC00EE104AAF
:1026D000B8EEC00A7BEE400A00EE106AB8EEC00AFF
:1026E00070EEC00A00EE108AB8EEC01A80EE810AC1
:1026F00010EE100A10F1814F09D99FEDFE0A14A8BF
:1027000000EB870080ED000A80ED020A4CE000EE4D
:10271000104AB8EEC00A7BEE400A00EE106AB8EE2E
:10272000C00A70EE600A00EE108AB8EEC01A80EEA1
:10273000810A10EE100A03F0BFFC41EC100B00F010
:1027400073FF51EC100B02F06BFF00EE104A14A95E
:1027500001EB870BB8EEC00ACBF800007BEE400A15
:1027600000EE106AB8EEC00A70EE600A00EE108A41
:10277000B8EEC01A80EE810A10EE100A03F09CFC3D
:1027800041EC100B00F050FFDB48B0EE40BAF0EE29
:1027900060BA006803F090FC53EC1B2B03F0A2FB23
:1027A00002F03EFFCBF808007F1CBFB2022FFFF4FF
:1027B000F4AED14A002014A9D2ED000AB0EE00CA4E
:1027C00001EB8002CD4F92ED000A10EE103ABB42B1
:1027D00002DB00EECC0A07E010EE103ADFF820C36F
:1027E000634503D900EE8C0A82ED000A401C80B2DA
:1027F0000428E5D300278B460BEB87000F90006879
:10280000C04988427DDA03F057FC41EC100B01F01F
:1028100083FB51EC100B02F003FF0BEE100A0F9834
:10282000006803F049FC41EC100B01F011FB51EC86
:10283000100B02F0F5FE0BEE900A0BA800EB8700E0
:102840001C90006803F038FC41EC100B01F064FBB5
:1028500051EC100B02F0E4FE0CEE900A1C9800689C
:1028600003F02AFC41EC100B01F0F2FA51EC100BD2
:1028700002F0D6FE00EE100A259800EE900A2C9881
:10288000F8EE600A30EEC91A00EE90AAF8EE600A7F
:1028900000EEA91A00EE900AF8EE601A00EE909A87
:1028A000F8EE600A50EE8B1A00EE904AF8EEE00A5D
:1028B00061EE211A60EEAB0A20EEAB1A00EE904AF0
:1028C000F8EEE00A60EE8B0A00EE8B1A00EE906ADA
:1028D000F8EEE00A31EE201A00EE908AF8EEE00AF7
:1028E00000EECB1A6FEE800A28EE800A4FEE2C0A1B
:1028F00081EE812A01EE10AAF0EE401AB8EE411ADC
:1029000000E0C8E041EE601A01EE109A2598B8EE9A
:10291000411A48EE2C1A21EE2B1A61EE812A01EEA3
:10292000104AB8EEC11A21EE2B1A61EE2B1A01EEF5
:10293000104AB8EEC11A21EE0B1A41EE0B1A01EE45
:10294000106AB8EEC11A71EE811A01EE108AB8EE63
:10295000C11A41EE4B1A82EEA11A72EE411A01EE33
:10296000100A2C98B8EE411A31EE492A01EE10AA4D
:10297000B8EE411A01EE292A01EE109AB8EE411A7A
:1029800021EE2B1A22EE013A01EE104AB8EEC11ADE
:1029900021EE2B1A21EE2B2A01EE104AB8EEC11AB5
:1029A00021EE0B1A01EE0B2A01EE106AB8EEC11AE5
:1029B00072EE012A01EE108AB8EEC11A41EE4B2ADE
:1029C00001EE10AAB8EE411A83EE222A01EE600A47
:1029D00000EE900AB8EE601A00EE909A08EE2C0A0B
:1029E000F8EE600A00EECB1A20EE011A00EE104A53
:1029F000B8EEC00A20EE2B0A60EE2B0A00EE104A59
:102A0000B8EEC00A20EE0B0A40EE0B0A00EE106A88
:102A1000B8EEC00A70EE800A00EE108AB8EEC00A66
:102A200040EE4B0A81EE200A32EE400A4FF07E5112
:102A300010EE100A88422EDC10EE100A324A904244
:102A400029D811EE900A884225DC11EE900A9042B6
:102A500021D8F0EE610A01F0DFFE684600EB870046
:102A60007F1CBFB280ED000A042FFFF4C5AEDFF873
:102A70008890224EDFF88880D9ED000A0020694650
:102A800001EB800292ED000A10EE103AB34205DB32
:102A900000EECC0A08E09FED170ADEE710EE103AD0
:102AA000434503D900EE8C0A82ED000A401C80B237
:102AB0000428E5D300240DF1100A00BF0AEB8407B7
:102AC000386803F0F9FA41EC100B01F025FA51ECEB
:102AD000100B02F0A5FD08EE100A386803F0ECFABE
:102AE00041EC100B01F0B4F951EC100B02F098FD21
:102AF0000CE0000064FDBD508C000020C3F5484090
:102B0000C3F548C00000C841000080BF08EE900A2D
:102B10000BA800EB8407386803F0CEFA41EC100BE9
:102B200001F0FAF951EC100B02F07AFD09EE100AEF
:102B3000386803F0C1FA41EC100B01F089F951EC4F
:102B4000100B02F06DFD9DED230A01EE100A60EE00
:102B5000280A9DED220A40EE480A2EEE810A2EEE4A
:102B6000011A20EE280A01EE480A2AEEA81A01EE00
:102B7000090A2AEE091A11EE080A01F04DFE68460C
:102B800000EB840018AAD0ED000A0BEB840070EE75
:102B9000600A90ED000A02EB8400641C30EEC00A6B
:102BA000A4B2042C80ED000A88D3D9ED000A0020DD
:102BB000434600BF02EB800191ED000A10EE104A7F
:102BC000B44202DB00EECC0A05E010EE104A9C4253
:102BD00003D900EE8C0A81ED000A401C80B2042863
:102BE000E8D30B982860009868601498A86018983B
:102BF000E860049828610C9868610198A8611598AC
:102C0000E86119982862059868620D98A862029890
:102C1000E862169828631A9868630698A8630E9865
:102C2000E86303982864179868641B98A864079859
:102C3000E86435B0BDEC108BBDE8F08F0F4810B5DF
:102C40000D4901600321416000214FF41022816091
:102C5000C0E903124FF40012426101764176817699
:102C6000C17601774177FDF75EFF002803D0BDE80C
:102C70001040FDF74ABD10BD00640040E402002092
:102C80000F4810B50D4901600321416000214FF448
:102C900010228160C0E903124FF4001242610176F4
:102CA00041768176C17601774177FDF73CFF0028B8
:102CB00003D0BDE81040FDF728BD10BD00680040FE
:102CC0000C030020094808B5016841F48001016047
:102CD0000068002200F48000009005213920FEF7F2
:102CE00013FDBDE808403920FEF700BD3038024032
:102CF00010B596B01C2211496846FDF7EFFB002184
:102D0000684601F096FE0E4C0C491C2220601C31D6
:102D100007A8FDF7E3FB002107A801F08AFE074999
:102D200060601C2238310EA8FDF7D8FB00210EA8E8
:102D300001F07FFEA06016B010BD0000B061000879
:102D40000000002030B587B014216846FDF7F8FB7D
:102D50001D480024016841F004010160016801F090
:102D600004010591016841F080010160016801F0F2
:102D700080010591016841F002010160016801F0E4
:102D800002010591016841F00101016000680F4DE9
:102D900000F001000590012242F210012846FEF7E2
:102DA0003BFC002244F201012846FEF735FC46F2C6
:102DB000110000900120CDE90104694628460394E2
:102DC000FEF73CFB07B030BD30380240000802403F
:102DD00010B58AB0002407941C2168460894FDF7BA
:102DE000AFFB1A48184901605321C0E9011444F6A9
:102DF0001F61C0E903148461FFF776F808B1FDF79D
:102E000084FC079407A911480894FEF795FF08B1C0
:102E1000FDF77BFC6020CDE900040294082269469E
:102E20000A480494FEF7FAFF08B1FDF76EFC0C2285
:102E300069460648FEF7F2FF08B1FDF766FC034855
:102E4000FEF7C2FF0AB010BD0004004034030020AA
:102E50000C4810B50A4901604FF416514160002139
:102E600081600C22C160C0E904128161C161FFF779
:102E7000B3F9002803D0BDE81040FDF746BC10BDF3
:102E8000001401407C030020FEE7FEE7012001F072
:102E9000C4FDFBE710B5FEF7CBFB02F0DFFA01281B
:102EA00003D0BDE8104002F06BBA10BD30B593B04E
:102EB00034216846FDF744FB14210DA8FDF740FBC3
:102EC0001D480025016841F080510160006800F054
:102ED000805012901948016841F440410160006837
:102EE000022400F440401290012000900004019060
:102EF0008001CDE9064006200890A820CDE909040C
:102F00000B9468460C94FEF737FD08B172B6FEE7E5
:102F10000DA90F2081E831004FF4A05010904FF41C
:102F20008050119005210DA8FEF720FC002801D04B
:102F300072B6FEE713B030BD40380240007000406A
:102F40000248016841F470010160704788ED00E0BB
:102F5000F0B50268254C264D264E274F274B4FF0E3
:102F6000804CA04209D0604507D0A84205D0B042AD
:102F700003D0B84201D0984204D122F0700E4A68C2
:102F800042EA0E02A0421BD0604519D0A84217D0D9
:102F9000B04215D0B84213D0984211D0184DA84273
:102FA0000ED0184DA8420BD0174DA84208D0174D8F
:102FB000A84205D0164DA84202D0164DA84203D112
:102FC00022F44075CA682A434D6922F080022A43E0
:102FD00002608A68C2620A688262A04201D0984296
:102FE00001D10969016301214161F0BD0000014087
:102FF0000004004000080040000C004000040140B4
:1030000000400140004401400048014000180040D9
:10301000001C004000200040F0B5026A22F00102CE
:103020000262036A42688469124E24F073050C68D8
:103030002C4323F002058B682B430D4DA84201D091
:10304000B04205D123F00807CB683B4323F00403CB
:10305000A84201D0B04205D14D6922F44072154317
:103060008A692A4342608461496841630362F0BD12
:103070000000014000040140F0B5026A22F0100295
:103080000262026A436884690D6824F4E64444EAF3
:1030900005248D6822F0200242EA05120F4D104EE1
:1030A000A84201D0B04206D1CF6822F0800242EAA5
:1030B000071222F04002A84201D0B04207D14D6968
:1030C00023F4406343EA85038D6943EA8503436043
:1030D0008461496881630262F0BD00000000014024
:1030E00000040140F0B5026A22F480720262026AB2
:1030F0004368C46922F4007224F073050C68124E10
:103100002C438D6842EA05220E4DA84201D0B04200
:1031100006D1CF6822F4006242EA072222F48062DC
:10312000A84201D0B04207D14D6923F4405343EA8D
:1031300005138D6943EA05134360C4614968C1639F
:103140000262F0BD000001400004014030B5026A97
:1031500022F480520262046A4268C3690D6823F453
:10316000E64343EA05238D6824F4005444EA053419
:10317000084DA84202D0084DA84204D14D6922F45E
:10318000804242EA85124260C36149680164046278
:1031900030BD0000000001400004014010480F490C
:1031A000114A01600F49416000218160C1600261E4
:1031B0000E4A42610E4A82610E4AC2610E4A0262A2
:1031C0000E4A42620E4A82620E4AC2620163416343
:1031D00081634FF07E51C16370470000B5A6F93D91
:1031E000B87300207B147EBF2B18553F3C4ED13D59
:1031F000E86A0BBF00008CC3C3640A3FB9FC873D7B
:103200000BB5563FE271DB4310B5806B0021C185E1
:10321000C184FEF7ACFE10BD70B5846B20684069B8
:1032200094F83D10C0F3C0100025212904D118B135
:10323000E584204600F08AF82068406994F83E1042
:10324000C0F38010222904D118B1E585204600F092
:1032500056F8206C40F0100020642046FEF787FEF0
:1032600070BD10B50146806B09680968C9052FD487
:103270000021C18501680C3151E8002F22F48072D1
:1032800041E80023002BF5D10168143151E8002FEB
:1032900022F0010241E80023002BF5D1016814312E
:1032A00051E8002F22F0400241E80023002BF5D125
:1032B000202180F83E10016B012909D101680C31F1
:1032C00051E8002F22F0100241E80023002BF5D135
:1032D000016B012902D0FFF71FF810BD818DFEF7A9
:1032E00045FE10BD10B5806B016B012902D0FFF7C0
:1032F00061F810BD818D4908FEF738FE10BD0168E8
:103300000C3151E8002F22F4907241E80023002B89
:10331000F5D10168143151E8002F22F0010241E893
:103320000023002BF5D1016B012909D101680C3173
:1033300051E8002F22F0100241E80023002BF5D1C4
:10334000202180F83E1000210163704701680C3194
:1033500051E8002F22F0C00241E80023002BF5D1F4
:10336000202180F83D10704708B590F83E102229C2
:1033700001D0022008BD82684FF480539A4201D1E7
:10338000016921B1816A9A421BD04AB10AE0026800
:10339000816A5268C2F308020A80816A891C08E0C7
:1033A000026972B10268526802F07F020A70816A93
:1033B000491C8162C18D491E0904090CC18503D0D5
:1033C00019E002685268F1E70168CA6822F0200239
:1033D000CA600168CA6822F48072CA6001684A69DA
:1033E00022F001024A61202180F83E10016B012980
:1033F00003D0FEF791FF002008BD002101630168A2
:103400000C3151E8002F22F0100241E80023002B7C
:10341000F5D101680A68D20602D50A6849680091A8
:10342000818DFEF7A3FDE6E770B5044600680169EB
:10343000E26821F44051114301612169A068E26909
:1034400008436169114308432168CA6849F20C6363
:103450009A430243CA6020684169A26921F440711D
:103460001143416131492068884202D03049884285
:1034700002D1FEF725FA01E0FEF712FAE269002315
:10348000192164253226B2F5004F626828D0A0FBCE
:103490000101930F9200FCF765FF0146B0FBF5F0C8
:1034A0006FF01802504301EB800006EB0010B0FBF8
:1034B000F5F000F0F002B1FBF5F002EB0012B1FB09
:1034C000F5F06FF01803584301EB800006EB001095
:1034D000B0FBF5F000F00F0021681044886070BD6B
:1034E000A0FB010192185B41FCF73CFF0146B0FBD9
:1034F000F5F00201B1FBF5F06FF01803584301EB52
:10350000800006EBC000B0FBF5F000F0F80002EB25
:103510004002B1FBF5F0584301EB800006EBC00020
:10352000B0FBF5F000F00700D6E700000010014006
:103530000014014038B58162828500251346044697
:103540000564222084F83E00A26B1C48D063A26B65
:103550001B481064A26B1B48D064A06B0A4605652B
:103560002168A06B091DFDF71FFF206801684068F6
:10357000009084F83C50206948B120680C3050E835
:10358000001F41F4807140E80012002AF5D1206844
:10359000143050E8001F41F0010140E80012002AF9
:1035A000F5D12068143050E8001F41F0400140E898
:1035B0000012002AF5D1002038BD00006332000857
:1035C000E5320008193200080148FEF7D1BC0000BE
:1035D0007C030020FEE703B401984100009850EA04
:1035E000C12018BF04204A0D18BF40F0010040F26E
:1035F000FF72B2EB515F08BF40F00200012808BF24
:10360000052002B070470907090E002804DB00F10D
:10361000E02080F80014704700F00F0000F1E02077
:1036200080F8141D7047000070B5C1482DED020BE5
:103630002DED0E8B82B0119D25F000449FEDBEDB79
:103640009FEDBFEB84423EDBA4F140511098A1F105
:103650007F6108430FD0BC48844202DC28D1109817
:1036600030B39DED100B02B0BDEC0E8B02B0BDE887
:10367000704001F09DB89DED100B53EC1D2B51ECEB
:10368000100B02F059FA9DED100B41EC180B53ECA6
:103690001E2B51EC100B02F04FFA53EC182B01F0DB
:1036A000F1FF41EC100B02B0BDEC0E8B02B070BD0F
:1036B0000120FCF774FF02B0BDEC0E8B02B0BDE838
:1036C000704001F089B8A1489FEDA18B844256DA81
:1036D0009DED100BB4F1795F0ADA51EC100BFFF796
:1036E0007AFF042808BF01F087F89DED100BDAE798
:1036F00053EC102B51EC100B02F01EFA41EC190B9D
:1037000095480621B0EE490AF0EE690A784400F0C7
:103710003BFF53EC192B51EC100B02F00DFA41EC6E
:103720001A0B8E48B0EE490AF0EE690A042178447B
:1037300000F02AFF53EC192B51EC100B02F0FCF9AE
:1037400053EC182B01F09EFF41EC100B51EC1A0BBF
:1037500053EC102B02F03EF8CDE900019DED000B7B
:1037600053EC102B9DED100B51EC100B02F0E4F913
:103770009DED101B53EC112B01F084FFD2E09DED69
:10378000100B51EC100B01F003F953EC182B02F065
:10379000D1FA9FED730BCDE9000153EC102B9DED99
:1037A000000B51EC100B02F0C7F941EC190B6E48FD
:1037B0000621B0EE490AF0EE690A784400F0E4FE12
:1037C00053EC192B51EC100B02F0B6F941EC1B0B2A
:1037D0006648B0EE490AF0EE690A0421784400F028
:1037E000D3FE53EC192B51EC100B02F0A5F953EC5E
:1037F000182B01F047FF41EC1C0B51EC190B01F0A9
:10380000A1FB41EC180B5A489FED5BABA04222DCB8
:1038100053EC1C2B51EC1B0B01F0DCFFCDE900013C
:103820009DED000B51EC180B53EC102B02F084F9BA
:1038300053EC182B01F026FF53EC1A2B02F07CF905
:1038400053EC1D2B02F04EFB53EC1E2B02F072FAD0
:1038500041EC100B5FE08DED008B002000909DEDA2
:10386000000B51EC180B53EC102B01F00BFF9DEDEE
:10387000000B41EC1E0B53EC102B51EC100B02F023
:103880005BF953EC192B02F055FA53EC1E2B01F0A7
:10389000A1FF41EC190B53EC1C2B51EC1B0B01F05D
:1038A00099FF41EC1B0B53EC1A2B51EC190B02F056
:1038B00043F953EC1D2B02F03DFA41EC190B53EC8C
:1038C0001A2B51EC180B02F037F953EC1B2B02F0BA
:1038D00033F953EC192B02F005FB9DED000B41EC85
:1038E000180B53EC1A2B51EC100B02F025F99FED3D
:1038F000249B53EC192B02F01DFA41EC100B51ECF8
:10390000180B53EC102B02F0EDFA53EC192B02F0CC
:1039100011FA41EC100B002D3FF7C5AE51EC100B26
:1039200001F072FE41EC100BBDE60000000000004B
:103930000000F03F00000000075C143326A6913C15
:10394000182D4454FB21F93F0000F07F0000E03FB8
:10395000000000000000F03F182B0000262B0000A4
:10396000000000000000E03F6A2A0000782A000002
:103970003333EF3F00000000000000000000004073
:10398000182D4454FB21E93F70B59B482DED020BE7
:103990002DED068B079D25F00044A04218DC9748CA
:1039A000844202DC0AD1069840B19DED060BBDECC5
:1039B000068B02B0BDE8704000F0FABE002DCCBF0F
:1039C0009FED8F0B9FED900BBDEC068B02B070BD91
:1039D0008F48A04215DD8F48A042D8BF4FF0FF347A
:1039E00058DD9DED060B51EC100BFFF7F4FD04289C
:1039F00008BF00F001FF9DED060BBDEC068B02B089
:103A000070BD9DED060B51EC100B00F0C1FFCDE930
:103A1000060181489FED828BA0423CDD8248A04296
:103A20001FDD00249FED82AB9DED060B53EC1A2B9E
:103A300051EC100B01F026FE9DED060B41EC190B2D
:103A400053EC1A2B51EC100B02F076F853EC182BB8
:103A500002F048FA53EC192B01F0BCFECDE9060147
:103A600049E09DED060B012453EC182B51EC100B93
:103A700001F008FE9DED060B41EC190B53EC182BE1
:103A800051EC100B02F02EFA53EC192B01F0A2FEB0
:103A9000CDE906012FE06848A0421FDD02249FED1A
:103AA000689B9DED060B53EC192B51EC100B02F0AB
:103AB00043F853EC182B01F0E5FD9DED060B41ECAE
:103AC000180B53EC192B51EC100B02F00BFA53ECC2
:103AD000182B01F07FFECDE906010CE09DED060BF1
:103AE000032453EC102B9FED580B51EC100B01F0FD
:103AF00071FECDE906019DED060B53EC102B51EC48
:103B0000100B02F019F841EC180B53EC182B02F0D3
:103B100013F841EC190B4E480621B0EE490AF0EEBD
:103B2000690A784400F030FD53EC182B51EC100B6F
:103B300002F002F841EC180B4648B0EE490AF0EEEC
:103B4000690A0521784400F01FFD53EC192B51EC54
:103B5000100B01F0F1FF41EC100B51EC180B53EC82
:103B6000102B002C0EDA01F08DFD9DED061B53ECA1
:103B7000112B01F0E1FF9DED061B53EC112B02F020
:103B8000D9F835E001F07EFD9DED061B53EC112BBD
:103B900001F0D2FF41EC100B2F48784400EBC40039
:103BA00090ED001B51EC100B53EC112B02F09AF925
:103BB0009DED061B53EC112B02F094F941EC100B18
:103BC0002648784400EBC40090ED001B51EC100B2C
:103BD00053EC112B02F0AEF841EC100B002DA2BFFC
:103BE000BDEC068B02B070BD51EC100B01F00CFD6A
:103BF00041EC100B01E70000000010440000F07FD2
:103C0000182D4454FB21F93F182D4454FB21F9BFD2
:103C10000000DC3F0000203E0000F33F00000000F9
:103C2000000000000000F03F0000E63F0000000040
:103C30000000000000000040008003400000000081
:103C4000000000000000F83F000000000000F0BF8E
:103C5000BA27000070270000FA260000B2260000F4
:103C600070B56B4E2DED040B2DED028B82B0DDF89F
:103C70001CC0DDE905235C422CF000411C4341EAF5
:103C8000D474049D22F00040B44205D86C422C4309
:103C900040EAD474B4420BD99DED061B9DED040B94
:103CA00002B0BDEC028B04B0BDE8704000F08ABDEC
:103CB000ACF14054A4F17F641C430BD0022404EA0D
:103CC000AC7444EAD27405439FED538B9FED542BA3
:103CD00007D015E09DED040B51EC100B00F00AFE2F
:103CE00042E0002C11BF012C9DED040B02B0BDEC95
:103CF000028B04BF04B070BD022C38D0032C3BD023
:103D00000B439FED491B9FED4A0B0AD0B14218D1DE
:103D1000B04209D121F0804120F080400791059008
:103D20000FE0002A15DA10E0434B7B44002C08BF5B
:103D300093ED000B0DD0012C10D0022C17D0032CCA
:103D40001AD0B0421DD1002A03DAB0EE410AF0EEDB
:103D5000610A02B0BDEC028B04B070BD93ED000BA4
:103D600051EC100B01F050FC41EC100BF1E7B0EE00
:103D7000480AF0EE680AECE7B0EE420AF0EE620A9A
:103D8000E7E7401A00153C28C8BF8DED000B19DC91
:103D9000BCF1000FBEBF10F13C0F9FED290B8DED64
:103DA000000B0FDB9DED060B53EC102B9DED040B70
:103DB00051EC100B01F00EFD00F0EAFD00F09AFD51
:103DC000CDE90001002C08BF9DED000BC1D0012CF6
:103DD00010D0022C9FED1C0B53EC102B9DED000B13
:103DE00051EC100B0DD002F07DF853EC182B02F0C3
:103DF00079F8B9E7019880F0004001909DED000B43
:103E0000A7E702F06FF853EC182B01F093FFABE734
:103E10000000F07F00000000182D4454FB210940F1
:103E2000182D4454FB2109C0182D4454FB21F9BF1F
:103E3000182D4454FB21F93F122600000000000019
:103E40000000000000000000075C143326A6A13C1F
:103E500010B52F499FED2C1B2DED020B84B005985A
:103E600020F000408842D8BF9DED040B2DDD29498C
:103E7000884209D1049840B94FF00100FCF78FFB4C
:103E800000F0AAFC06B010BD05DB9DED040B00F0B0
:103E90008FFC06B010BD68469DED040B00F0A0F845
:103EA00010F0030004BF9DED021B9DED000B0CD034
:103EB00001280ED09DED021B9DED000B022817D0AE
:103EC000012000F0DDFB06B010BD00F0A5FA06B041
:103ED00010BD9DED021B9DED000B012000F0D0FBFD
:103EE00051EC100B01F090FB06B041EC100B10BD33
:103EF00000F092FA51EC100B01F086FB06B041EC99
:103F0000100B10BD000000000000000000000000C9
:103F1000FB21E93F0000F07F10B52F499FED2C1BDE
:103F20002DED020B84B0059820F000408842DCBFE4
:103F300000209DED040B32DD2849884209D1049808
:103F400040B94FF00100FCF72AFB00F045FC06B039
:103F500010BD05DB9DED040B00F02AFC06B010BD82
:103F600068469DED040B00F03BF810F0030011D003
:103F7000012818D09DED021B9DED000B02281AD0E0
:103F800000F04AFA51EC100B01F03EFB06B041EC98
:103F9000100B10BD9DED021B9DED000B012000F0EC
:103FA0006FFB06B010BD9DED021B9DED000B00F0F8
:103FB00033FA06B010BD012000F062FB51EC100B8B
:103FC00001F022FB06B041EC100B10BD0000000018
:103FD0000000000000000000FB21E93F0000F07F2E
:103FE0002DE9F14F04462DED020B2DED088B8AB023
:103FF0009FEDE70B80ED020B139EE74826F000458E
:1040000085420ADC9DED120B002084ED000B0AB006
:10401000BDEC088B03B0BDE8F08FE0489FEDE0AB4E
:104020009FEDE1BBA84247DDE14F9FEDE39B9FED94
:10403000E48B9DED120B53EC1A2B51EC100B002E60
:104040001CDD01F04FFF41EC100BBD4208D053ECDA
:104050001B2B51EC100B01F045FFC4E900010BE0F4
:1040600053EC192B51EC100B01F03CFF53EC182BC7
:1040700001F038FFC4E900010120C8E701F002FBAC
:1040800041EC100BBD4208D053EC1B2B51EC100B34
:1040900001F0F8FAC4E900010BE053EC192B51ECE4
:1040A000100B01F0EFFA53EC182B01F0EBFAC4E916
:1040B00000014FF0FF30AAE7C348A84279DB9DED2D
:1040C000120B51EC100B00F063FC41EC180B9FED50
:1040D000C00B53EC102B01F02FFD9FEDBF1B53ECD9
:1040E000112B01F0CFFA01F0CDFC074601F0F9FCED
:1040F00041EC190B53EC1A2B01F01EFD53EC182B5D
:1041000001F018FE41EC180B53EC1B2B51EC190B72
:1041100001F012FDDFF8C8A241EC100B4FEA155870
:104120000125FA4453EC102B51EC180B01F0DAFE88
:10413000032DC4E900013DD0C1F30A5005EB451140
:10414000A8EB00001139814234DA0AEB051BB0EE0E
:1041500048AA9BED000BF0EE68AA53EC102B51EC33
:10416000190B01F0E9FC41EC1B0B51EC1A0B53EC61
:104170001B2B01F0B7FE41EC180B51EC1A0B53EC62
:10418000182B01F0AFFE53EC1B2B01F0ABFE9BEDA7
:10419000020B41EC1A0B53EC102B51EC190B01F0F4
:1041A000CBFC53EC1A2B01F09DFE41EC100B6D1C67
:1041B000B8E70EE0002EA8BF3846BFF628AF94ED52
:1041C000000B51EC100B01F01FFAC4E9000178421A
:1041D0001DE7C6F3130040F4801EC6F30A50A0F298
:1041E000F530471100F01F05C5F12000DDF848B09B
:1041F00008900020069007900520EC467949002D94
:1042000007EB0002794408BF51F8221009D051F899
:10421000223001EB8201AB404A68089922FA01F191
:104220001943A1FB0E26A1FB0B131A449A4234BF7B
:104230000123002303EB06080CEB8003D3E901A65E
:104240000E448E4234BF0121002192448A4411B1B0
:10425000924502D903E0924501D2012100E00021FC
:10426000C3E901A641444CF82010011EA0F1010051
:10427000C4DC029800F10050850F0298DDE9036765
:104280008000DDF8148001F02CFC41EC1A0B304664
:1042900001F03EFC9FED541B53EC112B01F04CFC44
:1042A00041EC1B0B384601F033FC9FED511B53ECE6
:1042B000112B01F041FC41EC180B404601F028FCA9
:1042C0009FED4D1B53EC112B01F036FC41EC190B0B
:1042D00051EC180B53EC192B01F0D4F953EC1B2BB8
:1042E00001F0D0F953EC1A2B01F0CCF9CDE908011B
:1042F000002008909DED080B53EC1A2B51EC100B8D
:1043000001F0F0FD53EC1B2B01F0ECFD53EC182BEE
:1043100001F0E8FD53EC192B01F00CFD9FED381B6B
:1043200053EC112B01F008FC9FED370B41EC180BFF
:1043300053EC102B9DED080B51EC100B01F0FCFB26
:1043400053EC182B01F09EF99FED310B41EC180B4B
:1043500053EC102B9DED080B51EC100B01F0ECFB16
:1043600053EC182B01F08EF941EC100B139810F060
:10437000004F06D06D4251EC100B01F045F941ECB5
:10438000100B284684ED000B41E600000000000001
:104390000000000000000000FB21E93F7CD9024042
:1043A00000004054FB21F93F3163621A61B4D03DF3
:1043B000FB21F93F000000000000601A61B4D03D0D
:1043C0007370032E8A19A33BFB21394100000000C2
:1043D00083C8C96D305FE43F000000000000E03F8B
:1043E0002222000070210000000000000000103EAA
:1043F000000000000000103C000000000000103A27
:10440000182D4454FB21F93D3326A611460B113CCF
:1044100000000054FB21F93D10B52DED040B2DEDEE
:10442000088B82B0B0EE419AF0EE619A0B9820F0C2
:1044300000449FED4BABB4F1795F11DA9DED0A0BAF
:1044400051EC100B01F01EFB002801BFB0EE4A0A30
:10445000F0EE6A0A02B0BDEC088B04BF04B010BDD8
:104460009DED0A0B53EC102B51EC100B01F064FB8B
:1044700041EC180B3C480621B0EE480AF0EE680A01
:10448000784400F081F853EC182B51EC100B01F03C
:1044900053FB9DED0A0B41EC1B0B53EC192B51EC1C
:1044A000100B01F049FB41EC190B53EC1B2B51ECA9
:1044B000180B01F041FB53EC192B01F013FD9FED9C
:1044C0002C0B41EC190B53EC102B51EC180B01F099
:1044D00033FB41EC100B2848844210DA53EC192BC3
:1044E00051EC100B01F0FEFC53EC1A2B01F022FCF6
:1044F00041EC100B02B0BDEC088B04B010BD1F489E
:10450000A042BCBF9FED1E1B8DED001B06DBA4F57A
:1045100000100190002000909DED001B51EC100B4D
:1045200053EC112B01F0DEFC9DED000B41EC180B60
:1045300053EC102B51EC1A0B01F0D4FC41EC1A0B8C
:1045400053EC192B51EC180B01F0CCFC53EC1A2B4B
:1045500001F0F0FB41EC100BCCE700000000000084
:10456000000000000000F03F8C1E00000000000072
:10457000000000000000E03F3333D33F0000E93F7C
:10458000000000000000D23F70B504462DED028B04
:104590004D1E00EBC500B0EE408AF0EE608A90ED53
:1045A000000B35F0060017D053EC182B51EC100B14
:1045B00001F0C2FA41EC100B6D1E04EBC50090ED4A
:1045C000001B51EC100B53EC112B01F05BF841EC8C
:1045D000100B35F00600E7D1022D36D0042D1CD08B
:1045E000062D1CBFBDEC028B70BD53EC182B51EC9B
:1045F000100B01F0A1FA94ED0A1B53EC112B01F002
:1046000041F853EC182B01F097FA94ED081B53EC8A
:10461000112B01F037F841EC100B53EC182B51EC37
:10462000100B01F089FA94ED061B53EC112B01F0ED
:1046300029F853EC182B01F07FFA94ED040B53EC9E
:10464000102B01F01FF841EC100B53EC182B51EC20
:10465000100B01F071FA94ED021B53EC112B01F0D9
:1046600011F853EC182B01F067FA94ED001B53EC92
:10467000112B01F007F8BDEC028B41EC100B70BD63
:1046800031B504462DED040B2DED0A8BB0EE41BA89
:10469000F0EE61BA0B989DED0A0B20F00040B0F1EE
:1046A000795F0DDA51EC100BFEF795FF042808BF77
:1046B00000F0A2F89DED0A0BBDEC0A8B05B030BDF1
:1046C00053EC102B51EC100B01F036FA41EC180BA7
:1046D0009DED0A0B53EC182B51EC100B01F02CFA4A
:1046E00041EC190B2C48B0EE480AF0EE680A05219F
:1046F0007844FFF749FF9FED2ACBB0EE40AAF0EED9
:1047000060AA9CB353EC1C2B51EC190B01F014FA6A
:1047100041EC1C0B53EC1A2B51EC190B01F00CFA69
:104720009FED210B41EC190B53EC102B51EC1B0BA3
:1047300001F002FA53EC192B01F0D4FB53EC182BC7
:1047400001F0FAF953EC1B2B01F0CCFB53EC1C2BC2
:1047500001F0C8FB9DED0A1B53EC112B01F0EAFAA6
:10476000BDEC0A8B05B041EC100B30BDFFE753ECFC
:104770001A2B51EC180B01F0DFF953EC1C2B00F055
:1047800081FF53EC192B01F0D7F99DED0A1B53EC77
:10479000112B00F077FFE3E71C1D00000000000074
:1047A000495555555555C5BF000000000000E03F74
:1047B00010B553EC102B51EC100B00F063FF41ECE3
:1047C000100B10BD10B553EC112B51EC100B00F079
:1047D00059FF41EC100B10BD9FED050B10B553ECCC
:1047E000102B51EC100B00F0F5FF41EC100B10BD3D
:1047F00000000000000000009FED050B10B553EC19
:10480000102B51EC100B01F097F941EC100B10BD7F
:10481000000000000000001010B59FED281AF0EE17
:10482000E01A2DED048BB0EE408A9FED250AB0EE24
:10483000C82AB4EEC12AF1EE10FA04D2F4EEC11A7D
:10484000F1EE10FA19D3F4EEC11AF1EE10FA17D204
:104850001C48B5EEC08AD0ED000AF1EE10FA03DD77
:10486000B6EE000A20EE800AB5EEC08AF1EE10FA2C
:1048700003D2BEEE000A20EE800ABDEC048B10BD10
:10488000B4EEC12AF1EE10FAF7D310EE900A01F05F
:1048900013FC41EC190B18EE100A01F00DFC41EC71
:1048A000100BB0EE491AF0EE691AFFF7D9F951EC86
:1048B000100B00F0B5FE00EE100ADEE7ACC527379E
:1048C000000000008C00002007480021FA2201604F
:1048D00041608260C26001613F2242618161C161C9
:1048E0000162742141627047EC430020012000F016
:1048F00094F8FBE710B541EC100BFFF745F851ECCD
:10490000100B10BD00B58BB000200121CDE90601D0
:1049100008910090019002900390059004906946E0
:104920000C48FBF707FF0B48FCF776FB0221094810
:10493000FBF7EDFE0E200990059069460648FBF74F
:10494000F9FE0548FCF768FB02210348FBF7DFFE90
:104950000BB000BDE40200200C030020094810B594
:104960000068C16841F01001C1600748074902783A
:104970000448FDF7BBFCBDE810404FF47A70FCF72B
:104980004BBD00007C030020880000205042002026
:1049900082B0CDE9000121F0004001909DED000BB7
:1049A00002B051EC100B704700F080F800F06CF88A
:1049B000FEF7F4FBFFF788FF064A0748A2F19001D3
:1049C000FDF7FCFC03495022A1F15000FBF741FD2B
:1049D000FEE7000048740020EC430020FCF730FEA6
:1049E000FEF764FAFEF7AEF9FEF76CF9FEF730FA5F
:1049F000FEF724F9FEF744F9FEF7EAF9FFF782FF24
:104A0000FFF7ACFFFEF774F900F00EF8FEE7014681
:104A10000020842900D0C81C704710B500B90120BF
:104A200000F0A2FB002010BD10B500F0C3FB002079
:104A300010BD7FB50D4604464169B0F9080081B14B
:104A4000A16971B1FFF7E3FFD4E905128DE8070012
:104A5000D4E900102B46226900F0D5FC039004B085
:104A600070BDFFF7D4FF03A9CDE90001208A2B46D2
:104A700082B2D4E9001000F099FC012801D0002096
:104A8000EDE70398EBE70000054904480022486081
:104A90000A600449086004484860704700002041EB
:104AA000C8440020405C00200000A04110B50A4826
:104AB00008490B4A0160094941608260094BC360A3
:104AC000094C04613C300360426081600749C16069
:104AD000016110BD0000B4C2504400200000A0419C
:104AE00000002042000048420000B4420000204183
:104AF0002DE9F041184C0F460546E6682068001D78
:104B000000F06BFA38B9206890F82C10012088402A
:104B1000216981432161681C07D137B12168BDE853
:104B2000F0410E48091D00F09BBA20683544B5429B
:104B30004560216805D2A06BBDE8F041091D00F079
:104B400077BA606B091D00F073FAA06A854200D243
:104B5000A562BDE8F081000020000020FC040020D8
:104B60002DE9F041054600F087FA2E4CA068401C64
:104B7000A06020682C4F10B1606940B32DE0256023
:104B8000A068012829D1002606EB860007EB8000EB
:104B900000F040FA761C072EF6D323488C3000F044
:104BA00039FA2148A03000F035FA1F48B43000F03F
:104BB00031FA1D48C83000F02DFA1B48DC3000F0F7
:104BC00029FA19488C3060631430A06305E020682E
:104BD000E96AC06A884200D82560606A401C606249
:104BE000E96A0120226988401043206101EB8100BD
:104BF00007EB8000291D00F033FA00F05DFA6069D0
:104C000000280CD02068E96AC06A884207D20749A8
:104C10004FF080500860BFF34F8FBFF36F8FBDE838
:104C2000F0810000200000202004002004ED00E0BE
:104C300010B5044690F8510058B101280CD0022854
:104C40000FD0502080F31188BFF34F8FBFF36F8FC9
:104C5000FEE7206B00F044FA2046BDE8104000F06B
:104C60003FBA10BD10484FF47051420706D0C01D26
:104C70000D4920F00700411AC1F570510B4A00237D
:104C80000144C2E900030839183A21F00701116014
:104C90004B600B600B1AC0E9001393604FF00040AB
:104CA0005360506170470000100500207400002020
:104CB000144E154CA6F1C8074FF08058DFF84C9001
:104CC00012E000BF00F0D8F9F068C568281D00F0B8
:104CD00084F9A068401EA0606068401E606000F01B
:104CE000EBF92846FFF7A4FF60680028EAD138688E
:104CF0000128F9D9C9F80080BFF34F8FBFF36F8F38
:104D0000F2E70000E80400202000002004ED00E0AD
:104D10002DE9F0479A46DDE9098481466FF00303E7
:104D2000206B03EB82021044089E20F007077807EF
:104D300007D0502080F31188BFF34F8FBFF36F8FE0
:104D4000FEE7002561B1002023180A5C83F83420B7
:104D50000A5C12B1401C1028F6D384F8435001E0DD
:104D600084F83450072E00D30626E662C4E91165A4
:104D7000201D00F05AF904F1180000F056F92461E2
:104D8000C6F107006462A061E56484F850505246A1
:104D90004946384600F0C0F82060B8F1000F01D055
:104DA000C8F80040BDE8F08730B5114900E0114671
:104DB0000A688242FBD34B685C18844203D1406886
:104DC00018444860084643681C18944209D1084CAE
:104DD000183C2468A24209D052681A4442600A680A
:104DE00012680260814200D0086030BD0460F9E7BB
:104DF000740000200648416B096829B1416BC968FD
:104E0000C9684968816270474FF0FF31FAE70000D6
:104E10002000002008484068401C4FF0500080F3FC
:104E2000118804D0BFF34F8FBFF36F8FFEE7BFF33E
:104E30004F8FBFF36F8FFEE77C0000202DE9F0411C
:104E40000546002700F0ECF9324E306808B9FFF74C
:104E500009FF706905424ED1C5B3083568070ED009
:104E600005F00700C0F108000544680707D050208E
:104E700080F31188BFF34F8FBFF36F8FFEE72DB321
:104E80007068854237D82348183001460C6801E025
:104E900020460C466168A94202D221680029F7D158
:104EA00031688C4227D00768216801606068083744
:104EB000411B10290FD96019420708D0502080F3F8
:104EC0001188BFF34F8FBFF36F8FFEE713E0416090
:104ED0006560FFF769FF61687068401A7060B268CA
:104EE000904200D2B060706901430020C4E9000123
:104EF000F068401CF06000F025FB780707D05020D8
:104F000080F31188BFF34F8FBFF36F8FFEE73846F2
:104F1000BDE8F0815C00002010B5031F4FF08074E5
:104F20001C601B1F21F001011960191F044B0B604D
:104F300014390A60091F6FF0020244380A6010BD7C
:104F4000154E000800B52DED048B83B041EC190B14
:104F500000F0FCFE41EC180B18EE100A18EE901A47
:104F60008DED008B002818BF0120084320F0004081
:104F7000C0F17F6000F1E040C00F14D019EE101AAC
:104F800019EE900A8DED009B002918BF01210843FE
:104F900020F00040C0F17F6000F1E040C00F04BF8E
:104FA0000120FBF7FCFA51EC180B03B0BDEC048BAD
:104FB00000BD01EE100A70EEC00A0120B8EEC11A61
:104FC0008840401E21EE201A00EE900AF8EEE01A0A
:104FD000C1EE210A30EE800A7047D0E90132016942
:104FE0009A60D0E901235A604A68824201D18268FE
:104FF0004A60002202610868401E08600868704725
:10500000034B036003F15400086080201060704778
:105010009000002000F108014FF0FF32C0E90112BA
:10502000C16001610021016070470021016170478A
:1050300030B50B685A1C02D000F1080202E0026988
:1050400004E02246546825689D42FAD953684B60B3
:1050500099608A60516008610168491C016030BD37
:1050600042684A6093688B609368596091600861F8
:105070000168491C01607047502080F31188BFF31C
:105080004F8FBFF36F8F0A494868401C4860012862
:105090000CD10848006810F0FF0F07D0502080F3B3
:1050A0001188BFF34F8FBFF36F8FFEE7704700008B
:1050B0007C00002004ED00E00849486828B1401E4B
:1050C000486001D180F311887047502080F3118827
:1050D000BFF34F8FBFF36F8FFEE700007C0000200F
:1050E00070B500282AD0164DA0F1080460686969DF
:1050F000084207D1502080F31188BFF34F8FBFF3D0
:105100006F8FFEE722683AB1502080F31188BFF319
:105110004F8FBFF36F8FFEE78843606000F080F829
:1051200060686968084468602046FFF73DFE2869AA
:10513000401C2861BDE8704000F004BA70BD00005A
:105140005C0000204FF0E0200021016181610549F1
:105150004FF47A720968B1FBF2F1491E41610721EF
:10516000016170471C00002010B5020014D00F48E8
:10517000006B38B1502080F31188BFF34F8FBFF31D
:105180006F8FFEE700F04CF800211046FFF7B0FCEF
:1051900000F0D8F9002807D105494FF08050086089
:1051A000BFF34F8FBFF36F8F10BD000020000020B2
:1051B00004ED00E010B586B00024039405AA04A90C
:1051C00003A80494FFF71CFFDDE903010094CDE977
:1051D000011000230EA11048059A00F014F90F49A0
:1051E0000028C86211D0502080F31188BFF34F8F80
:1051F000BFF36F8F4FF0FF30886201204861CC60B1
:1052000006B0BDE8104000F041B806B010BD000087
:1052100049444C4500000000B14C0008200000202B
:105220000248016B491C0163704700002000002008
:105230001448016B11B10121C16170470021C161A6
:105240000169B1FA81F1C1F11F0101EB81020E493F
:1052500051F822306BB101EB820101F108034A6879
:1052600052684A609A4201D152684A60D16801602E
:105270007047502080F31188BFF34F8FBFF36F8FBB
:10528000FEE7000020000020200400201CB5374865
:105290000168374A914207D1502080F31188BFF34B
:1052A0004F8FBFF36F8FFEE700683149491E884278
:1052B00007D1502080F31188BFF34F8FBFF36F8F5A
:1052C000FEE72C4908780190FF20087008788DF8D7
:1052D00000009DF800009DF8002000F0F0009042D2
:1052E00007D0502080F31188BFF34F8FBFF36F8F2B
:1052F000FEE79DF80000204C00F0500020700720D1
:10530000A06005E09DF8002052008DF80020401EAE
:105310009DF800201206F5D4A060032807D0502085
:1053200080F31188BFF34F8FBFF36F8FFEE74FF409
:105330004070A060019808700C482030016841F46A
:1053400070010160016841F070410160FFF7FAFEF1
:1053500000206060FAF7AAFF0848016841F0404168
:105360000160FAF78FFF00201CBD000000ED00E097
:1053700071C20F4100E400E07C00002034EF00E047
:1053800010B5502080F31188BFF34F8FBFF36F8F9C
:1053900000F072F818B104494FF080500860002006
:1053A00080F3118810BD000004ED00E02DE9FF5FDF
:1053B0008346DDE90E87994616468A469000FFF738
:1053C0003DFD05001CD05420FFF738FD040014D02B
:1053D0000020256384F85100CDE90240CDE9008723
:1053E0004B46324651465846FFF792FC2046FFF79F
:1053F000B7FB012004B0BDE8F09F2846FFF770FE20
:105400004FF0FF30F6E7F0B585B0DDE90B640A9D9B
:10541000A6B1DCB1542700972663022684F85160B8
:10542000002604AFCDE90246CDE90057FFF770FC36
:105430002046FFF795FB049805B0F0BD502080F39F
:105440001188BFF34F8FBFF36F8FFEE7502080F3BB
:105450001188BFF34F8FBFF36F8FFEE70548416997
:1054600019B1006B18B1002070470120704702206D
:1054700070470000200000202DE9F0412F4C00264D
:10548000206B28B1A069401CA0613046BDE8F081C6
:10549000E5686D1CE56013D1606B006838B1502081
:1054A00080F31188BFF34F8FBFF36F8FFEE7606B00
:1054B000A16B6163A063206A401C2062FFF79AFC25
:1054C000A06ADFF87C80854209D3606B0068A0B1D8
:1054D000606BC068C7687868854211D2A062206896
:1054E000C06A00EB800158F82100012800D901268C
:1054F000E0690028C9D00126C7E74FF0FF30EDE78B
:10550000381DFFF76AFDB86A18B107F11800FFF7F8
:1055100064FDF96A0120226988401043206101EB93
:10552000810108EB8100391DFFF79AFDF86A2168B7
:10553000C96A8842C9D30126C7E7000020000020BD
:10554000200400202DE9F0472C4D00242746286B2D
:1055500038B1FFF791FD286B401E2863286B40B1DE
:1055600046E0502080F31188BFF34F8FBFF36F8F59
:10557000FEE7A968224E0120D1B3A6F1B409804606
:105580003068E8B1F068C46804F11800FFF725FD41
:10559000201DFFF722FDE06A2A6908FA00F1114395
:1055A000296100EB800109EB8100211DFFF758FD07
:1055B000E06A2968C96A8842E2D3C5F81C80DFE73F
:1055C0000CB1FFF717FCAC6944B14646FFF754FF36
:1055D00000B1EE61641EF9D10020A861E86938B11C
:1055E0000849012738070860BFF34F8FBFF36F8F5B
:1055F000FFF762FD3846BDE8F0870000200000207C
:10560000D404002004ED00E081F00041704780F0F8
:105610000040704721F00041704720F00040704783
:1056200021F00042A2F16052B2F5801F01F0004368
:1056300028BFD2F17F6C0BD95FEA001C43EAC2029B
:1056400042EB507018BF704728BF20F00100704730
:10565000B2F5801FBCBF184670474FEA410C1CF5DD
:10566000001F02D2084600F09DBD70B500F00EFB91
:1056700000000089FFF7F6BF4FF00040A0F5800062
:105680007047000010B591EA030F48BF83F0004354
:1056900000F13084841A71EB030C05D2121943EB2C
:1056A0000C03001B61EB0C01DFF824E14FEA1154FD
:1056B000A4EB135C1EEA430F18BF9EEA445F73D04D
:1056C00023EA0E03DCF1200E21EA045143F4801397
:1056D00032D322FA0CFE10EB0E0023FA0CFE41EB43
:1056E0000E01CCF1200E03FA0EFE10EB0E0051F16C
:1056F0000001B1F5801FCCF1200E32D201EB045134
:1057000012FA0EF2BDE8104058BF7047401C38BF77
:105710005FEA420218BF7047002814BF20F0010062
:1057200041F100014FEA410313F5001F38BF7047F4
:10573000A1F1C04100F0F8BA012A43EB0302ACF139
:10574000200CDCF11F0E32BF4FF0000E23FA0CF3D9
:1057500010EB030041EB0451B4EB115FD0D0A1EB8F
:10576000045101F5801149085FEA300001EB045152
:105770000ED350F1000038BF12FA0EFE08D1BDE87A
:105780001040C9E7401C38BF5FEA4202CAD1C3E7F4
:10579000BDE810404FEA410313F5001F38BF7047C2
:1057A000A1F1C04100F0C0BA9EEA445F08D011EAFE
:1057B0005E0FBDE8104004BF01F0004100207047BB
:1057C000BDE8104070B500F061FA00BF64FBBE3E5A
:1057D0000000E0FF2DE9C04130B4DFF8A0C23CEA90
:1057E000111418BF3CEA131400F0EC8081EA0305A1
:1057F0001CEA111444EAD57418BF1CEA131500F012
:10580000C780A4EB05044FF0004545EAC12145EAF5
:10581000C32341EA505143EA525304F17F74994241
:1058200004F500344FEAC0204FEAC22208BF90427C
:1058300000F09C804FEA13650FF24016765D4FEA48
:10584000134506FB05F7C7F1807706FB07F74FEA1C
:10585000D737A7FB03687642C8F58038A7FB06CE8A
:1058600038BFA8F1010807FB08E64FF0000EA6FBC1
:10587000028CE6FB03CEDCF1000CCEF1004E38BF0B
:10588000AEF1010EA6FB0C584FF000074FF00005DB
:10589000E6FB0E87A1FB08C6A0FB07CE16EB0E06A3
:1058A00045F10005E1FB076515F1E04E7EBFA4F56B
:1058B00080345FEA46066D4116F1800745F1000528
:1058C0004FEA17274FEA066647EA0567A6F1DE4664
:1058D000B6F1805F4FEA15251FD9384624F0010C38
:1058E00005EBC471BCF1FE6F01EB0C1102D8F0BCEA
:1058F000BDE8008124425CBF01F5801E9EEAC47FA2
:1059000002D4F0BCBDE80081244238D4F0BCA1F13F
:10591000C041BDE8004100F007BA4FEAD22242EA96
:1059200043524FEAD323A7FB02864FEAD02040EA36
:10593000415007FB03661EEA0E0F4FEAD12105FB1B
:10594000026658BFA6EB0056B6EB00564FEA520E61
:105950004EEAC37E18EB0E0E56EB530EBDD518EB78
:1059600002085E417F1C55F10005B6E74FF4801533
:105970004FF000074FF000064FF00008ADE7F0BC15
:105980004FF0000001F1C04101F00041BDE800818D
:1059900011EA0C1F0CEA131500D00CE013EA0C1FDF
:1059A00000F025804FF00000F0BC81EA030101F017
:1059B0000041BDE80081F0BCBDE8004181EA03017F
:1059C00000F0B2B9F0BCBDE8004170B500F05EF97E
:1059D000097EFC3E00F007B881EA03014FF00000A9
:1059E00001F00041704781EA030100F09DB9F0BC6D
:1059F000BDE800414FF0000021497047FFFDFBF971
:105A0000F7F5F4F2F0EEEDEBE9E8E6E4E3E1E0DEF1
:105A1000DDDBDAD8D7D5D4D3D1D0CFCDCCCBCAC863
:105A2000C7C6C5C4C2C1C0BFBEBDBCBBBAB9B8B78A
:105A3000B6B5B4B3B2B1B0AFAEADACABAAA9A8A87D
:105A4000A7A6A5A4A3A3A2A1A09F9F9E9D9C9C9B4B
:105A50009A999998979796959594939392919190F6
:105A60008F8F8E8E8D8C8C8B8B8A89898888878787
:105A70008685858484838382828181800000FF07FC
:105A80000000F87F4FEA41034FEA5353A3F58063C8
:105A9000D3F11E03C8BFD3F1210C0CDD4FF000423F
:105AA00042EAC12242EA505232FA03FC8CEAE17C1B
:105AB000ACEBE1707047102BC4BF0020704703F5BA
:105AC000787CBCF1FF3F04D06FF0004282EA2100F5
:105AD000704770B500F0DAF84992248000207047D2
