:020000040800F2
:1000000070640020250300081B32000871260008D8
:10001000193200089B050008D939000800000000CB
:100020000000000000000000000000006502000861
:10003000BD06000800000000C1020008A13200084F
:100040003F0300083F0300083F0300083F03000888
:100050003F0300083F0300083F0300083F03000878
:100060003F0300083F0300083F0300083F03000868
:100070003F0300083F0300083F0300083F03000858
:100080003F0300083F0300083F030008A9050008DC
:100090009D0500083F0300083F0300083F030008D8
:1000A0003F0300083F0300083F0300083F03000828
:1000B0003F0300083F0300083F0300083F03000818
:1000C0003F0300083F0300083F0300083F03000808
:1000D0003F0300083F0300083F0300083F030008F8
:1000E0003F0300083F0300083F0300083F030008E8
:1000F0003F0300083F0300083F0300083F030008D8
:100100003F0300083F0300083F0300083F030008C7
:100110003F030008C53500083F0300083F030008FF
:100120003F0300080D0600083F0300083F030008D6
:100130003F0300080000000000000000C1050008A7
:10014000B50500083F0300083F0300083F0300080F
:100150003F0300083F0300083F030008CD390008B3
:100160003F0300083F0300083F0300083F03000867
:100170003F0300083F0300083F03000800000000A1
:10018000000000003F030008000000000000000025
:100190003F03000800000000000000003F030008CB
:1001A0000000000000000000000000003F03000805
:1001B0003F0300083F0300083F0300083F03000817
:1001C0003F03000800F002F800F03CF80AA090E8B5
:1001D000000C82448344AAF10107DA4501D100F002
:1001E00031F8AFF2090EBAE80F0013F0010F18BF93
:1001F000FB1A43F001031847886E0000A86E000048
:10020000103A24BF78C878C1FAD8520724BF30C842
:1002100030C144BF04680C60704700000023002414
:1002200000250026103A28BF78C1FBD8520728BF06
:1002300030C148BF0B6070471FB506F014FE1FBDEC
:1002400010B510BD00F074F91146FFF7F5FF04F08A
:10025000DBFD00F092F903B4FFF7F2FF03BC00F0FE
:1002600095F900002C4B19680868B0E8F04F80F34E
:100270000988BFF36F8F4FF0000080F3118870473B
:100280000000000008480068006880F308884FF00C
:10029000000080F3148862B661B6BFF34F8FBFF3DE
:1002A0006F8F00DF00BF00BF08ED00E0DFF80C003B
:1002B000016841F470010160704700BF88ED00E003
:1002C000EFF30980BFF36F8F134B1A681EF0100F06
:1002D00008BF20ED108A20E9F04F106009B44FF0FC
:1002E000500080F31188BFF34F8FBFF36F8F05F07D
:1002F00005FE4FF0000080F3118809BC19680868FA
:10030000B0E8F04F1EF0100F08BFB0EC108A80F379
:100310000988BFF36F8F704720000020EFF305803E
:10032000704700000948804709480047FEE7FEE79C
:10033000FEE7FEE7FEE7FEE7FEE7FEE7FEE7FEE795
:1003400004480549054A064B704700004D33000834
:10035000C5010008705E00207064002070600020FD
:100360007060002053EA020C00F069802DE9F04B28
:100370004FF00006002B1FBFB3FA83F503FA05F414
:1003800024FA05F65E4012BF1643B2FA82F502FA6D
:1003900005F4C5F120051EBF22FA05FC44EA0C0451
:1003A000203556EA044C4FEA144418BF641C4FF041
:1003B00000084FF00009904271EB030C39D300297B
:1003C00019BFB1FA81F701FA07F6B0FA80F700FA1F
:1003D00007F6C7F120071EBF20FA07FC46EA0C0605
:1003E0002037B6FBF4FCA7EB0507103F07F01F0B07
:1003F000CBF120060CFA0BFB2CFA06F644BFB346F1
:100400000026202FA4BF5E464FF0000B5BEA060CCF
:1004100008BF4FF0010B19EB0B09ABFB027C48EB5B
:100420000608C01B06FB02CC0BFB03CC71EB0C01D6
:10043000C1E70B46024641464846BDE8F08B13B57E
:100440004FF000004FF00001AFF30080BDE81C400A
:10045000704710B5203AC0F00B80B1E81850203A30
:10046000A0E81850B1E81850A0E81850BFF4F5AF54
:100470005FEA027C24BFB1E81850A0E8185044BFDE
:1004800018C918C0BDE810405FEA827C24BF51F84B
:10049000043B40F8043B08BF7047D20728BF31F83F
:1004A000023B48BF11F8012B28BF20F8023B48BF90
:1004B00000F8012B70474FF0000200B51346944638
:1004C0009646203922BFA0E80C50A0E80C50B1F1AC
:1004D0002001BFF4F7AF090728BFA0E80C5048BFC0
:1004E0000CC05DF804EB890028BF40F8042B08BF5E
:1004F000704748BF20F8022B11F0804F18BF00F85A
:10050000012B704770477047704710B500F008F82E
:10051000006810BD10B5044600F002F8046010BD7C
:10052000004870470C5E0020004870470C5E0020B9
:100530007546FFF7F9FFAE4605006946534620F0C1
:100540000700854618B020B5FFF7FAFEBDE8204049
:100550004FF000064FF000074FF000084FF0000B7F
:1005600021F00701AC46ACE8C009ACE8C009ACE832
:10057000C009ACE8C0098D46704710B50446AFF31A
:1005800000802046BDE81040FFF765BE01491820F5
:10059000ABBEFEE7260002007047FEE7014800F010
:1005A00002BA00006C030020014800F0FCB9000012
:1005B0006C030020014800F0F6B90000940300200D
:1005C000014800F0F0B900009403002070B50E4C13
:1005D00015460646216000216160A160C4E903134D
:1005E0000123214600F07FF860B102232A4621460C
:1005F000304600F078F828B104232A4621463046D8
:1006000000F071F8002070BDDC410020014800F0CE
:1006100005BE00008C04002001681823CAB2103AFD
:10062000B2FBF3F2054B6FF30901032A9B5CC36530
:1006300000D9091D8165084670470000D06E00088A
:1006400010B5014600208B698A6A4FF0C07453B11F
:10065000B3F5005F15D072B1012A0CD0022A0AD07E
:10066000032A09D104E01AB1012A06D0022A03D1D3
:10067000C96AC90100D5012010BDC96AA142FAD0DA
:1006800010BD002AF7D0012AF2D0022AF3D0032AA3
:10069000F3D010BD30B50468256825F480252560A9
:1006A000046863608368402B036803D09960006826
:1006B000C26030BD9A600068C16030BD704772B6DC
:1006C000FEE790F82020012A07D0022A05D0416ACF
:1006D00041F48021416201207047006842690A4369
:1006E000426100207047F0B590F820500468A4687B
:1006F000012D05D0022D03D0416A41F4802153E041
:1007000014F0406F01D1E5004BD5C4F30164022C15
:1007100003D9416A41F4000146E00125A5401D606E
:100720008D684FF4C0739DB1CE6835434E6845EA7D
:10073000C605066803EB0417F5514FF4C275076848
:1007400005EB04150E697E51097D012905D009E0EC
:100750000E88CD6845EA4655EBE701684E5946F4E8
:1007600080764E511179D2F805504FF4C67641EAA1
:100770000525016806EB04168D511178D2F8012089
:100780004FF4C47541EA0221026805EB041551518A
:10079000006803EB0411425842F00102425000206D
:1007A000F0BD416A41F4001141620120F0BD00003A
:1007B00010B590F82020012A07D0022A05D0416AFE
:1007C00041F480214162012010BD3B48D0F8002255
:1007D00042F00102C0F80022D0F8002222F47C523C
:1007E000C0F80022D0F800224B6A42EA0322C0F887
:1007F00000220A7D02F01F0301229A40D0F81C3229
:100800009343C0F81C32CB69B3B9D0F80C32934390
:10081000C0F80C328C894B6864F31F434C6900EBC1
:10082000C404C4F840320C890B6864F31F434C695C
:1008300000EBC404C4F84432CB69012B16D1D0F8C4
:100840000C321343C0F80C320C884B6864F31F431E
:100850004C6900EBC404C4F840320C89CB6864F3E3
:100860001F434C6900EBC404C4F844328B69002B6D
:10087000D0F804320ED01343C0F804320B69002BB9
:10088000D0F8143208D01343C0F81432096A012991
:1008900004D008E09343EFE79343F5E7D0F81C1248
:1008A0001143C0F81C12D0F8001221F00101C0F869
:1008B0000012002010BD000000640040704730B5F9
:1008C00090F82040012C05D0022C03D0416A41F45D
:1008D00080215DE00468002955D02469A40754D024
:1008E0004FF4D874056804EB01142D5915F0040574
:1008F000956005682D594ED0ED08556005682C5956
:1009000004F00204D4604FF4DA74056804EB0114B7
:100910002D5905F00F05156105682D59C5F30725FB
:10092000956105682C59240C54614FF4DC720468FD
:1009300002EB0112A4581C700468A458240A5C70CD
:100940000468A458240C9C700468A258120EDA7033
:100950004FF4DE72046802EB0112A4581C710468A3
:10096000A458240A5C710468A458240C9C7104687F
:10097000A258120EDA71006881B1016941F02001BC
:100980000161002030BDE468A8E7416A41F400112C
:100990004162012030BD6D0D1560AFE7C16841F0C7
:1009A0002001C160EDE72DE9F05F054600680024F5
:1009B0004669D0F804908768D0F80CB0D0F810A041
:1009C000D0F81880F10748D0F90714D001218160D0
:1009D000B80703D5284600F0C0FB0CE0780702D525
:1009E0004FF4006407E0380702D54FF4805402E06A
:1009F000284600F0B1FBF80516D529684FF4807041
:100A00008860B80503D5284600F0A9FB0CE07805FE
:100A100002D544F4005407E0380502D544F480447C
:100A200002E0284600F09AFBF80316D529684FF437
:100A300080308860B80303D5284600F092FB0CE0B4
:100A4000780302D544F4004407E0380302D544F4A7
:100A5000803402E0284600F083FB300707D55FEAC8
:100A6000CB6004D52968102044F40074C860700776
:100A70004FF0080707D55FEA0B7004D52868C760F8
:100A8000284600F0ADF9B00706D52868C068800791
:100A900002D0284600F0A6F9700607D55FEACA60C2
:100AA00004D52968102044F480640861B00607D595
:100AB0005FEA0A7004D528680761284600F01CFB2D
:100AC000F00606D528680069800702D0284600F0A5
:100AD00014FBB00308D55FEAC96005D5296810206A
:100AE0004860284600F00AFBF00307D55FEA09706A
:100AF00004D528684760284600F034FB300446D50A
:100B00005FEA497040D5F00504D55FEAC87001D0AE
:100B100044F00104B00504D55FEA887001D544F0C3
:100B20000204700504D55FEA487001D544F004045E
:100B3000300529D518F0700F26D008F07000402835
:100B400015D006DC102809D020280AD0302816D16C
:100B50000AE050280ED0602811D10EE044F00804BD
:100B60000DE044F010040AE044F0200407E044F0F3
:100B7000400404E044F0800401E044F480742868F8
:100B8000816921F070018161296804204860002C8E
:100B900005D0686A204368622846FFF78FFEBDE8EB
:100BA000F09F70B5040003D094F8200010B104E069
:100BB000012070BD204600F081F82068016841F0F6
:100BC0000101016000F0A2FD0546052604E000F0E9
:100BD0009DFD401B0A2811D820684068C007F6D048
:100BE0002068016821F00201016000F08FFD0546D8
:100BF0000BE000F08BFD401B0A2806D9606A40F428
:100C00000030606284F82060D2E720684068800786
:100C1000EFD4207E0128206801683DD021F08001BA
:100C20000160607E01282068016838D021F0400111
:100C30000160A07E01282068016833D021F02001E6
:100C40000160E07E0128206801682ED041F010018B
:100C50000160207F01282068016829D021F0080167
:100C60000160607F01282068016824D021F0040120
:100C70000160D4E902010843D4E904121143084396
:100C80006168491E08432168C86100206062012034
:100C900084F82000002070BD41F08001C0E741F0E1
:100CA0004001C5E741F02001CAE721F01001CFE77C
:100CB00041F00801D4E741F00401D9E72DE9F04300
:100CC00087B0044614216846FFF7F5FB404B4148C6
:100CD000DFF8F8801968D4F800C03E4A02250326E0
:100CE0000927DFF8F49010300024491CC4452CD1AA
:100CF0001960012907D1016841F0007101600068A5
:100D000000F000700590106840F00200106010685C
:100D100002AB00F0020005904FF44070CDE90005F1
:100D200083E8D0006946484600F0FCFB002205211C
:100D3000132000F05DFD132000F04CFD0022052182
:100D4000142000F055FD14203BE0DFF89080C445EE
:100D500039D1D0F800C04CF0806CC0F800C0D0F899
:100D600000C001290CF0806CCDF814C0196007D1C7
:100D7000016841F000710160006800F000700590AA
:100D8000106840F002001060106802AB00F0020032
:100D900005904FF44050CDE9000583E8D000694646
:100DA000484600F0BFFB002205213F2000F020FD57
:100DB0003F2000F00FFD00220521402000F018FD2B
:100DC000402000F007FD07B0BDE8F083006400405C
:100DD0000C0000203038024000040240006800404F
:100DE000704700002DE9F04107462DED048B0068A7
:100DF000B949DFEDBA8A9FEDBA9ABA4DBA4EB7EE4D
:100E0000008A88427DD106F15804B84994F86800F8
:100E100004F1680300F00300487003F108020021A8
:100E20003846FFF74CFD0028ECD194F86800022802
:100E300048D1B4F86900F2EE090A40BA606094F84B
:100E40006B10BAEE090A0A0194F86C1042EA11120A
:100E5000626194F86D2001F00F0142EA01216162A4
:100E6000102104F00BFF84ED0D0A0C21F0EE680A4E
:100E7000B0EE490A606904F001FF84ED110A0C210B
:100E8000F3EE020ABBEE020A606A04F0F7FE84ED9C
:100E9000150A94F86800A5F8780094ED0D1A85ED10
:100EA0001F1AD4ED110AC5ED210A85ED200A96ED31
:100EB000010AB5EEC00AF1EE10FA03D185ED231A4E
:100EC00086ED018A94F8680013284BD1B4F86900C4
:100ED000F2EE090A40BAA06094F86B10BAEE090A63
:100EE0000A0194F86C1042EA1112A26194F86D2084
:100EF00001F00F0142EA0121A162102104F0BEFEBF
:100F000000E081E084ED0E0A0C21F0EE680AB0EEFC
:100F1000490AA06904F0B2FE84ED120A0C21F3EE36
:100F2000020ABBEE020AA06A04F0A8FE84ED160ACB
:100F300094F868001038A5F8C80094ED0E1A85EDF5
:100F4000331AD4ED120AC5ED350A85ED340A96ED53
:100F5000020AB5EEC00AF1EE10FA03D185ED371A98
:100F600086ED028A94F86800142849D1B4F8690023
:100F7000F2EE090A40BAE06094F86B10BAEE090A82
:100F80000A0194F86C1042EA1112E26194F86D20A3
:100F900001F00F0142EA0121E162102104F06EFE2E
:100FA00084ED0F0A0C21F0EE680AB0EE490AE06900
:100FB00004F064FE84ED130A0C21F3EE020ABBEE8A
:100FC000020AE06A04F05AFE84ED170A94F86800F9
:100FD0001038A5F8180194ED0F1A85ED471AD4EDD5
:100FE000130AC5ED490A85ED480A96ED030AB5EEE8
:100FF000C00AF1EE10FA03D185ED4B1A86ED038A93
:1010000002213846FFF75DFB3949386888425ED1D6
:10101000384B002103F108023846FFF750FC002846
:1010200055D1344A683A92F86800012847D1B2F89D
:101030006900F2EE090A40BA106092F86B10BAEE3D
:10104000090A0B0192F86C1043EA1113136192F82C
:101050006D3001F00F0143EA01211162102104F00B
:101060000DFE82ED0C0A0C21F0EE680AB0EE490A82
:10107000106904F003FE82ED100A0C21F3EE020A5F
:10108000BBEE020A106A04F0F9FD82ED140A92F830
:1010900068002885D2ED0C0AC5ED0B0A92ED101AF6
:1010A00085ED0D1A85ED0C0A96ED000AB5EEC00A25
:1010B000F1EE10FA03D1C5ED0F0A86ED008A38462D
:1010C000BDEC048B0221BDE8F041FFF7FABABDEC9C
:1010D000048BBDE8F0810000006400400000344251
:1010E000000034C2F4410020784300209400002026
:1010F00000680040C44400207047704770470000FB
:1011000070B5044690F82000012804D0606A40F4CD
:101110000020606218E0022084F820002068016846
:1011200021F00101016000F0F1FA05460EE000BF78
:1011300000F0ECFA401B0A2808D9606A40F400303D
:101140006062052084F82000012070BD206840689E
:10115000C007EDD1606270BD70477047704770473F
:101160007047704770472DE9F0410446876D00F0E5
:10117000CDFA064694F835000025022806D08020D6
:10118000606584F834500120BDE8F0812068016872
:1011900021F0160101602068416921F08001416160
:1011A000206C08B9A06C20B12068016821F008010A
:1011B00001602068016821F0010101600CE000F08D
:1011C000A5FA801B052807D920206065032084F834
:1011D000350084F83450D7E720680068C007EED1A6
:1011E00094F85C103F208840B860012084F83500F6
:1011F00084F834500020C7E790F83510022903D056
:101200008021416501207047052180F83510006874
:10121000016821F001010160002070472DE9F843C9
:1012200004464FF00009CDF8009063484FF4165182
:10123000A56D0068B0FBF1F72E6894F85C100820EB
:1012400000FA01F131420FD021680A6852070BD52C
:101250000A6822F004020A6094F85C108840A860D2
:10126000606D40F00100606594F85C104FF001087B
:1012700008FA01F0304208D021684969090604D50E
:10128000A860606D40F00200606594F85C10042076
:101290008840304208D021680968890704D5A860D1
:1012A000606D40F00400606594F85C101020884088
:1012B000304218D021680968090714D5A860206851
:1012C0000168490304D50068000308D5A16C07E054
:1012D0000168C90503D4016821F008010160216C8F
:1012E00009B12046884794F85C102020884030429D
:1012F00031D021680968C9062DD5A86094F8350059
:1013000005282068016806D0490347D50068000316
:101310001DD4616C1CE021F0160101602068416958
:1013200021F080014161206C08B9A06C20B12068D7
:10133000016821F00801016094F85C103F208840AA
:10134000A86084F8358084F83490216D1FE0E16B4B
:1013500009B120468847606D00282BD0606DC0071A
:1013600014D0052084F835002068016821F00101BF
:1013700001600098401C0090B84203D820680068C3
:10138000C007F6D184F8358084F83490E16C0029E8
:1013900010D001B02046BDE8F04308470168C905F8
:1013A000D5D4016821F01001016084F8358084F8FB
:1013B0003490CCE7BDE8F8831C0000202DE9F04113
:1013C000044600F0A3F906465CB1022084F835001B
:1013D000002584F834502068016821F00101016083
:1013E0000DE00120BDE8F08100F090F9801B052898
:1013F00005D920206065032084F83500F2E72068D5
:101400000068C007F0D12268116820480140D4E983
:1014100001031843D4E9033633431843636918437F
:10142000A3691843E3691843236A18430843616AB0
:10143000042903D1D4E90B13194308431060206831
:101440004069666A20F0070130460E4301270428F0
:101450000CD1A06A0643E06A40B12046FFF7F0F8DD
:1014600020B14020606584F83570BAE72068466195
:101470002046FFF7D1F894F85C203F21914081602D
:10148000656584F835700020ACE700003F8010F0FF
:101490002DE9F0410446866D90F8340000250128BE
:1014A0000DD0012084F8340094F835700020012F0D
:1014B00007D084F8340002252846BDE8F0810220D8
:1014C000FBE7022784F8357060652046FFF7E2F8F5
:1014D00094F85C103F208840B0602068016841F0BB
:1014E00016010160206C20B12068016841F00801FC
:1014F00001602068016841F001010160DCE7000043
:1015000070B5044600F002F90546601C02D004489C
:101510000078044400F0FAF8401BA042FAD370BDF2
:10152000100000202DE9F84FDFF8ACA100220124C3
:1015300003254FF00F090AF1040BAAF1040E00BFB6
:101540000B6804FA02F63340B3426ED10F7907F00C
:101550000307012F01D0022F16D187684FEA4208F6
:1015600005FA08FC27EA0C07D1F80CC00CFA08FCB5
:101570004CEA070CC0F808C04768B7430E79C6F3B9
:10158000001696403E4346600E79F643B6070AD0F1
:10159000C6684FEA420C05FA0CF7BE438F6807FA9B
:1015A0000CF73743C7600E7906F00306022E10D100
:1015B000D60800EB8608D8F8206057074FEAD76CAA
:1015C00009FA0CF7BE430F6907FA0CF73743C8F85E
:1015D000207006684FEA420C05FA0CF7BE430F79FB
:1015E00007F0030707FA0CF7374307604E6816F455
:1015F000403F6BD0394E376847F4804737603668D4
:1016000022F0030706F480460096354E07EB060CE1
:10161000DCF8086897074FEA177809FA08F7BE431D
:10162000304FB84202D100271FE04FE02E4FB842A2
:1016300001D1012719E02D4FB84201D1022714E052
:101640002B4FB84201D103270FE02A4FB84201D1F6
:1016500004270AE0284FB84201D1052705E0274FAB
:10166000B84201D1062700E0072707FA08F73743F9
:10167000CCF80878DAF800605746D1F804C09E43E9
:101680005FEACC2C00D51E433E60DBF800605F466D
:10169000D1F804C09E435FEA8C2C00D51E433E6007
:1016A000DEF800607746D1F804C09E435FEA8C3CC8
:1016B00000D51E433E60084F083F3E68D1F804C085
:1016C0009E435FEACC3C00D51E433E60521C102A6C
:1016D000FFF436AFBDE8F88F083C014044380240C3
:1016E00000300140000002400004024000080240B7
:1016F000000C02400010024000140240001802409A
:101700000AB1816170470904FBE700000148806865
:1017100070470000100000200248816802781144E0
:1017200081607047100000200B4810B5016841F43B
:1017300000710160016841F480610160016841F459
:1017400080710160032000F073F80F2000F006F8AC
:1017500000F024F8002010BD003C024070B50D4D93
:1017600004464FF47A712878B1FBF0F00A49096811
:10177000B1FBF0F000F040FB48B9102C07D200227A
:101780002146501E00F034F800206C6070BD01202E
:1017900070BD0000100000201C0000200C4882B02A
:1017A000016841F480410160006800F480400090CD
:1017B0000748001F016841F0805101600068002265
:1017C00000F0805000900F21901E02B000F010B881
:1017D00044380240002809DB00F01F02012191403B
:1017E0004009800000F1E020C0F8001170470000BF
:1017F000F0B40E4B1B680C46C3F30223C3F107057C
:10180000042D00D90425191D072901D2002300E069
:10181000DB1E012606FA05F1491E214099409E4033
:10182000761E16403143F0BC02F002B90CED00E028
:10183000064900F0070208684FF6FF03184040EA27
:101840000220034A10430860704700000CED00E0DE
:101850000000FA052DE9F0470E46050065D0DFF8D7
:101860001481D8F80000F7B200F00F00B04207D2A0
:1018700088F80070D8F8000000F00F00B04254D192
:1018800028683D4C810712D5400703D5206840F4F5
:10189000E05020602878000703D5206840F46040BD
:1018A00020602068A96820F0F000084320602878B4
:1018B000C0072DD0304968680839012812D00228A5
:1018C00013D0032811D00968890700292DDA21686F
:1018D00021F0030101432160FFF718FF814641F227
:1018E000883A0EE009688903EFE709688901ECE7A7
:1018F000FFF70CFFA0EB0901514502D90320BDE819
:10190000F0872068696800F00C00B0EB810FEFD120
:10191000D8F80010404601F00F01B14207D9077016
:10192000006800F00F00B04201D00120E7E72878FE
:10193000400705D52068E96820F4E050084320609E
:101940002878000706D52068296920F4604040EA1D
:10195000C100206000F038F82168084AC1F3031183
:10196000515CC8400649086006480068FFF7F6FE6B
:101970000020C4E7003C024008380240D86E00084E
:101980001C00002014000020044805490068096874
:10199000044AC1F38221515CC84070471C000020FA
:1019A00008380240E86E00080448054900680968E4
:1019B000044AC1F34231515CC84070471C0000200A
:1019C00008380240E86E0008224810B5006810F0A0
:1019D0000C02214815D02149042A11D01D4C241F86
:1019E000082A0FD00C2A0CD12268236802F03F028B
:1019F0005B0221D52068C0F38810A0FB010120E024
:101A0000084610BD2268236802F03F025B0205D53C
:101A10002068C0F38810A0FB010104E02168C1F335
:101A20008811A1FB00010023FEF79CFC2168C1F393
:101A30000141491C49000AE02168C1F38811A1FB5A
:101A400000010023FEF78EFC2168C1F30271B0FB98
:101A5000F1F010BD083802400024F400001BB7006C
:101A60002DE9F84F04007DD0DFF878B32078ABF192
:101A70000407C007A7F1040550D0DBF80010584652
:101A8000C1F3810101290FD00168C1F3810102294D
:101A900002D13968490207D40068C0F381000328E5
:101AA00009D13868400206D52868800336D56068B9
:101AB0000028D8D032E06068B0F5803F10D0B0F593
:101AC000A02F286810D020F480302860286820F4E7
:101AD000802028606068A0B1FFF718FE06460CE081
:101AE000286840F48030F4E740F480202860F7E76D
:101AF000FFF70CFE801B642876D828688003F7D592
:101B00000CE0FFF703FE064605E000BFFFF7FEFD11
:101B1000801B6428F0D828688003F7D42078DFF889
:101B2000C89280074FF0000A44D5DBF800105846F1
:101B300011F00C0F0FD00168C1F38101022902D10D
:101B40003968490207D50068C0F3810003280AD12B
:101B50003868400207D42868800715D5E068012856
:101B600000D111E03AE1E068B0B10120C9F800000D
:101B7000FFF7CCFD064604E0FFF7C8FD801B0228F6
:101B8000BAD828688007F7D52868216920F0F800BE
:101B900040EAC10028600DE0C9F800A0FFF7B6FDDB
:101BA000064604E0FFF7B2FD801B02281CD8286817
:101BB0008007F7D42078000727D5DFF828828B48E4
:101BC000616908F16C0881B101210160FFF79EFD98
:101BD000064604E0FFF79AFD801B022804D8D8F8D7
:101BE00000008007F6D510E089E0C0F800A0FFF7FC
:101BF0008DFD064605E000BFFFF788FD801B02282B
:101C00007DD8D8F800008007F6D42078400769D541
:101C100074484FF0000838300068C0000BD4714899
:101C20003830016841F08051016000684FF00108D0
:101C300000F0805000906E4E3068C00511D43068BE
:101C400040F480703060FFF761FD009006E000BF57
:101C5000FFF75CFD0099401A022850D83068C00593
:101C6000F6D5604EA068683601280FD00528306888
:101C700010D020F001003060306820F004003060A7
:101C8000A068B8B1FFF742FD00900FE0306840F067
:101C90000100F4E740F004003060F7E7FFF736FD9D
:101CA0000099411A41F28830814264D83068800737
:101CB000F4D50EE0FFF72AFD009007E0FFF726FDC0
:101CC0000099411A41F28830814254D83068800727
:101CD000F4D4B8F1000F05D042483830016821F043
:101CE00080510160A069A8B3DBF80010C1F3810145
:101CF000022947D00228C9F860A005D000E03AE0E8
:101D0000FFF704FD044639E0FFF700FD064604E056
:101D1000FFF7FCFC801B02282DD828688001F7D42F
:101D2000F4E907010843E168324A490802EB01413E
:101D3000A26841EA82110843217C40EA0160217DCA
:101D400040EA017038600120C9F86000FFF7DEFC4E
:101D5000044606E044E000BFFFF7D8FC001B022861
:101D600009D828688001F7D53AE000BFFFF7CEFC1C
:101D7000001B022802D90320BDE8F88F28688001E3
:101D8000F4D42DE00128F7D03868E26900F480012E
:101D9000914223D1226A00F03F0191421ED147F6C1
:101DA000C071626A0140B1EB821F17D1A26A4FF085
:101DB000FF3300F4403103EB5202B1EB024F0DD17F
:101DC00094F82C2000F07061B1EB026F06D194F80A
:101DD000301000F0E040B0EB017F01D00120CBE7F4
:101DE0000020C9E70838024000004742800E474201
:101DF000007000400000FFFF10B5401EB0F1807F72
:101E000001D3012010BD4FF0E02460610F21601765
:101E100001F00EFE0020A06107202061002010BD0F
:101E200070B590F83C20012A32D0012480F83C4063
:101E3000022280F83D2003685A689D6822F07006EF
:101E40000A6832435A60134B02689A4214D0B2F1C6
:101E5000804F11D0104B9A420ED0104B9A420BD0AB
:101E60000F4B9A4208D00F4B9A4205D00E4B9A4224
:101E700002D00E4B9A4204D1496825F080031943E1
:101E8000916080F83D40002180F83C10084670BD0C
:101E9000022070BD00000140000400400008004026
:101EA000000C0040000401400040014000180040C8
:101EB00010B586B0044614216846FEF7FCFA0E49B8
:101EC0002068884215D10D480021026842F00402C2
:101ED0000260006800F0040005904FF4407000902C
:101EE0000220CDE90101CDE9031069460448FFF75E
:101EF00019FB06B010BD000000040040303802405D
:101F00000008024070B5044690F83C0000260D46DB
:101F100001280FD0012084F83C006AB1042A1DD0AA
:101F2000082A2FD00C2A3FD00126002084F83C003C
:101F3000304670BD022070BD206801F081FA206833
:101F4000816941F0080181612068816921F0040103
:101F50008161206881692A69114311E0206801F0DC
:101F60009FFA2068816941F400618161206881697C
:101F700021F480618161206881692A6941EA022136
:101F80008161D2E7206801F0C1FA2068C16941F09F
:101F90000801C1612068C16921F00401C1612068A4
:101FA000C1692A69114311E0206801F0E3FA206851
:101FB000C16941F40061C1612068C16921F4806197
:101FC000C1612068C1692A6941EA0221C161ACE7A7
:101FD00010B5040003D094F83D0010B107E00120D3
:101FE00010BD002084F83C00204600F01FF80220BD
:101FF00084F83D00211D206801F0B0F9012084F82B
:10200000460084F83E0084F83F0084F8400084F8DD
:10201000410084F8420084F8430084F8440084F8C6
:10202000450084F83D00002010BD000008B50068A0
:102030000649884208D10648016841F00201016062
:10204000006800F00200009008BD0000000400409D
:102050004038024010B50446022249B104290ED08E
:10206000082913D094F84100012816D0012010BD92
:1020700094F83E000128F9D184F83E200FE094F84E
:102080003F000128F2D184F83F2008E094F8400096
:102090000128EBD184F8402001E084F8412001229E
:1020A000206801F0BFF916492068164A884201D01D
:1020B000904203D1436C43F4004343642068884258
:1020C00013D0B0F1804F10D00F4988420DD00F4986
:1020D00088420AD00E49884207D0904205D00D4967
:1020E000884202D00C49884204D1816801F007017E
:1020F000062903D0016841F001010160002010BDF4
:1021000000000140000401400004004000080040BD
:10211000000C00400040014000180040704770472C
:10212000F8B5016804460868CA684B6910F00F0FDB
:102130004FF0000559D003F0010602F490773743C1
:1021400065D0C10705D0D10503D5216C41F001014F
:102150002164410705D5D90703D0216C41F0020164
:102160002164810705D5D90703D0216C41F0040112
:102170002164010707D502F02001314303D0216C0F
:1021800041F008012164216C00293AD0800604D571
:10219000900602D5204601F0CBFA20684069216CF8
:1021A000C0F38010090700D460B3204601F08BFA19
:1021B00020684069400621D52068143050E8001F8F
:1021C00021F0400140E80012002AF5D1A06BA8B12F
:1021D0006C490165A06BFFF70FF8002811D0A06BC8
:1021E000016D01B0BDE8F040084783060FD59306A6
:1021F0000DD52046BDE8F84001F09ABA2046FFF719
:102200008EFFF8BD2046FFF78AFF2564F8BD266BD8
:102210002023012E79D1C60677D5D60675D5086854
:10222000486800904869400640D5A16B086840683E
:102230000004000CEAD0A28D8242E7D9E085C8698B
:10224000B0F5807F2DD020680C3050E8001F21F4BD
:10225000807140E80012002AF5D12068143050E85F
:10226000001F21F0010140E80012002AF5D120688A
:10227000143050E8001F21F0400140E80012002A0D
:10228000F5D184F83E30256320680C3050E8001FFB
:1022900021F0100140E80012002AF5D1A06BFEF7F2
:1022A00062FFA08DE18D401A81B229E0A08DE18D01
:1022B000401A81B2E08D0028A8D00029A6D020685D
:1022C0000C3050E8002F22F4907240E80026002ED7
:1022D000F5D12068143050E8002F22F0010240E8C8
:1022E0000026002EF5D184F83E30256320680C309E
:1022F00050E8002F22F0100240E80023002BF5D117
:102300002046FFF70BFFF8BDFFE705062BD51506A6
:1023100029D594F83D002128F5D1A068B0F5805F5B
:1023200001D12069B0B1206A411C21622168007886
:102330004860E08C401E0004000CE084E3D120687B
:10234000C16821F08001C1602068C16841F040018E
:10235000C160D8E7206A0088C0F308004860206A9E
:10236000801C2062E5E74006CDD55006CBD5CA6873
:10237000204622F04002CA6084F83D3000F077F930
:10238000C1E70000D135000870B5040004D094F80E
:102390003D00002510B106E0012070BD84F83C50DE
:1023A000204600F023F8242084F83D002068C1680E
:1023B00021F40051C160204601F01AFA2068016939
:1023C00021F4904101612068416921F02A014161B5
:1023D0002068C16841F40051C1602564202084F860
:1023E0003D0084F83E00002070BD0000F0B587B0CD
:1023F000054614216846FEF75EF8DFF80CC129682F
:1024000000244248022603270823414A614536D169
:102410003E49254610310C6844F480140C6009686C
:1024200001F480110591016841F004010160016827
:1024300001F004010591016841F0080101600068A4
:10244000029500F0080005909014CDE90006CDE952
:1024500003731C4669461046FFF764F80420CDE973
:1024600000060295CDE9037469462A48FFF75AF839
:10247000002205213520FFF7BBF935203FE0DFF8CA
:1024800098C061453DD121491431D1F800C04CF0CC
:10249000200CC1F800C0096801F020010591016815
:1024A00041F0040101600068029400F0040005900E
:1024B000C020CDE90006CDE9037369461046FFF759
:1024C00031F8174E154830608005C6E901044FF415
:1024D0008060C6E9034074618001B461C6E90740C9
:1024E00030467462FEF76AFF08B1FEF7E8F8AE63A3
:1024F000002205214720B563FFF77AF94720FFF74F
:1025000069F907B0F0BD00000050004030380240CB
:1025100000080240000C0240001401402864024000
:102520008C04002090F83E30202B0ED159B152B1CE
:1025300090F83C30012B08D0012380F83C30002378
:10254000036301F0DBB9012070470220704790F867
:102550003E30202B0ED159B152B190F83C30012BB6
:1025600008D0012380F83C300023036301F010BA47
:1025700001207047022070472DE9F041354E026876
:102580000123354902250027344CB2422FD1A678C9
:10259000A1F1230226B1012E06D0022E20D026E082
:1025A0001678A52E23D1A370B2F807600E81B2F879
:1025B00009604E81B2F80B608E81B2F80D60CE8159
:1025C000B2F80F600E82B2F811608E82B2F813601A
:1025D000CE82B2F815604E82B2F817600E83A570F5
:1025E0002678324412F8012C5A2A00D1A7701B4ACF
:1025F00000681B4E5278B0421FD11748E6780A385F
:1026000026B1012E06D0022E11D016E00678FE2E3D
:1026100013D1E370B0F80130CB80B0F803304B80B9
:10262000B0F805300B80B0F807308B80E5701044AF
:1026300010F8010CEF2800D1E770074909480A3962
:10264000FFF785FF2278BDE8F041034906482339AA
:10265000FFF768BF0014014057430020900000209E
:1026600000500040040400204804002070477047D8
:10267000FEE700002DE9F34FFE492DED108BB5B0BC
:102680000A891FFA82FB8A891FFA82F88A8A92B223
:102690002292898CD0ED038A90ED080AD0ED00EAF1
:1026A00090ED01EAD0ED02FAD0ED04AA90ED05AA72
:1026B00090ED06FA90ED078A8DED1E0A90ED090A5D
:1026C0001FFA81F98DED280AD0ED0A9A90ED0B9A48
:1026D00000200290039001901190129004901090AD
:1026E00005900790089013900690149016901790FC
:1026F00015900C900D900E90F0EE680AB0EE480A1E
:102700000F9002F065F98DED010AB0EE40BAF1EEDE
:10271000680AB1EE480A02F05BF98DED020A8DED10
:1027200003BA8DED040A00240DF1040505EB8406BF
:10273000306804F027FB41EC100B01F0C5FCB0EE53
:1027400040BAF0EE60BA1EEE100A04F01BFB53EC28
:102750001B2B04F057F841EC1C0B306804F012FB03
:1027600041EC100B01F04CFCB0EE40BAF0EE60BA58
:102770001AEE100A04F006FB53EC1B2B04F042F88F
:1027800053EC1C2B04F014FA03F0B0FD0DEE100A0C
:10279000306804F0F7FA41EC100B01F095FCB0EE54
:1027A00040BAF0EE60BA1EEE900A04F0EBFA53EC79
:1027B0001B2B04F027F841EC1C0B306804F0E2FA04
:1027C00041EC100B01F01CFCB0EE40BAF0EE60BA28
:1027D0001AEE900A04F0D6FA53EC1B2B04F012F810
:1027E00053EC1C2B04F0E4F903F080FD00EE100A1A
:1027F000F0EE4D0A02F0ECF80CA800EB8400641C2B
:10280000A4B280ED000A022C90D39DED0C0A0027A3
:102810008DED0E0A9DED0D0A48468DED0F0A03F071
:10282000DDFF4FEA4B060A9106FB08F60BFB0BF5A2
:1028300008FB08F4009001A800EB870ADAF8000012
:1028400004F0A0FA41EC100B01F03EFCB0EE40BAEF
:10285000F0EE60BA18EE100A04F094FA53EC1B2B59
:1028600003F0D0FF41EC1D0BDAF8000004F08AFA07
:1028700041EC100B01F028FCB0EE40BAF0EE60BA6B
:102880001FEE100A04F07EFA53EC1B2B03F0BAFF84
:1028900041EC1C0BDAF8000004F074FA41EC100B68
:1028A00001F0AEFBB0EE40BAF0EE60BA1FEE900A57
:1028B00004F068FA53EC1B2B03F0A4FF53EC1C2B21
:1028C00003F046FD41EC110B0A9953EC112B0098D3
:1028D00003F098FF41EC1C0BDAF8000004F052FA08
:1028E00041EC100B01F08CFBB0EE40BAF0EE60BA98
:1028F00018EE900A04F046FA53EC1B2B03F082FF0B
:1029000053EC1C2B04F054F953EC1D2B03F020FD69
:1029100003F0ECFC00EE900A229801EE109A00EE13
:10292000100A20EEA0BAB8EE411AB8EE400A39EE0D
:10293000400A01EE690A00EE00BA00EE104AB8EE55
:10294000C00A7BEE400A00EE105AB8EEC00A70EEE4
:10295000C00A00EE106AB8EEC01A80EE810A10EECE
:10296000100AB0F17E5F16DC00EE104AB8EEC00A25
:102970007BEE400A00EE105AB8EEC00A70EEC00AB4
:1029800000EE106AB8EEC00A80EE801A11EE100A4E
:1029900010F1814F09D905A89FED370A00EB870098
:1029A00080ED000A80ED020A4CE000EE104AB8EE1D
:1029B000C00A7BEE400A00EE105AB8EEC00A70EE74
:1029C000600A00EE106AB8EEC01A80EE810A10EEBE
:1029D000100A04F0D7F941EC100B01F039F851EC72
:1029E000100B03F083FC00EE104A05A901EB870AE7
:1029F000B8EEC00ACAF800007BEE400A00EE105A9A
:102A0000B8EEC00A70EE600A00EE106AB8EEC01AA6
:102A100080EE810A10EE100A04F0B4F941EC100BBC
:102A200001F016F81548B0EE40BAF0EE60BA006852
:102A300004F0A8F953EC1B2B04F0BAF803F056FC91
:102A4000CAF808007F1CBFB2022FFFF4F4AE0B4996
:102A50000020B0EE00CAD1ED000A05A901EB800309
:102A6000074F93ED000A10EE102ABA420ADB00EE7F
:102A7000CC0A0FE0E844002000007F43D80000208B
:102A8000C3F5484010EE102ADFF818C4624503D998
:102A900000EE8C0A83ED000A401C80B20428DDD3CE
:102AA00000278A460AEB87000A900068FE498842A0
:102AB0007EDA04F067F941EC100B01F005FB51ECF4
:102AC000100B03F013FC0BEE100A0A98006804F0D8
:102AD00059F941EC100B01F093FA51EC100B03F093
:102AE00005FC0BEE900A01A800EB87001890006827
:102AF00004F048F941EC100B01F0E6FA51EC100B30
:102B000003F0F4FB0CEE900A1898006804F03AF910
:102B100041EC100B01F074FA51EC100B03F0E6FBE2
:102B200000EE100A229801EE908A00EE900AF8EE6C
:102B3000611AF8EE600A30EEC91A00EE909AF8EECB
:102B4000600A00EEA91A00EE90BAF8EE600A51EEA3
:102B50008B0A61EE201A00EE904AF8EEE00A60EE71
:102B6000AB0A20EEAB1A00EE904AF8EEE00A60EEF7
:102B70008B0A00EE8B1A00EE905AF8EEE00A31EE66
:102B8000201A00EE906AF8EEE00A00EECB1A00EE92
:102B9000909A81EE812A2FEE801A28EE800AF8EEB4
:102BA000601A0FEE2C1AF0EE400A41EEC10A00E066
:102BB000C4E001EE908A48EE2C0A2298F8EE611AE1
:102BC0004FF07E5161EEAB1A60EEA12A00EE904A02
:102BD000F8EEE00A60EEAB0A60EEAB1A00EE904A47
:102BE000F8EEE00A60EE8B0A40EE8B1A00EE905A87
:102BF000F8EEE00A71EEA01A00EE906AF8EEE00A34
:102C000040EECB1AC2EEA10A01EE900AF8EE611A6C
:102C100072EE600A31EEC92A01EE909AF8EE611A5E
:102C200001EEA92A01EE908AF8EE611A61EEAB1A64
:102C300022EE213A01EE904AF8EEE11A61EEAB1A6B
:102C400021EEAB2A01EE904AF8EEE11A61EE8B1A02
:102C500001EE8B2A01EE905AF8EEE11A72EE212A6B
:102C600001EE906AF8EEE11A41EECB2A01EE909A5D
:102C7000F8EE611A83EE222A01EEC10A01EE10BAC3
:102C8000F8EE411A01EE108A08EE2C0AB8EE411A4D
:102C900041EE4B1A60EE211A00EE104AB8EEC00A5F
:102CA00020EE2B0A20EE2B1A00EE104AB8EEC00AD6
:102CB00020EE0B0A00EE0B1A00EE105AB8EEC00A16
:102CC00031EE001A00EE106AB8EEC00A00EE4B1AA0
:102CD00081EE810A32EE400A10EE100A88422DDCA5
:102CE00010EE100A714A904228D810EE900A8842DD
:102CF00024DC10EE900A904220D801F069FE10A862
:102D000000EB87007F1CBFB280ED000A042FFFF4A8
:102D1000C9AE6749674BDFF88CB1D1ED000A0020DE
:102D20000DF1400101EB8002994692ED000A10EE90
:102D3000104A9C4205DB00EECC0A08E01FEDB20A07
:102D4000DDE710EE104A5C4503D900EE8C0A82EDF7
:102D5000000A401C80B20428E4D357464FF0000814
:102D600001AC0DF1500A0CAD05EB8806306804F09B
:102D700009F841EC100B01F0A7F951EC100B03F02E
:102D8000B5FA08EE900A306803F0FCFF41EC100B36
:102D900001F036F951EC100B03F0A8FA04EB8806A9
:102DA00008EE100A306803F0EDFF41EC100B01F063
:102DB0008BF951EC100B03F099FA09EE100A306808
:102DC00003F0E0FF41EC100B01F01AF951EC100B8D
:102DD00003F08CFA9DED1E0A01EE100A60EE080A5F
:102DE0009DED280A40EE680A2EEE810A2EEE011AA9
:102DF00020EE080A01EE680A2AEE881A01EE090A96
:102E00002AEE091A11EE280A01F0E2FD10AE06EBD7
:102E100088005346D0ED000A07EB880030EE600AC8
:102E2000D0ED000A0AEB880008F1010830EE600AD4
:102E30001FFA88F8B8F1040F80ED000A94D31C49FA
:102E40000020C846D1ED000A4FEA0B0C03EB8002CC
:102E500092ED000A10EE101A414502DB00EECC0A9A
:102E600005E010EE101A614503D900EE8C0A82EDE0
:102E7000000A401C80B20428E8D30F49002000BF9C
:102E800004EB800206EB800C92ED000A00EB80025E
:102E900001EB820282ED000A9CED000A82ED010A3C
:102EA0000CE00000C3F548C00000C841000080BF2E
:102EB000D8000020C3F548402445002007EB800CD3
:102EC0009CED000A03EB800C82ED020A9CED000AE7
:102ED00005EB800C82ED030A9CED000A401C82ED9C
:102EE000040A0428CCDB00204FF0404800EB8002AD
:102EF00001EB820CDCF80020424537D2B2F1804F62
:102F000034DADCF8042012F1814F2FD2B2F17E5F67
:102F10002CDADCF80820DFF864C0624526D2DFF83E
:102F200060C0624522DC04EB800292ED000A469A02
:102F300082ED000A06EB800292ED000A469A82EDCD
:102F4000010A07EB800292ED000A469A82ED020A1E
:102F500003EB800292ED000A469A82ED030A05EB2C
:102F6000800292ED000A469A82ED040A401C042871
:102F7000BCDB35B0BDEC108BBDE8FC8F8FC2D5BF7C
:102F80006666663F0F4810B50D4901600321416038
:102F900000214FF410228160C0E903124FF40012A7
:102FA0004261017641768176C17601774177FDF7FE
:102FB000F8FD002803D0BDE81040FDF780BB10BD30
:102FC000006400406C0300200F4810B50D490160FB
:102FD0000321416000214FF410228160C0E90312F7
:102FE0004FF400124261017641768176C176017715
:102FF0004177FDF7D6FD002803D0BDE81040FDF76E
:103000005EBB10BD0068004094030020094808B56D
:10301000016841F4800101600068002200F4800032
:10302000009005213920FEF7E3FBBDE80840392078
:10303000FEF7D0BB3038024010B596B01C221149C3
:103040006846FDF706FA0021684602F073FA0E4C56
:103050000C491C2220601C3107A8FDF7FAF9002159
:1030600007A802F067FA074960601C2238310EA8F1
:10307000FDF7EFF900210EA802F05CFAA06016B08F
:1030800010BD00007C6E00080000002030B587B045
:1030900014216846FDF70FFA21480024016841F029
:1030A00004010160016801F004010591016841F02B
:1030B00080010160016801F080010591016841F023
:1030C00002010160016801F002010591016841F00F
:1030D00001010160016801F001010591016841F001
:1030E0000801016000680F4D00F008000590012202
:1030F00042F210012846FEF703FB002244F20101D0
:103100002846FEF7FDFA46F2110000900120CDE9B5
:103110000104694628460394FEF704FA07B030BD5F
:10312000303802400008024010B58AB000240794ED
:103130001C2168460894FDF7BEF91A481849016039
:103140005321C0E9011444F61F61C0E903148461EE
:10315000FEF73EFF08B1FDF7B2FA079407A9114840
:103160000894FEF75DFE08B1FDF7A9FA6020CDE9ED
:1031700000040294082269460A480494FEF7C2FE3D
:1031800008B1FDF79CFA0C2269460648FEF7BAFE24
:1031900008B1FDF794FA0348FEF78AFE0AB010BDA5
:1031A00000040040BC0300200C4810B50A4901602F
:1031B0004FF4E1314160002181600C22C160C0E91F
:1031C00004128161C161FFF7DFF8002803D0BDE878
:1031D0001040FDF774BA10BD0050004004040020F8
:1031E0000C4810B50A4901604FF4165141600021A6
:1031F00081600C22C160C0E904128161C161FFF7E6
:10320000C3F8002803D0BDE81040FDF758BA10BD40
:103210000014014048040020FEE7FEE770B50446B4
:103220001C4801F5807110EE103A016000218160A8
:10323000C1600821016100F13001180A01F8603F06
:1032400010EE902A4870180C8870180EC8700A7119
:10325000100A4871100C8871100E0E4AC871903215
:10326000012315460B492046FDF73DFA00280FD0F3
:1032700002232A4607492046FDF735FA002807D0E1
:103280002A462046BDE8704004230249FDF72BBAC8
:1032900070BD0000A0430020012002F03FF9FBE7D1
:1032A00010B5FEF739FA02F03FFF012803D0BDE860
:1032B000104002F0CBBE10BD30B593B0342168464B
:1032C000FDF7F9F814210DA8FDF7F5F81D480025C4
:1032D000016841F080510160006800F08050129058
:1032E0001948016841F4404101600068022400F47B
:1032F0004040129001200090000401908001CDE92F
:10330000064006200890A820CDE909040B946846E1
:103310000C94FEF7A5FB08B172B6FEE70DA90F20CD
:1033200081E831004FF4A05010904FF4805011907C
:1033300005210DA8FEF78EFA002801D072B6FEE72F
:1033400013B030BD403802400070004002480168B0
:1033500041F470010160704788ED00E0F0B502684B
:10336000254C264D264E274F274B4FF0804CA04230
:1033700009D0604507D0A84205D0B04203D0B8427A
:1033800001D0984204D122F0700E4A6842EA0E023F
:10339000A0421BD0604519D0A84217D0B04215D02A
:1033A000B84213D0984211D0184DA8420ED0184DF3
:1033B000A8420BD0174DA84208D0174DA84205D0FF
:1033C000164DA84202D0164DA84203D122F44075F2
:1033D000CA682A434D6922F080022A4302608A6843
:1033E000C2620A688262A04201D0984201D1096992
:1033F000016301214161F0BD000001400004004073
:1034000000080040000C0040000401400040014062
:10341000004401400048014000180040001C0040EA
:103420000020004010B501F01F030121046A9940FB
:103430008C430462016A9A401143016210BD00008E
:10344000F0B5026A22F001020262036A42688469EE
:10345000124E24F073050C682C4323F002058B6890
:103460002B430D4DA84201D0B04205D123F00807EF
:10347000CB683B4323F00403A84201D0B04205D1FE
:103480004D6922F4407215438A692A43426084617F
:10349000496841630362F0BD00000140000401403F
:1034A000F0B5026A22F010020262026A436884697F
:1034B0000D6824F4E64444EA05248D6822F02002D5
:1034C00042EA05120F4D104EA84201D0B04206D17B
:1034D000CF6822F0800242EA071222F04002A8429E
:1034E00001D0B04207D14D6923F4406343EA85031C
:1034F0008D6943EA850343608461496881630262A0
:10350000F0BD00000000014000040140F0B5026A77
:1035100022F480720262026A4368C46922F4007273
:1035200024F073050C68124E2C438D6842EA052284
:103530000E4DA84201D0B04206D1CF6822F40062FD
:1035400042EA072222F48062A84201D0B04207D1A9
:103550004D6923F4405343EA05138D6943EA05138B
:103560004360C4614968C1630262F0BD000001406C
:103570000004014030B5026A22F480520262046AFB
:103580004268C3690D6823F4E64343EA05238D6866
:1035900024F4005444EA0534084DA84202D0084DF2
:1035A000A84204D14D6922F4804242EA8512426069
:1035B000C36149680164046230BD0000000001403D
:1035C000000401400148FEF7ABBD000004040020E8
:1035D00010B5806B0021C185C184FEF7A0FD10BD30
:1035E00070B5846B2068406994F83D10C0F3C0103A
:1035F0000025212904D118B1E584204600F08AF87D
:103600002068406994F83E10C0F38010222904D14C
:1036100018B1E585204600F056F8206C40F0100007
:1036200020642046FEF77BFD70BD10B50146806B1F
:1036300009680968C9052FD40021C18501680C31CA
:1036400051E8002F22F4807241E80023002BF5D1CD
:103650000168143151E8002F22F0010241E80023F3
:10366000002BF5D10168143151E8002F22F04002FF
:1036700041E80023002BF5D1202180F83E10016B9A
:10368000012909D101680C3151E8002F22F0100204
:1036900041E80023002BF5D1016B012902D0FEF790
:1036A0006BFF10BD818DFEF739FD10BD10B5806B2D
:1036B000016B012902D0FEF7D9FF10BD818D4908A9
:1036C000FEF72CFD10BD01680C3151E8002F22F4EB
:1036D000907241E80023002BF5D10168143151E8C4
:1036E000002F22F0010241E80023002BF5D1016BED
:1036F000012909D101680C3151E8002F22F0100294
:1037000041E80023002BF5D1202180F83E10002154
:103710000163704701680C3151E8002F22F0C002AC
:1037200041E80023002BF5D1202180F83D1070479F
:1037300008B590F83E10222901D0022008BD826809
:103740004FF480539A4201D1016921B1816A9A42B2
:103750001BD04AB10AE00268816A5268C2F30802CB
:103760000A80816A891C08E0026972B102685268A5
:1037700002F07F020A70816A491C8162C18D491E74
:103780000904090CC18503D019E002685268F1E709
:103790000168CA6822F02002CA600168CA6822F47F
:1037A0008072CA6001684A6922F001024A612021E0
:1037B00080F83E10016B012903D0FEF7DDFE0020EA
:1037C00008BD0021016301680C3151E8002F22F08F
:1037D000100241E80023002BF5D101680A68D206E7
:1037E00002D50A6849680091818DFEF797FCE6E7EB
:1037F00070B5044600680169E26821F44051114344
:1038000001612169A068E2690843616911430843C5
:103810002168CA6849F20C639A430243CA6020686F
:103820004169A26921F44071114341613149206825
:10383000884202D03049884202D1FEF7B5F801E053
:10384000FEF7A2F8E2690023192164253226B2F5B9
:10385000004F626828D0A0FB0101930F9200FCF793
:1038600081FD0146B0FBF5F06FF01802504301EB0B
:10387000800006EB0010B0FBF5F000F0F002B1FBA9
:10388000F5F002EB0012B1FBF5F06FF018035843AE
:1038900001EB800006EB0010B0FBF5F000F00F002C
:1038A00021681044886070BDA0FB010192185B4143
:1038B000FCF758FD0146B0FBF5F00201B1FBF5F055
:1038C0006FF01803584301EB800006EBC000B0FB1B
:1038D000F5F000F0F80002EB4002B1FBF5F05843C0
:1038E00001EB800006EBC000B0FBF5F000F0070034
:1038F000D6E70000001001400014014038B5816295
:1039000082850025134604460564222084F83E0083
:10391000A26B1C48D063A26B1B481064A26B1B48AF
:10392000D064A06B0A4605652168A06B091DFDF7F0
:10393000AFFD206801684068009084F83C50206921
:1039400048B120680C3050E8001F41F4807140E815
:103950000012002AF5D12068143050E8001F41F011
:10396000010140E80012002AF5D12068143050E827
:10397000001F41F0400140E80012002AF5D100206C
:1039800038BD00002B360008AD360008E1350008D0
:1039900081628285C28500210164222280F83E2056
:1039A00080F83C10016921B10168CA6842F4807254
:1039B000CA6001684A6942F001024A610068C16850
:1039C00041F02001C1600020704700000148FEF76F
:1039D000A7BB000048040020FEE703B401984100A3
:1039E000009850EAC12018BF04204A0D18BF40F0CB
:1039F000010040F2FF72B2EB515F08BF40F00200DD
:103A0000012808BF052002B070474100080218BF16
:103A100004200A0E18BF40F001004FF07F4232EA46
:103A2000010108BF40F00200012808BF05207047CF
:103A30000907090E002804DB00F1E02080F80014DB
:103A4000704700F00F0000F1E02080F8141D70476F
:103A500070B5C1482DED020B2DED0E8B82B0119D7E
:103A600025F000449FEDBEDB9FEDBFEB84423EDBC3
:103A7000A4F140511098A1F17F6108430FD0BC48D8
:103A8000844202DC28D1109830B39DED100B02B0B7
:103A9000BDEC0E8B02B0BDE8704000F061BF9DED43
:103AA000100B53EC1D2B51EC100B02F0ABFE9DEDF7
:103AB000100B41EC180B53EC1E2B51EC100B02F0C9
:103AC000A1FE53EC182B02F043FC41EC100B02B0AA
:103AD000BDEC0E8B02B070BD0120FCF71BFD02B0E7
:103AE000BDEC0E8B02B0BDE8704000F045BFA148B0
:103AF0009FEDA18B844256DA9DED100BB4F1795FF6
:103B00000ADA51EC100BFFF768FF042808BF00F039
:103B100043FF9DED100BDAE753EC102B51EC100B2B
:103B200002F070FE41EC190B95480621B0EE490AEF
:103B3000F0EE690A784400F0FFFD53EC192B51ECCC
:103B4000100B02F05FFE41EC1A0B8E48B0EE490AF2
:103B5000F0EE690A0421784400F0EEFD53EC192BD5
:103B600051EC100B02F04EFE53EC182B02F0F0FB60
:103B700041EC100B51EC1A0B53EC102B02F090FCA3
:103B8000CDE900019DED000B53EC102B9DED100BCA
:103B900051EC100B02F036FE9DED101B53EC112B77
:103BA00002F0D6FBD2E09DED100B51EC100B01F0B2
:103BB000B5F853EC182B02F023FF9FED730BCDE902
:103BC000000153EC102B9DED000B51EC100B02F09B
:103BD00019FE41EC190B6E480621B0EE490AF0EED1
:103BE000690A784400F0A8FD53EC192B51EC100B36
:103BF00002F008FE41EC1B0B6648B0EE490AF0EEFD
:103C0000690A0421784400F097FD53EC192B51EC1C
:103C1000100B02F0F7FD53EC182B02F099FB41EC6E
:103C20001C0B51EC190B01F0C3FF41EC180B5A4867
:103C30009FED5BABA04222DC53EC1C2B51EC1B0B29
:103C400002F02EFCCDE900019DED000B51EC180BAC
:103C500053EC102B02F0D6FD53EC182B02F078FB3E
:103C600053EC1A2B02F0CEFD53EC1D2B02F0A0FFFB
:103C700053EC1E2B02F0C4FE41EC100B5FE08DED07
:103C8000008B002000909DED000B51EC180B53ECC5
:103C9000102B02F05DFB9DED000B41EC1E0B53EC75
:103CA000102B51EC100B02F0ADFD53EC192B02F070
:103CB000A7FE53EC1E2B02F0F3FB41EC190B53EC67
:103CC0001C2B51EC1B0B02F0EBFB41EC1B0B53ECE0
:103CD0001A2B51EC190B02F095FD53EC1D2B02F041
:103CE0008FFE41EC190B53EC1A2B51EC180B02F020
:103CF00089FD53EC1B2B02F085FD53EC192B02F0D0
:103D000057FF9DED000B41EC180B53EC1A2B51ECB7
:103D1000100B02F077FD9FED249B53EC192B02F062
:103D20006FFE41EC100B51EC180B53EC102B02F012
:103D30003FFF53EC192B02F063FE41EC100B002DFA
:103D40003FF7C5AE51EC100B02F0C4FA41EC100B7A
:103D5000BDE60000000000000000F03F0000000091
:103D6000075C143326A6913C182D4454FB21F93FDF
:103D70000000F07F0000E03F000000000000F03F86
:103D8000B8330000C6330000000000000000E03F30
:103D90000A330000183300003333EF3F0000000007
:103DA0000000000000000040182D4454FB21E93FB2
:103DB00010EE100A10B510EE901A4FF0684202EBA8
:103DC00040032DED028BB3F1654F3CBF02EB410286
:103DD000B2F1654F7CD200BFC0F3C753C1F3C752E5
:103DE0009A1A1B2A09DD10F0004F14BF9FED6E0ACE
:103DF0009FED6E0ABDEC028B10BD12F11A0F1BDA9B
:103E000011F0004F09D010F0004F0CBF9FED680A71
:103E10009FED680ABDEC028B10BD80EE208A18EE83
:103E2000100AFFF7F2FD042808BF00F0C9FDB0EE4C
:103E3000480ABDEC028B10BD4200B2EB410F37D9EE
:103E400010F0004F19BFDFED5C1A9FED5C1ADFED3B
:103E50005C1A9FED5C1AB0EE602A0A46F1EE400A49
:103E600080F00041B0EE420A10460A1A5200B2F148
:103E7000807F34D2484010F0004FDFED532A9FED91
:103E8000533A1DBFBEEE002A71EEE21A31EE431A1C
:103E9000B6EE002A04BF71EEA21A31EE031AF0EE5C
:103EA000402A42EE602A40EE020A82EEA02A18E082
:103EB00011F0004F04BF9FED461AF0EE411AD4D026
:103EC00010F0004F1CBFDFED431A9FED431A00E0D6
:103ED00026E004BFDFED411A9FED411AC5E780EEF1
:103EE000202A22EE020ADFED3F0ADFED3F2ABDEC79
:103EF000028B40EE202ADFED3D0A40EE220ADFED84
:103F00003C2A40EE202ADFED3B0A40EE220A22EE58
:103F1000000A00EE201A31EE020A30EE210A10BD2E
:103F20004FF07F42B2EB400F28BFB2EB410F05D2FA
:103F3000BDEC028BBDE8104000F03EBD40EA01033D
:103F40005B0008BF41F0FF410BD0B2EB400F08BF50
:103F5000B2EB410F08D120F0804000EE100A21F0B2
:103F6000804100EE901A37E7B2EB400F12BF5FEAD4
:103F7000410240F0FF4001F000413FF42DAF4A0004
:103F800092EA40033FF528AF002AACBF9FED1A1A12
:103F90009FED1A1A20EE010A60EE810A10EE100A57
:103FA00010EE901A18E70000DB0FC9BFDB0FC93F06
:103FB000DB0F4940DB0F49C00000C9BF22AAFDB991
:103FC0000000C93F22AAFD390060ED3EC30ACE378A
:103FD00000000000000049C022AA7DBA000049404C
:103FE00022AA7D3A2DAD65BD8FB8D53D0FB511BE66
:103FF00061C84C3EA8AAAABE0000804F0000802FD6
:1040000010B52F499FED2C1B2DED020B84B00598A8
:1040100020F000408842D8BF9DED040B2DDD2949DA
:10402000884209D1049840B94FF00100FCF772FAB8
:1040300000F0A2FC06B010BD05DB9DED040B00F006
:104040008FFC06B010BD68469DED040B00F0A0F893
:1040500010F0030004BF9DED021B9DED000B0CD082
:1040600001280ED09DED021B9DED000B022817D0FC
:10407000012000F0DDFB06B010BD00F0A5FA06B08F
:1040800010BD9DED021B9DED000B012000F0D0FB4B
:1040900051EC100B02F01EF906B041EC100B10BDF4
:1040A00000F092FA51EC100B02F014F906B041EC5A
:1040B000100B10BD00000000000000000000000018
:1040C000FB21E93F0000F07F10B52F499FED2C1B2D
:1040D0002DED020B84B0059820F000408842DCBF33
:1040E00000209DED040B32DD2849884209D1049857
:1040F00040B94FF00100FCF70DFA00F03DFC06B0AE
:1041000010BD05DB9DED040B00F02AFC06B010BDD0
:1041100068469DED040B00F03BF810F0030011D051
:10412000012818D09DED021B9DED000B02281AD02E
:1041300000F04AFA51EC100B02F0CCF806B041EC5A
:10414000100B10BD9DED021B9DED000B012000F03A
:104150006FFB06B010BD9DED021B9DED000B00F046
:1041600033FA06B010BD012000F062FB51EC100BD9
:1041700002F0B0F806B041EC100B10BD00000000DA
:104180000000000000000000FB21E93F0000F07F7C
:104190002DE9F14F04462DED020B2DED088B8AB071
:1041A0009FEDE70B80ED020B139EE74826F00045DC
:1041B00085420ADC9DED120B002084ED000B0AB055
:1041C000BDEC088B03B0BDE8F08FE0489FEDE0AB9D
:1041D0009FEDE1BBA84247DDE14F9FEDE39B9FEDE3
:1041E000E48B9DED120B53EC1A2B51EC100B002EAF
:1041F0001CDD02F0DDFC41EC100BBD4208D053EC9D
:104200001B2B51EC100B02F0D3FCC4E900010BE0B6
:1042100053EC192B51EC100B02F0CAFC53EC182B89
:1042200002F0C6FCC4E900010120C8E702F090F8E2
:1042300041EC100BBD4208D053EC1B2B51EC100B82
:1042400002F086F8C4E900010BE053EC192B51ECA5
:10425000100B02F07DF853EC182B02F079F8C4E94A
:1042600000014FF0FF30AAE7C348A84279DB9DED7B
:10427000120B51EC100B00F051FD41EC180B9FEDAF
:10428000C00B53EC102B02F0BDFA9FEDBF1B53EC9B
:10429000112B02F05DF802F05BFA074602F087FA94
:1042A00041EC190B53EC1A2B02F0ACFA53EC182B1F
:1042B00002F0A6FB41EC180B53EC1B2B51EC190B35
:1042C00002F0A0FADFF8C8A241EC100B4FEA155833
:1042D0000125FA4453EC102B51EC180B02F068FC4A
:1042E000032DC4E900013DD0C1F30A5005EB45118F
:1042F000A8EB00001139814234DA0AEB051BB0EE5D
:1043000048AA9BED000BF0EE68AA53EC102B51EC81
:10431000190B02F077FA41EC1B0B51EC1A0B53EC22
:104320001B2B02F045FC41EC180B51EC1A0B53EC23
:10433000182B02F03DFC53EC1B2B02F039FC9BEDDB
:10434000020B41EC1A0B53EC102B51EC190B02F041
:1043500059FA53EC1A2B02F02BFC41EC100B6D1C9C
:10436000B8E70EE0002EA8BF3846BFF628AF94EDA0
:10437000000B51EC100B01F0ADFFC4E900017842D5
:104380001DE7C6F3130040F4801EC6F30A50A0F2E6
:10439000F530471100F01F05C5F12000DDF848B0E9
:1043A00008900020069007900520EC467949002DE2
:1043B00007EB0002794408BF51F8221009D051F8E8
:1043C000223001EB8201AB404A68089922FA01F1E0
:1043D0001943A1FB0E26A1FB0B131A449A4234BFCA
:1043E0000123002303EB06080CEB8003D3E901A6AD
:1043F0000E448E4234BF0121002192448A4411B1FF
:10440000924502D903E0924501D2012100E000214A
:10441000C3E901A641444CF82010011EA0F101009F
:10442000C4DC029800F10050850F0298DDE90367B3
:104430008000DDF8148002F0BAF941EC1A0B304626
:1044400002F0CCF99FED541B53EC112B02F0DAF97A
:1044500041EC1B0B384602F0C1F99FED511B53ECA8
:10446000112B02F0CFF941EC180B404602F0B6F9DF
:104470009FED4D1B53EC112B02F0C4F941EC190BCD
:1044800051EC180B53EC192B01F062FF53EC1B2B72
:1044900001F05EFF53EC1A2B01F05AFFCDE9080141
:1044A000002008909DED080B53EC1A2B51EC100BDB
:1044B00002F07EFB53EC1B2B02F07AFB53EC182B23
:1044C00002F076FB53EC192B02F09AFA9FED381BA1
:1044D00053EC112B02F096F99FED370B41EC180BC2
:1044E00053EC102B9DED080B51EC100B02F08AF9E8
:1044F00053EC182B01F02CFF9FED310B41EC180B06
:1045000053EC102B9DED080B51EC100B02F07AF9D7
:1045100053EC182B01F01CFF41EC100B139810F01A
:10452000004F06D06D4251EC100B01F0D3FE41EC70
:10453000100B284684ED000B41E60000000000004F
:104540000000000000000000FB21E93F7CD9024090
:1045500000004054FB21F93F3163621A61B4D03D41
:10456000FB21F93F000000000000601A61B4D03D5B
:104570007370032E8A19A33BFB2139410000000010
:1045800083C8C96D305FE43F000000000000E03FD9
:104590009A2C0000E82B0000000000000000103EF4
:1045A000000000000000103C000000000000103A75
:1045B000182D4454FB21F93D3326A611460B113C1E
:1045C00000000054FB21F93D10B52DED040B2DED3D
:1045D000088B82B0B0EE419AF0EE619A0B9820F011
:1045E00000449FED4BABB4F1795F11DA9DED0A0BFE
:1045F00051EC100B02F0ACF8002801BFB0EE4A0AF3
:10460000F0EE6A0A02B0BDEC088B04BF04B010BD26
:104610009DED0A0B53EC102B51EC100B02F0F2F84D
:1046200041EC180B3C480621B0EE480AF0EE680A4F
:10463000784400F081F853EC182B51EC100B02F089
:10464000E1F89DED0A0B41EC1B0B53EC192B51ECDF
:10465000100B02F0D7F841EC190B53EC1B2B51EC6B
:10466000180B02F0CFF853EC192B02F0A1FA9FEDD2
:104670002C0B41EC190B53EC102B51EC180B02F0E6
:10468000C1F841EC100B2848844210DA53EC192B86
:1046900051EC100B02F08CFA53EC1A2B02F0B0F92B
:1046A00041EC100B02B0BDEC088B04B010BD1F48EC
:1046B000A042BCBF9FED1E1B8DED001B06DBA4F5C9
:1046C00000100190002000909DED001B51EC100B9C
:1046D00053EC112B02F06CFA9DED000B41EC180B22
:1046E00053EC102B51EC1A0B02F062FA41EC1A0B4E
:1046F00053EC192B51EC180B02F05AFA53EC1A2B0D
:1047000002F07EF941EC100BCCE700000000000045
:10471000000000000000F03F0C2900000000000035
:10472000000000000000E03F3333D33F0000E93FCA
:10473000000000000000D23F70B504462DED028B52
:104740004D1E00EBC500B0EE408AF0EE608A90EDA1
:10475000000B35F0060017D053EC182B51EC100B62
:1047600002F050F841EC100B6D1E04EBC50090ED0B
:10477000001B51EC100B53EC112B01F0E9FD41EC47
:10478000100B35F00600E7D1022D36D0042D1CD0D9
:10479000062D1CBFBDEC028B70BD53EC182B51ECE9
:1047A000100B02F02FF894ED0A1B53EC112B01F0C3
:1047B000CFFD53EC182B02F025F894ED081B53ECB9
:1047C000112B01F0C5FD41EC100B53EC182B51ECF3
:1047D000100B02F017F894ED061B53EC112B01F0AF
:1047E000B7FD53EC182B02F00DF894ED040B53ECCD
:1047F000102B01F0ADFD41EC100B53EC182B51ECDC
:10480000100B01F0FFFF94ED021B53EC112B01F094
:104810009FFD53EC182B01F0F5FF94ED001B53ECBA
:10482000112B01F095FDBDEC028B41EC100B70BD1E
:1048300031B504462DED040B2DED0A8BB0EE41BAD7
:10484000F0EE61BA0B989DED0A0B20F00040B0F13C
:10485000795F0DDA51EC100BFFF7BFF8042808BFA1
:1048600000F09AF89DED0A0BBDEC0A8B05B030BD47
:1048700053EC102B51EC100B01F0C4FF41EC180B62
:104880009DED0A0B53EC182B51EC100B01F0BAFF05
:1048900041EC190B2C48B0EE480AF0EE680A0521ED
:1048A0007844FFF749FF9FED2ACBB0EE40AAF0EE27
:1048B00060AA9CB353EC1C2B51EC190B01F0A2FF26
:1048C00041EC1C0B53EC1A2B51EC190B01F09AFF25
:1048D0009FED210B41EC190B53EC102B51EC1B0BF2
:1048E00001F090FF53EC192B02F062F953EC182BF6
:1048F00001F088FF53EC1B2B02F05AF953EC1C2BF0
:1049000002F056F99DED0A1B53EC112B02F078F8DA
:10491000BDEC0A8B05B041EC100B30BDFFE753EC4A
:104920001A2B51EC180B01F06DFF53EC1C2B01F00E
:104930000FFD53EC192B01F065FF9DED0A1B53ECA5
:10494000112B01F005FDE3E79427000000000000B3
:10495000495555555555C5BF000000000000E03FC2
:1049600010B553EC102B51EC100B01F0F1FC41ECA5
:10497000100B10BD000000009FED050B10B553ECAF
:10498000102B51EC100B01F08BFD41EC100B10BD06
:1049900000000000000000009FED050B10B553EC77
:1049A000102B51EC100B01F02DFF41EC100B10BD42
:1049B000000000000000001030EE200A70470000E8
:1049C0009FED020A20EE000A704700000000001070
:1049D000F0EE401A9FED1A1AF0EEE12A9FED190A47
:1049E000F4EEC12AB0EEE02AF1EE10FA04D2B4EEF1
:1049F000C12AF1EE10FA19D3B4EEC12AF1EE10FA81
:104A000015D21148F5EEC01AD0ED000AF1EE10FAF9
:104A100003DDB6EE000A20EE800AF5EEC01AF1EED4
:104A200010FA03D2BEEE000A20EE800A7047F4EEC0
:104A3000C12AF1EE10FAF9D3B0EE610AFFF7B8B966
:104A400017B7D13800000000D800002000F0A8FA05
:104A500001F094F800F094FB00F02CFA012000F033
:104A60005DFDF7E7194930B40020086018489FED54
:104A7000160A4860174A002001EB800452F82030E3
:104A800004F58054401C80B2C4F8B4370528F3D331
:104A90001148124980ED050A1148CA6A026091ED79
:104AA0001F0AB1EE400A10EE102A4260D1F8CC2065
:104AB000826091ED470AB1EE400A10EE101AC16013
:104AC00030BC024800F0A6BD00000000C845002030
:104AD0000000A04004010020B85D0020F441002047
:104AE000405D0020184930B4002008601748486035
:104AF000174A002001EB800452F8203004F580545E
:104B0000401C80B2C4F8B4370528F3D3114892EDA5
:104B1000040A114980ED050A1048CA6A026091ED45
:104B20001F0AB1EE400A10EE102A4260D1F8CC20E4
:104B3000826091ED470AB1EE400A10EE101AC16092
:104B400030BC014800F066BDC84500200000404070
:104B5000F0000020B85D0020F4410020405D0020FE
:104B600000B58BB000200121CDE90601089100902D
:104B70000190029003900590049069460C48FBF761
:104B800017FE0B48FCF7BCFA02210948FBF799FD18
:104B90000E200990059069460648FBF709FE054876
:104BA000FCF7AEFA02210348FBF78BFD0BB000BD0A
:104BB0006C030020940300202DE9F0413C4D3D4C56
:104BC0003D4E2DED028B9FED398A85ED018A608A7D
:104BD00001285FD1E088D8B1B4F9000000EE100AD6
:104BE000B8EEC00A85ED020AB4F9020000EE100A20
:104BF000B8EEC00A85ED030AB7EE000A85ED010A9A
:104C00003068C16821F02001C160608A012841D16B
:104C10006868B0F17E5F3DD1002740F6B838678301
:104C2000404600F07BFCFFF75DFFB0EE082AF0EE97
:104C3000481AB2EE041AD5ED030A95ED020A00F007
:104C4000A3FC01206083404600F068FCFFF74AFFA8
:104C5000E0886FF0180110FB01F06FF0950101EB97
:104C6000400000EE100AB0EE082AF0EE481AB8EE46
:104C7000C00AB2EE041ADFED110A00F085FC67836A
:104C8000404600F04BFCFFF72DFFE088032801D1E0
:104C900085ED018A3068C16841F02001C160BDEC3A
:104CA000028BBDE8F04100F00BB8000000000000EE
:104CB000E000002057430020040400200000484387
:104CC0000248034942780348FDF741BC90000020A8
:104CD0004D4300200404002010B50C4C0C490D4835
:104CE0006278FDF734FC0C480068C16841F010019F
:104CF000C1600749227819390748FDF713FCBDE860
:104D000010404FF47A70FCF7FBBB000090000020CD
:104D10004D430020040400204804002082B0CDE967
:104D2000000121F0004001909DED000B02B051EC1C
:104D3000100B70472DED028B00212D48FA222D4DCE
:104D4000016041608260C26001613F224261816115
:104D5000C16101627421284CDFED288A4162B7EEFF
:104D6000008A688A012805D0C4ED008A012000F07D
:104D7000D5FBF6E7B5F91600012810D0022818D0A7
:104D800058B30328F2D194ED000AB5EEC00AF1EE53
:104D900010FAEBD1FFF710FF84ED008AE6E794EDFF
:104DA000000AB5EEC00AF1EE10FADFD1FFF75AFEA5
:104DB000F2E794ED000AB5EEC00AF1EE10FAD5D193
:104DC000B0EE082AF0EE681AB2EE041ADFED0C0A13
:104DD0009FED0C0A00F0D8FBDEE794ED000AB5EE7B
:104DE000C00AF1EE10FAC1D1FFF77CFED4E7000053
:104DF000E844002057430020E000002000000000AD
:104E000000004843000048C3FCF78EFCFEF754FA4C
:104E1000FEF73CF9FEF7FAF8FEF7E2F9FEF7B2F812
:104E2000FEF7D2F8FEF780F9FEF7BEF9FFF798FE1D
:104E3000FFF752FFFEF700F900F077FBFEE70146AF
:104E40000020842900D0C81C70470FB410B5BDF8ED
:104E50003200169C48B9BDF830100823224602A83B
:104E6000FBF7B4FB0A20FCF74BFBBDF8320001282E
:104E70000CD1BDF83000082300F5807081B22246C5
:104E800002A8FBF7A3FB0A20FCF73AFBBDF83200AF
:104E900002280CD1BDF83000082300F5007081B263
:104EA000224602A8FBF792FB0A20FCF729FB10BC64
:104EB0005DF814FB70B5364C3649D4F82C018842A5
:104EC00003DB94ED470A84ED4B0A0020B0EE000AA4
:104ED00000EB800104EB0111401C80B281ED0E0A51
:104EE0000428F5D32C482D4DB0F91410B0F91A0050
:104EF000084400EB4001C1EBC0104FF4FA7101EB24
:104F0000C00000EE100A2248B8EEC00A85ED0C0A77
:104F1000D4ED0E0A94ED0F0A218DFEF77FF90120E2
:104F2000FCF7EEFA1A48D4ED220A94ED230AB4F8FD
:104F300078105030FEF772F90120FCF7E1FA1448BE
:104F4000D4ED360A94ED370AB4F8C810A030FEF755
:104F500065F90120FCF7D4FA0D48D4ED4A0A94ED26
:104F60004B0AB4F81811F030FEF758F90120FCF79D
:104F7000C7FA288895ED050A00F0CEFD0120FCF760
:104F8000BFFAA88B95ED0C0ABDE8704000F0C4BDD7
:104F9000F4410020CDCCCC3D57430020B85D00202B
:104FA0002DE9F043704C0122A5B091032046FCF797
:104FB000A7FB002201212046FCF7A2FB012251039E
:104FC0002046FCF79DFB012210212046FCF798FBB0
:104FD0004FF47A70FCF794FA202264496448FBF796
:104FE00038FA624890F82010614C04F8201F406A9B
:104FF00060605F48202250305E498046FBF729FA06
:105000005C4D15F8200F84F85000686860655848BA
:105010002022A03057490646FBF71BFA287884F86F
:10502000A0006868C4F8A40051482022F03051491B
:105030008146FBF70EFA287884F8F0006868C4F817
:10504000F40001226281A4F85A20A4F8AA20A4F84E
:10505000FA2022810220A4F858000320A4F8A80016
:105060000420A4F8F8002022414911A8FBF7F1F927
:1050700020788DF8640060681A903D492822283114
:105080001BA8FBF7E6F93C4D402215A96846109590
:10509000FBF7DFF911AF97E80F00FFF7D6FE4FF4EB
:1050A000FA673846FCF72CFA2022414611A8FBF794
:1050B000D0F994F850008DF86400606D1A902C4976
:1050C000282278311BA8FBF7C4F9402215A96846AD
:1050D0001095FBF7BEF90DF1440898E80F00FFF7B3
:1050E000B4FE3846FCF70CFA2022314611A8FBF733
:1050F000B0F994F8A0008DF86400D4F8A4001A90D8
:105100001B492822C8311BA8FBF7A3F9402215A987
:1051100068461095FBF79DF998E80F00FFF795FE9C
:105120003846FCF7EDF92022494611A8FBF791F922
:1051300094F8F0008DF86400D4F8F4001A90282256
:105140000E491BA8FBF785F9402215A96846109562
:10515000FBF77FF998E80F00FFF777FE25B0384698
:10516000BDE8F043FCF7CCB90008024094030020EE
:10517000F44100206C030020880000200C43002034
:1051800070B5304D304BDFED310A95ED000A304EF1
:10519000304A002003EB4001B1F90810282901DD55
:1051A000283903E011F1280F0FDA283100EE101A28
:1051B00000EB800102EB0111B8EEC00AD1ED0F1A2D
:1051C00080EE201A31EE211A05E000EB800102EB9F
:1051D000011191ED0B1A81ED0F1A00EB800102EB2A
:1051E0000114E16BB14202DDB0EE081A04E011F1E6
:1051F0007F5F03D9B8EE081A84ED0F1A401CC0B2C5
:105200000428C7D385ED000AB3F91000DFED120AB8
:1052100000EE100A1148B8EEC00A80EE201A80EDA8
:10522000051AB3F9141001EB4102C2EBC1114FF49E
:10523000FA7202EBC10100EE101AB8EEC00A80ED5E
:105240000C0A70BDDC000020574300200070464669
:1052500000004040F44100200000C842B85D00203A
:10526000F0B5AC4B06462DED068B0024F6EE006A39
:10527000B2EE007A006898607068F2EE0C7AB3EED5
:10528000008AF3EE0E8AB2EE083AB3EE046AF0EE4C
:10529000083AF0EE001AB1EE084AD86006EB840036
:1052A000A0F6880000F500500025016805EE101AF0
:1052B00083ED0B5AC16B05EE901AC3ED0C5A416990
:1052C00035EEC59A02EE101A83ED0D2A016D29EE16
:1052D00006AA04EE901AC3ED0E4A816A64EE879A1C
:1052E00000EE901AC3ED0F0A406E20EEA60A02EE01
:1052F000900A42EE039AC3ED052A83ED065A83ED28
:10530000072A83ED080A93ED030A93ED021A35EE9E
:10531000655A30EE410A09EEC0AAF0EE629A50EEEC
:10532000A39A69EE809A09EEC0AA60EE219A69EE0E
:10533000809A69EE809ACAEE29AA24EEA7AA64EEA2
:10534000844A02EE08AA42EE044A29EE032A2AEE13
:1053500000AA04EEC02A05EE28AA20EEA35A70EE99
:10536000E20AC3ED09AA02EEE15A60EE800A00EEFD
:10537000C02A25EE005A05EE00AA29EE805A25EE35
:10538000000ACAEE055AC2EE000AC3ED0A5AC3ED7E
:10539000040AAFE093ED020A022031EE400A00F069
:1053A0007BF9D3ED020A93ED062AD3ED072A71EEBD
:1053B000600A032002EEA02AD3ED082A02EE802A1A
:1053C000B0EE600A00F068F9D3ED090A042000EE9F
:1053D000802A93ED020A31EE400A00F05DF9D3ED28
:1053E0000A0A052000EE802A93ED020A31EE400AF7
:1053F00000F052F9D3ED040AC4EB041101EB810172
:1054000000EE802A06EB011101EB850712EE100A6F
:10541000B86093ED020A022031EE400A00F03CF938
:10542000D3ED080A93ED072A032060EEA12AD3EDFD
:10543000020A71EE600A02EEA02AD3ED092A62EE9A
:10544000A32A02EE802AB0EE600A00F025F9D3ED1F
:105450000A0AF1EE002A042060EEA20A00EE802A79
:1054600093ED020A31EE400A00F016F9D3ED040A7A
:10547000F1EE042A60EEA20A00EE802A12EE100A73
:10548000C7F8980193ED020A022031EE400A00F0BD
:1054900003F9D3ED090AD3ED082A032020EE842A6C
:1054A000D3ED020A71EE600A22EE202A02EEA12A52
:1054B000D3ED0A2A62EE832A02EE802AB0EE600A59
:1054C00000F0EAF8D3ED040A6D1CADB260EE860A76
:1054D00000EE802A12EE100A9FED0F2AC7F828036B
:1054E00093ED030AD3ED020A70EE600A80EE820AA1
:1054F00030EE011A93ED030AB4EEC01AF1EE10FA81
:10550000FFF448AF641CA4B2042CFFF4C7AEBDEC9A
:10551000068BF0BD980000200000C84210B500B90D
:10552000012000F087FC002010BD10B500F0A8FCA1
:10553000002010BD7FB50D4604464169B0F9080052
:1055400081B1A16971B1FFF77AFCD4E905128DE848
:105550000700D4E900102B46226900F0BAFD039041
:1055600004B070BDFFF76BFC03A9CDE90001208AF0
:105570002B4682B2D4E9001000F07EFD012801D054
:105580000020EDE70398EBE710B51E4CA4F15400A2
:10559000C4EC021A00F044FBA4F11401A1F1400094
:1055A000FDF768F80020A4F1140100BF04EB8003AC
:1055B00051F8202003F58053401C80B2C3F8B42773
:1055C0000428F3D3104891ED040A104980ED050A30
:1055D0000F48CA6A026091ED1F0AB1EE400A10EE50
:1055E000102A4260D1F8CC20826091ED470AB1EEDA
:1055F000400A10EE101AC160BDE81040014800F0EA
:1056000009B80000C8450020B85D0020F441002022
:10561000405D00202DE9F04106462DED028BFFF79D
:105620001FFE1B4D1B4F0024B2EE048A06EB8400C4
:105630008168E963D0F8B81400EE101AB1EE400AA0
:1056400085ED230AD0F86819C5F8DC10D0F8180EDB
:1056500000EE100AB1EE400A85ED4B0A706800EECC
:10566000100A306800EE900A30EE600A20EE080A58
:1056700087ED000ABCEEC00A10EE100AFFF74EFFDD
:10568000641C642CD2DBBDEC028BBDE8F081000011
:10569000F441002098000020094AF0EE400AB7EEDD
:1056A000000A82ED010A002104E000BF20EE200A7A
:1056B000491C89B28142F9D382ED010A704700008A
:1056C000980000202DE9F041184C0F460546E66889
:1056D0002068001D00F0E6FA38B9206890F82C1018
:1056E00001208840216981432161681C07D137B1BD
:1056F0002168BDE8F0410E48091D00F017BB206885
:105700003544B5424560216805D2A06BBDE8F04143
:10571000091D00F0F3BA606B091D00F0EFFAA06AF2
:10572000854200D2A562BDE8F08100002000002083
:10573000C80500202DE9F041054600F003FB2E4C82
:10574000A068401CA06020682C4F10B1606940B375
:105750002DE02560A068012829D1002606EB8600EF
:1057600007EB800000F0BCFA761C072EF6D3234826
:105770008C3000F0B5FA2148A03000F0B1FA1F4893
:10578000B43000F0ADFA1D48C83000F0A9FA1B484B
:10579000DC3000F0A5FA19488C3060631430A06347
:1057A00005E02068E96AC06A884200D82560606A1E
:1057B000401C6062E96A0120226988401043206130
:1057C00001EB810007EB8000291D00F0AFFA00F02B
:1057D000D9FA606900280CD02068E96AC06A88425A
:1057E00007D207494FF080500860BFF34F8FBFF3D7
:1057F0006F8FBDE8F081000020000020EC04002045
:1058000004ED00E010B5044690F8510058B10128AD
:105810000CD002280FD0502080F31188BFF34F8F97
:10582000BFF36F8FFEE7206B00F0C0FA2046BDE8A3
:10583000104000F0BBBA10BD10484FF47051420741
:1058400006D0C01D0D4920F00700411AC1F5705166
:105850000B4A00230144C2E900030839183A21F039
:10586000070111604B600B600B1AC0E900139360D5
:105870004FF000405360506170470000DC0500208D
:1058800074000020144E154CA6F1C8074FF0805844
:10589000DFF84C9012E000BF00F054FAF068C568E1
:1058A000281D00F0FFF9A068401EA0606068401E3F
:1058B000606000F067FA2846FFF7A4FF60680028E0
:1058C000EAD138680128F9D9C9F80080BFF34F8FB1
:1058D000BFF36F8FF2E70000B40500202000002026
:1058E00004ED00E02DE9F0479A46DDE909848146A0
:1058F0006FF00303206B03EB82021044089E20F03C
:105900000707780707D0502080F31188BFF34F8F27
:10591000BFF36F8FFEE7002561B1002023180A5CFA
:1059200083F834200A5C12B1401C1028F6D384F8A6
:10593000435001E084F83450072E00D30626E66277
:10594000C4E91165201D00F0D6F904F1180000F03B
:10595000D2F92461C6F107006462A061E56484F8AD
:10596000505052464946384600F0C0F82060B8F121
:10597000000F01D0C8F80040BDE8F08730B51149EC
:1059800000E011460A688242FBD34B685C188442EF
:1059900003D1406818444860084643681C18944284
:1059A00009D1084C183C2468A24209D052681A4414
:1059B00042600A6812680260814200D0086030BD0F
:1059C0000460F9E7740000200648416B096829B1BA
:1059D000416BC968C9684968816270474FF0FF31FF
:1059E000FAE700002000002008484068401C4FF003
:1059F000500080F3118804D0BFF34F8FBFF36F8F37
:105A0000FEE7BFF34F8FBFF36F8FFEE77C000020F0
:105A10002DE9F0410546002700F068FA324E306863
:105A200008B9FFF709FF706905424ED1C5B30835C3
:105A300068070ED005F00700C0F1080005446807AC
:105A400007D0502080F31188BFF34F8FBFF36F8FC3
:105A5000FEE72DB37068854237D8234818300146D9
:105A60000C6801E020460C466168A94202D2216818
:105A70000029F7D131688C4227D00768216801607E
:105A800060680837411B10290FD96019420708D0F8
:105A9000502080F31188BFF34F8FBFF36F8FFEE765
:105AA00013E041606560FFF769FF61687068401A44
:105AB0007060B268904200D2B0607069014300200B
:105AC000C4E90001F068401CF06000F0A1FB780719
:105AD00007D0502080F31188BFF34F8FBFF36F8F33
