:020000040800F2
:100000001863002025030008872E0008F523000848
:10001000852E00089B050008E1350008000000005F
:100020000000000000000000000000006502000861
:100030007D06000800000000C10200080D2F000826
:100040003F0300083F0300083F0300083F03000888
:100050003F0300083F0300083F0300083F03000878
:100060003F0300083F0300083F0300083F03000868
:100070003F0300083F0300083F0300083F03000858
:100080003F0300083F0300083F030008A9050008DC
:100090009D0500083F0300083F0300083F030008D8
:1000A0003F0300083F0300083F0300083F03000828
:1000B0003F0300083F0300083F0300083F03000818
:1000C0003F0300083F0300083F0300083F03000808
:1000D0003F0300083F0300083F0300083F030008F8
:1000E0003F0300083F0300083F0300083F030008E8
:1000F0003F0300083F0300083F0300083F030008D8
:100100003F0300083F0300083F0300083F030008C7
:100110003F0300083F0300083F0300083F030008B7
:100120003F030008CD0500083F0300083F03000817
:100130003F0300080000000000000000C1050008A7
:10014000B50500083F0300083F0300083F0300080F
:100150003F0300083F0300083F030008D5350008AF
:100160003F0300083F0300083F0300083F03000867
:100170003F0300083F0300083F03000800000000A1
:10018000000000003F030008000000000000000025
:100190003F03000800000000000000003F030008CB
:1001A0000000000000000000000000003F03000805
:1001B0003F0300083F0300083F0300083F03000817
:1001C0003F03000800F002F800F03CF80AA090E8B5
:1001D000000C82448344AAF10107DA4501D100F002
:1001E00031F8AFF2090EBAE80F0013F0010F18BF93
:1001F000FB1A43F00103184790630000B06300004E
:10020000103A24BF78C878C1FAD8520724BF30C842
:1002100030C144BF04680C60704700000023002414
:1002200000250026103A28BF78C1FBD8520728BF06
:1002300030C148BF0B6070471FB506F098F81FBD6E
:1002400010B510BD00F074F91146FFF7F5FF04F08A
:100250008FFA00F092F903B4FFF7F2FF03BC00F04D
:1002600095F900002C4B19680868B0E8F04F80F34E
:100270000988BFF36F8F4FF0000080F3118870473B
:100280000000000008480068006880F308884FF00C
:10029000000080F3148862B661B6BFF34F8FBFF3DE
:1002A0006F8F00DF00BF00BF08ED00E0DFF80C003B
:1002B000016841F470010160704700BF88ED00E003
:1002C000EFF30980BFF36F8F134B1A681EF0100F06
:1002D00008BF20ED108A20E9F04F106009B44FF0FC
:1002E000500080F31188BFF34F8FBFF36F8F05F07D
:1002F00089F84FF0000080F3118809BC196808687C
:10030000B0E8F04F1EF0100F08BFB0EC108A80F379
:100310000988BFF36F8F704720000020EFF305803E
:10032000704700000948804709480047FEE7FEE79C
:10033000FEE7FEE7FEE7FEE7FEE7FEE7FEE7FEE795
:1003400004480549054A064B70470000B92F0008CC
:10035000C5010008185D002018630020185F002008
:10036000185F002053EA020C00F069802DE9F04B81
:100370004FF00006002B1FBFB3FA83F503FA05F414
:1003800024FA05F65E4012BF1643B2FA82F502FA6D
:1003900005F4C5F120051EBF22FA05FC44EA0C0451
:1003A000203556EA044C4FEA144418BF641C4FF041
:1003B00000084FF00009904271EB030C39D300297B
:1003C00019BFB1FA81F701FA07F6B0FA80F700FA1F
:1003D00007F6C7F120071EBF20FA07FC46EA0C0605
:1003E0002037B6FBF4FCA7EB0507103F07F01F0B07
:1003F000CBF120060CFA0BFB2CFA06F644BFB346F1
:100400000026202FA4BF5E464FF0000B5BEA060CCF
:1004100008BF4FF0010B19EB0B09ABFB027C48EB5B
:100420000608C01B06FB02CC0BFB03CC71EB0C01D6
:10043000C1E70B46024641464846BDE8F08B13B57E
:100440004FF000004FF00001AFF30080BDE81C400A
:10045000704710B5203AC0F00B80B1E81850203A30
:10046000A0E81850B1E81850A0E81850BFF4F5AF54
:100470005FEA027C24BFB1E81850A0E8185044BFDE
:1004800018C918C0BDE810405FEA827C24BF51F84B
:10049000043B40F8043B08BF7047D20728BF31F83F
:1004A000023B48BF11F8012B28BF20F8023B48BF90
:1004B00000F8012B70474FF0000200B51346944638
:1004C0009646203922BFA0E80C50A0E80C50B1F1AC
:1004D0002001BFF4F7AF090728BFA0E80C5048BFC0
:1004E0000CC05DF804EB890028BF40F8042B08BF5E
:1004F000704748BF20F8022B11F0804F18BF00F85A
:10050000012B704770477047704710B500F008F82E
:10051000006810BD10B5044600F002F8046010BD7C
:1005200000487047B45C002000487047B45C00206D
:100530007546FFF7F9FFAE4605006946534620F0C1
:100540000700854618B020B5FFF7FAFEBDE8204049
:100550004FF000064FF000074FF000084FF0000B7F
:1005600021F00701AC46ACE8C009ACE8C009ACE832
:10057000C009ACE8C0098D46704710B50446AFF31A
:1005800000802046BDE81040FFF765BE01491820F5
:10059000ABBEFEE7260002007047FEE7014800F010
:1005A000E2B90000E8020020014800F0DCB90000D8
:1005B000E8020020014800F0D6B900001003002036
:1005C000014800F0D0B9000010030020014800F0FD
:1005D000CFBD0000C403002001681823CAB2103A3E
:1005E000B2FBF3F2054B6FF30901032A9B5CC36571
:1005F00000D9091D8165084670470000D8630008CE
:1006000010B5014600208B698A6A4FF0C07453B15F
:10061000B3F5005F15D072B1012A0CD0022A0AD0BE
:10062000032A09D104E01AB1012A06D0022A03D113
:10063000C96AC90100D5012010BDC96AA142FAD01A
:1006400010BD002AF7D0012AF2D0022AF3D0032AE3
:10065000F3D010BD30B50468256825F480252560E9
:10066000046863608368402B036803D09960006866
:10067000C26030BD9A600068C16030BD704772B61C
:10068000FEE790F82020012A07D0022A05D0416A0F
:1006900041F48021416201207047006842690A43A9
:1006A000426100207047F0B590F820500468A468BB
:1006B000012D05D0022D03D0416A41F4802153E081
:1006C00014F0406F01D1E5004BD5C4F30164022C56
:1006D00003D9416A41F4000146E00125A5401D60AF
:1006E0008D684FF4C0739DB1CE6835434E6845EABE
:1006F000C605066803EB0417F5514FF4C275076889
:1007000005EB04150E697E51097D012905D009E02C
:100710000E88CD6845EA4655EBE701684E5946F428
:1007200080764E511179D2F805504FF4C67641EAE1
:100730000525016806EB04168D511178D2F80120C9
:100740004FF4C47541EA0221026805EB04155151CA
:10075000006803EB0411425842F0010242500020AD
:10076000F0BD416A41F4001141620120F0BD00007A
:1007700010B590F82020012A07D0022A05D0416A3E
:1007800041F480214162012010BD3B48D0F8002295
:1007900042F00102C0F80022D0F8002222F47C527C
:1007A000C0F80022D0F800224B6A42EA0322C0F8C7
:1007B00000220A7D02F01F0301229A40D0F81C3269
:1007C0009343C0F81C32CB69B3B9D0F80C329343D1
:1007D000C0F80C328C894B6864F31F434C6900EB02
:1007E000C404C4F840320C890B6864F31F434C699D
:1007F00000EBC404C4F84432CB69012B16D1D0F805
:100800000C321343C0F80C320C884B6864F31F435E
:100810004C6900EBC404C4F840320C89CB6864F323
:100820001F434C6900EBC404C4F844328B69002BAD
:10083000D0F804320ED01343C0F804320B69002BF9
:10084000D0F8143208D01343C0F81432096A0129D1
:1008500004D008E09343EFE79343F5E7D0F81C1288
:100860001143C0F81C12D0F8001221F00101C0F8A9
:100870000012002010BD000000640040704730B539
:1008800090F82040012C05D0022C03D0416A41F49D
:1008900080215DE00468002955D02469A40754D064
:1008A0004FF4D874056804EB01142D5915F00405B4
:1008B000956005682D594ED0ED08556005682C5996
:1008C00004F00204D4604FF4DA74056804EB0114F8
:1008D0002D5905F00F05156105682D59C5F307253C
:1008E000956105682C59240C54614FF4DC7204683E
:1008F00002EB0112A4581C700468A458240A5C700E
:100900000468A458240C9C700468A258120EDA7073
:100910004FF4DE72046802EB0112A4581C710468E3
:10092000A458240A5C710468A458240C9C710468BF
:10093000A258120EDA71006881B1016941F02001FC
:100940000161002030BDE468A8E7416A41F400116C
:100950004162012030BD6D0D1560AFE7C16841F007
:100960002001C160EDE72DE9F05F05460068002435
:100970004669D0F804908768D0F80CB0D0F810A081
:10098000D0F81880F10748D0F90714D00121816010
:10099000B80703D5284600F08AFB0CE0780702D59B
:1009A0004FF4006407E0380702D54FF4805402E0AA
:1009B000284600F07BFBF80516D529684FF48070B7
:1009C0008860B80503D5284600F073FB0CE0780575
:1009D00002D544F4005407E0380502D544F48044BD
:1009E00002E0284600F064FBF80316D529684FF4AE
:1009F00080308860B80303D5284600F05CFB0CE02B
:100A0000780302D544F4004407E0380302D544F4E7
:100A1000803402E0284600F04DFB300707D55FEA3E
:100A2000CB6004D52968102044F40074C8607007B6
:100A30004FF0080707D55FEA0B7004D52868C76038
:100A4000284600F0ADF9B00706D52868C0688007D1
:100A500002D0284600F0A6F9700607D55FEACA6002
:100A600004D52968102044F480640861B00607D5D5
:100A70005FEA0A7004D528680761284600F0E6FAA4
:100A8000F00606D528680069800702D0284600F0E5
:100A9000DEFAB00308D55FEAC96005D529681020E1
:100AA0004860284600F0D4FAF00307D55FEA0970E1
:100AB00004D528684760284600F0FEFA300446D581
:100AC0005FEA497040D5F00504D55FEAC87001D0EF
:100AD00044F00104B00504D55FEA887001D544F004
:100AE0000204700504D55FEA487001D544F004049F
:100AF000300529D518F0700F26D008F07000402876
:100B000015D006DC102809D020280AD0302816D1AC
:100B10000AE050280ED0602811D10EE044F00804FD
:100B20000DE044F010040AE044F0200407E044F033
:100B3000400404E044F0800401E044F48074286838
:100B4000816921F070018161296804204860002CCE
:100B500005D0686A204368622846FFF78FFEBDE82B
:100B6000F09F70B5040003D094F8200010B104E0A9
:100B7000012070BD204600F081F82068016841F036
:100B80000101016000F06CFD0546052604E000F05F
:100B900067FD401B0A2811D820684068C007F6D0BE
:100BA0002068016821F00201016000F059FD05464E
:100BB0000BE000F055FD401B0A2806D9606A40F49E
:100BC0000030606284F82060D2E7206840688007C7
:100BD000EFD4207E0128206801683DD021F08001FB
:100BE0000160607E01282068016838D021F0400152
:100BF0000160A07E01282068016833D021F0200127
:100C00000160E07E0128206801682ED041F01001CB
:100C10000160207F01282068016829D021F00801A7
:100C20000160607F01282068016824D021F0040160
:100C30000160D4E902010843D4E9041211430843D6
:100C40006168491E08432168C86100206062012074
:100C500084F82000002070BD41F08001C0E741F021
:100C60004001C5E741F02001CAE721F01001CFE7BC
:100C700041F00801D4E741F00401D9E72DE9F04340
:100C800087B0044614216846FFF715FC404B4148E5
:100C9000DFF8F8801968D4F800C03E4A0225032620
:100CA0000927DFF8F49010300024491CC4452CD1EA
:100CB0001960012907D1016841F0007101600068E5
:100CC00000F000700590106840F00200106010689D
:100CD00002AB00F0020005904FF44070CDE9000532
:100CE00083E8D0006946484600F0C6FB0022052193
:100CF000132000F027FD132000F016FD002205212F
:100D0000142000F01FFD14203BE0DFF89080C44564
:100D100039D1D0F800C04CF0806CC0F800C0D0F8D9
:100D200000C001290CF0806CCDF814C0196007D107
:100D3000016841F000710160006800F000700590EA
:100D4000106840F002001060106802AB00F0020072
:100D500005904FF44050CDE9000583E8D000694686
:100D6000484600F089FB002205213F2000F0EAFC04
:100D70003F2000F0D9FC00220521402000F0E2FCD9
:100D8000402000F0D1FC07B0BDE8F08300640040D3
:100D90000C0000203038024000040240006800408F
:100DA0007047000070B506462DED028B0068A04923
:100DB0009FEDA08ADFEDA08AA04D88427ED1A04C95
:100DC000A04904F1680394F8680003F1080200F0F8
:100DD0000300487000213046FFF751FD00286DD117
:100DE00094F8680002283DD1B4F86900F2EE090ACF
:100DF00040BA606094F86B10BAEE090A0A0194F8E0
:100E00006C1042EA1112626194F86D2001F00F013A
:100E100042EA01216162102104F0B4F984ED0D0A67
:100E20000C21F0EE480AB0EE680A606904F0AAF9F5
:100E300084ED110A0C21F3EE020ABBEE020A606A8D
:100E400004F0A0F984ED150A94F86800A5F878007C
:100E5000D4ED0D0AC5ED1F0AD4ED110AC5ED210A26
:100E600085ED200A94F8680013283FD1B4F8690092
:100E7000F2EE090A40BAA06094F86B10BAEE090AC3
:100E80000A0194F86C1042EA1112A26194F86D20E4
:100E900001F00F0142EA0121A162102104F072F970
:100EA00084ED0E0A0C21F0EE480AB0EE680AA06943
:100EB00004F068F984ED120A0C2100E05CE0F3EE26
:100EC000020ABBEE020AA06A04F05CF984ED160A7D
:100ED00094F86800A5F8C800D4ED0E0AC5ED330AF1
:100EE000D4ED120AC5ED350A85ED340A94F8680090
:100EF00014283DD1B4F86900F2EE090A40BAE06066
:100F000094F86B10BAEE090A0A0194F86C1042EAE0
:100F10001112E26194F86D2001F00F0142EA012103
:100F2000E162102104F02EF984ED0F0A0C21F0EE9D
:100F3000480AB0EE680AE06904F024F984ED130A67
:100F40000C21F3EE020ABBEE020AE06A04F01AF981
:100F500084ED170A94F86800A5F81801D4ED0F0A7B
:100F6000C5ED470AD4ED130AC5ED490A85ED480AD7
:100F700002213046FFF785FB33493068884254D15F
:100F80002F4B0021F43303F108023046FFF777FCC2
:100F900000284AD12A4A8C3292F8680001283CD1B4
:100FA000B2F86900F2EE090A40BA106092F86B10CC
:100FB000BAEE090A0B0192F86C1043EA111313619F
:100FC00092F86D3001F00F0143EA01211162102106
:100FD00004F0D8F882ED0C0A0C21F0EE480AB0EECD
:100FE000680A106904F0CEF882ED100A0C21F3EEC5
:100FF000020ABBEE020A106A04F0C4F882ED140A79
:1010000092F868002885D2ED0C0AC5ED0B0AD2EDE6
:10101000100AC5ED0D0A85ED0C0A3046BDEC028BB9
:101020000221BDE87040FFF72CBBBDEC028B70BD08
:101030000064004000003442000034C2144100202B
:10104000CC4200208A0000200068004070477047B2
:101050007047000070B5044690F82000012804D0C5
:10106000606A40F40020606218E0022084F82000EA
:101070002068016821F00101016000F0F1FA0546E5
:101080000EE000BF00F0ECFA401B0A2808D9606AA5
:1010900040F400306062052084F82000012070BD1B
:1010A00020684068C007EDD1606270BD704770472E
:1010B000704770477047704770472DE9F04104460C
:1010C000876D00F0CDFA064694F835000025022819
:1010D00006D08020606584F834500120BDE8F0819E
:1010E0002068016821F0160101602068416921F043
:1010F00080014161206C08B9A06C20B120680168B2
:1011000021F0080101602068016821F001010160FF
:101110000CE000F0A5FA801B052807D920206065A7
:10112000032084F8350084F83450D7E7206800683D
:10113000C007EED194F85C103F208840B8600120D1
:1011400084F8350084F834500020C7E790F8351053
:10115000022903D08021416501207047052180F8D4
:1011600035100068016821F001010160002070471E
:101170002DE9F84304464FF00009CDF8009063488C
:101180004FF41651A56D0068B0FBF1F72E6894F886
:101190005C10082000FA01F131420FD021680A6882
:1011A00052070BD50A6822F004020A6094F85C101A
:1011B0008840A860606D40F00100606594F85C10A4
:1011C0004FF0010808FA01F0304208D0216849695F
:1011D000090604D5A860606D40F00200606594F8CF
:1011E0005C1004208840304208D0216809688907D3
:1011F00004D5A860606D40F00400606594F85C1050
:1012000010208840304218D021680968090714D599
:10121000A86020680168490304D50068000308D568
:10122000A16C07E00168C90503D4016821F0080139
:101230000160216C09B12046884794F85C10202099
:101240008840304231D021680968C9062DD5A86090
:1012500094F8350005282068016806D0490347D571
:10126000006800031DD4616C1CE021F016010160D0
:101270002068416921F080014161206C08B9A06CAF
:1012800020B12068016821F00801016094F85C1029
:101290003F208840A86084F8358084F83490216D20
:1012A0001FE0E16B09B120468847606D00282BD014
:1012B000606DC00714D0052084F8350020680168EF
:1012C00021F0010101600098401C0090B84203D851
:1012D00020680068C007F6D184F8358084F834901F
:1012E000E16C002910D001B02046BDE8F04308476A
:1012F0000168C905D5D4016821F01001016084F8A6
:10130000358084F83490CCE7BDE8F8831C000020D9
:101310002DE9F041044600F0A3F906465CB1022035
:1013200084F83500002584F834502068016821F0E5
:10133000010101600DE00120BDE8F08100F090F9AD
:10134000801B052805D920206065032084F835001E
:10135000F2E720680068C007F0D1226811682048D1
:101360000140D4E901031843D4E903363343184359
:1013700063691843A3691843E3691843236A184350
:101380000843616A042903D1D4E90B1319430843C4
:10139000106020684069666A20F0070130460E43FD
:1013A000012704280CD1A06A0643E06A40B1204618
:1013B000FFF726F920B14020606584F83570BAE760
:1013C000206846612046FFF707F994F85C203F212A
:1013D00091408160656584F835700020ACE70000BD
:1013E0003F8010F02DE9F0410446866D90F83400FE
:1013F000002501280DD0012084F8340094F83570C0
:101400000020012F07D084F8340002252846BDE8CB
:10141000F0810220FBE7022784F8357060652046E2
:10142000FFF718F994F85C103F208840B0602068FE
:10143000016841F016010160206C20B1206801684C
:1014400041F0080101602068016841F0010101607C
:10145000DCE7000070B5044600F002F90546601CA8
:1014600002D004480078044400F0FAF8401BA0427F
:10147000FAD370BD100000202DE9F84FDFF8ACA1C1
:101480000022012403254FF00F090AF1040BAAF1F1
:10149000040E00BF0B6804FA02F63340B3426ED16B
:1014A0000F7907F00307012F01D0022F16D18768AB
:1014B0004FEA420805FA08FC27EA0C07D1F80CC0ED
:1014C0000CFA08FC4CEA070CC0F808C04768B743A0
:1014D0000E79C6F3001696403E4346600E79F643F9
:1014E000B6070AD0C6684FEA420C05FA0CF7BE43AD
:1014F0008F6807FA0CF73743C7600E7906F00306CA
:10150000022E10D1D60800EB8608D8F820605707C5
:101510004FEAD76C09FA0CF7BE430F6907FA0CF7CC
:101520003743C8F8207006684FEA420C05FA0CF7FA
:10153000BE430F7907F0030707FA0CF7374307603C
:101540004E6816F4403F6BD0394E376847F48047F9
:101550003760366822F0030706F480460096354E61
:1015600007EB060CDCF8086897074FEA177809FACA
:1015700008F7BE43304FB84202D100271FE04FE0CA
:101580002E4FB84201D1012719E02D4FB84201D1A9
:10159000022714E02B4FB84201D103270FE02A4F56
:1015A000B84201D104270AE0284FB84201D10527EB
:1015B00005E0274FB84201D1062700E0072707FAC8
:1015C00008F73743CCF80878DAF800605746D1F8C6
:1015D00004C09E435FEACC2C00D51E433E60DBF87E
:1015E00000605F46D1F804C09E435FEA8C2C00D5B2
:1015F0001E433E60DEF800607746D1F804C09E438B
:101600005FEA8C3C00D51E433E60084F083F3E68B1
:10161000D1F804C09E435FEACC3C00D51E433E6037
:10162000521C102AFFF436AFBDE8F88F083C014089
:1016300044380240003001400000024000040240F3
:1016400000080240000C024000100240001402405A
:10165000001802400AB1816170470904FBE70000ED
:10166000014880687047000010000020024881682F
:101670000278114481607047100000200B4810B5BB
:10168000016841F400710160016841F4806101600A
:10169000016841F480710160032000F073F80F20AD
:1016A00000F006F800F024F8002010BD003C0240D5
:1016B00070B50D4D04464FF47A712878B1FBF0F007
:1016C0000A490968B1FBF0F000F040FB48B9102C62
:1016D00007D200222146501E00F034F800206C6032
:1016E00070BD012070BD0000100000201C00002013
:1016F0000C4882B0016841F480410160006800F448
:10170000804000900748001F016841F0805101604F
:101710000068002200F0805000900F21901E02B05F
:1017200000F010B844380240002809DB00F01F0226
:10173000012191404009800000F1E020C0F8001133
:1017400070470000F0B40E4B1B680C46C3F3022335
:10175000C3F10705042D00D90425191D072901D25D
:10176000002300E0DB1E012606FA05F1491E214098
:1017700099409E40761E16403143F0BC01F05CBF9C
:101780000CED00E0064900F0070208684FF6FF0381
:10179000184040EA0220034A1043086070470000E6
:1017A0000CED00E00000FA052DE9F0470E460500BB
:1017B00065D0DFF81481D8F80000F7B200F00F0010
:1017C000B04207D288F80070D8F8000000F00F008F
:1017D000B04254D128683D4C810712D5400703D54B
:1017E000206840F4E05020602878000703D5206886
:1017F00040F4604020602068A96820F0F0000843B1
:1018000020602878C0072DD0304968680839012841
:1018100012D0022813D0032811D0096889070029A3
:101820002DDA216821F0030101432160FFF718FF41
:10183000814641F2883A0EE009688903EFE70968BA
:101840008901ECE7FFF70CFFA0EB0901514502D934
:101850000320BDE8F0872068696800F00C00B0EB59
:10186000810FEFD1D8F80010404601F00F01B142CE
:1018700007D90770006800F00F00B04201D00120C6
:10188000E7E72878400705D52068E96820F4E050AC
:10189000084320602878000706D52068296920F4CD
:1018A000604040EAC100206000F038F82168084A32
:1018B000C1F30311515CC84006490860064800683E
:1018C000FFF7F6FE0020C4E7003C02400838024063
:1018D000E06300081C0000201400002004480549B3
:1018E00000680968044AC1F38221515CC84070470E
:1018F0001C00002008380240F06300080448054935
:1019000000680968044AC1F34231515CC84070471D
:101910001C00002008380240F0630008224810B57F
:10192000006810F00C02214815D02149042A11D07A
:101930001D4C241F082A0FD00C2A0CD122682368C2
:1019400002F03F025B0221D52068C0F38810A0FBA3
:10195000010120E0084610BD2268236802F03F0222
:101960005B0205D52068C0F38810A0FB010104E0EC
:101970002168C1F38811A1FB00010023FEF7F2FCEE
:101980002168C1F30141491C49000AE02168C1F303
:101990008811A1FB00010023FEF7E4FC2168C1F3DC
:1019A0000271B0FBF1F010BD083802400024F400D1
:1019B000001BB7002DE9F84F04007DD0DFF878B3A5
:1019C0002078ABF10407C007A7F1040550D0DBF87D
:1019D00000105846C1F3810101290FD00168C1F3FD
:1019E0008101022902D13968490207D40068C0F395
:1019F0008100032809D13868400206D52868800391
:101A000036D560680028D8D032E06068B0F5803FF5
:101A100010D0B0F5A02F286810D020F480302860B6
:101A2000286820F4802028606068A0B1FFF718FEC5
:101A300006460CE0286840F48030F4E740F480204B
:101A40002860F7E7FFF70CFE801B642876D828682B
:101A50008003F7D50CE0FFF703FE064605E000BF64
:101A6000FFF7FEFD801B6428F0D828688003F7D4B8
:101A70002078DFF8C89280074FF0000A44D5DBF8E1
:101A80000010584611F00C0F0FD00168C1F381010E
:101A9000022902D13968490207D50068C0F38100E4
:101AA00003280AD13868400207D42868800715D572
:101AB000E068012800D111E03AE1E068B0B101200E
:101AC000C9F80000FFF7CCFD064604E0FFF7C8FDAB
:101AD000801B0228BAD828688007F7D528682169B2
:101AE00020F0F80040EAC10028600DE0C9F800A02D
:101AF000FFF7B6FD064604E0FFF7B2FD801B0228A3
:101B00001CD828688007F7D42078000727D5DFF88D
:101B100028828B48616908F16C0881B1012101605C
:101B2000FFF79EFD064604E0FFF79AFD801B0228A2
:101B300004D8D8F800008007F6D510E089E0C0F896
:101B400000A0FFF78DFD064605E000BFFFF788FD0A
:101B5000801B02287DD8D8F800008007F6D42078B2
:101B6000400769D574484FF0000838300068C0005D
:101B70000BD471483830016841F080510160006831
:101B80004FF0010800F0805000906E4E3068C005A4
:101B900011D4306840F480703060FFF761FD009030
:101BA00006E000BFFFF75CFD0099401A022850D8FC
:101BB0003068C005F6D5604EA068683601280FD0A1
:101BC0000528306810D020F001003060306820F027
:101BD00004003060A068B8B1FFF742FD00900FE04C
:101BE000306840F00100F4E740F004003060F7E7AF
:101BF000FFF736FD0099411A41F28830814264D8DE
:101C000030688007F4D50EE0FFF72AFD009007E06A
:101C1000FFF726FD0099411A41F28830814254D8DD
:101C200030688007F4D4B8F1000F05D0424838304E
:101C3000016821F080510160A069A8B3DBF80010B1
:101C4000C1F38101022947D00228C9F860A005D05C
:101C500000E03AE0FFF704FD044639E0FFF700FD3D
:101C6000064604E0FFF7FCFC801B02282DD82868FC
:101C70008001F7D4F4E907010843E168324A4908D2
:101C800002EB0141A26841EA82110843217C40EA4B
:101C90000160217D40EA017038600120C9F86000D0
:101CA000FFF7DEFC044606E044E000BFFFF7D8FC87
:101CB000001B022809D828688001F7D53AE000BF48
:101CC000FFF7CEFC001B022802D90320BDE8F88FE5
:101CD00028688001F4D42DE00128F7D03868E26943
:101CE00000F48001914223D1226A00F03F01914229
:101CF0001ED147F6C071626A0140B1EB821F17D155
:101D0000A26A4FF0FF3300F4403103EB5202B1EB13
:101D1000024F0DD194F82C2000F07061B1EB026FEE
:101D200006D194F8301000F0E040B0EB017F01D014
:101D30000120CBE70020C9E70838024000004742F5
:101D4000800E4742007000400000FFFF10B5401EAB
:101D5000B0F1807F01D3012010BD4FF0E02460611D
:101D60000F21601701F068FC0020A06107202061AE
:101D7000002010BD70B590F83C20012A32D001241B
:101D800080F83C40022280F83D2003685A689D6834
:101D900022F070060A6832435A60134B02689A4276
:101DA00014D0B2F1804F11D0104B9A420ED0104B8C
:101DB0009A420BD00F4B9A4208D00F4B9A4205D053
:101DC0000E4B9A4202D00E4B9A4204D1496825F03C
:101DD00080031943916080F83D40002180F83C1059
:101DE000084670BD022070BD0000014000040040A4
:101DF00000080040000C0040000401400040014089
:101E00000018004010B586B0044614216846FEF75D
:101E100052FB0E492068884215D10D480021026806
:101E200042F004020260006800F0040005904FF4E4
:101E3000407000900220CDE90101CDE90310694610
:101E40000448FFF719FB06B010BD00000004004075
:101E5000303802400008024070B5044690F83C005B
:101E600000260D4601280FD0012084F83C006AB1FD
:101E7000042A1DD0082A2FD00C2A3FD0012600208A
:101E800084F83C00304670BD022070BD206801F02F
:101E9000FFF82068816941F008018161206881694B
:101EA00021F004018161206881692A69114311E0F0
:101EB000206801F01DF92068816941F400618161A9
:101EC0002068816921F480618161206881692A69C3
:101ED00041EA02218161D2E7206801F03FF92068E0
:101EE000C16941F00801C1612068C16921F00401A4
:101EF000C1612068C1692A69114311E0206801F0BD
:101F000061F92068C16941F40061C1612068C1695B
:101F100021F48061C1612068C1692A6941EA022116
:101F2000C161ACE710B5040003D094F83D0010B1D6
:101F300007E0012010BD002084F83C00204600F09E
:101F40001FF8022084F83D00211D206801F03CF8B4
:101F5000012084F8460084F83E0084F83F0084F8AD
:101F6000400084F8410084F8420084F8430084F87B
:101F7000440084F8450084F83D00002010BD0000B6
:101F800008B500680649884208D10648016841F052
:101F900002010160006800F00200009008BD00002E
:101FA000000400404038024070477047F8B50168AF
:101FB00004460868CA684B6910F00F0F4FF000051F
:101FC00059D003F0010602F49077374365D0C1077A
:101FD00005D0D10503D5216C41F0010121644107F1
:101FE00005D5D90703D0216C41F002012164810796
:101FF00005D5D90703D0216C41F004012164010704
:1020000007D502F02001314303D0216C41F00801D3
:102010002164216C00293AD0800604D5900602D5AF
:10202000204601F0A7F920684069216CC0F38010B8
:10203000090700D460B3204601F067F920684069C1
:10204000400621D52068143050E8001F21F04001DF
:1020500040E80012002AF5D1A06BA8B16C490165D7
:10206000A06BFFF773F8002811D0A06B016D01B0D1
:10207000BDE8F040084783060FD593060DD52046EE
:10208000BDE8F84001F076B92046FFF78EFFF8BDB5
:102090002046FFF78AFF2564F8BD266B2023012E1A
:1020A00079D1C60677D5D60675D5086848680090F8
:1020B0004869400640D5A16B086840680004000CE0
:1020C000EAD0A28D8242E7D9E085C869B0F5807F69
:1020D0002DD020680C3050E8001F21F4807140E8BA
:1020E0000012002AF5D12068143050E8001F21F0BA
:1020F000010140E80012002AF5D12068143050E8B0
:10210000001F21F0400140E80012002AF5D184F8B8
:102110003E30256320680C3050E8001F21F010018C
:1021200040E80012002AF5D1A06BFEF7C6FFA08D93
:10213000E18D401A81B229E0A08DE18D401A81B273
:10214000E08D0028A8D00029A6D020680C3050E8E7
:10215000002F22F4907240E80026002EF5D120686E
:10216000143050E8002F22F0010240E80026002E33
:10217000F5D184F83E30256320680C3050E8002FFC
:1021800022F0100240E80023002BF5D12046FFF793
:102190000BFFF8BDFFE705062BD5150629D594F8EA
:1021A0003D002128F5D1A068B0F5805F01D12069FC
:1021B000B0B1206A411C2162216800784860E08C3F
:1021C000401E0004000CE084E3D12068C16821F0C7
:1021D0008001C1602068C16841F04001C160D8E75A
:1021E000206A0088C0F308004860206A801C2062D2
:1021F000E5E74006CDD55006CBD5CA68204622F08B
:102200004002CA6084F83D3000F0F3F8C1E70000F6
:102210001532000870B5040004D094F83D00002584
:1022200010B106E0012070BD84F83C50204600F05B
:1022300023F8242084F83D002068C16821F400516F
:10224000C160204601F0F6F82068016921F4904150
:1022500001612068416921F02A0141612068C1685B
:1022600041F40051C1602564202084F83D0084F8C9
:102270003E00002070BD000070B586B006461421F7
:102280006846FEF718F92349306888423FD1224852
:102290000025016841F020010160006800F0200085
:1022A00005901D481438016841F004010160006880
:1022B000694600F004000590C02000900220CDE99E
:1022C000010503200390082004901448FFF7D4F878
:1022D000144C134820608005C4E901054FF4806068
:1022E000C4E903506561A561E56125622046656228
:1022F000FFF70EF808B1FEF7C2F9B463002205211A
:102300004720A663FFF71EFA4720FFF70DFA06B035
:1023100070BD000000140140443802400008024033
:1023200028640240C403002090F83E30202B0ED1D8
:1023300059B152B190F83C30012B08D0012380F8FC
:102340003C300023036301F0FBB8012070470220FA
:10235000704700000068224988423FD1214B224843
:10236000597851B101290DD0022937D11A7810447A
:1023700010F8010C5A282BD02CE00178A5292DD17A
:10238000012159701849B0F8012017310A80B0F8BE
:1023900003204A80B0F805208A80B0F80720CA8060
:1023A000B0F809200A81B0F80B204A81B0F80D205E
:1023B0008A81B0F80F20CA81B0F811204A82B0F8A3
:1023C00013208A82B0F815200A8202215970CDE7C5
:1023D0000020587004490548FFF7A6BF7047000069
:1023E0000014014088000020544200208003002097
:1023F00070477047FEE700002DE9F34FFF492DEDD0
:10240000108BB5B00A891FFA82FB8A891FFA82F8FD
:102410008A8A92B20D92898C90ED000A1FFA81F996
:102420008DED110A90ED010A8DED0B0AD0ED038AB6
:1024300090ED078AD0ED02AAD0ED04FA90ED05FAEE
:1024400090ED06AAD0ED08EA90ED09EAD0ED0A9ADF
:1024500090ED0B9A00200190029019901A901B9019
:10246000039004900590069007901890089028908B
:1024700029902A902790149015901690F0EE680AF3
:10248000B0EE480A179002F0A7F88DED010AB0EE01
:1024900040BAF1EE680AB1EE480A02F09DF88DEDFF
:1024A000020AF0EE400A8DED03BACDED040A0020D9
:1024B000B7EE000A14A901EB8002401C80B282ED45
:1024C000000A0228F6D39DED140A00278DED160AA6
:1024D0009DED150A48468DED170A03F003FC4FEAFF
:1024E0004B06229106FB08F60BFB0BF508FB08F4E4
:1024F000139001A800EB870ADAF8000003F0C6FE8B
:1025000041EC100B01F0E4FBB0EE40BAF0EE60BA23
:1025100018EE100A03F0BAFE53EC1B2B03F0F6FB87
:1025200041EC1D0BDAF8000003F0B0FE41EC100B9B
:1025300001F0CEFBB0EE40BAF0EE60BA1AEE100A2F
:1025400003F0A4FE53EC1B2B03F0E0FB41EC1C0B4F
:10255000DAF8000003F09AFE41EC100B01F054FB96
:10256000B0EE40BAF0EE60BA1AEE900A03F08EFEBA
:1025700053EC1B2B03F0CAFB53EC1C2B03F06CF940
:1025800041EC100B229953EC102B139803F0BEFB77
:1025900041EC1C0BDAF8000003F078FE41EC100B64
:1025A00001F032FBB0EE40BAF0EE60BA18EE900ADD
:1025B00003F06CFE53EC1B2B03F0A8FB53EC1C2B1D
:1025C00003F07AFD53EC1D2B03F046F903F012F9EA
:1025D00000EE100A0D9801EE109A00EE900A20EE1F
:1025E00000BAB8EE411AF8EE600A00EE104A79EE31
:1025F000600AB8EEC00A41EE690A00EEA0BA7BEEAE
:10260000400A00EE105AB8EEC00A70EEC00A00EEA2
:10261000106AB8EEC01A80EE810A10EE100AB0F10E
:102620007E5F16DC00EE104AB8EEC00A7BEE400A70
:1026300000EE105AB8EEC00A70EEC00A00EE106A42
:10264000B8EEC01A80EE810A10EE100A10F1814F28
:1026500009D99FED6B0A05A800EB870080ED000A01
:1026600080ED020A4CE000EE104AB8EEC00A7BEEA4
:10267000400A00EE105AB8EEC00A70EE600A00EE92
:10268000106AB8EEC01A80EE810A10EE100A03F04C
:10269000FDFD41EC100B00F0DFFF51EC100B03F0DF
:1026A000A9F800EE104A05A901EB870AB8EEC00AA6
:1026B000CAF800007BEE400A00EE105AB8EEC00ADD
:1026C00070EE600A00EE106AB8EEC01A80EE810A61
:1026D00010EE100A03F0DAFD41EC100B00F0BCFF25
:1026E0004848B0EE40BAF0EE60BA006803F0CEFDA4
:1026F00053EC1B2B03F0E0FC03F07CF8CAF8080055
:102700007F1CBFB2022FFFF4F4AE3E480021B0EEB2
:1027100000CAD0ED000A05AA02EB81003A4F90ED05
:10272000000A10EE103ABB4202DB00EECC0A07E0D2
:1027300010EE103ADFF8D4C0634503D900EE8C0ADE
:1027400080ED000A491C89B20429E5D3002792468E
:102750000AEB8700109000682D4988427DDA03F06B
:1027600095FD41EC100B01F0B3FA51EC100B03F0A6
:1027700041F80BEE100A1098006803F087FD41EC59
:10278000100B01F041FA51EC100B03F033F80BEE93
:10279000900A01A800EB87001090006803F076FD16
:1027A00041EC100B01F094FA51EC100B03F022F8FD
:1027B0000CEE900A1098006803F068FD41EC100BD5
:1027C00001F022FA51EC100B03F014F800EE100A9D
:1027D0000D9800EE900AF8EE600A30EEC91A00EE8D
:1027E000909AF8EE600A00EEA91A00EE90BAF8EEA0
:1027F000601A00EE908AF8EE600A0BE0E4430020D5
:1028000000007F4390000020C3F54840C3F548C056
:102810000000C84150EE8B1A00EE904AF8EEE00A34
:1028200021EE212A60EEAB0A20EEAB1A00EE904AB0
:10283000F8EEE00A60EE8B0A00EE8B1A00EE905A7A
:10284000F8EEE00A31EE201A00EE906AF8EEE00AA7
:1028500000EECB1AC2EE011A00E0D5E02AEE801A93
:1028600000EE909A28EE800A0D980AEE2C1AB8EE27
:10287000602AF0EE400A42EE410A02EE108AB8EEFB
:10288000422A48EE2C0A22EE2B2A60EE822A00EE23
:10289000904AF8EEE00A60EEAB0A20EEAB2A00EEBA
:1028A000904AF8EEE00A60EE8B0A00EE8B2A00EE0A
:1028B000905AF8EEE00A32EE202A00EE906AF8EE26
:1028C000E00A00EECB2AC2EE820A71EEE01A00EEB8
:1028D000900AF8EE600A30EEC92A00EE909AF8EEFF
:1028E000600A00EEA92A00EE908AF8EE600A60EE17
:1028F000AB0A22EE203A00EE904A02EE104AF8EEC1
:10290000E00AB8EEC22A60EEAB0A22EE0B2A60EEB5
:10291000AB0A42EE0B0A02EE105AB8EEC22A70EE73
:10292000822A00EE906AF8EEE00A40EECB2A00EE32
:10293000909AF8EE600A83EE222A00EEC10A00EEB9
:1029400090BAB8EE601A00EE908A08EE2C0AF8EE03
:10295000600A00EECB1A20EE011A00EE104AB8EE23
:10296000C00A20EE2B0A60EE2B0A00EE104AB8EEE9
:10297000C00A20EE0B0A40EE0B0A00EE105AB8EE29
:10298000C00A70EE800A00EE106A4FF07E51B8EE79
:10299000C00A40EE4B0A81EE200A32EE400A10EEE9
:1029A000100A884230DC10EE100A9C4A90422BD864
:1029B00011EE900A884227DC11EE900A904223D84B
:1029C000F0EE610A01F008FE18A800EB87007F1CFA
:1029D000BFB280ED000A042FFFF4BAAEDFF840B2B8
:1029E000904ADFF84492DBED000A00200DF160010F
:1029F00001EB8003904693ED000A10EE104A9442DA
:102A000005DB00EECC0A08E01FED830ADCE710EEE0
:102A1000104A4C4503D900EE8C0A83ED000A401C95
:102A200080B20428E4D3002701AC14AD05EB87067F
:102A3000306803F02BFC41EC100B01F049F951EC2C
:102A4000100B02F0D7FE08EE900A306803F01EFC6F
:102A500041EC100B01F0D8F851EC100B02F0CAFE5B
:102A600004EB870608EE100A306803F00FFC41EC17
:102A7000100B01F02DF951EC100B02F0BBFE09EE2A
:102A8000100A306803F002FC41EC100B01F0BCF8B6
:102A900051EC100B02F0AEFE01EE100A9DED110A92
:102AA000DDED0B1A6EEE880A20EE010A21EE811A86
:102AB0004EEE680A20EE080A01EE680A2FEE881A28
:102AC00001EE090A2FEE091A11EE280A01F084FD21
:102AD00018AB03EB870027A9D0ED000A0AEB8700AB
:102AE000564630EE600AD0ED000A01EB87007F1CED
:102AF00030EE600ABFB2042F80ED000A96D3DBED02
:102B0000000A00204FEA090C01EB800797ED000A4C
:102B100010EE102A424502DB00EECC0A05E010EE72
:102B2000102A624503D900EE8C0A87ED000A401C8A
:102B300080B20428E8D33D4A002000BF04EB8007A0
:102B400003EB800C97ED000A00EB800702EB870790
:102B500087ED000A9CED000A06EB800C87ED010A68
:102B60009CED000A01EB800C87ED020A9CED000A47
:102B700005EB800C87ED030A9CED000A401C87EDF5
:102B8000040A0428DADB00204FF0404800EB8007FD
:102B900002EB870CDCF80070474537D2B7F1804F65
:102BA00034DADCF8047017F1814F2FD2B7F17E5F71
:102BB0002CDADCF80870DFF878C0674526D2DFF839
:102BC00074C0674522DC04EB800797ED000A469F3E
:102BD00087ED000A03EB800797ED000A469F87ED1B
:102BE000010A06EB800797ED000A469F87ED020A6F
:102BF00001EB800797ED000A469F87ED030A05EB7E
:102C0000800797ED000A469F87ED040A401C0428C0
:102C1000BCDB35B0BDEC108BBDE8FC8F000080BF85
:102C200090000020C3F54840C3F548C02044002070
:102C30008FC2D5BF6666663F0F4810B50D4901606B
:102C40000321416000214FF410228160C0E903128A
:102C50004FF400124261017641768176C1760177A8
:102C60004177FDF77EFF002803D0BDE81040FDF757
:102C700006BD10BD00640040E80200200F4810B5FA
:102C80000D4901600321416000214FF41022816051
:102C9000C0E903124FF40012426101764176817659
:102CA000C17601774177FDF75CFF002803D0BDE8CE
:102CB0001040FDF7E4BC10BD006800401003002088
:102CC000094808B5016841F48001016000680022EC
:102CD00000F48000009005213920FEF733FDBDE8A7
:102CE00008403920FEF720BD3038024010B596B0BC
:102CF0001C2211496846FDF7ACFB0021684601F033
:102D0000DBFE0E4C0C491C2220601C3107A8FDF78D
:102D1000A0FB002107A801F0CFFE074960601C223C
:102D200038310EA8FDF795FB00210EA801F0C4FE76
:102D3000A06016B010BD00008463000800000020F1
:102D400030B587B014216846FDF7B5FB1D48002457
:102D5000016841F004010160016801F0040105917E
:102D6000016841F080010160016801F08001059176
:102D7000016841F002010160016801F00201059162
:102D8000016841F00101016000680F4D00F0010091
:102D90000590012242F210012846FEF75BFC00225A
:102DA00044F201012846FEF755FC46F2110000905E
:102DB0000120CDE90104694628460394FEF75CFB37
:102DC00007B030BD303802400008024010B58AB06C
:102DD000002407941C2168460894FDF76CFB1A48F0
:102DE000184901605321C0E9011444F61F61C0E98C
:102DF00003148461FFF796F808B1FDF740FC0794CF
:102E000007A911480894FEF7B5FF08B1FDF737FC94
:102E10006020CDE900040294082269460A4804941F
:102E2000FFF71AF808B1FDF72AFC0C22694606489C
:102E3000FFF712F808B1FDF722FC0348FEF7E2FFA6
:102E40000AB010BD00040040380300200C4810B543
:102E50000A4901604FF416514160002181600C2243
:102E6000C160C0E904128161C161FFF7D3F9002894
:102E700003D0BDE81040FDF702BC10BD00140140B6
:102E800080030020FEE7FEE770B504461C4801F50C
:102E9000807110EE103A016000218160C16008214C
:102EA000016100F13001180A01F8603F10EE902A2C
:102EB0004870180C8870180EC8700A71100A487192
:102EC000100C8871100E0E4AC871903201231546FD
:102ED0000B492046FDF7E7FB00280FD002232A46C6
:102EE00007492046FDF7DFFB002807D02A46204689
:102EF000BDE8704004230249FDF7D5BB70BD00005A
:102F00009C420020012001F0CBFDFBE710B5FEF74D
:102F1000ADFB02F08DFB012803D0BDE8104002F0AC
:102F200019BB10BD30B593B034216846FDF7C3FA24
:102F300014210DA8FDF7BFFA1D480025016841F0D6
:102F400080510160006800F08050129019480168BB
:102F500041F4404101600068022400F440401290B6
:102F600001200090000401908001CDE90640062078
:102F70000890A820CDE909040B9468460C94FEF74C
:102F800019FD08B172B6FEE70DA90F2081E83100E6
:102F90004FF4A05010904FF48050119005210DA8CF
:102FA000FEF702FC002801D072B6FEE713B030BD78
:102FB00040380240007000400248016841F470014E
:102FC0000160704788ED00E0F0B50268254C264DA1
:102FD000264E274F274B4FF0804CA04209D060452A
:102FE00007D0A84205D0B04203D0B84201D09842E1
:102FF00004D122F0700E4A6842EA0E02A0421BD0B1
:10300000604519D0A84217D0B04215D0B84213D0AD
:10301000984211D0184DA8420ED0184DA8420BD09E
:10302000174DA84208D0174DA84205D0164DA8420A
:1030300002D0164DA84203D122F44075CA682A4333
:103040004D6922F080022A4302608A68C2620A68DF
:103050008262A04201D0984201D109690163012135
:103060004161F0BD00000140000400400008004044
:10307000000C0040000401400040014000440140B9
:103080000048014000180040001C004000200040A3
:10309000F0B5026A22F001020262036A42688469A2
:1030A000124E24F073050C682C4323F002058B6844
:1030B0002B430D4DA84201D0B04205D123F00807A3
:1030C000CB683B4323F00403A84201D0B04205D1B2
:1030D0004D6922F4407215438A692A434260846133
:1030E000496841630362F0BD0000014000040140F3
:1030F000F0B5026A22F010020262026A4368846933
:103100000D6824F4E64444EA05248D6822F0200288
:1031100042EA05120F4D104EA84201D0B04206D12E
:10312000CF6822F0800242EA071222F04002A84251
:1031300001D0B04207D14D6923F4406343EA8503CF
:103140008D6943EA85034360846149688163026253
:10315000F0BD00000000014000040140F0B5026A2B
:1031600022F480720262026A4368C46922F4007227
:1031700024F073050C68124E2C438D6842EA052238
:103180000E4DA84201D0B04206D1CF6822F40062B1
:1031900042EA072222F48062A84201D0B04207D15D
:1031A0004D6923F4405343EA05138D6943EA05133F
:1031B0004360C4614968C1630262F0BD0000014020
:1031C0000004014030B5026A22F480520262046AAF
:1031D0004268C3690D6823F4E64343EA05238D681A
:1031E00024F4005444EA0534084DA84202D0084DA6
:1031F000A84204D14D6922F4804242EA851242601D
:10320000C36149680164046230BD000000000140F0
:103210000004014010B5806B0021C185C184FEF718
:10322000C4FE10BD70B5846B2068406994F83D10F1
:10323000C0F3C0100025212904D118B1E58420462F
:1032400000F08AF82068406994F83E10C0F38010BE
:10325000222904D118B1E585204600F056F8206CEB
:1032600040F0100020642046FEF79FFE70BD10B5B0
:103270000146806B09680968C9052FD40021C18502
:1032800001680C3151E8002F22F4807241E80023DC
:10329000002BF5D10168143151E8002F22F0010212
:1032A00041E80023002BF5D10168143151E8002FCB
:1032B00022F0400241E80023002BF5D1202180F8C4
:1032C0003E10016B012909D101680C3151E8002F32
:1032D00022F0100241E80023002BF5D1016B0129F7
:1032E00002D0FFF737F810BD818DFEF75DFE10BDEF
:1032F00010B5806B016B012902D0FFF779F810BD82
:10330000818D4908FEF750FE10BD01680C3151E86F
:10331000002F22F4907241E80023002BF5D10168C0
:10332000143151E8002F22F0010241E80023002B64
:10333000F5D1016B012909D101680C3151E8002F49
:1033400022F0100241E80023002BF5D1202180F863
:103350003E1000210163704701680C3151E8002FD5
:1033600022F0C00241E80023002BF5D1202180F893
:103370003D10704708B590F83E10222901D0022078
:1033800008BD82684FF480539A4201D1016921B18E
:10339000816A9A421BD04AB10AE00268816A526887
:1033A000C2F308020A80816A891C08E0026972B1CE
:1033B0000268526802F07F020A70816A491C8162C9
:1033C000C18D491E0904090CC18503D019E00268AA
:1033D0005268F1E70168CA6822F02002CA600168F9
:1033E000CA6822F48072CA6001684A6922F0010248
:1033F0004A61202180F83E10016B012903D0FEF7BD
:10340000A9FF002008BD0021016301680C3151E8CB
:10341000002F22F0100241E80023002BF5D10168B3
:103420000A68D20602D50A6849680091818DFEF7C4
:10343000BBFDE6E770B5044600680169E26821F467
:103440004051114301612169A068E2690843616943
:10345000114308432168CA6849F20C639A43024346
:10346000CA6020684169A26921F440711143416139
:1034700031492068884202D03049884202D1FEF7A3
:103480003DFA01E0FEF72AFAE269002319216425DA
:103490003226B2F5004F626828D0A0FB0101930FDD
:1034A0009200FCF75FFF0146B0FBF5F06FF01802E9
:1034B000504301EB800006EB0010B0FBF5F000F08C
:1034C000F002B1FBF5F002EB0012B1FBF5F06FF08A
:1034D0001803584301EB800006EB0010B0FBF5F039
:1034E00000F00F0021681044886070BDA0FB01014E
:1034F00092185B41FCF736FF0146B0FBF5F0020184
:10350000B1FBF5F06FF01803584301EB800006EBB8
:10351000C000B0FBF5F000F0F80002EB4002B1FB98
:10352000F5F0584301EB800006EBC000B0FBF5F06E
:1035300000F00700D6E70000001001400014014031
:1035400038B5816282850025134604460564222031
:1035500084F83E00A26B1C48D063A26B1B48106429
:10356000A26B1B48D064A06B0A4605652168A06B5E
:10357000091DFDF737FF206801684068009084F856
:103580003C50206948B120680C3050E8001F41F4DD
:10359000807140E80012002AF5D12068143050E80C
:1035A000001F41F0010140E80012002AF5D1206817
:1035B000143050E8001F41F0400140E80012002A9A
:1035C000F5D1002038BD00006F320008F13200084C
:1035D000253200080148FEF7E9BC00008003002006
:1035E000FEE703B401984100009850EAC12018BFDB
:1035F00004204A0D18BF40F0010040F2FF72B2EB08
:10360000515F08BF40F00200012808BF052002B04A
:1036100070474100080218BF04200A0E18BF40F08E
:1036200001004FF07F4232EA010108BF40F0020082
:10363000012808BF052070470907090E002804DB90
:1036400000F1E02080F80014704700F00F0000F156
:10365000E02080F8141D704770B5C1482DED020BB5
:103660002DED0E8B82B0119D25F000449FEDBEDB49
:103670009FEDBFEB84423EDBA4F140511098A1F1D5
:103680007F6108430FD0BC48844202DC28D11098E7
:1036900030B39DED100B02B0BDEC0E8B02B0BDE857
:1036A000704000F061BF9DED100B53EC1D2B51ECF1
:1036B000100B02F02BFB9DED100B41EC180B53ECA3
:1036C0001E2B51EC100B02F021FB53EC182B02F0D7
:1036D000C3F841EC100B02B0BDEC0E8B02B070BD14
:1036E0000120FCF717FF02B0BDEC0E8B02B0BDE865
:1036F000704000F045BFA1489FEDA18B844256DA8F
:103700009DED100BB4F1795F0ADA51EC100BFFF765
:1037100068FF042808BF00F043FF9DED100BDAE7B7
:1037200053EC102B51EC100B02F0F0FA41EC190B9A
:1037300095480621B0EE490AF0EE690A784400F097
:10374000FFFD53EC192B51EC100B02F0DFFA41ECAA
:103750001A0B8E48B0EE490AF0EE690A042178444B
:1037600000F0EEFD53EC192B51EC100B02F0CEFAE9
:1037700053EC182B02F070F841EC100B51EC1A0BC3
:1037800053EC102B02F010F9CDE900019DED000B78
:1037900053EC102B9DED100B51EC100B02F0B6FA10
:1037A0009DED101B53EC112B02F056F8D2E09DED6D
:1037B000100B51EC100B00F0ABFF53EC182B02F088
:1037C000A3FB9FED730BCDE9000153EC102B9DED96
:1037D000000B51EC100B02F099FA41EC190B6E48FA
:1037E0000621B0EE490AF0EE690A784400F0A8FD1F
:1037F00053EC192B51EC100B02F088FA41EC1B0B27
:103800006648B0EE490AF0EE690A0421784400F0F7
:1038100097FD53EC192B51EC100B02F077FA53EC97
:10382000182B02F019F841EC1C0B51EC190B01F0AC
:1038300043FC41EC180B5A489FED5BABA04222DCE5
:1038400053EC1C2B51EC1B0B02F0AEF8CDE9000140
:103850009DED000B51EC180B53EC102B02F056FAB7
:1038600053EC182B01F0F8FF53EC1A2B02F04EFA30
:1038700053EC1D2B02F020FC53EC1E2B02F044FBFA
:1038800041EC100B5FE08DED008B002000909DED72
:10389000000B51EC180B53EC102B01F0DDFF9DEDEC
:1038A000000B41EC1E0B53EC102B51EC100B02F0F3
:1038B0002DFA53EC192B02F027FB53EC1E2B02F0D0
:1038C00073F841EC190B53EC1C2B51EC1B0B02F061
:1038D0006BF841EC1B0B53EC1A2B51EC190B02F05B
:1038E00015FA53EC1D2B02F00FFB41EC190B53ECB6
:1038F0001A2B51EC180B02F009FA53EC1B2B02F0B7
:1039000005FA53EC192B02F0D7FB9DED000B41ECAF
:10391000180B53EC1A2B51EC100B02F0F7F99FED3A
:10392000249B53EC192B02F0EFFA41EC100B51ECF5
:10393000180B53EC102B02F0BFFB53EC192B02F0C9
:10394000E3FA41EC100B002D3FF7C5AE51EC100B24
:1039500001F044FF41EC100BBDE600000000000048
:103960000000F03F00000000075C143326A6913CE5
:10397000182D4454FB21F93F0000F07F0000E03F88
:10398000000000000000F03FB82C0000C62C000032
:10399000000000000000E03F0A2C0000182C00008E
:1039A0003333EF3F00000000000000000000004043
:1039B000182D4454FB21E93F10EE100A10B510EE0B
:1039C000901A4FF0684202EB40032DED028BB3F1E9
:1039D000654F3CBF02EB4102B2F1654F7CD200BFA4
:1039E000C0F3C753C1F3C7529A1A1B2A09DD10F05E
:1039F000004F14BF9FED6E0A9FED6E0ABDEC028B67
:103A000010BD12F11A0F1BDA11F0004F09D010F09F
:103A1000004F0CBF9FED680A9FED680ABDEC028B5A
:103A200010BD80EE208A18EE100AFFF7F2FD042880
:103A300008BF00F0C9FDB0EE480ABDEC028B10BD16
:103A40004200B2EB410F37D910F0004F19BFDFED44
:103A50005C1A9FED5C1ADFED5C1A9FED5C1AB0EE0C
:103A6000602A0A46F1EE400A80F00041B0EE420AB8
:103A700010460A1A5200B2F1807F34D2484010F04A
:103A8000004FDFED532A9FED533A1DBFBEEE002AD3
:103A900071EEE21A31EE431AB6EE002A04BF71EE5F
:103AA000A21A31EE031AF0EE402A42EE602A40EEEE
:103AB000020A82EEA02A18E011F0004F04BF9FED29
:103AC000461AF0EE411AD4D010F0004F1CBFDFEDC3
:103AD000431A9FED431A00E026E004BFDFED411AD0
:103AE0009FED411AC5E780EE202A22EE020ADFEDA3
:103AF0003F0ADFED3F2ABDEC028B40EE202ADFEDCE
:103B00003D0A40EE220ADFED3C2A40EE202ADFED9E
:103B10003B0A40EE220A22EE000A00EE201A31EEA5
:103B2000020A30EE210A10BD4FF07F42B2EB400F87
:103B300028BFB2EB410F05D2BDEC028BBDE81040AF
:103B400000F03EBD40EA01035B0008BF41F0FF41C9
:103B50000BD0B2EB400F08BFB2EB410F08D120F001
:103B6000804000EE100A21F0804100EE901A37E705
:103B7000B2EB400F12BF5FEA410240F0FF4001F09C
:103B800000413FF42DAF4A0092EA40033FF528AFD1
:103B9000002AACBF9FED1A1A9FED1A1A20EE010AF7
:103BA00060EE810A10EE100A10EE901A18E700007D
:103BB000DB0FC9BFDB0FC93FDB0F4940DB0F49C03B
:103BC0000000C9BF22AAFDB90000C93F22AAFD39E1
:103BD0000060ED3EC30ACE3700000000000049C07F
:103BE00022AA7DBA0000494022AA7D3A2DAD65BDCA
:103BF0008FB8D53D0FB511BE61C84C3EA8AAAABE6C
:103C00000000804F0000802F10B52F499FED2C1B26
:103C10002DED020B84B0059820F000408842D8BFFB
:103C20009DED040B2DDD2949884209D1049840B946
:103C30004FF00100FCF76EFC00F0A2FC06B010BDD6
:103C400005DB9DED040B00F08FFC06B010BD68464F
:103C50009DED040B00F0A0F810F0030004BF9DEDF3
:103C6000021B9DED000B0CD001280ED09DED021B18
:103C70009DED000B022817D0012000F0DDFB06B0FF
:103C800010BD00F0A5FA06B010BD9DED021B9DED24
:103C9000000B012000F0D0FB51EC100B01F09EFD59
:103CA00006B041EC100B10BD00F092FA51EC100B75
:103CB00001F094FD06B041EC100B10BD00000000B7
:103CC0000000000000000000FB21E93F0000F07F41
:103CD00010B52F499FED2C1B2DED020B84B00598DC
:103CE00020F000408842DCBF00209DED040B32DD57
:103CF0002849884209D1049840B94FF00100FCF7E7
:103D000009FC00F03DFC06B010BD05DB9DED040B89
:103D100000F02AFC06B010BD68469DED040B00F0D3
:103D20003BF810F0030011D0012818D09DED021BC4
:103D30009DED000B02281AD000F04AFA51EC100B4E
:103D400001F04CFD06B041EC100B10BD9DED021BC7
:103D50009DED000B012000F06FFB06B010BD9DED46
:103D6000021B9DED000B00F033FA06B010BD0120E0
:103D700000F062FB51EC100B01F030FD06B041EC9D
:103D8000100B10BD0000000000000000000000004B
:103D9000FB21E93F0000F07F2DE9F14F04462DEDB6
:103DA000020B2DED088B8AB09FEDE70B80ED020B27
:103DB000139EE74826F0004585420ADC9DED120B74
:103DC000002084ED000B0AB0BDEC088B03B0BDE809
:103DD000F08FE0489FEDE0AB9FEDE1BBA84247DDEF
:103DE000E14F9FEDE39B9FEDE48B9DED120B53ECB8
:103DF0001A2B51EC100B002E1CDD02F05DF941EC8A
:103E0000100BBD4208D053EC1B2B51EC100B02F0F1
:103E100053F9C4E900010BE053EC192B51EC100BE2
:103E200002F04AF953EC182B02F046F9C4E90001FC
:103E30000120C8E701F010FD41EC100BBD4208D095
:103E400053EC1B2B51EC100B01F006FDC4E90001F3
:103E50000BE053EC192B51EC100B01F0FDFC53EC73
:103E6000182B01F0F9FCC4E900014FF0FF30AAE77C
:103E7000C348A84279DB9DED120B51EC100B00F00A
:103E800047FC41EC180B9FEDC00B53EC102B01F0DD
:103E90003DFF9FEDBF1B53EC112B01F0DDFC01F04A
:103EA000DBFE074601F007FF41EC190B53EC1A2B20
:103EB00001F02CFF53EC182B02F026F841EC180B04
:103EC00053EC1B2B51EC190B01F020FFDFF8C8A2BB
:103ED00041EC100B4FEA15580125FA4453EC102B16
:103EE00051EC180B02F0E8F8032DC4E900013DD0B5
:103EF000C1F30A5005EB4511A8EB000011398142CE
:103F000034DA0AEB051BB0EE48AA9BED000BF0EE8D
:103F100068AA53EC102B51EC190B01F0F7FE41ECA1
:103F20001B0B51EC1A0B53EC1B2B02F0C5F841ECA8
:103F3000180B51EC1A0B53EC182B02F0BDF853EC94
:103F40001B2B02F0B9F89BED020B41EC1A0B53EC62
:103F5000102B51EC190B01F0D9FE53EC1A2B02F087
:103F6000ABF841EC100B6D1CB8E70EE0002EA8BFBB
:103F70003846BFF628AF94ED000B51EC100B01F062
:103F80002DFCC4E9000178421DE7C6F3130040F49C
:103F9000801EC6F30A50A0F2F530471100F01F054D
:103FA000C5F12000DDF848B0089000200690079089
:103FB0000520EC467949002D07EB0002794408BF43
:103FC00051F8221009D051F8223001EB8201AB40A8
:103FD0004A68089922FA01F11943A1FB0E26A1FBB8
:103FE0000B131A449A4234BF0123002303EB060843
:103FF0000CEB8003D3E901A60E448E4234BF0121AD
:10400000002192448A4411B1924502D903E09245BD
:1040100001D2012100E00021C3E901A641444CF88E
:104020002010011EA0F10100C4DC029800F1005034
:10403000850F0298DDE903678000DDF8148001F048
:104040003AFE41EC1A0B304601F04CFE9FED541B3A
:1040500053EC112B01F05AFE41EC1B0B384601F0DA
:1040600041FE9FED511B53EC112B01F04FFE41EC33
:10407000180B404601F036FE9FED4D1B53EC112B03
:1040800001F044FE41EC190B51EC180B53EC192BC9
:1040900001F0E2FB53EC1B2B01F0DEFB53EC1A2B7F
:1040A00001F0DAFBCDE90801002008909DED080B36
:1040B00053EC1A2B51EC100B01F0FEFF53EC1B2BB1
:1040C00001F0FAFF53EC182B01F0F6FF53EC192B1B
:1040D00001F01AFF9FED381B53EC112B01F016FE77
:1040E0009FED370B41EC180B53EC102B9DED080B9B
:1040F00051EC100B01F00AFE53EC182B01F0ACFB55
:104100009FED310B41EC180B53EC102B9DED080B80
:1041100051EC100B01F0FAFD53EC182B01F09CFB55
:1041200041EC100B139810F0004F06D06D4251EC8B
:10413000100B01F053FB41EC100B284684ED000BF3
:1041400041E6000000000000000000000000000048
:10415000FB21E93F7CD9024000004054FB21F93F9C
:104160003163621A61B4D03DFB21F93F00000000C9
:104170000000601A61B4D03D7370032E8A19A33B0E
:10418000FB2139410000000083C8C96D305FE43F66
:10419000000000000000E03F9A250000E824000035
:1041A000000000000000103E000000000000103C75
:1041B000000000000000103A182D4454FB21F93D86
:1041C0003326A611460B113C00000054FB21F93D9B
:1041D00010B52DED040B2DED088B82B0B0EE419A99
:1041E000F0EE619A0B9820F000449FED4BABB4F1D8
:1041F000795F11DA9DED0A0B51EC100B01F02CFDEB
:10420000002801BFB0EE4A0AF0EE6A0A02B0BDEC27
:10421000088B04BF04B010BD9DED0A0B53EC102BAE
:1042200051EC100B01F072FD41EC180B3C480621DB
:10423000B0EE480AF0EE680A784400F081F853ECDA
:10424000182B51EC100B01F061FD9DED0A0B41ECB8
:104250001B0B53EC192B51EC100B01F057FD41ECEB
:10426000190B53EC1B2B51EC180B01F04FFD53ECC9
:10427000192B01F021FF9FED2C0B41EC190B53EC96
:10428000102B51EC180B01F041FD41EC100B2848AC
:10429000844210DA53EC192B51EC100B01F00CFF97
:1042A00053EC1A2B01F030FE41EC100B02B0BDECC8
:1042B000088B04B010BD1F48A042BCBF9FED1E1B61
:1042C0008DED001B06DBA4F500100190002000908E
:1042D0009DED001B51EC100B53EC112B01F0ECFE8B
:1042E0009DED000B41EC180B53EC102B51EC1A0B0D
:1042F00001F0E2FE41EC1A0B53EC192B51EC180BB8
:1043000001F0DAFE53EC1A2B01F0FEFD41EC100B2C
:10431000CCE7000000000000000000000000F03FBB
:104320000C22000000000000000000000000E03F40
:104330003333D33F0000E93F000000000000D23FCC
:1043400070B504462DED028B4D1E00EBC500B0EE9E
:10435000408AF0EE608A90ED000B35F0060017D031
:1043600053EC182B51EC100B01F0D0FC41EC100B6E
:104370006D1E04EBC50090ED001B51EC100B53ECCF
:10438000112B01F069FA41EC100B35F00600E7D172
:10439000022D36D0042D1CD0062D1CBFBDEC028B87
:1043A00070BD53EC182B51EC100B01F0AFFC94EDE9
:1043B0000A1B53EC112B01F04FFA53EC182B01F0B0
:1043C000A5FC94ED081B53EC112B01F045FA41ECD0
:1043D000100B53EC182B51EC100B01F097FC94EDE3
:1043E000061B53EC112B01F037FA53EC182B01F09C
:1043F0008DFC94ED040B53EC102B01F02DFA41ECE5
:10440000100B53EC182B51EC100B01F07FFC94EDCA
:10441000021B53EC112B01F01FFA53EC182B01F087
:1044200075FC94ED001B53EC112B01F015FABDEC5B
:10443000028B41EC100B70BD31B504462DED040B21
:104440002DED0A8BB0EE41BAF0EE61BA0B989DEDFE
:104450000A0B20F00040B0F1795F0DDA51EC100B3F
:10446000FFF7BFF8042808BF00F09AF89DED0A0B8B
:10447000BDEC0A8B05B030BD53EC102B51EC100B8A
:1044800001F044FC41EC180B9DED0A0B53EC182B8A
:1044900051EC100B01F03AFC41EC190B2C48B0EE3A
:1044A000480AF0EE680A05217844FFF749FF9FEDBE
:1044B0002ACBB0EE40AAF0EE60AA9CB353EC1C2BC2
:1044C00051EC190B01F022FC41EC1C0B53EC1A2BA4
:1044D00051EC190B01F01AFC9FED210B41EC190B6B
:1044E00053EC102B51EC1B0B01F010FC53EC192B6F
:1044F00001F0E2FD53EC182B01F008FC53EC1B2BF0
:1045000001F0DAFD53EC1C2B01F0D6FD9DED0A1BEA
:1045100053EC112B01F0F8FCBDEC0A8B05B041EC1B
:10452000100B30BDFFE753EC1A2B51EC180B01F0C8
:10453000EDFB53EC1C2B01F08FF953EC192B01F020
:10454000E5FB9DED0A1B53EC112B01F085F9E3E728
:104550009420000000000000495555555555C5BF31
:10456000000000000000E03F10B553EC102B51ECB0
:10457000100B01F071F941EC100B10BD00000000B0
:104580009FED050B10B553EC102B51EC100B01F007
:104590000BFA41EC100B10BD000000000000000001
:1045A0009FED050B10B553EC102B51EC100B01F0E7
:1045B000ADFB41EC100B10BD00000000000000102E
:1045C00030EE200A704700009FED020A20EE000A3C
:1045D0007047000000000010F0EE401A9FED1A1A1C
:1045E000F0EEE12A9FED190AF4EEC12AB0EEE02ABE
:1045F000F1EE10FA04D2B4EEC12AF1EE10FA19D39A
:10460000B4EEC12AF1EE10FA15D21148F5EEC01A37
:10461000D0ED000AF1EE10FA03DDB6EE000A20EE4E
:10462000800AF5EEC01AF1EE10FA03D2BEEE000ACF
:1046300020EE800A7047F4EEC12AF1EE10FAF9D3A9
:10464000B0EE610AFFF7B8B917B7D1380000000023
:10465000900000200A4C208A012807D1B4F91400E8
:10466000012809D0022807D0032801D000F0DCF887
:10467000012000F015FAEEE700F09AF8F8E70000E4
:104680006B42002000B58BB000200121CDE906016E
:104690000891009001900290039005900490694663
:1046A0000C48FCF765F80B48FCF7D4FC02210948DC
:1046B000FBF7E7FF0E200990059069460648FCF7D6
:1046C00057F80548FCF7C6FC02210348FBF7D9FF61
:1046D0000BB000BDE802002010030020094810B50F
:1046E0000068C16841F01001C160074807490278BD
:1046F0000448FDF719FEBDE810404FF47A70FCF74E
:10470000A9BE000080030020880000205442002041
:1047100082B0CDE9000121F0004001909DED000B39
:1047200002B051EC100B70470F480021FA220160D3
:1047300041608260C26001613F2242618161C1616A
:1047400001627421094C4162208A012807D1B4F921
:104750001400012803D0022801D100F035FA01200D
:1047600000F09EF9F0E70000E44300206B420020D7
:10477000FCF784FFFEF7D6FBFEF7E2FAFEF7A0FA9D
:10478000FEF764FBFEF758FAFEF778FAFEF71EFB19
:10479000FFF778FFFFF7A2FFFEF7A8FA00F087F90E
:1047A000FEE701460020842900D0C81C70470000A5
:1047B00070B5194ADFED190A194D002002EB4001CE
:1047C000B1F9061000EE101A00EB800105EB0111A3
:1047D000B8EEC00A401CC0B2042880EE201A91ED49
:1047E0000F0A31EE000A81ED0F0AE7D35FF00004F3
:1047F00004EB840005EB0010D0ED0E0A90ED0F0ADB
:10480000018D0848FEF740FB0120FCF723FE641CE5
:10481000A4B2042CECD370BD6B420020007046465D
:1048200014410020E802002070B59FED140A144DD9
:10483000002000BF00EB800105EB0111401CD1ED11
:104840000B0A80B2C1ED0F0A81ED0E0A0528F1D3E3
:104850005FF0000404EB840005EB0010D0ED0E0ABD
:1048600090ED0F0A018D0748FEF70EFB0120FCF7C3
:10487000F1FD641CA4B2052CECD370BD0000000057
:1048800014410020E802002030B504462DED0C8BC9
:10489000B0EE003A0022B6EE00AAB2EE00DAF2EE76
:1048A0000CAAB3EE00BA0068B3EE0ECA02EE900A8C
:1048B0006068F2EE083A07EE900AB3EE045AF0EEA2
:1048C000085A37EEE21AF1EE086A21EE030A20EEEA
:1048D000010A20EE019A69EE018A28EE818A00BF62
:1048E00004EB8201A1F6880101F50051C86B0B6849
:1048F00004EE900A086D02EE103A06EE100A886A7D
:104900004B6900EE100A486E26EE0D7A01EE903AE1
:1049100000EE900A74EEC29A01EEA37AF0EE60CA3D
:1049200072EE644A69EE85BA50EE25CA69EEA39A22
:1049300020EE0A4A47EE41BA00232CEE817A47EE78
:1049400041BA8BEE897A66EE2ABA26EE266A41EEE5
:104950008BBA01EEA66A6BEE81BA46EE419A44EE3E
:104960008CBA60EE254A30EE600A40EEC34A20EE73
:10497000010A40EE419A64EE814A44EE81BACBEEE0
:10498000A84AC9EE88BAF0EE629A79E039EEE26A96
:104990000220B0EE460A00F057F9F0EE42CA0320BA
:1049A00041EE86CA44EE00CAB0EE460A00F04CF969
:1049B00047EE00CAB0EE460A042000F045F944EE86
:1049C00080CAB0EE460A052000F03EF94BEE80CAE0
:1049D000C2EB021101EB810104EB011101EB830534
:1049E0001CEE900AB0EE460AA860022000F02CF9F6
:1049F00064EE030AF0EE61CA032040EE86CA67EE59
:104A0000250A40EE80CAB0EE460A00F01DF9F1EE2C
:104A1000000A042064EEA00A40EE80CAB0EE460A06
:104A200000F012F9F1EE040A6BEEA00A40EE80CA23
:104A3000B0EE460A1CEE900AC5F89801022000F07C
:104A400003F967EE260A032060EE86CA64EEA30A25
:104A500044EE03CA40EE80CAB0EE460A00F0F4F815
:104A60006BEE850A5B1C9BB240EE80CADFED0B0A41
:104A700081EE200A1CEE900AC5F8280370EE299AF0
:104A8000F4EEE79AF1EE10FA80D3521C92B2052AA6
:104A9000FFF426AFBDEC0C8B30BD00000000C84217
:104AA00010B500B9012000F049FC002010BD10B580
:104AB00000F06AFC002010BD7FB50D460446416938
:104AC000B0F9080081B1A16971B1FFF76AFED4E9BC
:104AD00005128DE80700D4E900102B46226900F08A
:104AE0007CFD039004B070BDFFF75BFE03A9CDE928
:104AF0000001208A2B4682B2D4E9001000F040FD6C
:104B0000012801D00020EDE70398EBE770B50546DA
:104B1000FFF7BAFE2A4E00245FF00001C1EB01103E
:104B200000EB800001EB810205EB001000EB84003C
:104B300006EB02128368D363D0F898319363491C63
:104B4000D0F8280389B210640529E7D305EB840067
:104B5000B6EE001A8168F163D0F8B81400EE101AAE
:104B6000B1EE400A86ED230AD0F86819C6F8DC10C9
:104B7000D0F8181E00F5805000EE101A1149D1ED42
:104B8000000A10EE810A86ED4B0AD0F8C802C6F87A
:104B90007C01686800EE100A286800EE900A30EE8A
:104BA000600AF2EE040A20EE200ABCEEC00A10EE03
:104BB000100AFFF775FF641C642CADDB70BD0000AC
:104BC000144100208C00002070B51B4C1B480025B0
:104BD000C4E90050A4F15400B2EE041ADFED180A43
:104BE0009FED180A00F0A0FAA4F11401A1F1400011
:104BF000FDF702FC0020A4F1140100BF04EB8003C8
:104C000051F8202003F58053401C80B2C3F8B4272C
:104C10000528F3D35FF0000004EB800101F580511B
:104C2000401C80B2C1F878570528F5D3BDE8704024
:104C30000148FFF76BBF0000C44400200000204182
:104C4000008086C300001BC3F0EE400AB7EE000AE6
:104C5000002103E020EE200A491C89B28142F9D3E9
:104C6000704700002DE9F041184C0F460546E668F4
:104C70002068001D00F09AFA38B9206890F82C10CE
:104C800001208840216981432161681C07D137B127
:104C90002168BDE8F0410E48091D00F0CBBA20683C
:104CA0003544B5424560216805D2A06BBDE8F041AE
:104CB000091D00F0A7BA606B091D00F0A3FAA06AF5
:104CC000854200D2A562BDE8F081000020000020EE
:104CD000000500202DE9F041054600F0B7FA2E4C02
:104CE000A068401CA06020682C4F10B1606940B3E0
:104CF0002DE02560A068012829D1002606EB86005A
:104D000007EB800000F070FA761C072EF6D32348DC
:104D10008C3000F069FA2148A03000F065FA1F4895
:104D2000B43000F061FA1D48C83000F05DFA1B484D
:104D3000DC3000F059FA19488C3060631430A063FD
:104D400005E02068E96AC06A884200D82560606A88
:104D5000401C6062E96A012022698840104320619A
:104D600001EB810007EB8000291D00F063FA00F0E1
:104D70008DFA606900280CD02068E96AC06A884210
:104D800007D207494FF080500860BFF34F8FBFF341
:104D90006F8FBDE8F0810000200000202404002077
:104DA00004ED00E010B5044690F8510058B1012818
:104DB0000CD002280FD0502080F31188BFF34F8F02
:104DC000BFF36F8FFEE7206B00F074FA2046BDE85A
:104DD000104000F06FBA10BD10484FF470514207F8
:104DE00006D0C01D0D4920F00700411AC1F57051D1
:104DF0000B4A00230144C2E900030839183A21F0A4
:104E0000070111604B600B600B1AC0E9001393603F
:104E10004FF00040536050617047000014050020BF
:104E200074000020144E154CA6F1C8074FF08058AE
:104E3000DFF84C9012E000BF00F008FAF068C56897
:104E4000281D00F0B3F9A068401EA0606068401EF5
:104E5000606000F01BFA2846FFF7A4FF6068002896
:104E6000EAD138680128F9D9C9F80080BFF34F8F1B
:104E7000BFF36F8FF2E70000EC0400202000002059
:104E800004ED00E02DE9F0479A46DDE9098481460A
:104E90006FF00303206B03EB82021044089E20F0A6
:104EA0000707780707D0502080F31188BFF34F8F92
:104EB000BFF36F8FFEE7002561B1002023180A5C65
:104EC00083F834200A5C12B1401C1028F6D384F811
:104ED000435001E084F83450072E00D30626E662E2
:104EE000C4E91165201D00F08AF904F1180000F0F2
:104EF00086F92461C6F107006462A061E56484F864
:104F0000505052464946384600F0C0F82060B8F18B
:104F1000000F01D0C8F80040BDE8F08730B5114956
:104F200000E011460A688242FBD34B685C18844259
:104F300003D1406818444860084643681C189442EE
:104F400009D1084C183C2468A24209D052681A447E
:104F500042600A6812680260814200D0086030BD79
:104F60000460F9E7740000200648416B096829B124
:104F7000416BC968C9684968816270474FF0FF3169
:104F8000FAE700002000002008484068401C4FF06D
:104F9000500080F3118804D0BFF34F8FBFF36F8FA1
:104FA000FEE7BFF34F8FBFF36F8FFEE77C0000205B
:104FB0002DE9F0410546002700F01CFA324E30681A
:104FC00008B9FFF709FF706905424ED1C5B308352E
:104FD00068070ED005F00700C0F108000544680717
:104FE00007D0502080F31188BFF34F8FBFF36F8F2E
:104FF000FEE72DB37068854237D823481830014644
:105000000C6801E020460C466168A94202D2216882
:105010000029F7D131688C4227D0076821680160E8
:1050200060680837411B10290FD96019420708D062
:10503000502080F31188BFF34F8FBFF36F8FFEE7CF
:1050400013E041606560FFF769FF61687068401AAE
:105050007060B268904200D2B06070690143002075
:10506000C4E90001F068401CF06000F055FB7807CF
:1050700007D0502080F31188BFF34F8FBFF36F8F9D
:10508000FEE73846BDE8F0815C00002010B5031F44
:105090004FF080741C601B1F21F001011960191F63
:1050A000044B0B6014390A60091F6FF00202443888
:1050B0000A6010BD894F000800B52DED048B83B048
:1050C00041EC190B00F02CFF41EC180B18EE100A04
:1050D00018EE901A8DED008B002818BF01200843B0
:1050E00020F00040C0F17F6000F1E040C00F14D01C
:1050F00019EE101A19EE900A8DED009B002918BFC9
:105100000121084320F00040C0F17F6000F1E04041
:10511000C00F04BF0120FBF7FDF951EC180B03B0E1
:10512000BDEC048B00BD0000DFED141AB7EE002AC1
:10513000C0EC021AC0ED021A80ED030A80ED042AC9
:10514000C0ED051AC0ED061AC0ED070AC0ED081A39
:10515000C0ED091ABFEE000A80ED0A0A9FED080AA9
:1051600031EE000A80ED0B0AC0ED0C1AC0ED0D1AED
:10517000C0ED0E1A80ED0F2A7047000000000000FD
:1051800000007C4201EE100A70EEC00A0120B8EE69
:10519000C11A8840401E21EE201A00EE900AF8EE57
:1051A000E01AC1EE210A30EE800A7047D0E90132E0
:1051B00001699A60D0E901235A604A68824201D1AC
:1051C00082684A60002202610868401E0860086820
:1051D00070470000034B036003F154000860802017
:1051E000106070479400002000F108014FF0FF327A
:1051F000C0E90112C1600161002101607047002116
:105200000161704730B50B685A1C02D000F10802EA
:1052100002E0026904E02246546825689D42FAD9FA
:1052200053684B6099608A60516008610168491C4D
:10523000016030BD42684A6093688B609368596032
:10524000916008610168491C01607047502080F33B
:105250001188BFF34F8FBFF36F8F0A494868401C16
:10526000486001280CD10848006810F0FF0F07D0F3
:10527000502080F31188BFF34F8FBFF36F8FFEE78D
:10528000704700007C00002004ED00E008494868F9
:1052900028B1401E486001D180F31188704750202A
:1052A00080F31188BFF34F8FBFF36F8FFEE70000CD
:1052B0007C00002070B500282AD0164DA0F108040B
:1052C00060686969084207D1502080F31188BFF3F4
:1052D0004F8FBFF36F8FFEE722683AB1502080F303
:1052E0001188BFF34F8FBFF36F8FFEE78843606075
:1052F00000F080F860686968084468602046FFF73D
:105300000DFE2869401C2861BDE8704000F004BA19
:1053100070BD00005C0000204FF0E0200021016122
:10532000816105494FF47A720968B1FBF2F1491EB7
:1053300041610721016170471C00002010B5020087
:1053400014D00F48006B38B1502080F31188BFF3A0
:105350004F8FBFF36F8FFEE700F04CF8002110462F
:10536000FFF780FC00F0D8F9002807D105494FF07D
:1053700080500860BFF34F8FBFF36F8F10BD0000E8
:105380002000002004ED00E010B586B00024039456
:1053900005AA04A903A80494FFF71CFFDDE9030193
:1053A0000094CDE9011000230EA11048059A00F0E9
:1053B00014F90F490028C86211D0502080F31188D9
:1053C000BFF34F8FBFF36F8F4FF0FF308862012024
:1053D0004861CC6006B0BDE8104000F041B806B0AE
:1053E00010BD000049444C4500000000254E000857
:1053F000200000200248016B491C01637047000037
:10540000200000201448016B11B10121C1617047D7
:105410000021C1610169B1FA81F1C1F11F0101EB04
:1054200081020E4951F822306BB101EB820101F18A
:1054300008034A6852684A609A4201D152684A6039
:10544000D16801607047502080F31188BFF34F8FFF
:10545000BFF36F8FFEE7000020000020240400202F
:105460001CB537480168374A914207D1502080F374
:105470001188BFF34F8FBFF36F8FFEE7006831498C
:10548000491E884207D1502080F31188BFF34F8F07
:10549000BFF36F8FFEE72C4908780190FF2008705A
:1054A00008788DF800009DF800009DF8002000F0BD
:1054B000F000904207D0502080F31188BFF34F8F47
:1054C000BFF36F8FFEE79DF80000204C00F0500006
:1054D00020700720A06005E09DF8002052008DF8A4
:1054E0000020401E9DF800201206F5D4A06003287D
:1054F00007D0502080F31188BFF34F8FBFF36F8F19
:10550000FEE74FF44070A060019808700C4820300E
:10551000016841F470010160016841F0704101606F
:10552000FFF7FAFE00206060FAF7C0FE0848016845
:1055300041F040410160FAF7A5FE00201CBD0000CB
:1055400000ED00E071C20F4100E400E07C000020AB
:1055500034EF00E010B5502080F31188BFF34F8F77
:10556000BFF36F8F00F072F818B104494FF080500C
:105570000860002080F3118810BD000004ED00E0F9
:105580002DE9FF5F8346DDE90E87994616468A4678
:105590009000FFF70DFD05001CD05420FFF708FD1B
:1055A000040014D00020256384F85100CDE90240A6
:1055B000CDE900874B46324651465846FFF762FC1C
:1055C0002046FFF787FB012004B0BDE8F09F284686
:1055D000FFF770FE4FF0FF30F6E7F0B585B0DDE97C
:1055E0000B640A9DA6B1DCB15427009726630226FE
:1055F00084F85160002604AFCDE90246CDE900579A
:10560000FFF740FC2046FFF765FB049805B0F0BDAE
:10561000502080F31188BFF34F8FBFF36F8FFEE7E9
:10562000502080F31188BFF34F8FBFF36F8FFEE7D9
:105630000548416919B1006B18B10020704701207D
:105640007047022070470000200000202DE9F04143
:105650002F4C0026206B28B1A069401CA061304669
:10566000BDE8F081E5686D1CE56013D1606B0068F2
:1056700038B1502080F31188BFF34F8FBFF36F8F85
:10568000FEE7606BA16B6163A063206A401C20622F
:10569000FFF76AFCA06ADFF87C80854209D3606B63
:1056A0000068A0B1606BC068C7687868854211D295
:1056B000A0622068C06A00EB800158F82100012830
:1056C00000D90126E0690028C9D00126C7E74FF0BC
:1056D000FF30EDE7381DFFF769FDB86A18B107F133
:1056E0001800FFF763FDF96A012022698840104322
:1056F000206101EB810108EB8100391DFFF79AFD64
:10570000F86A2168C96A8842C9D30126C7E7000040
:1057100020000020240400202DE9F0472C4D002417
:105720002746286B38B1FFF791FD286B401E286390
:10573000286B40B146E0502080F31188BFF34F8FB3
:10574000BFF36F8FFEE7A968224E0120D1B3A6F107
:10575000B40980463068E8B1F068C46804F1180004
:10576000FFF724FD201DFFF721FDE06A2A6908FAF2
:1057700000F11143296100EB800109EB8100211D3B
:10578000FFF758FDE06A2968C96A8842E2D3C5F884
:105790001C80DFE70CB1FFF7E7FBAC6944B146467C
:1057A000FFF754FF00B1EE61641EF9D10020A8613B
:1057B000E86938B10849012738070860BFF34F8FFF
:1057C000BFF36F8FFFF762FD3846BDE8F08700003A
:1057D00020000020D804002004ED00E081F000410A
:1057E000704780F00040704721F00041704720F082
:1057F0000040704721F00042A2F16052B2F5801FD4
:1058000001F0004328BFD2F17F6C0BD95FEA001C86
:1058100043EAC20242EB507018BF704728BF20F025
:1058200001007047B2F5801FBCBF184670474FEAB1
:10583000410C1CF5001F02D2084600F09DBD70B55A
:1058400000F00EFB00000089FFF7F6BF4FF00040AC
:10585000A0F580007047000010B591EA030F48BF23
:1058600083F0004300F13084841A71EB030C05D2FD
:10587000121943EB0C03001B61EB0C01DFF824E170
:105880004FEA1154A4EB135C1EEA430F18BF9EEAC3
:10589000445F73D023EA0E03DCF1200E21EA0451A9
:1058A00043F4801332D322FA0CFE10EB0E0023FADD
:1058B0000CFE41EB0E01CCF1200E03FA0EFE10EBB4
:1058C0000E0051F10001B1F5801FCCF1200E32D253
:1058D00001EB045112FA0EF2BDE8104058BF7047B8
:1058E000401C38BF5FEA420218BF7047002814BF4F
:1058F00020F0010041F100014FEA410313F5001FC0
:1059000038BF7047A1F1C04100F0F8BA012A43EB5B
:105910000302ACF1200CDCF11F0E32BF4FF0000E81
:1059200023FA0CF310EB030041EB0451B4EB115FCD
:10593000D0D0A1EB045101F5801149085FEA300095
:1059400001EB04510ED350F1000038BF12FA0EFEE5
:1059500008D1BDE81040C9E7401C38BF5FEA4202E9
:10596000CAD1C3E7BDE810404FEA410313F5001F59
:1059700038BF7047A1F1C04100F0C0BA9EEA445F51
:1059800008D011EA5E0FBDE8104004BF01F00041ED
:1059900000207047BDE8104070B500F061FA00BF0C
:1059A00064FBBE3E0000E0FF2DE9C04130B4DFF8EB
:1059B000A0C23CEA111418BF3CEA131400F0EC80BA
:1059C00081EA03051CEA111444EAD57418BF1CEAE5
:1059D000131500F0C780A4EB05044FF0004545EA1D
:1059E000C12145EAC32341EA505143EA525304F12D
:1059F0007F74994204F500344FEAC0204FEAC22276
:105A000008BF904200F09C804FEA13650FF24016E9
:105A1000765D4FEA134506FB05F7C7F1807706FB75
:105A200007F74FEAD737A7FB03687642C8F58038F7
:105A3000A7FB06CE38BFA8F1010807FB08E64FF028
:105A4000000EA6FB028CE6FB03CEDCF1000CCEF1CF
:105A5000004E38BFAEF1010EA6FB0C584FF0000708
:105A60004FF00005E6FB0E87A1FB08C6A0FB07CEA2
:105A700016EB0E0645F10005E1FB076515F1E04E5A
:105A80007EBFA4F580345FEA46066D4116F18007BB
:105A900045F100054FEA17274FEA066647EA056712
:105AA000A6F1DE46B6F1805F4FEA15251FD93846CC
:105AB00024F0010C05EBC471BCF1FE6F01EB0C117D
:105AC00002D8F0BCBDE8008124425CBF01F5801E15
:105AD0009EEAC47F02D4F0BCBDE80081244238D4E1
