:020000040800F2
:10000000684A0020250300080B270008E1240008A7
:10001000092700087F0500086D2E00080000000079
:100020000000000000000000000000006502000861
:10003000A106000800000000C10200087D2700089A
:100040003F0300083F0300083F0300083F03000888
:100050003F0300083F0300083F0300083F03000878
:100060003F0300083F0300083F0300083F03000868
:100070003F0300083F0300083F0300083F03000858
:100080003F0300083F0300083F0300088D050008F8
:10009000810500083F0300083F0300083F030008F4
:1000A0003F0300083F0300083F0300083F03000828
:1000B0003F0300083F0300083F0300083F03000818
:1000C0003F0300083F0300083F0300083F03000808
:1000D0003F0300083F0300083F0300083F030008F8
:1000E0003F0300083F0300083F0300083F030008E8
:1000F0003F0300083F0300083F0300083F030008D8
:100100003F0300083F0300083F0300083F030008C7
:100110003F0300083F0300083F0300083F030008B7
:100120003F030008F10500083F0300083F030008F3
:100130003F0300080000000000000000A5050008C3
:10014000990500083F0300083F0300083F0300082B
:100150003F0300083F0300083F030008612E00082A
:100160003F0300083F0300083F0300083F03000867
:100170003F0300083F0300083F03000800000000A1
:10018000000000003F030008000000000000000025
:100190003F03000800000000000000003F030008CB
:1001A0000000000000000000000000003F03000805
:1001B0003F0300083F0300083F0300083F03000817
:1001C0003F03000800F002F800F03CF80AA090E8B5
:1001D000000C82448344AAF10107DA4501D100F002
:1001E00031F8AFF2090EBAE80F0013F0010F18BF93
:1001F000FB1A43F001031847083C0000283C0000AC
:10020000103A24BF78C878C1FAD8520724BF30C842
:1002100030C144BF04680C60704700000023002414
:1002200000250026103A28BF78C1FBD8520728BF06
:1002300030C148BF0B6070471FB503F0A5FD1FBD5F
:1002400010B510BD00F061F91146FFF7F5FF02F09F
:10025000C5FE00F07FF903B4FFF7F2FF03BC00F026
:1002600087F900002C4B19680868B0E8F04F80F35C
:100270000988BFF36F8F4FF0000080F3118870473B
:100280000000000008480068006880F308884FF00C
:10029000000080F3148862B661B6BFF34F8FBFF3DE
:1002A0006F8F00DF00BF00BF08ED00E0DFF80C003B
:1002B000016841F470010160704700BF88ED00E003
:1002C000EFF30980BFF36F8F134B1A681EF0100F06
:1002D00008BF20ED108A20E9F04F106009B44FF0FC
:1002E000500080F31188BFF34F8FBFF36F8F03F07F
:1002F0005FFB4FF0000080F3118809BC19680868A3
:10030000B0E8F04F1EF0100F08BFB0EC108A80F379
:100310000988BFF36F8F70471C000020EFF3058042
:10032000704700000948804709480047FEE7FEE79C
:10033000FEE7FEE7FEE7FEE7FEE7FEE7FEE7FEE795
:1003400004480549054A064B704700002928000863
:10035000C501000868440020684A00206846002063
:100360006846002053EA020C00F069802DE9F04B4A
:100370004FF00006002B1FBFB3FA83F503FA05F414
:1003800024FA05F65E4012BF1643B2FA82F502FA6D
:1003900005F4C5F120051EBF22FA05FC44EA0C0451
:1003A000203556EA044C4FEA144418BF641C4FF041
:1003B00000084FF00009904271EB030C39D300297B
:1003C00019BFB1FA81F701FA07F6B0FA80F700FA1F
:1003D00007F6C7F120071EBF20FA07FC46EA0C0605
:1003E0002037B6FBF4FCA7EB0507103F07F01F0B07
:1003F000CBF120060CFA0BFB2CFA06F644BFB346F1
:100400000026202FA4BF5E464FF0000B5BEA060CCF
:1004100008BF4FF0010B19EB0B09ABFB027C48EB5B
:100420000608C01B06FB02CC0BFB03CC71EB0C01D6
:10043000C1E70B46024641464846BDE8F08B13B57E
:100440004FF000004FF00001AFF30080BDE81C400A
:10045000704710B5203AC0F00B80B1E81850203A30
:10046000A0E81850B1E81850A0E81850BFF4F5AF54
:100470005FEA027C24BFB1E81850A0E8185044BFDE
:1004800018C918C0BDE810405FEA827C24BF51F84B
:10049000043B40F8043B08BF7047D20728BF31F83F
:1004A000023B48BF11F8012B28BF20F8023B48BF90
:1004B00000F8012B70474FF0000200B51346944638
:1004C0009646203922BFA0E80C50A0E80C50B1F1AC
:1004D0002001BFF4F7AF090728BFA0E80C5048BFC0
:1004E0000CC05DF804EB890028BF40F8042B08BF5E
:1004F000704748BF20F8022B11F0804F18BF00F85A
:10050000012B7047704770477047754600F02CF814
:10051000AE4605006946534620F00700854618B0F0
:1005200020B5FFF70DFFBDE820404FF000064FF06B
:1005300000074FF000084FF0000B21F00701AC4618
:10054000ACE8C009ACE8C009ACE8C009ACE8C00937
:100550008D46704710B50446AFF300802046BDE8D5
:100560001040FFF778BE00000048704704440020A8
:1005700001491820ABBEFEE7260002007047FEE7E7
:10058000014800F002BA0000E4020020014800F037
:10059000FCB90000E4020020014800F0F6B90000B8
:1005A0000C030020014800F0F0B900000C0300200B
:1005B00070B50E4C15460646216000216160A160B1
:1005C000C4E903130123214600F07FF860B1022340
:1005D0002A462146304600F078F828B104232A46FE
:1005E0002146304600F071F8002070BD1041002017
:1005F000014800F0CFBD0000C003002001681823AF
:10060000CAB2103AB2FBF3F2054B6FF30901032AA9
:100610009B5CC36500D9091D8165084670470000D1
:10062000CC3D000810B5014600208B698A6A4FF066
:10063000C07453B1B3F5005F15D072B1012A0CD06C
:10064000022A0AD0032A09D104E01AB1012A06D0ED
:10065000022A03D1C96AC90100D5012010BDC96AA7
:10066000A142FAD010BD002AF7D0012AF2D0022A06
:10067000F3D0032AF3D010BD30B50468256825F403
:1006800080252560046863608368402B036803D07D
:1006900099600068C26030BD9A600068C16030BD7A
:1006A000704772B6FEE790F82020012A07D0022A90
:1006B00005D0416A41F48021416201207047006801
:1006C00042690A43426100207047F0B590F820501B
:1006D0000468A468012D05D0022D03D0416A41F4BD
:1006E000802153E014F0406F01D1E5004BD5C4F3F5
:1006F0000164022C03D9416A41F4000146E001255E
:10070000A5401D608D684FF4C0739DB1CE68354320
:100710004E6845EAC605066803EB0417F5514FF429
:10072000C275076805EB04150E697E51097D012924
:1007300005D009E00E88CD6845EA4655EBE701682B
:100740004E5946F480764E511179D2F805504FF447
:10075000C67641EA0525016806EB04168D5111782D
:10076000D2F801204FF4C47541EA0221026805EB7A
:1007700004155151006803EB0411425842F0010284
:1007800042500020F0BD416A41F400114162012055
:10079000F0BD000010B590F82020012A07D0022AF1
:1007A00005D0416A41F480214162012010BD3B48DF
:1007B000D0F8002242F00102C0F80022D0F8002256
:1007C00022F47C52C0F80022D0F800224B6A42EAA0
:1007D0000322C0F800220A7D02F01F0301229A4082
:1007E000D0F81C329343C0F81C32CB69B3B9D0F8AF
:1007F0000C329343C0F80C328C894B6864F31F436E
:100800004C6900EBC404C4F840320C890B6864F3F3
:100810001F434C6900EBC404C4F84432CB69012B7C
:1008200016D1D0F80C321343C0F80C320C884B6848
:1008300064F31F434C6900EBC404C4F840320C89D4
:10084000CB6864F31F434C6900EBC404C4F8443222
:100850008B69002BD0F804320ED01343C0F8043259
:100860000B69002BD0F8143208D01343C0F81432AF
:10087000096A012904D008E09343EFE79343F5E7C1
:10088000D0F81C121143C0F81C12D0F8001221F04D
:100890000101C0F80012002010BD000000640040FB
:1008A000704730B590F82040012C05D0022C03D0C1
:1008B000416A41F480215DE00468002955D0246933
:1008C000A40754D04FF4D874056804EB01142D59D3
:1008D00015F00405956005682D594ED0ED0855605A
:1008E00005682C5904F00204D4604FF4DA740568EA
:1008F00004EB01142D5905F00F05156105682D59FC
:10090000C5F30725956105682C59240C54614FF4F3
:10091000DC72046802EB0112A4581C700468A4582D
:10092000240A5C700468A458240C9C700468A258C3
:10093000120EDA704FF4DE72046802EB0112A45852
:100940001C710468A458240A5C710468A458240C1F
:100950009C710468A258120EDA71006881B10169B5
:1009600041F020010161002030BDE468A8E7416A40
:1009700041F400114162012030BD6D0D1560AFE7FB
:10098000C16841F02001C160EDE72DE9F05F054647
:10099000006800244669D0F804908768D0F80CB04D
:1009A000D0F810A0D0F81880F10748D0F90714D07B
:1009B00001218160B80703D5284600F08AFB0CE0CE
:1009C000780702D54FF4006407E0380702D54FF4EA
:1009D000805402E0284600F07BFBF80516D5296814
:1009E0004FF480708860B80503D5284600F073FB8B
:1009F0000CE0780502D544F4005407E0380502D530
:100A000044F4804402E0284600F064FBF80316D565
:100A100029684FF480308860B80303D5284600F079
:100A20005CFB0CE0780302D544F4004407E0380393
:100A300002D544F4803402E0284600F04DFB300734
:100A400007D55FEACB6004D52968102044F4007410
:100A5000C86070074FF0080707D55FEA0B7004D530
:100A60002868C760284600F0ADF9B00706D52868A9
:100A7000C068800702D0284600F0A6F9700607D5A6
:100A80005FEACA6004D52968102044F480640861D4
:100A9000B00607D55FEA0A7004D5286807612846C2
:100AA00000F0E6FAF00606D528680069800702D053
:100AB000284600F0DEFAB00308D55FEAC96005D524
:100AC000296810204860284600F0D4FAF00307D5C2
:100AD0005FEA097004D528684760284600F0FEFAEE
:100AE000300446D55FEA497040D5F00504D55FEA89
:100AF000C87001D044F00104B00504D55FEA8870E5
:100B000001D544F00204700504D55FEA487001D5B0
:100B100044F00404300529D518F0700F26D008F0F1
:100B20007000402815D006DC102809D020280AD0F3
:100B3000302816D10AE050280ED0602811D10EE0DE
:100B400044F008040DE044F010040AE044F02004EE
:100B500007E044F0400404E044F0800401E044F481
:100B600080742868816921F07001816129680420FE
:100B70004860002C05D0686A204368622846FFF769
:100B80008FFEBDE8F09F70B5040003D094F82000FC
:100B900010B104E0012070BD204600F081F820680B
:100BA000016841F00101016000F06CFD0546052679
:100BB00004E000F067FD401B0A2811D82068406857
:100BC000C007F6D02068016821F00201016000F042
:100BD00059FD05460BE000F055FD401B0A2806D9DB
:100BE000606A40F40030606284F82060D2E72068D8
:100BF00040688007EFD4207E0128206801683DD03E
:100C000021F080010160607E01282068016838D0F1
:100C100021F040010160A07E01282068016833D0E6
:100C200021F020010160E07E0128206801682ED0BB
:100C300041F010010160207F01282068016829D05F
:100C400021F008010160607F01282068016824D03C
:100C500021F004010160D4E902010843D4E904123F
:100C6000114308436168491E08432168C861002098
:100C70006062012084F82000002070BD41F08001F6
:100C8000C0E741F04001C5E741F02001CAE721F08B
:100C90001001CFE741F00801D4E741F00401D9E7A2
:100CA0002DE9F04387B0044614216846FFF703FCA2
:100CB000404B4148DFF8F8801968D4F800C03E4A3C
:100CC000022503260927DFF8F49010300024491C80
:100CD000C4452CD11960012907D1016841F0007188
:100CE0000160006800F000700590106840F002009C
:100CF0001060106802AB00F0020005904FF44070E5
:100D0000CDE9000583E8D0006946484600F0C6FBFF
:100D100000220521132000F027FD132000F016FD0E
:100D200000220521142000F01FFD14203BE0DFF815
:100D30009080C44539D1D0F800C04CF0806CC0F828
:100D400000C0D0F800C001290CF0806CCDF814C0B0
:100D5000196007D1016841F000710160006800F07E
:100D600000700590106840F002001060106802AB3F
:100D700000F0020005904FF44050CDE9000583E8F3
:100D8000D0006946484600F089FB002205213F203B
:100D900000F0EAFC3F2000F0D9FC002205214020B1
:100DA00000F0E2FC402000F0D1FC07B0BDE8F08389
:100DB0000064004008000020303802400004024077
:100DC000006800407047000070B506462DED028BAC
:100DD0000068A0499FEDA08ADFEDA08AA04D88425F
:100DE0007ED1A04CA04904F1680394F8680003F197
:100DF000080200F00300487000213046FFF751FD63
:100E000000286DD194F8680002283DD1B4F869003B
:100E1000F2EE090A40BA606094F86B10BAEE090A63
:100E20000A0194F86C1042EA1112626194F86D2084
:100E300001F00F0142EA01216162102102F078FC09
:100E400084ED0D0A0C21F0EE480AB0EE680A6069E4
:100E500002F06EFC84ED110A0C21F3EE020ABBEEE7
:100E6000020A606A02F064FC84ED150A94F86800D6
:100E7000A5F87800D4ED0D0AC5ED1F0AD4ED110ACE
:100E8000C5ED210A85ED200A94F8680013283FD1AA
:100E9000B4F86900F2EE090A40BAA06094F86B1049
:100EA000BAEE090A0A0194F86C1042EA1112A26122
:100EB00094F86D2001F00F0142EA0121A162102196
:100EC00002F036FC84ED0E0A0C21F0EE480AB0EE7A
:100ED000680AA06902F02CFC84ED120A0C2100E0E3
:100EE0005CE0F3EE020ABBEE020AA06A02F020FC0C
:100EF00084ED160A94F86800A5F8C800D4ED0E0A2F
:100F0000C5ED330AD4ED120AC5ED350A85ED340A74
:100F100094F8680014283DD1B4F86900F2EE090A8B
:100F200040BAE06094F86B10BAEE090A0A0194F82E
:100F30006C1042EA1112E26194F86D2001F00F0189
:100F400042EA0121E162102102F0F2FB84ED0F0A76
:100F50000C21F0EE480AB0EE680AE06902F0E8FB06
:100F600084ED130A0C21F3EE020ABBEE020AE06ADA
:100F700002F0DEFB84ED170A94F86800A5F818016A
:100F8000D4ED0F0AC5ED470AD4ED130AC5ED490AA1
:100F900085ED480A02213046FFF785FB334930686A
:100FA000884254D12F4B0021F43303F1080230461C
:100FB000FFF777FC00284AD12A4A8C3292F8680061
:100FC00001283CD1B2F86900F2EE090A40BA10607B
:100FD00092F86B10BAEE090A0B0192F86C1043EA12
:100FE0001113136192F86D3001F00F0143EA0121F2
:100FF0001162102102F09CFB82ED0C0A0C21F0EE34
:10100000480AB0EE680A106902F092FB82ED100AFD
:101010000C21F3EE020ABBEE020A106A02F088FB12
:1010200082ED140A92F868002885D2ED0C0AC5ED0D
:101030000B0AD2ED100AC5ED0D0A85ED0C0A3046FB
:10104000BDEC028B0221BDE87040FFF72CBBBDEC6C
:10105000028B70BD0064004000003442000034C2C6
:1010600028410020EC4200208E0000200068004053
:10107000704770477047000070B5044690F8200034
:10108000012804D0606A40F40020606218E0022069
:1010900084F820002068016821F00101016000F05F
:1010A000F1FA05460EE000BF00F0ECFA401B0A28FA
:1010B00008D9606A40F400306062052084F820009E
:1010C000012070BD20684068C007EDD1606270BD2E
:1010D00070477047704770477047704770472DE9F9
:1010E000F0410446876D00F0CDFA064694F83500CD
:1010F0000025022806D08020606584F83450012045
:10110000BDE8F0812068016821F0160101602068C7
:10111000416921F080014161206C08B9A06C20B1C7
:101120002068016821F0080101602068016821F051
:10113000010101600CE000F0A5FA801B052807D929
:1011400020206065032084F8350084F83450D7E708
:1011500020680068C007EED194F85C103F208840FA
:10116000B860012084F8350084F834500020C7E7C7
:1011700090F83510022903D0802141650120704785
:10118000052180F835100068016821F00101016037
:10119000002070472DE9F84304464FF00009CDF8D0
:1011A000009063484FF41651A56D0068B0FBF1F74D
:1011B0002E6894F85C10082000FA01F131420FD03B
:1011C00021680A6852070BD50A6822F004020A60F7
:1011D00094F85C108840A860606D40F00100606584
:1011E00094F85C104FF0010808FA01F0304208D082
:1011F00021684969090604D5A860606D40F00200C5
:10120000606594F85C1004208840304208D0216862
:101210000968890704D5A860606D40F00400606526
:1012200094F85C1010208840304218D0216809687A
:10123000090714D5A86020680168490304D500682F
:10124000000308D5A16C07E00168C90503D4016853
:1012500021F008010160216C09B12046884794F80B
:101260005C1020208840304231D021680968C906CE
:101270002DD5A86094F8350005282068016806D0AF
:10128000490347D5006800031DD4616C1CE021F0C0
:10129000160101602068416921F080014161206CE4
:1012A00008B9A06C20B12068016821F00801016034
:1012B00094F85C103F208840A86084F8358084F85A
:1012C0003490216D1FE0E16B09B120468847606DC5
:1012D00000282BD0606DC00714D0052084F835009D
:1012E0002068016821F0010101600098401C009015
:1012F000B84203D820680068C007F6D184F835806A
:1013000084F83490E16C002910D001B02046BDE88B
:10131000F04308470168C905D5D4016821F01001E0
:10132000016084F8358084F83490CCE7BDE8F88318
:10133000180000202DE9F041044600F0A3F906460C
:101340005CB1022084F83500002584F83450206810
:10135000016821F0010101600DE00120BDE8F0818C
:1013600000F090F9801B052805D920206065032036
:1013700084F83500F2E720680068C007F0D12268E1
:10138000116820480140D4E901031843D4E9033629
:101390003343184363691843A3691843E369184347
:1013A000236A18430843616A042903D1D4E90B1363
:1013B00019430843106020684069666A20F00701FD
:1013C00030460E43012704280CD1A06A0643E06A88
:1013D00040B12046FFF726F920B14020606584F82F
:1013E0003570BAE7206846612046FFF707F994F8A0
:1013F0005C203F2191408160656584F83570002054
:10140000ACE700003F8010F02DE9F0410446866D06
:1014100090F83400002501280DD0012084F8340014
:1014200094F835700020012F07D084F8340002258D
:101430002846BDE8F0810220FBE7022784F83570DA
:1014400060652046FFF718F994F85C103F2088404B
:10145000B0602068016841F016010160206C20B185
:101460002068016841F0080101602068016841F0CE
:1014700001010160DCE7000070B5044600F002F9EC
:101480000546601C02D004480078044400F0FAF8D5
:10149000401BA042FAD370BD0C0000202DE9F84F8C
:1014A000DFF8ACA10022012403254FF00F090AF157
:1014B000040BAAF1040E00BF0B6804FA02F63340D5
:1014C000B3426ED10F7907F00307012F01D0022F2D
:1014D00016D187684FEA420805FA08FC27EA0C078C
:1014E000D1F80CC00CFA08FC4CEA070CC0F808C094
:1014F0004768B7430E79C6F3001696403E434660F0
:101500000E79F643B6070AD0C6684FEA420C05FAD0
:101510000CF7BE438F6807FA0CF73743C7600E79A4
:1015200006F00306022E10D1D60800EB8608D8F884
:10153000206057074FEAD76C09FA0CF7BE430F69D2
:1015400007FA0CF73743C8F8207006684FEA420CD8
:1015500005FA0CF7BE430F7907F0030707FA0CF7FB
:10156000374307604E6816F4403F6BD0394E3768FA
:1015700047F480473760366822F0030706F4804658
:101580000096354E07EB060CDCF8086897074FEA23
:10159000177809FA08F7BE43304FB84202D1002746
:1015A0001FE04FE02E4FB84201D1012719E02D4F27
:1015B000B84201D1022714E02B4FB84201D10327D2
:1015C0000FE02A4FB84201D104270AE0284FB84261
:1015D00001D1052705E0274FB84201D1062700E0D9
:1015E000072707FA08F73743CCF80878DAF80060DD
:1015F0005746D1F804C09E435FEACC2C00D51E4369
:101600003E60DBF800605F46D1F804C09E435FEAAD
:101610008C2C00D51E433E60DEF800607746D1F882
:1016200004C09E435FEA8C3C00D51E433E60084FD9
:10163000083F3E68D1F804C09E435FEACC3C00D529
:101640001E433E60521C102AFFF436AFBDE8F88FEF
:10165000083C014044380240003001400000024094
:101660000004024000080240000C0240001002404A
:1016700000140240001802400AB181617047090459
:10168000FBE7000001488068704700000C00002064
:101690000248816802781144816070470C00002084
:1016A0000B4810B5016841F400710160016841F414
:1016B00080610160016841F480710160032000F0E5
:1016C00073F80F2000F006F800F024F8002010BD99
:1016D000003C024070B50D4D04464FF47A712878F5
:1016E000B1FBF0F00A490968B1FBF0F000F040FBF3
:1016F00048B9102C07D200222146501E00F034F8C1
:1017000000206C6070BD012070BD00000C00002046
:10171000180000200C4882B0016841F4804101604B
:10172000006800F4804000900748001F016841F005
:10173000805101600068002200F0805000900F216D
:10174000901E02B000F010B844380240002809DBB7
:1017500000F01F02012191404009800000F1E020CB
:10176000C0F8001170470000F0B40E4B1B680C4627
:10177000C3F30223C3F10705042D00D90425191D65
:10178000072901D2002300E0DB1E012606FA05F13D
:10179000491E214099409E40761E16403143F0BCC0
:1017A00001F065BB0CED00E0064900F00702086897
:1017B0004FF6FF03184040EA0220034A1043086036
:1017C000704700000CED00E00000FA052DE9F0473D
:1017D0000E46050065D0DFF81481D8F80000F7B296
:1017E00000F00F00B04207D288F80070D8F800006F
:1017F00000F00F00B04254D128683D4C810712D54B
:10180000400703D5206840F4E050206028780007A6
:1018100003D5206840F4604020602068A96820F06B
:10182000F000084320602878C0072DD03049686850
:101830000839012812D0022813D0032811D00968D2
:10184000890700292DDA216821F003010143216075
:10185000FFF718FF814641F2883A0EE009688903D4
:10186000EFE709688901ECE7FFF70CFFA0EB09013E
:10187000514502D90320BDE8F0872068696800F06F
:101880000C00B0EB810FEFD1D8F80010404601F00A
:101890000F01B14207D90770006800F00F00B04295
:1018A00001D00120E7E72878400705D52068E968DE
:1018B00020F4E050084320602878000706D520680F
:1018C000296920F4604040EAC100206000F038F847
:1018D0002168084AC1F30311515CC84006490860F9
:1018E00006480068FFF7F6FE0020C4E7003C02400F
:1018F00008380240D43D00081800002010000020E5
:101900000448054900680968044AC1F38221515C12
:10191000C84070471800002008380240E43D000825
:101920000448054900680968044AC1F34231515C22
:10193000C84070471800002008380240E43D000805
:10194000224810B5006810F00C02214815D021493A
:10195000042A11D01D4C241F082A0FD00C2A0CD1A8
:101960002268236802F03F025B0221D52068C0F3A1
:101970008810A0FB010120E0084610BD2268236802
:1019800002F03F025B0205D52068C0F38810A0FB7F
:10199000010104E02168C1F38811A1FB00010023CB
:1019A000FEF7E0FC2168C1F30141491C49000AE04F
:1019B0002168C1F38811A1FB00010023FEF7D2FCCE
:1019C0002168C1F30271B0FBF1F010BD083802408C
:1019D0000024F400001BB7002DE9F84F04007DD06F
:1019E000DFF878B32078ABF10407C007A7F104054E
:1019F00050D0DBF800105846C1F3810101290FD007
:101A00000168C1F38101022902D13968490207D472
:101A10000068C0F38100032809D13868400206D568
:101A20002868800336D560680028D8D032E0606826
:101A3000B0F5803F10D0B0F5A02F286810D020F46A
:101A400080302860286820F4802028606068A0B179
:101A5000FFF718FE06460CE0286840F48030F4E7F3
:101A600040F480202860F7E7FFF70CFE801B642815
:101A700076D828688003F7D50CE0FFF703FE06460A
:101A800005E000BFFFF7FEFD801B6428F0D8286842
:101A90008003F7D42078DFF8C89280074FF0000A5F
:101AA00044D5DBF80010584611F00C0F0FD0016838
:101AB000C1F38101022902D13968490207D50068C2
:101AC000C0F3810003280AD13868400207D428688F
:101AD000800715D5E068012800D111E03AE1E068FF
:101AE000B0B10120C9F80000FFF7CCFD064604E0C4
:101AF000FFF7C8FD801B0228BAD828688007F7D5F1
:101B00002868216920F0F80040EAC10028600DE053
:101B1000C9F800A0FFF7B6FD064604E0FFF7B2FDE6
:101B2000801B02281CD828688007F7D4207800077B
:101B300027D5DFF828828B48616908F16C0881B1EC
:101B400001210160FFF79EFD064604E0FFF79AFDC4
:101B5000801B022804D8D8F800008007F6D510E0D2
:101B600089E0C0F800A0FFF78DFD064605E000BF44
:101B7000FFF788FD801B02287DD8D8F80000800779
:101B8000F6D42078400769D574484FF00008383003
:101B90000068C0000BD471483830016841F08051B2
:101BA000016000684FF0010800F0805000906E4E18
:101BB0003068C00511D4306840F480703060FFF7A1
:101BC00061FD009006E000BFFFF75CFD0099401A40
:101BD000022850D83068C005F6D5604EA068683637
:101BE00001280FD00528306810D020F001003060A7
:101BF000306820F004003060A068B8B1FFF742FD03
:101C000000900FE0306840F00100F4E740F004007D
:101C10003060F7E7FFF736FD0099411A41F288304E
:101C2000814264D830688007F4D50EE0FFF72AFDC2
:101C3000009007E0FFF726FD0099411A41F2883035
:101C4000814254D830688007F4D4B8F1000F05D031
:101C500042483830016821F080510160A069A8B382
:101C6000DBF80010C1F38101022947D00228C9F82E
:101C700060A005D000E03AE0FFF704FD044639E03B
:101C8000FFF700FD064604E0FFF7FCFC801B02287E
:101C90002DD828688001F7D4F4E907010843E168EA
:101CA000324A490802EB0141A26841EA8211084325
:101CB000217C40EA0160217D40EA0170386001200A
:101CC000C9F86000FFF7DEFC044606E044E000BF10
:101CD000FFF7D8FC001B022809D828688001F7D537
:101CE0003AE000BFFFF7CEFC001B022802D9032018
:101CF000BDE8F88F28688001F4D42DE00128F7D0E2
:101D00003868E26900F48001914223D1226A00F030
:101D10003F0191421ED147F6C071626A0140B1EBAA
:101D2000821F17D1A26A4FF0FF3300F4403103EB5A
:101D30005202B1EB024F0DD194F82C2000F07061EB
:101D4000B1EB026F06D194F8301000F0E040B0EB38
:101D5000017F01D00120CBE70020C9E7083802400D
:101D600000004742800E4742007000400000FFFF25
:101D700010B5401EB0F1807F01D3012010BD4FF09F
:101D8000E02460610F21601701F071F80020A0616C
:101D900007202061002010BD70B590F83C20012A7A
:101DA00032D0012480F83C40022280F83D200368B4
:101DB0005A689D6822F070060A6832435A60134BD5
:101DC00002689A4214D0B2F1804F11D0104B9A425F
:101DD0000ED0104B9A420BD00F4B9A4208D00F4BAB
:101DE0009A4205D00E4B9A4202D00E4B9A4204D131
:101DF000496825F080031943916080F83D40002137
:101E000080F83C10084670BD022070BD0000014003
:101E10000004004000080040000C004000040140A5
:101E2000004001400018004010B586B0044614215F
:101E30006846FEF740FB0E492068884215D10D48E0
:101E40000021026842F004020260006800F0040011
:101E500005904FF4007000900220CDE90101CDE91A
:101E6000031069460448FFF719FB06B010BD0000D7
:101E700000040040303802400008024070B50446BB
:101E800090F83C0000260D4601280FD0012084F870
:101E90003C006AB1042A1DD0082A2FD00C2A3FD05A
:101EA0000126002084F83C00304670BD022070BD41
:101EB000206800F033FD2068816941F008018161EC
:101EC0002068816921F004018161206881692A69A3
:101ED000114311E0206800F051FD2068816941F450
:101EE000006181612068816921F4806181612068DD
:101EF00081692A6941EA02218161D2E7206800F004
:101F000073FD2068C16941F00801C1612068C169A1
:101F100021F00401C1612068C1692A69114311E0FF
:101F2000206800F095FD2068C16941F40061C1613D
:101F30002068C16921F48061C1612068C1692A6992
:101F400041EA0221C161ACE710B5040003D094F866
:101F50003D0010B107E0012010BD002084F83C00D6
:101F6000204600F01FF8022084F83D00211D206863
:101F700000F062FC012084F8460084F83E0084F8FA
:101F80003F0084F8400084F8410084F8420084F85F
:101F9000430084F8440084F8450084F83D000020A4
:101FA00010BD000008B500680649884208D10648FF
:101FB000016841F002010160006800F00200009039
:101FC00008BD0000000400404038024010B504463F
:101FD000022249B104290ED0082913D094F84100F7
:101FE000012816D0012010BD94F83E000128F9D137
:101FF00084F83E200FE094F83F000128F2D184F8E5
:102000003F2008E094F840000128EBD184F84020FC
:1020100001E084F841200122206800F071FC16499B
:102020002068164A884201D0904203D1436C43F4A1
:10203000004343642068884213D0B0F1804F10D031
:102040000F4988420DD00F4988420AD00E49884274
:1020500007D0904205D00D49884202D00C498842F1
:1020600004D1816801F00701062903D0016841F01D
:1020700001010160002010BD00000140000401408A
:102080000004004000080040000C004000400140F7
:102090000018004070477047F8B5016804460868AA
:1020A000CA684B6910F00F0F4FF0000559D003F0CC
:1020B000010602F49077374365D0C10705D0D105FA
:1020C00003D5216C41F001012164410705D5D907F1
:1020D00003D0216C41F002012164810705D5D907A5
:1020E00003D0216C41F004012164010707D502F0FF
:1020F0002001314303D0216C41F008012164216C9F
:1021000000293AD0800604D5900602D5204600F07A
:1021100077FD20684069216CC0F38010090700D466
:1021200060B3204600F037FD20684069400621D5A5
:102130002068143050E8001F21F0400140E80012F0
:10214000002AF5D1A06BA8B16C490165A06BFFF71F
:102150000FF8002811D0A06B016D01B0BDE8F04070
:10216000084783060FD593060DD52046BDE8F840F5
:1021700000F046BD2046FFF78EFFF8BD2046FFF772
:102180008AFF2564F8BD266B2023012E79D1C6066F
:1021900077D5D60675D50868486800904869400626
:1021A00040D5A16B086840680004000CEAD0A28DFD
:1021B0008242E7D9E085C869B0F5807F2DD02068DC
:1021C0000C3050E8001F21F4807140E80012002A12
:1021D000F5D12068143050E8001F21F0010140E8DB
:1021E0000012002AF5D12068143050E8001F21F0B9
:1021F000400140E80012002AF5D184F83E30256302
:1022000020680C3050E8001F21F0100140E8001257
:10221000002AF5D1A06BFEF762FFA08DE18D401A78
:1022200081B229E0A08DE18D401A81B2E08D0028B5
:10223000A8D00029A6D020680C3050E8002F22F446
:10224000907240E80026002EF5D12068143050E846
:10225000002F22F0010240E80026002EF5D184F87C
:102260003E30256320680C3050E8002F22F0100229
:1022700040E80023002BF5D12046FFF70BFFF8BD07
:10228000FFE705062BD5150629D594F83D00212832
:10229000F5D1A068B0F5805F01D12069B0B1206AA6
:1022A000411C2162216800784860E08C401E0004D7
:1022B000000CE084E3D12068C16821F08001C16096
:1022C0002068C16841F04001C160D8E7206A0088F9
:1022D000C0F308004860206A801C2062E5E74006E1
:1022E000CDD55006CBD5CA68204622F04002CA6040
:1022F00084F83D3000F0F3F8C1E70000A12A00089F
:1023000070B5040004D094F83D00002510B106E03B
:10231000012070BD84F83C50204600F023F82420B2
:1023200084F83D002068C16821F40051C160204656
:1023300000F0C6FC2068016921F490410161206829
:10234000416921F02A0141612068C16841F40051CE
:10235000C1602564202084F83D0084F83E00002000
:1023600070BD000070B586B0064614216846FEF7C1
:10237000A2F82349306888423FD1224800250168ED
:1023800041F020010160006800F0200005901D4828
:102390001438016841F0040101600068694600F0EA
:1023A00004000590C02000900220CDE90105032023
:1023B0000390082004901448FFF770F8144C134859
:1023C00020608005C4E901054FF48060C4E9035032
:1023D0006561A561E561256220466562FEF7AAFF99
:1023E00008B1FEF75EF9B463002205214720A66319
:1023F000FFF7BAF94720FFF7A9F906B070BD000052
:1024000000140140443802400008024028640240A1
:10241000C003002090F83E30202B0ED159B152B1AC
:1024200090F83C30012B08D0012380F83C30002389
:10243000036300F0CBBC012070470220704700000E
:102440000068224988423FD1214B2248597851B136
:1024500001290DD0022937D11A78104410F8010C47
:102460005A282BD02CE00178A5292DD101215970B3
:102470001849B0F8012019310A80B0F803204A80C9
:10248000B0F805208A80B0F80720CA81B0F809208A
:102490000A82B0F80B204A82B0F80D208A82B0F888
:1024A0000F20CA80B0F811200A81B0F813204A81A9
:1024B000B0F815208A8102215970CDE700205870AC
:1024C00004490548FFF7A6BF70470000001401400B
:1024D0008C000020684200207C0300207047704779
:1024E000FEE700000F4810B50D490160032141606F
:1024F00000214FF410228160C0E903124FF4001252
:102500004261017641768176C17601774177FEF7A7
:102510003AFB002803D0BDE81040FEF7C2B810BD5A
:1025200000640040E40200200F4810B50D4901602E
:102530000321416000214FF410228160C0E90312A1
:102540004FF400124261017641768176C1760177BF
:102550004177FEF718FB002803D0BDE81040FEF7D6
:10256000A0B810BD006800400C030020094808B561
:10257000016841F4800101600068002200F48000DD
:10258000009005213920FFF7EFF8BDE80840392019
:10259000FFF7DCB83038024010B58EB01C220B4972
:1025A0006846FDF756FF0021684600F067FE084CBC
:1025B00006491C2220601C3107A8FDF74AFF0021B4
:1025C00007A800F05BFE60600EB010BD943D0008EF
:1025D0000000002030B587B014216846FDF76BFF7E
:1025E0001D480024016841F004010160016801F008
:1025F00004010591016841F080010160016801F06A
:1026000080010591016841F002010160016801F05B
:1026100002010591016841F00101016000680F4D60
:1026200000F001000590012242F210012846FFF758
:1026300023F8002244F201012846FFF71DF846F274
:10264000110000900120CDE9010469462846039459
:10265000FEF724FF07B030BD3038024000080240CA
:1026600010B58AB0002407941C2168460894FDF731
:1026700022FF1648144901605721C0E9011444F6AD
:102680001F61C0E903148461FFF75EFC08B1FEF727
:1026900008F8079407A90D480894FFF77DFB08B1D7
:1026A000FDF7FFFF6020CDE9000402940C2269468B
:1026B00006480494FFF7E2FB08B1FDF7F2FF034878
:1026C000FFF7B2FB0AB010BD000400403403002045
:1026D0000C4810B50A4901604FF4165141600021C1
:1026E00081600C22C160C0E904128161C161FFF701
:1026F00007FE002803D0BDE81040FDF7D2BF10BD93
:10270000001401407C030020FEE7FEE770B5184B83
:102710000446002001F5007198601960D86004201B
:1027200010EE102A03F11801186101F8602F100A49
:102730004870100C8870100E0D4AC8707832012352
:1027400015460B492046FDF7C0FF00280FD0022395
:102750002A4607492046FDF7B8FF002807D02A4639
:102760002046BDE8704004230149FDF7AEBF70BDAF
:10277000D4420020012000F075FDFBE710B5FEF704
:1027800087FF01F02BFA012803D0BDE8104001F0CB
:10279000B7B910BD30B593B034216846FDF78BFE54
:1027A00014210DA8FDF787FE1D480025016841F0A2
:1027B00080510160006800F0805012901948016853
:1027C00041F4404101600068022400F4404012904E
:1027D00001200090000401908001CDE90640062010
:1027E0000890A820CDE909040B9468460C94FFF7E3
:1027F000F3F808B172B6FEE70DA90F2081E83100A9
:102800004FF4A05010904FF48050119005210DA866
:10281000FEF7DCFF002801D072B6FEE713B030BD32
:1028200040380240007000400248016841F47001E5
:102830000160704788ED00E0F0B50268254C264D38
:10284000264E274F274B4FF0804CA04209D06045C1
:1028500007D0A84205D0B04203D0B84201D0984278
:1028600004D122F0700E4A6842EA0E02A0421BD048
:10287000604519D0A84217D0B04215D0B84213D045
:10288000984211D0184DA8420ED0184DA8420BD036
:10289000174DA84208D0174DA84205D0164DA842A2
:1028A00002D0164DA84203D122F44075CA682A43CB
:1028B0004D6922F080022A4302608A68C2620A6877
:1028C0008262A04201D0984201D1096901630121CD
:1028D0004161F0BD000001400004004000080040DC
:1028E000000C004000040140004001400044014051
:1028F0000048014000180040001C0040002000403B
:1029000010B501F01F030121046A99408C43046251
:10291000016A9A401143016210BD0000F0B5026ADD
:1029200022F001020262036A42688469124E24F0B6
:1029300073050C682C4323F002058B682B430D4D67
:10294000A84201D0B04205D123F00807CB683B4331
:1029500023F00403A84201D0B04205D14D6922F40E
:10296000407215438A692A43426084614968416321
:102970000362F0BD0000014000040140F0B5026AAE
:1029800022F010020262026A436884690D6824F42E
:10299000E64444EA05248D6822F0200242EA05124A
:1029A0000F4D104EA84201D0B04206D1CF6822F0A0
:1029B000800242EA071222F04002A84201D0B0424F
:1029C00007D14D6923F4406343EA85038D6943EAE7
:1029D000850343608461496881630262F0BD000041
:1029E0000000014000040140F0B5026A22F4807248
:1029F0000262026A4368C46922F4007224F073051B
:102A00000C68124E2C438D6842EA05220E4DA842F6
:102A100001D0B04206D1CF6822F4006242EA072218
:102A200022F48062A84201D0B04207D14D6923F45C
:102A3000405343EA05138D6943EA05134360C461BB
:102A40004968C1630262F0BD00000140000401401A
:102A500030B5026A22F480520262046A4268C36995
:102A60000D6823F4E64343EA05238D6824F40054FB
:102A700044EA0534084DA84202D0084DA84204D1CA
:102A80004D6922F4804242EA85124260C36149687E
:102A90000164046230BD00000000014000040140F8
:102AA00010B5806B0021C185C184FFF7F4FA10BD19
:102AB00070B5846B2068406994F83D10C0F3C01075
:102AC0000025212904D118B1E584204600F08AF8B8
:102AD0002068406994F83E10C0F38010222904D188
:102AE00018B1E585204600F056F8206C40F0100043
:102AF00020642046FFF7CFFA70BD10B50146806B09
:102B000009680968C9052FD40021C18501680C3105
:102B100051E8002F22F4807241E80023002BF5D108
:102B20000168143151E8002F22F0010241E800232E
:102B3000002BF5D10168143151E8002F22F040023A
:102B400041E80023002BF5D1202180F83E10016BD5
:102B5000012909D101680C3151E8002F22F010023F
:102B600041E80023002BF5D1016B012902D0FFF7CA
:102B700067FC10BD818DFFF78DFA10BD10B5806B1D
:102B8000016B012902D0FFF7A9FC10BD818D490816
:102B9000FFF780FA10BD01680C3151E8002F22F4D4
:102BA000907241E80023002BF5D10168143151E8FF
:102BB000002F22F0010241E80023002BF5D1016B28
:102BC000012909D101680C3151E8002F22F01002CF
:102BD00041E80023002BF5D1202180F83E10002190
:102BE0000163704701680C3151E8002F22F0C002E8
:102BF00041E80023002BF5D1202180F83D107047DB
:102C000008B590F83E10222901D0022008BD826844
:102C10004FF480539A4201D1016921B1816A9A42ED
:102C20001BD04AB10AE00268816A5268C2F3080206
:102C30000A80816A891C08E0026972B102685268E0
:102C400002F07F020A70816A491C8162C18D491EAF
:102C50000904090CC18503D019E002685268F1E744
:102C60000168CA6822F02002CA600168CA6822F4BA
:102C70008072CA6001684A6922F001024A6120211B
:102C800080F83E10016B012903D0FFF7D9FB00202B
:102C900008BD0021016301680C3151E8002F22F0CA
:102CA000100241E80023002BF5D101680A68D20622
:102CB00002D50A6849680091818DFFF7EBF9E6E7D4
:102CC00070B5044600680169E26821F4405111437F
:102CD00001612169A068E269084361691143084301
:102CE0002168CA6849F20C639A430243CA602068AB
:102CF0004169A26921F44071114341613149206861
:102D0000884202D03049884202D1FEF709FE01E034
:102D1000FEF7F6FDE2690023192164253226B2F59B
:102D2000004F626828D0A0FB0101930F9200FDF7CD
:102D300019FB0146B0FBF5F06FF01802504301EBB0
:102D4000800006EB0010B0FBF5F000F0F002B1FBE4
:102D5000F5F002EB0012B1FBF5F06FF018035843E9
:102D600001EB800006EB0010B0FBF5F000F00F0067
:102D700021681044886070BDA0FB010192185B417E
:102D8000FDF7F0FA0146B0FBF5F00201B1FBF5F0FA
:102D90006FF01803584301EB800006EBC000B0FB56
:102DA000F5F000F0F80002EB4002B1FBF5F05843FB
:102DB00001EB800006EBC000B0FBF5F000F007006F
:102DC000D6E70000001001400014014038B58162D0
:102DD00082850025134604460564222084F83E00BF
:102DE000A26B1C48D063A26B1B481064A26B1B48EB
:102DF000D064A06B0A4605652168A06B091DFEF72B
:102E000003FB206801684068009084F83C5020690A
:102E100048B120680C3050E8001F41F4807140E850
:102E20000012002AF5D12068143050E8001F41F04C
:102E3000010140E80012002AF5D12068143050E862
:102E4000001F41F0400140E80012002AF5D10020A7
:102E500038BD0000FB2A00087D2B0008B12A0008BD
:102E60000148FFF719B900007C030020FEE70907BD
:102E7000090E002804DB00F1E02080F80014704700
:102E800000F00F0000F1E02080F8141D70470000F2
:102E900000F0F8F800F046FC174C04F1500704F17C
:102EA000A00604F1F00500BF00F054F894ED0E0AFE
:102EB000218D1148FFF72AFC0120FEF7DDFA94ED81
:102EC000220AB4F878103846FFF720FC0120FEF7FC
:102ED000D3FA94ED360A03213046FFF717FC0120A0
:102EE000FEF7CAFA94ED4A0A04212846FFF70EFCC1
:102EF0000120FEF7C1FAD7E72841002000B58BB0CA
:102F000000200121CDE90601089100900190029076
:102F100003900590049069460C48FDF73BFC0B4874
:102F2000FEF7AAF802210948FDF7BDFB0E20099023
:102F3000059069460648FDF72DFC0548FEF79CF80C
:102F400002210348FDF7AFFB0BB000BDE4020020F7
:102F50000C03002010B51149DFED110A114C0020BF
:102F600001EB4003B3F90E2000EE102A00EB8002C3
:102F700004EB0212B8EEC00A401CC0B2042880EE76
:102F8000201A82ED0E1AB3F9063000EE103AB8EEB0
:102F9000C00A82ED0F0AE3D310BD00008142002079
:102FA0000000FE4228410020094810B50068C168B1
:102FB00041F01001C1600748074902780448FFF753
:102FC00029FABDE810404FF47A70FEF755BA0000B8
:102FD0007C0300208C00002068420020FEF760FB8C
:102FE000FFF7D8FBFFF7F6FAFFF7C0FAFFF770FB21
:102FF000FFF778FAFFF798FAFFF732FBFFF77EFF4B
:10300000FFF7D2FFFFF7C8FA00F033F9FEE70146F9
:103010000020842900D0C81C70470FB410B5BDF83B
:103020003200169C48B9BDF830100823224602A889
:10303000FDF7BEFA0A20FEF71FFABDF8320001289C
:103040000CD1BDF83000082300F5807081B2224613
:1030500002A8FDF7ADFA0A20FEF70EFABDF832001D
:1030600002280CD1BDF83000082300F5007081B2B1
:10307000224602A8FDF79CFA0A20FEF7FDF910BCD3
:103080005DF814FB2DE9F043704C0122A5B09103CB
:103090002046FEF7F1FA002201212046FEF7ECFA65
:1030A000012251032046FEF7E7FA012210212046B3
:1030B000FEF7E2FA4FF47A70FEF7DEF92022644957
:1030C0006448FDF7C6F9624890F82010614C04F896
:1030D000201F406A60605F48202250305E49804671
:1030E000FDF7B7F95C4D15F8200F84F850006868BB
:1030F000606558482022A03057490646FDF7A9F9D7
:10310000287884F8A0006868C4F8A40051482022F8
:10311000F03051498146FDF79CF9287884F8F00099
:103120006868C4F8F40002226281A4F85A20A4F866
:10313000AA20A4F8FA2001202081A4F85820032016
:10314000A4F8A8000420A4F8F8002022414911A8FE
:10315000FDF77FF920788DF8640060681A903D498A
:10316000282228311BA8FDF774F93C4D402215A9EF
:1031700068461095FDF76DF911AF97E80F00FFF75E
:103180004CFF4FF4FA673846FEF776F920224146A5
:1031900011A8FDF75EF994F850008DF86400606D99
:1031A0001A902C49282278311BA8FDF752F94022A9
:1031B00015A968461095FDF74CF90DF1440898E8FB
:1031C0000F00FFF72AFF3846FEF756F92022314656
:1031D00011A8FDF73EF994F8A0008DF86400D4F82A
:1031E000A4001A901B492822C8311BA8FDF731F909
:1031F000402215A968461095FDF72BF998E80F00B5
:10320000FFF70BFF3846FEF737F92022494611A891
:10321000FDF71FF994F8F0008DF86400D4F8F4007D
:103220001A9028220E491BA8FDF713F9402215A970
:1032300068461095FDF70DF998E80F00FFF7EDFED1
:1032400025B03846BDE8F043FEF716B90008024045
:103250000C03002028410020E4020020840000200C
:103260004042002010B500B9012000F03DFB0020D5
:1032700010BD10B500F05EFB002010BD7FB50D46FF
:1032800004464169B0F9080081B1A16971B1FFF745
:10329000BEFED4E905128DE80700D4E900102B46E4
:1032A000226900F070FC039004B070BDFFF7AFFE20
:1032B00003A9CDE90001208A2B4682B2D4E900108F
:1032C00000F034FC012801D00020EDE70398EBE783
:1032D0002DE9F041184C0F460546E6682068001DB0
:1032E00000F03AFA38B9206890F82C100120884094
:1032F000216981432161681C07D137B12168BDE88C
:10330000F0410E48091D00F06BBA20683544B54203
:103310004560216805D2A06BBDE8F041091D00F0B1
:1033200047BA606B091D00F043FAA06A854200D2DB
:10333000A562BDE8F08100001C000020FC04002014
:103340002DE9F041054600F057FA2E4CA068401CCC
:10335000A06020682C4F10B1606940B32DE025605B
:10336000A068012829D1002606EB860007EB800023
:1033700000F010FA761C072EF6D323488C3000F0AC
:1033800009FA2148A03000F005FA1F48B43000F0D7
:1033900001FA1D48C83000F0FDF91B48DC3000F090
:1033A000F9F919488C3060631430A06305E0206897
:1033B000E96AC06A884200D82560606A401C606281
:1033C000E96A0120226988401043206101EB8100F5
:1033D00007EB8000291D00F003FA00F02DFA606968
:1033E00000280CD02068E96AC06A884207D20749E1
:1033F0004FF080500860BFF34F8FBFF36F8FBDE871
:10340000F08100001C0000202004002004ED00E0FA
:1034100010B5044690F8510058B101280CD002288C
:103420000FD0502080F31188BFF34F8FBFF36F8F01
:10343000FEE7206B00F014FA2046BDE8104000F0D3
:103440000FBA10BD10484FF47051420706D0C01D8E
:103450000D4920F00700411AC1F570510B4A0023B5
:103460000144C2E900030839183A21F0070111604C
:103470004B600B600B1AC0E9001393604FF00040E3
:10348000536050617047000010050020700000205C
:10349000144E154CA6F1C8074FF08058DFF84C9039
:1034A00012E000BF00F0A8F9F068C568281D00F020
:1034B00053F9A068401EA0606068401E606000F084
:1034C000BBF92846FFF7A4FF60680028EAD13868F6
:1034D0000128F9D9C9F80080BFF34F8FBFF36F8F70
:1034E000F2E70000E80400201C00002004ED00E0EA
:1034F0002DE9F0479A46DDE9098481466FF0030320
:10350000206B03EB82021044089E20F00707780727
:1035100007D0502080F31188BFF34F8FBFF36F8F18
:10352000FEE7002561B1002023180A5C83F83420EF
:103530000A5C12B1401C1028F6D384F8435001E015
:1035400084F83450072E00D30626E662C4E91165DC
:10355000201D00F02AF904F1180000F026F924617A
:10356000C6F107006462A061E56484F850505246D9
:103570004946384600F0C0F82060B8F1000F01D08D
:10358000C8F80040BDE8F08730B5114900E01146A9
:103590000A688242FBD34B685C18844203D14068BE
:1035A00018444860084643681C18944209D1084CE6
:1035B000183C2468A24209D052681A4442600A6842
:1035C00012680260814200D0086030BD0460F9E7F3
:1035D000700000200648416B096829B1416BC96839
:1035E000C9684968816270474FF0FF31FAE700000F
:1035F0001C00002008484068401C4FF0500080F339
:10360000118804D0BFF34F8FBFF36F8FFEE7BFF376
:103610004F8FBFF36F8FFEE7780000202DE9F04158
:103620000546002700F0BCF9324E306808B9FFF7B4
:1036300009FF706905424ED1C5B3083568070ED041
:1036400005F00700C0F108000544680707D05020C6
:1036500080F31188BFF34F8FBFF36F8FFEE72DB359
:103660007068854237D82348183001460C6801E05D
:1036700020460C466168A94202D221680029F7D190
:1036800031688C4227D0076821680160606808377C
:10369000411B10290FD96019420708D0502080F330
:1036A0001188BFF34F8FBFF36F8FFEE713E04160C8
:1036B0006560FFF769FF61687068401A7060B26802
:1036C000904200D2B060706901430020C4E900015B
:1036D000F068401CF06000F0F5FA780707D0502041
:1036E00080F31188BFF34F8FBFF36F8FFEE738462B
:1036F000BDE8F0815800002010B5031F4FF0807422
:103700001C601B1F21F001011960191F044B0B6085
:1037100014390A60091F6FF0020244380A6010BDB4
:10372000F53500080C210148FEF750BC3403002099
:1037300001EE100A70EEC00A0120B8EEC11A8840EE
:10374000401E21EE201A00EE900AF8EEE01AC1EEBB
:10375000210A30EE800A7047D0E9013201699A608F
:10376000D0E901235A604A68824201D182684A60E6
:10377000002202610868401E086008687047000067
:10378000034B036003F15400086080201060704711
:103790009000002000F108014FF0FF32C0E9011253
:1037A000C160016100210160704700210161704723
:1037B00030B50B685A1C02D000F1080202E0026921
:1037C00004E02246546825689D42FAD953684B604C
:1037D00099608A60516008610168491C016030BDD0
:1037E00042684A6093688B60936859609160086191
:1037F0000168491C01607047502080F31188BFF3B5
:103800004F8FBFF36F8F0A494868401C48600128FA
:103810000CD10848006810F0FF0F07D0502080F34B
:103820001188BFF34F8FBFF36F8FFEE77047000023
:103830007800002004ED00E00849486828B1401EE7
:10384000486001D180F311887047502080F31188BF
:10385000BFF34F8FBFF36F8FFEE7000078000020AB
:1038600070B500282AD0164DA0F108046068696977
:10387000084207D1502080F31188BFF34F8FBFF368
:103880006F8FFEE722683AB1502080F31188BFF3B2
:103890004F8FBFF36F8FFEE78843606000F080F8C2
:1038A00060686968084468602046FFF76DFE286913
:1038B000401C2861BDE8704000F004BA70BD0000F3
:1038C000580000204FF0E02000210161816105498E
:1038D0004FF47A720968B1FBF2F1491E4161072188
:1038E000016170471800002010B5020014D00F4885
:1038F000006B38B1502080F31188BFF34F8FBFF3B6
:103900006F8FFEE700F04CF800211046FFF7E0FC57
:1039100000F0D8F9002807D105494FF08050086021
:10392000BFF34F8FBFF36F8F10BD00001C0000204E
:1039300004ED00E010B586B00024039405AA04A9A4
:1039400003A80494FFF71CFFDDE903010094CDE90F
:10395000011000230EA11048059A00F014F90F4938
:103960000028C86211D0502080F31188BFF34F8F18
:10397000BFF36F8F4FF0FF30886201204861CC6049
:1039800006B0BDE8104000F041B806B010BD000020
:1039900049444C4500000000913400081C00002000
:1039A0000248016B491C0163704700001C000020A5
:1039B0001448016B11B10121C16170470021C1613F
:1039C0000169B1FA81F1C1F11F0101EB81020E49D8
:1039D00051F822306BB101EB820101F108034A6812
:1039E00052684A609A4201D152684A60D1680160C7
:1039F0007047502080F31188BFF34F8FBFF36F8F54
:103A0000FEE700001C000020200400201CB5374801
:103A10000168374A914207D1502080F31188BFF3E3
:103A20004F8FBFF36F8FFEE700683149491E884210
:103A300007D1502080F31188BFF34F8FBFF36F8FF2
:103A4000FEE72C4908780190FF20087008788DF86F
:103A500000009DF800009DF8002000F0F00090426A
:103A600007D0502080F31188BFF34F8FBFF36F8FC3
:103A7000FEE79DF80000204C00F050002070072069
:103A8000A06005E09DF8002052008DF80020401E47
:103A90009DF800201206F5D4A060032807D050201E
:103AA00080F31188BFF34F8FBFF36F8FFEE74FF4A2
:103AB0004070A060019808700C482030016841F403
:103AC00070010160016841F070410160FFF7FAFE8A
:103AD00000206060FCF7EAFB0848016841F04041C3
:103AE0000160FCF7CFFB00201CBD000000ED00E0F2
:103AF00071C20F4100E400E07800002034EF00E0E4
:103B000010B5502080F31188BFF34F8FBFF36F8F34
:103B100000F072F818B104494FF08050086000209E
:103B200080F3118810BD000004ED00E02DE9FF5F77
:103B30008346DDE90E87994616468A469000FFF7D0
:103B40006DFD05001CD05420FFF768FD040014D063
:103B50000020256384F85100CDE90240CDE90087BB
:103B60004B46324651465846FFF7C2FC2046FFF707
:103B7000E7FB012004B0BDE8F09F2846FFF770FE88
:103B80004FF0FF30F6E7F0B585B0DDE90B640A9D34
:103B9000A6B1DCB1542700972663022684F8516051
:103BA000002604AFCDE90246CDE90057FFF7A0FC9F
:103BB0002046FFF7C5FB049805B0F0BD502080F308
:103BC0001188BFF34F8FBFF36F8FFEE7502080F354
:103BD0001188BFF34F8FBFF36F8FFEE70548416930
:103BE00019B1006B18B10020704701207047022006
:103BF000704700001C0000202DE9F0412F4C0026EA
:103C0000206B28B1A069401CA0613046BDE8F0815E
:103C1000E5686D1CE56013D1606B006838B1502019
:103C200080F31188BFF34F8FBFF36F8FFEE7606B98
:103C3000A16B6163A063206A401C2062FFF7CAFC8D
:103C4000A06ADFF87C80854209D3606B0068A0B170
:103C5000606BC068C7687868854211D2A06220682E
:103C6000C06A00EB800158F82100012800D9012624
:103C7000E0690028C9D00126C7E74FF0FF30EDE723
:103C8000381DFFF769FDB86A18B107F11800FFF792
:103C900063FDF96A0120226988401043206101EB2D
:103CA000810108EB8100391DFFF79AFDF86A216850
:103CB000C96A8842C9D30126C7E700001C0000205A
:103CC000200400202DE9F0472C4D00242746286BC6
:103CD00038B1FFF791FD286B401E2863286B40B177
:103CE00046E0502080F31188BFF34F8FBFF36F8FF2
:103CF000FEE7A968224E0120D1B3A6F1B40980469F
:103D00003068E8B1F068C46804F11800FFF724FDDA
:103D1000201DFFF721FDE06A2A6908FA00F111432E
:103D2000296100EB800109EB8100211DFFF758FD9F
:103D3000E06A2968C96A8842E2D3C5F81C80DFE7D7
:103D40000CB1FFF747FCAC6944B14646FFF754FF9E
:103D500000B1EE61641EF9D10020A861E86938B1B4
:103D60000849012738070860BFF34F8FBFF36F8FF3
:103D7000FFF762FD3846BDE8F08700001C00002018
:103D8000D404002004ED00E04FF04070E1EE100A92
:103D900070470000F43D000875270008000000008F
:103DA0000000000080000000000000000000000093
:103DB000EC3D0008912E0008FDFF0000000000000F
:103DC0008000000000000000000000000006101647
:103DD00000061016000000000000000001020304AD
:103DE00006070809000000000102030441726D5437
:103DF00061736B0064656661756C745461736B000C
:103E0000203E000800000020900000000002000892
:103E1000B03E000890000020D84900001C020008B5
:103E20000000000000000000000000000100000091
:103E300010000000000000000024F400000000005A
:103E40000000000000000000000000000000000072
:103E50000000000000000000000000000000000062
:103E60000000000000000000000000000000000052
:103E70000000000000000000000000000000000042
:103E80000000000000000000000000000000000032
:103E9000000000000000000000000000AAAAAAAA7A
:103EA00000000000FFFFFFFFFFFFFFFC1900000004
:04000005080001C529
:00000001FF
